34100000      081222347623000178                    06248 000000045232 5CELER PAGAMENTOS              Itau Unibanco S.A                       11202202000000000000000                                                                           
34100011C9801040 222347623000178                    06248 000000045232 5CELER PAGAMENTOS                                                                                   00000                                   00000000                     
3410001300001A00000034108131 000000012986 1MICHELE DOS SANTOS PEREIRA    191860              12022020REA000000000000000000000000378400                    00000000000000000000000                    00000000078258897896                     00
3410001300002A00000034107163 000000016426 7AGLAIR SILVA DE SOUZA         192285              12022020REA000000000000000000000000049000                    00000000000000000000000                    00000000079204047704                     00
3410001300003A00000034100762 000000043282 1NELSON LUIZ DE VILLIO         192370              12022020REA000000000000000000000000756800                    00000000000000000000000                    00000000007845912360                     00
3410001300004A00000034109691 000000002566 3CLAUDIA APARECIDA TEIXEIRA ROD191898              12022020REA000000000000000000000000008400                    00000000000000000000000                    00000000000854080421                     00
3410001300005A00000034100393 000000064552 8CARLOS EDUARDO PEREIRA ELETRON191954              12022020REA000000000000000000000000049000                    00000000000000000000000                    00000033100042469230                     00
3410001300006A00000034100059 000000078359 7ADMINISTRADORA DE CARTAO DE TO193261              12022020REA000000000000000000000000378400                    00000000000000000000000                    00000098100071978411                     00
3410001300007A00000034108757 000000029933 7ANDRADE E SANTOS CLINICA ODONT191911              12022020REA000000000000000000000000378400                    00000000000000000000000                    00000025100049402303                     00
3410001300008A00000034101646 000000047209 0LUCIANA SOUSA DE AMARANTE FELI193072              12022020REA000000000000000000000000378400                    00000000000000000000000                    00000002100050501062                     00
3410001300009A00000034100710 000000014358 7ANDERSON RENATO F. DE PAULA CO191797              12022020REA000000000000000000000048904800                    00000000000000000000000                    00000000079841287153                     00
3410001300010A00000034108493 000000040372 2TERESA CRISTINA DOS SANTOS RIB191791              12022020REA000000000000000000000008827400                    00000000000000000000000                    00000000083842523513                     00
3410001300011A00000034106530 000000018212 7MACWELL ANTONIO DE MELO       191899              12022020REA000000000000000000000000008400                    00000000000000000000000                    00000020100048366971                     00
3410001300012A00000034100667 000000016686 2ASSUNCAO SILVA PEREIRA        192507              12022020REA000000000000000000000048904800                    00000000000000000000000                    00000084100019602562                     00
3410001300013A00000034107435 000000000622 1LUCIANA MARIA DA SILVA        192374              12022020REA000000000000000000000000378400                    00000000000000000000000                    00000000066497453830                     00
3410001300014A00000034109686 000000019686 7MARCONES SILVESTRE DE MELO    192642              12022020REA000000000000000000000000008400                    00000000000000000000000                    00000000000443416000                     00
3410001300015A00000034108380 000000027548 0VIVIANE BARROS BARROCA        192272              12022020REA000000000000000000000048904800                    00000000000000000000000                    00000000034473507920                     00
3410001300016A00000034108144 000000022083 0JADAS REIS FILHO              192984              12022020REA000000000000000000000048904800                    00000000000000000000000                    00000000100066345892                     00
3410001300017A00000034106477 000000001025 7WILLY MARTINS                 192096              12022020REA000000000000000000000024452400                    00000000000000000000000                    00000000031813712972                     00
3410001300018A00000034108136 000000017087 8DANIELE DE M S MELO TREINAMENT192255              12022020REA000000000000000000000024452400                    00000000000000000000000                    00000027100021803513                     00
3410001300019A00000034101650 000000043149 5SANTIAGOS BAR E RESTAURANTE LT193190              12022020REA000000000000000000000024452400                    00000000000000000000000                    00000014100078234041                     00
3410001300020A00000034106540 000000012423 4ANTONIO ERAILDO DE SOUSA      192177              12022020REA000000000000000000000024452400                    00000000000000000000000                    00000000085301249010                     00
3410001300021A00000034100560 000000004945 4COLINA CALHAS LTDA            192293              12022020REA000000000000000000000024452400                    00000000000000000000000                    00000063100033262911                     00
3410001300022A00000034104448 000000045029 8EDILSON BATISTA DE SOUZA      191853              12022020REA000000000000000000000024452400                    00000000000000000000000                    00000000004119994430                     00
3410001300023A00000034100080 000000005446 3KARLA APARECIDA FARIA 27845848191895              12022020REA000000000000000000000024452400                    00000000000000000000000                    00000041100031208472                     00
3410001300024A00000034103159 000000006002 3EVANDRO JOSE DE RESENDE       192288              12022020REA000000000000000000000024452400                    00000000000000000000000                    00000000035619913007                     00
3410001300025A00000034109069 000000014300 7ROBERTA MURCIA ANTONIASSI     192875              12022020REA000000000000000000000024452400                    00000000000000000000000                    00000049100077169202                     00
3410001300026A00000034104222 000000005997 6LAZARA BENEDITA SILVEIRA      192964              12022020REA000000000000000000000024452400                    00000000000000000000000                    00000082100029231133                     00
3410001300027A00000034100864 000000010196 9DOUGLAS DA LUZ CARVALHO       192551              12022020REA000000000000000000000024452400                    00000000000000000000000                    00000000067193840150                     00
3410001300028A00000034103754 000000044102 4DAVI COSTA MEDEIROS CONSULTORI193212              12022020REA000000000000000000000024452400                    00000000000000000000000                    00000060100076478312                     00
3410001300029A00000034106948 000000015644 0CAMILA OLIVEIRA XAVIER GANDRA 192708              12022020REA000000000000000000000268976400                    00000000000000000000000                    00000000009784523051                     00
3410001300030A00000034104562 000000048773 8GLEIDSON DOUGLAS LISBOA DE SOU192199              12022020REA000000000000000000000024452400                    00000000000000000000000                    00000058100023464031                     00
3410001300031A00000034108004 000000015567 0JANETE DOS SANTOS SANTIAGO    191792              12022020REA000000000000000000000024452400                    00000000000000000000000                    00000000051526341395                     00
3410001300032A00000034104222 000000005997 6LAZARA BENEDITA SILVEIRA      192359              12022020REA000000000000000000000024452400                    00000000000000000000000                    00000000059845386520                     00
3410001300033A00000034100749 000000013598 4OSEAS SANDOVAL DE OLIVEIRA FIL192408              12022020REA000000000000000000000024452400                    00000000000000000000000                    00000000002571735942                     00
3410001300034A00000034108649 000000004200 2GDF EVENTOS LTDA ME           193132              12022020REA000000000000000000000024452400                    00000000000000000000000                    00000006100093224551                     00
3410001300035A00000034100084 000000015144 8ELETRICMATERIAS ELETRICOS LTDA193110              12022020REA000000000000000000000024452400                    00000000000000000000000                    00000030100061521070                     00
3410001300036A00000034106223 000000018376 2CONSTRULOPES COMERCIO DE MATER191823              12022020REA000000000000000000000024452400                    00000000000000000000000                    00000010100033897330                     00
3410001300037A00000034108789 000000023111 8JK CORRETORA E LOCADORA DE VEI192387              12022020REA000000000000000000000024452400                    00000000000000000000000                    00000047100080648140                     00
3410001300038A00000034104821 000000010432 2PAULO CANDIDO DE SOUZA        192802              12022020REA000000000000000000000024452400                    00000000000000000000000                    00000000068747655070                     00
3410001300039A00000034103893 000000040054 3OSVALDO LOURIANO RODRIGUES 129193179              12022020REA000000000000000000000024452400                    00000000000000000000000                    00000060100021913213                     00
3410001300040A00000034108521 000000023096 4JONATAS DOS SANTOS            192151              12022020REA000000000000000000000024452400                    00000000000000000000000                    00000000020877081263                     00
3410001300041A00000034100215 000000017062 2ERICA FERNANDES PERFUMARIA E B192011              12022020REA000000000000000000000024452400                    00000000000000000000000                    00000000038468586250                     00
3410001300042A00000034103040 000000056748 3ADMAR CLEMENTE DE PAIVA       192753              12022020REA000000000000000000000024452400                    00000000000000000000000                    00000000095607227278                     00
3410001300043A00000034107351 000000001157 7CARLOS ROBERTO DIAS           192868              12022020REA000000000000000000000024452400                    00000000000000000000000                    00000000043672650056                     00
3410001300044A00000034107135 000000003494 5CLEO ALMEIDA FAGUNDES         192438              12022020REA000000000000000000000024452400                    00000000000000000000000                    00000000057866347603                     00
3410001300045A00000034108527 000000011176 2CRISTINA MARIA DE ALENCAR ROCH192998              12022020REA000000000000000000000024452400                    00000000000000000000000                    00000000036300590232                     00
3410001300046A00000034102711 000000006664 3EMERSON ROBERTO LARSEN        192664              12022020REA000000000000000000000024452400                    00000000000000000000000                    00000000094968001738                     00
3410001300047A00000034100355 000000015107 7JAQUELINE MUTOLESE            191989              12022020REA000000000000000000000024452400                    00000000000000000000000                    00000096100095686021                     00
3410001300048A00000034103809 000000034140 1MARCELO FORTE SUMAN           192896              12022020REA000000000000000000000024452400                    00000000000000000000000                    00000077100037734981                     00
3410001300049A00000034101003 000000021326 9ERIKO MICHAEL SHAUERTE        192067              12022020REA000000000000000000000024452400                    00000000000000000000000                    00000000044869965852                     00
3410001300050A00000034103827 000000018411 4AF COMERCIO DE VEICULOS LTDA  193281              12022020REA000000000000000000000024452400                    00000000000000000000000                    00000088100003851150                     00
3410001300051A00000034101640 000000052990 3FRANCISCO DE ASSIS BATISTA DA 193010              12022020REA000000000000000000000024452400                    00000000000000000000000                    00000086100024707171                     00
3410001300052A00000034108943 000000012920 8FELIPE AUGUSTO PEREIRA AMARAL 191980              12022020REA000000000000000000000024452400                    00000000000000000000000                    00000000097663473280                     00
3410001300053A00000034100761 000000013883 3MAURICIO SANTOS               193042              12022020REA000000000000000000000024452400                    00000000000000000000000                    00000000031819785904                     00
3410001300054A00000034107011 000000008564 9SERGIO JORCELIO DE SA TORRES  191914              12022020REA000000000000000000000024452400                    00000000000000000000000                    00000000094194206983                     00
3410001300055A00000034105572 000000022955 6SANTA ISABEL COM DE PRODUTOS Q192090              12022020REA000000000000000000000024452400                    00000000000000000000000                    00000091100049513332                     00
3410001300056A00000034100137 000000018619 3RAFAEL MARTINS RIBEIRO RACOES 193226              12022020REA000000000000000000000024452400                    00000000000000000000000                    00000062100075928441                     00
3410001300057A00000034100501 000000022028 9FRANCIS DIAS BARRETO          193238              12022020REA000000000000000000000024452400                    00000000000000000000000                    00000000093574378270                     00
3410001300058A00000034106492 000000032947 6VIVIANE TAYNARA NASCIMENTO DOS192044              12022020REA000000000000000000000024452400                    00000000000000000000000                    00000000023126801730                     00
3410001300059A00000034104821 000000020362 9SIDNEY FERREIRA               193196              12022020REA000000000000000000000024452400                    00000000000000000000000                    00000000027707514254                     00
3410001300060A00000034104821 000000017597 5LINESIO JOAO MIGUEL           192598              12022020REA000000000000000000000024452400                    00000000000000000000000                    00000000035773106779                     00
3410001300061A00000034100507 000000018638 5ECSSANI FERNANDA SIQUEIRA     192770              12022020REA000000000000000000000024452400                    00000000000000000000000                    00000000071823606083                     00
3410001300062A00000034104821 000000015776 7FELIPE BARRETO                192857              12022020REA000000000000000000000024452400                    00000000000000000000000                    00000000086792586447                     00
3410001300063A00000034104409 000000032647 9ANA MARIA COSTA DE OLIVEIRA   192940              12022020REA000000000000000000000024452400                    00000000000000000000000                    00000000099133975450                     00
3410001300064A00000034107351 000000028697 1JOAO PEDRO LIMA CUNHA         192646              12022020REA000000000000000000000024452400                    00000000000000000000000                    00000000050614497701                     00
3410001300065A00000034104516 000000024480 5R S RIB SILK LTDA             193171              12022020REA000000000000000000000024452400                    00000000000000000000000                    00000000100025114130                     00
3410001300066A00000034103094 000000025022 6VALOR INOVACAO  GESTAO DE NEGO193133              12022020REA000000000000000000000024452400                    00000000000000000000000                    00000060100027638931                     00
3410001300067A00000034109651 000000001848 4SANDRO BARBOT AROSO MAIA      192476              12022020REA000000000000000000000024452400                    00000000000000000000000                    00000000097820704241                     00
3410001300068A00000034107767 000000003341 3LOPES COMERCIO DE VEICULOS LTD192747              12022020REA000000000000000000000024452400                    00000000000000000000000                    00000078100061536522                     00
3410001300069A00000034102902 000000000339 7RESTAURANTE BOA MESA EIRELI   191903              12022020REA000000000000000000000024452400                    00000000000000000000000                    00000015100052759320                     00
3410001300070A00000034107399 000000016889 2APARECIDA LUCELENA SOAVE FALAS192163              12022020REA000000000000000000000024452400                    00000000000000000000000                    00000000094857502429                     00
3410001300071A00000034108665 000000013507 8MARIZA CELENI SUARES          192069              12022020REA000000000000000000000024452400                    00000000000000000000000                    00000000032804014533                     00
3410001300072A00000034104307 000000009436 9NAIANE RODRIGUES DA SILVA     193284              12022020REA000000000000000000000024452400                    00000000000000000000000                    00000000000171062050                     00
3410001300073A00000034101640 000000048969 4JBL CONSULTORIA DE MEIOS DE PA192032              12022020REA000000000000000000000024452400                    00000000000000000000000                    00000073100093372523                     00
3410001300074A00000034109350 000000029693 6ADRIANA LIMA DA SILVA         192617              12022020REA000000000000000000000024452400                    00000000000000000000000                    00000000010992453704                     00
3410001300075A00000034100150 000000022890 6BR3 SERVICOS DE COMUNICACAOLTD192164              12022020REA000000000000000000000024452400                    00000000000000000000000                    00000080100079364280                     00
3410001300076A00000034104298 000000024188 8KATIA VIVIANE SILVA BRAGA DE S193290              12022020REA000000000000000000000024452400                    00000000000000000000000                    00000000003111366200                     00
3410001300077A00000034107364 000000022806 9JUNIO DOS REIS ANACLETO ATAIDE193231              12022020REA000000000000000000000024452400                    00000000000000000000000                    00000000067639508290                     00
3410001300078A00000034108174 000000036144 7MAYCOW EDUARDO DE CASTRO      192115              12022020REA000000000000000000000024452400                    00000000000000000000000                    00000000096813092863                     00
3410001300079A00000034100002 000000035253 2THIAGO MOREIRA ANDRE          193204              12022020REA000000000000000000000024452400                    00000000000000000000000                    00000003424849000180                     00
3410001300080A00000034109048 000000025903 1LEONARDO MATOS ALVES          193070              12022020REA000000000000000000000024452400                    00000000000000000000000                    00000000020382916750                     00
3410001300081A00000034108615 000000099635 5MARIA SALETE GOMES SALES      192834              12022020REA000000000000000000000024452400                    00000000000000000000000                    00000088100061372531                     00
3410001300082A00000034100150 000000022890 6BR3 SERVICOS DE COMUNICACAO LT192700              12022020REA000000000000000000000024452400                    00000000000000000000000                    00000080100079364280                     00
3410001300083A00000034103827 000000055993 5JOANA DARC MASCARENHAS DA SILV192936              12022020REA000000000000000000000024452400                    00000000000000000000000                    00000000019393307938                     00
3410001300084A00000034100002 000000035253 2LUCAS FERREIRA MAGALHAES      192771              12022020REA000000000000000000000024452400                    00000000000000000000000                    00000003424849000180                     00
3410001300085A00000034100264 000000095489 2SPLENDORE BLINDAGEM EIRELI    192772              12022020REA000000000000000000000024452400                    00000000000000000000000                    00000028100038088211                     00
3410001300086A00000034100002 000000035253 2TALITA CANDIDO NAKAMURA 377290192711              12022020REA000000000000000000000024452400                    00000000000000000000000                    00000003424849000180                     00
3410001300087A00000034106396 000000024995 2YGOR VINICIUS BARROS DE MELO N192322              12022020REA000000000000000000000024452400                    00000000000000000000000                    00000000060817467393                     00
3410001300088A00000034100002 000000035253 2EDIMILSON CAMARGO             192194              12022020REA000000000000000000000024452400                    00000000000000000000000                    00000003424849000180                     00
3410001300089A00000034100002 000000035253 2ALEXANDRE RAMOS               192616              12022020REA000000000000000000000024452400                    00000000000000000000000                    00000003424849000180                     00
3410001300090A00000034101657 000000029588 5FABIENE MARIA SANETI          192037              12022020REA000000000000000000000024452400                    00000000000000000000000                    00000000030816287252                     00
3410001300091A00000034101646 000000028331 5MARIA RENATA ROCHA SILVA      192916              12022020REA000000000000000000000024452400                    00000000000000000000000                    00000019100051034731                     00
3410001300092A00000034100002 000000035253 2DONA MOCA COMERCIO DE VARIEDAD192248              12022020REA000000000000000000000024452400                    00000000000000000000000                    00000003424849000180                     00
3410001300093A00000034100002 000000035253 2CLAUDINEI DONIZETE T          192258              12022020REA000000000000000000000024452400                    00000000000000000000000                    00000000033879025061                     00
3410001300094A00000034108174 000000036144 7MAYCOW EDUARDO  DE CASTRO     191795              12022020REA000000000000000000000024452400                    00000000000000000000000                    00000069100059461232                     00
3410001300095A00000034100761 000000013811 4LARISSA FERREIRA DA COSTA43243193275              12022020REA000000000000000000000024452400                    00000000000000000000000                    00000097100008142623                     00
3410001300096A00000034104091 000000000326 1LUIZ REINALDO FERREIRA MAIA   193239              12022020REA000000000000000000000024452400                    00000000000000000000000                    00000000060864386680                     00
3410001300097A00000034106458 000000004080 2S S YAMAGISHI GOLDSCHMIDY     192456              12022020REA000000000000000000000024452400                    00000000000000000000000                    00000041100088304130                     00
3410001300098A00000034101615 000000041390 1DECK LAGO EVENTOS LTDA        192930              12022020REA000000000000000000000024452400                    00000000000000000000000                    00000076100006127251                     00
3410001300099A00000034100167 000000026160 1JEANE MARIA DA SILVA CIANFA   192033              12022020REA000000000000000000000024452400                    00000000000000000000000                    00000000080897663152                     00
3410001300100A00000034102974 000000035415 7ROSEMERY DOS SANTOS REGO COSME192108              12022020REA000000000000000000000024452400                    00000000000000000000000                    00000008100090951412                     00
3410001300101A00000034101644 000000067808 6HERMANO LUIZ LOPES LOURENCO   192375              12022020REA000000000000000000000024452400                    00000000000000000000000                    00000000002155845375                     00
3410001300102A00000034100002 000000035253 2VWJ COMERCIO DE COSMETICO LTDA192983              12022020REA000000000000000000000024452400                    00000000000000000000000                    00000003424849000180                     00
3410001300103A00000034109226 000000004026 0MARIA DE FATIMA PRATES SANTOS 192635              12022020REA000000000000000000000024452400                    00000000000000000000000                    00000093100062072186                     00
3410001300104A00000034100191 000000038971 7CASA DE MOVEIS RUSTICOS UNIAO 192449              12022020REA000000000000000000000024452400                    00000000000000000000000                    00000048100082137642                     00
3410001300105A00000034106939 000000041616 7PATRICK ALAN DURAES SOUTO     192167              12022020REA000000000000000000000268976400                    00000000000000000000000                    00000000006181809740                     00
3410001300106A00000034109226 000000004115 1LUCIA APARECIDA DOS SANTOS CON192091              12022020REA000000000000000000000024452400                    00000000000000000000000                    00000003100031180635                     00
3410001300107A00000034100368 000000017650 9CAFE DAS COISINHAS ARTIGOS DE 192038              12022020REA000000000000000000000024452400                    00000000000000000000000                    00000014100035098332                     00
3410001300108A00000034100654 000000061143 3CLEITON LUCIO ALMEIDA DOS SANT193265              12022020REA000000000000000000000024452400                    00000000000000000000000                    00000000086112484307                     00
3410001300109A00000034106461 000000043416 6JAMELE DE MENEZES DE GOIS     192941              12022020REA000000000000000000000024452400                    00000000000000000000000                    00000000010385277406                     00
3410001300110A00000034100196 000000013151 0PAOLA ROLLO MANSUR FLECHA DE L191981              12022020REA000000000000000000000024452400                    00000000000000000000000                    00000053100009511871                     00
3410001300111A00000034106244 000000025680 3ROGERIO DE ARAUJO ROBERTO     193288              12022020REA000000000000000000000024452400                    00000000000000000000000                    00000000086168591443                     00
3410001300112A00000034109639 000000016124 0JULIANO AUGUSTO LLUIS MENDES  193241              12022020REA000000000000000000000024452400                    00000000000000000000000                    00000000003876590132                     00
3410001300113A00000034108611 000000007295 3MIYUKI ROTISSERIE LTDA ME     192985              12022020REA000000000000000000000024452400                    00000000000000000000000                    00000008100020784840                     00
3410001300114A00000034102974 000000038232 3RAYMUNDO RIBOLLA              192968              12022020REA000000000000000000000024452400                    00000000000000000000000                    00000000094846321738                     00
3410001300115A00000034102974 000000038232 3RAYMUNDO RIBOLLA              191916              12022020REA000000000000000000000024452400                    00000000000000000000000                    00000000094846321738                     00
3410001300116A00000034108955 000000014317 0INGRID VERONESI DE CARVALHO RO192283              12022020REA000000000000000000000024452400                    00000000000000000000000                    00000000048885253741                     00
3410001300117A00000034107146 000000021313 2MARCOS ANTONIO DE SALES CELEST193081              12022020REA000000000000000000000024452400                    00000000000000000000000                    00000000082858728070                     00
3410001300118A00000034101587 000000009427 5GI COMERCIO DE VEICULOS LTDA  192729              12022020REA000000000000000000000024452400                    00000000000000000000000                    00000024100051133211                     00
3410001300119A00000034107153 000000006454 3SUPERMERCADO DA FAMILIA LTDA  192356              12022020REA000000000000000000000024452400                    00000000000000000000000                    00000099720019577650                     00
3410001300120A00000034100792 000000063933 8EDUSA INDUSTRIAL DE ACOS LTDA 192262              12022020REA000000000000000000000024452400                    00000000000000000000000                    00000027100039056576                     00
3410001300121A00000034100614 000000016218 8CRISTIANE RODRIGUES FERREIRA  192704              12022020REA000000000000000000000024452400                    00000000000000000000000                    00000000096692053870                     00
3410001300122A00000034101003 000000082988 2MARCIO MENDONCA SUBRINHO      191917              12022020REA000000000000000000000024452400                    00000000000000000000000                    00000000021863762612                     00
3410001300123A00000034100479 000000072704 2RONALDO CARLOS DOS SANTOS     193117              12022020REA000000000000000000000024452400                    00000000000000000000000                    00000000027130895497                     00
3410001300124A00000034106680 000000015662 4REGINALDO JABALI DA SILVA     192701              12022020REA000000000000000000000024452400                    00000000000000000000000                    00000000086936538819                     00
3410001300125A00000034109383 000000019046 0CLAUDIO LUIZ DUARTE 0310673160192653              12022020REA000000000000000000000024452400                    00000000000000000000000                    00000028100002254592                     00
3410001300126A00000034107221 000000028048 5ELCILENE EVANGELISTA ALBUQUERQ191948              12022020REA000000000000000000000024452400                    00000000000000000000000                    00000000019201827482                     00
3410001300127A00000034102974 000000022043 2LEONARDO DAVID MICHELS        192932              12022020REA000000000000000000000024452400                    00000000000000000000000                    00000076100013369390                     00
3410001300128A00000034101422 000000004451 9RAFAEL RIBEIRO MARCIANO RESTAU192078              12022020REA000000000000000000000024452400                    00000000000000000000000                    00000063100010608991                     00
3410001300129A00000034104453 000000018199 4AVANCE EQUIPAMENTOS E ACESSORI192995              12022020REA000000000000000000000024452400                    00000000000000000000000                    00000069100063719622                     00
3410001300130A00000034104453 000000022550 2AVANTEC SERVICOS E COMERCIO LT192976              12022020REA000000000000000000000024452400                    00000000000000000000000                    00000053100007961682                     00
3410001300131A00000034100066 000000036043 9CENTRO BRASILEIRO DE UROLOGIA 192525              12022020REA000000000000000000000024452400                    00000000000000000000000                    00000054100009484151                     00
3410001300132A00000034104453 000000012173 5AVANCAR CURSOS DE CAPACITACAO 193000              12022020REA000000000000000000000024452400                    00000000000000000000000                    00000094100050396841                     00
3410001300133A00000034107241 000000004033 1AMANDA PAULINA BONARA CAPARROZ192686              12022020REA000000000000000000000024452400                    00000000000000000000000                    00000000061893791254                     00
3410001300134A00000034101681 000000012937 3SOCIEDADE CLUBE SEASON        191798              12022020REA000000000000000000000024452400                    00000000000000000000000                    00000075100068048816                     00
3410001300135A00000034100002 000000035253 2ERIVALDO DOS SANTOS ROCHA     192485              12022020REA000000000000000000000024452400                    00000000000000000000000                    00000007100026453750                     00
3410001300136A00000034104396 000000039520 6TEIXEIRA MOTOS EIRELI         192850              12022020REA000000000000000000000024452400                    00000000000000000000000                    00000010100062681222                     00
3410001300137A00000034100864 000000007114 7ELIANA BEZERRA DE SOUSA FEITOS192730              12022020REA000000000000000000000024452400                    00000000000000000000000                    00000000003117326820                     00
3410001300138A00000034106369 000000037321 9GILBERTO BARRIL DA SILVA      192942              12022020REA000000000000000000000024452400                    00000000000000000000000                    00000017100011494272                     00
3410001300139A00000034100332 000000008778 2MARIA ZELIA TEREZA DE SOUZA   192270              12022020REA000000000000000000000024452400                    00000000000000000000000                    00000009100076156925                     00
3410001300140A00000034100452 000000027015 0MIX REI CONVENIENCIA COMERCIAL191831              12022020REA000000000000000000000024452400                    00000000000000000000000                    00000076100051121003                     00
3410001300141A00000034108271 000000055960 4FRANCISCO EDSON FERREIRA JUNIO192411              12022020REA000000000000000000000024452400                    00000000000000000000000                    00000000002255758679                     00
3410001300142A00000034109179 000000022009 1EDIMILSON DOS SANTOS BARROS   191803              12022020REA000000000000000000000024452400                    00000000000000000000000                    00000000018437853230                     00
3410001300143A00000034101591 000000042414 6ANDRE LUIZ PRECIOZO PIRES     193188              12022020REA000000000000000000000024452400                    00000000000000000000000                    00000000044105871536                     00
3410001300144A00000034100097 000000086255 1GENILSON LOURENCO DE LIMA     191808              12022020REA000000000000000000000024452400                    00000000000000000000000                    00000000067857008842                     00
3410001300145A00000034100045 000000063933 3DOCTORS INDUSTRIA E COMERCIO D192434              12022020REA000000000000000000000024452400                    00000000000000000000000                    00000027100053306132                     00
3410001300146A00000034106083 000000045689 4ERIKA DILLIANY GAYA RABELO DOS191940              12022020REA000000000000000000000024452400                    00000000000000000000000                    00000000002209807719                     00
3410001300147A00000034100002 000000035253 2A  G COSMETICOS LTDA          193198              12022020REA000000000000000000000024452400                    00000000000000000000000                    00000003424849000180                     00
3410001300148A00000034107410 000000017050 5FA ARAUJO LIMA FUNILARIA E PIN193234              12022020REA000000000000000000000024452400                    00000000000000000000000                    00000004100048333811                     00
3410001300149A00000034100002 000000035253 2CLEBER PEDROSO VIANA 383094848192339              12022020REA000000000000000000000024452400                    00000000000000000000000                    00000003424849000180                     00
3410001300150A00000034108015 000000003920 2MALHARIA TOQUE FINAL LTDA     192065              12022020REA000000000000000000000024452400                    00000000000000000000000                    00000000100013209500                     00
3410001300151A00000034108015 000000003977 2ERICA JAQUELINE DOS SANTOS    192511              12022020REA000000000000000000000024452400                    00000000000000000000000                    00000020100088760040                     00
3410001300152A00000034108015 000000003912 9INDUSTRIA E COMERCIO DE MALHAS192637              12022020REA000000000000000000000024452400                    00000000000000000000000                    00000057100036866683                     00
3410001300153A00000034105643 000000014898 3SANTOS E PASTORINI CLINICA VET192087              12022020REA000000000000000000000024452400                    00000000000000000000000                    00000081100034163613                     00
3410001300154A00000034100002 000000035253 2ROSINEIDE JACOME BISPO        192826              12022020REA000000000000000000000024452400                    00000000000000000000000                    00000000001438606060                     00
3410001300155A00000034101646 000000032444 0COMERCIAL J AQUINO EIRELI     192334              12022020REA000000000000000000000024452400                    00000000000000000000000                    00000003100087392420                     00
3410001300156A00000034101644 000000000050 5AUTO ELETRICA CAMPO LTDA      193045              12022020REA000000000000000000000024452400                    00000000000000000000000                    00000020100062696962                     00
3410001300157A00000034107761 000000004979 5GREGORIO MARTIN LOBATO        192363              12022020REA000000000000000000000024452400                    00000000000000000000000                    00000000006889903390                     00
3410001300158A00000034100002 000000035253 2ALLOR COMERCIO E DISTRIBUICAO 192129              12022020REA000000000000000000000024452400                    00000000000000000000000                    00000003424849000180                     00
3410001300159A00000034100002 000000035253 2COMMIL COMERCIO E SERVICOS LTD192323              12022020REA000000000000000000000024452400                    00000000000000000000000                    00000003424849000180                     00
3410001300160A00000034107915 000000013985 6DIEGO HENRIQUE ARAUJO FERREIRA192996              12022020REA000000000000000000000024452400                    00000000000000000000000                    00000000022132697507                     00
3410001300161A00000034108015 000000007504 0RODOLFO PEREIRA RIBEIRO       193286              12022020REA000000000000000000000024452400                    00000000000000000000000                    00000030100086685771                     00
3410001300162A00000034103010 000000010020 8KONCEPT CAR COMERCIO E SERVICO192621              12022020REA000000000000000000000024452400                    00000000000000000000000                    00000041100017368303                     00
3410001300163A00000034101644 000000006614 2ALCAR VEICULOS LTDA           192600              12022020REA000000000000000000000024452400                    00000000000000000000000                    00000005100081366511                     00
3410001300164A00000034100002 000000035253 2MICHELLE PEREIRA RAPINI 216315192935              12022020REA000000000000000000000024452400                    00000000000000000000000                    00000003424849000180                     00
3410001300165A00000034101644 000000005205 0JUAREZ BUENO DA SILVA         192499              12022020REA000000000000000000000024452400                    00000000000000000000000                    00000000078154101971                     00
3410001300166A00000034103033 000000008604 6ROSALIA FERREIRA SOUZA COSTA  193297              12022020REA000000000000000000000024452400                    00000000000000000000000                    00000000086645100914                     00
3410001300167A00000034107957 000000028895 9JACKSON FERREIRA DA SILVA     193106              12022020REA000000000000000000000024452400                    00000000000000000000000                    00000000092145303510                     00
3410001300168A00000034106248 000000038968 3LUCCAS DE SOUZA MELO E SILVA  192858              12022020REA000000000000000000000024452400                    00000000000000000000000                    00000000004802993064                     00
3410001300169A00000034100137 000000076327 2MARIA APARECIDA ALVES DA SILVA192718              12022020REA000000000000000000000024452400                    00000000000000000000000                    00000000080800544950                     00
3410001300170A00000034100002 000000035253 2R MANOSSO COSMETICOS  ME      192876              12022020REA000000000000000000000024452400                    00000000000000000000000                    00000067100069149722                     00
3410001300171A00000034108184 000000014957 6JOAO CORREIA ALVES            192607              12022020REA000000000000000000000024452400                    00000000000000000000000                    00000067100007239920                     00
3410001300172A00000034106248 000000031930 0PAX BR COMERCIO E SERVICOS DE 192698              12022020REA000000000000000000000024452400                    00000000000000000000000                    00000086100053130611                     00
3410001300173A00000034107821 000000002227 9GILMAR MIRANDA DE OLIVEIRA JUN192962              12022020REA000000000000000000000024452400                    00000000000000000000000                    00000000064140795530                     00
3410001300174A00000034105079 000000063494 4AGROPECUARIA BR EIRELI        192487              12022020REA000000000000000000000024452400                    00000000000000000000000                    00000053100013279012                     00
3410001300175A00000034100002 000000035253 2DIEGO RICARDO ZAGO  COSMETICOS192946              12022020REA000000000000000000000024452400                    00000000000000000000000                    00000003424849000180                     00
3410001300176A00000034105346 000000003303 7GUTEMBERGUE MURADA ALVES      192725              12022020REA000000000000000000000024452400                    00000000000000000000000                    00000000002305909764                     00
3410001300177A00000034108148 000000001115 1SANDRA FERNANDES              193235              12022020REA000000000000000000000024452400                    00000000000000000000000                    00000038100038764431                     00
3410001300178A00000034100002 000000035253 2MONICA MARIA LIMA MAIA 6865018192522              12022020REA000000000000000000000024452400                    00000000000000000000000                    00000003424849000180                     00
3410001300179A00000034101514 000000012928 5CLOVIS ROBERTO SAQUELLI       193185              12022020REA000000000000000000000024452400                    00000000000000000000000                    00000000035883571069                     00
3410001300180A00000034100002 000000035253 2PAULO PEREIRA JUNIOR          192837              12022020REA000000000000000000000024452400                    00000000000000000000000                    00000003424849000180                     00
3410001300181A00000034108031 000000009702 8ADAO ROBERTO BERGAMIN ITATIBA 192759              12022020REA000000000000000000000024452400                    00000000000000000000000                    00000029100012223320                     00
3410001300182A00000034108394 000000006376 5GG ELETRO DIESEL LTDA         191908              12022020REA000000000000000000000024452400                    00000000000000000000000                    00000071100046282740                     00
3410001300183A00000034100940 000000037830 0DUSTER COMERCIO DE AUTOPECAS E192036              12022020REA000000000000000000000024452400                    00000000000000000000000                    00000070100059360132                     00
3410001300184A00000034100002 000000035253 2SERGIO LUIZ VOLSKI            192575              12022020REA000000000000000000000024452400                    00000000000000000000000                    00000003424849000180                     00
3410001300185A00000034100204 000000027744 6DEBORAH MACEDO DE SOUZA       193091              12022020REA000000000000000000000024452400                    00000000000000000000000                    00000000000764174400                     00
3410001300186A00000034103768 000000015142 9HILTON PRETE FERNANDES        192640              12022020REA000000000000000000000024452400                    00000000000000000000000                    00000000002852858576                     00
3410001300187A00000034100002 000000035253 2COMERCIAL DE COSMETICOS BELEZA193165              12022020REA000000000000000000000024452400                    00000000000000000000000                    00000003424849000180                     00
3410001300188A00000034101644 000000066493 8GILDOMAR DOS SANTOS           192606              12022020REA000000000000000000000024452400                    00000000000000000000000                    00000000019195302824                     00
3410001300189A00000034100002 000000035253 2ANTONIO CESAR DEZEN 1233154389191901              12022020REA000000000000000000000024452400                    00000000000000000000000                    00000010100099164122                     00
3410001300190A00000034108549 000000005501 3ADRIANA MITIKO HACHIMOTO      193047              12022020REA000000000000000000000024452400                    00000000000000000000000                    00000000041878556371                     00
3410001300191A00000034100002 000000035253 2ALICE MARIA ZANATTA PERBONI   192866              12022020REA000000000000000000000024452400                    00000000000000000000000                    00000003424849000180                     00
3410001300192A00000034100002 000000035253 2N C BATISTA COSMETICOS        192379              12022020REA000000000000000000000024452400                    00000000000000000000000                    00000046100030820102                     00
3410001300193A00000034100454 000000021765 1OLIMPIO AUGUSTO NAVAIS        192332              12022020REA000000000000000000000024452400                    00000000000000000000000                    00000000003657304150                     00
3410001300194A00000034106481 000000000907 1LUCAS DIAS DE SOUZA           192523              12022020REA000000000000000000000024452400                    00000000000000000000000                    00000000075614546510                     00
3410001300195A00000034104417 000000092300 2SOUZA E SOUZA COMERCIO DE MEDI192109              12022020REA000000000000000000000024452400                    00000000000000000000000                    00000012100032967402                     00
3410001300196A00000034105655 000000056595 9LUIZ CARLOS DE ASSIS BEZERRA  192420              12022020REA000000000000000000000024452400                    00000000000000000000000                    00000000086753637028                     00
3410001300197A00000034106004 000000008017 9PAULO ROBERTO RODRIGUES ALVES 192760              12022020REA000000000000000000000024452400                    00000000000000000000000                    00000000091739815831                     00
3410001300198A00000034100002 000000035253 2JR COSMETICOS  E REPRESENTACAO192390              12022020REA000000000000000000000024452400                    00000000000000000000000                    00000003424849000180                     00
3410001300199A00000034100939 000000016870 4FABIANA PEREIRA FELIX FIGUEIRE192861              12022020REA000000000000000000000024452400                    00000000000000000000000                    00000000086181000569                     00
3410001300200A00000034108121 000000013006 9RICARDO MASSATO KOBE KUROKI   193236              12022020REA000000000000000000000024452400                    00000000000000000000000                    00000000003242769821                     00
3410001300201A00000034100263 000000062484 3RAYARA CAROLINE DE SOUZA SANTO192790              12022020REA000000000000000000000024452400                    00000000000000000000000                    00000000005850123253                     00
3410001300202A00000034108131 000000001282 8IRANDUBA FRIGORIFICO DE PESCAD192308              12022020REA000000000000000000000024452400                    00000000000000000000000                    00000050100092980440                     00
3410001300203A00000034100002 000000035253 2NETWORK BEAUTY  FASHION COSMET192471              12022020REA000000000000000000000024452400                    00000000000000000000000                    00000008100094842430                     00
3410001300204A00000034103857 000000057005 9JOAO ANTUNES RIBEIRO JUNIOR   192933              12022020REA000000000000000000000024452400                    00000000000000000000000                    00000092100096018311                     00
3410001300205A00000034107176 000000028550 5CLINICA DE BIOMEDICINA ESTETIC192263              12022020REA000000000000000000000024452400                    00000000000000000000000                    00000017100087838671                     00
3410001300206A00000034103218 000000056644 0VILA DIVANO MOVEIS E DECORACOE192191              12022020REA000000000000000000000024452400                    00000000000000000000000                    00000009100073472372                     00
3410001300207A00000034105245 000000003832 7ALEX SANDRO VALEJO EVES       193019              12022020REA000000000000000000000024452400                    00000000000000000000000                    00000000041107829100                     00
3410001300208A00000034101011 000000011411 1PLANO FUTURO EIRELLI          192540              12022020REA000000000000000000000024452400                    00000000000000000000000                    00000054100098985202                     00
3410001300209A00000034106507 000000011259 4LANCHONETE  CHURRASCO DO MIRIA192791              12022020REA000000000000000000000146714400                    00000000000000000000000                    00000056100096698821                     00
3410001300210A00000034107761 000000015370 4NADIM MOHAMAD MOURAD          191816              12022020REA000000000000000000000024452400                    00000000000000000000000                    00000000047827967493                     00
3410001300211A00000034100479 000000055613 6ELIONORA CHAVES BOUTIQUE E BEM192505              12022020REA000000000000000000000024452400                    00000000000000000000000                    00000097100051954442                     00
3410001300212A00000034105606 000000029019 4ALISSON OLIVEIRA NUNES        192029              12022020REA000000000000000000000024452400                    00000000000000000000000                    00000000051124941827                     00
3410001300213A00000034103212 000000021507 7MILESSIS VIAGENS E TURISMO    191892              12022020REA000000000000000000000024452400                    00000000000000000000000                    00000069100020419810                     00
3410001300214A00000034100772 000000014314 5OZONIOVET COMERCIO C EIRELI  M192586              12022020REA000000000000000000000024452400                    00000000000000000000000                    00000082100029350271                     00
3410001300215A00000034100399 000000036538 6RAIDHO VIAGENS TURISMO        192672              12022020REA000000000000000000000024452400                    00000000000000000000000                    00000046100045312546                     00
3410001300216A00000034102901 000000002840 3ABREUTUR VIAGENS E TURISMO LTD192997              12022020REA000000000000000000000024452400                    00000000000000000000000                    00000006100031799806                     00
3410001300217A00000034100196 000000024494 1AGAXTUR AGENCIA DE VIAGENS E T191929              12022020REA000000000000000000000024452400                    00000000000000000000000                    00000097100069512606                     00
3410001300218A00000034104445 000000026662 2HMV TREINAMENTOS EMPRESARIAL  191866              12022020REA000000000000000000000024452400                    00000000000000000000000                    00000049100009580312                     00
3410001300219A00000034100002 000000035253 2VANESSA MARCHESIN             192667              12022020REA000000000000000000000024452400                    00000000000000000000000                    00000015100092272311                     00
3410001300220A00000034101571 000000022214 8PAULO RIBEIRO DE ALMEIDA      192883              12022020REA000000000000000000000024452400                    00000000000000000000000                    00000000066849421492                     00
3410001300221A00000034107161 000000023659 6JJ1 CALCADOS  EIRELI          192196              12022020REA000000000000000000000220071600                    00000000000000000000000                    00000005100061883803                     00
3410001300222A00000034104442 000000021258 7GOMES SOARES INDUSTRIA E COMER193153              12022020REA000000000000000000000024452400                    00000000000000000000000                    00000024100043545031                     00
3410001300223A00000034108527 000000006728 7ANA EMILIA SILVA              191950              12022020REA000000000000000000000024452400                    00000000000000000000000                    00000000040303682557                     00
3410001300224A00000034104453 000000021503 2CRISTIANO SAVIO FERREIRA DOS S193225              12022020REA000000000000000000000024452400                    00000000000000000000000                    00000000002339590329                     00
3410001300225A00000034100845 000000056802 1ALINE RAQUEL DE SOUZA         192430              12022020REA000000000000000000000024452400                    00000000000000000000000                    00000091100034641662                     00
3410001300226A00000034108770 000000005754 8TATIANA APARECIDA DA SILVA    191858              12022020REA000000000000000000000024452400                    00000000000000000000000                    00000000080805966382                     00
3410001300227A00000034103613 000000000878 2JOAO CARLOS SOUZA DOS SANTOS  193104              12022020REA000000000000000000000024452400                    00000000000000000000000                    00000000031885415540                     00
3410001300228A00000034107767 000000005489 8JUVENAL HOLANDA BRASIL NETO   192709              12022020REA000000000000000000000024452400                    00000000000000000000000                    00000000094345628725                     00
3410001300229A00000034101011 000000013748 4GIOVANA                       192340              12022020REA000000000000000000000024452400                    00000000000000000000000                    00000000088848566715                     00
3410001300230A00000034101640 000000023772 1SCB CREDITO SOCIEDADE DE CREDI192527              12022020REA000000000000000000000024452400                    00000000000000000000000                    00000032100023703480                     00
3410001300231A00000034100560 000000019395 5C N CARDOSO NOGUEIRA MOVEIS   192481              12022020REA000000000000000000000024452400                    00000000000000000000000                    00000057100050597092                     00
3410001300232A00000034100560 000000021707 7T LUIS CARDOSO                192528              12022020REA000000000000000000000024452400                    00000000000000000000000                    00000000100010162492                     00
3410001300233A00000034106572 000000061576 0AFONSO MARIA FERREIRA         192358              12022020REA000000000000000000000024452400                    00000000000000000000000                    00000000094691942335                     00
3410001300234A00000034104453 000000023591 5CRISTIANO SAVIO FERREIRA DOS S193108              12022020REA000000000000000000000024452400                    00000000000000000000000                    00000019100038461492                     00
3410001300235A00000034107853 000000009690 2PANIFICADORA FLOR DA LARANJEIR192218              12022020REA000000000000000000000024452400                    00000000000000000000000                    00000000100068965841                     00
3410001300236A00000034100654 000000049948 2DANIEL BARBOSA SOUSA          192084              12022020REA000000000000000000000024452400                    00000000000000000000000                    00000000034129163310                     00
3410001300237A00000034100560 000000004945 4COLINA CALHAS LTDA            193023              12022020REA000000000000000000000024452400                    00000000000000000000000                    00000063100033262911                     00
3410001300238A00000034108568 000000005241 2ANTONIO CLAUDINELY DOS SANTOS 192713              12022020REA000000000000000000000024452400                    00000000000000000000000                    00000039100056104762                     00
3410001300239A00000034107774 000000020849 5ERICK ALVES MARTINS           192071              12022020REA000000000000000000000024452400                    00000000000000000000000                    00000000049835572453                     00
3410001300240A00000034101678 000000019611 2EDEN ALVES DUARTE             192018              12022020REA000000000000000000000024452400                    00000000000000000000000                    00000000027127294127                     00
3410001300241A00000034102904 000000030518 8HONORATO MOVEIS PLANEJADOS    192237              12022020REA000000000000000000000024452400                    00000000000000000000000                    00000088100040427672                     00
3410001300242A00000034100560 000000047731 7RAFAEL BERROCOSO              192488              12022020REA000000000000000000000024452400                    00000000000000000000000                    00000000076867063543                     00
3410001300243A00000034100690 000000006533 9PONTUL AVIAMENTOS LTDA        193084              12022020REA000000000000000000000024452400                    00000000000000000000000                    00000007100076310881                     00
3410001300244A00000034108031 000000001475 9ANDRADE  ARAUJO PIZZARIA LTDA 192458              12022020REA000000000000000000000024452400                    00000000000000000000000                    00000086100046981579                     00
3410001300245A00000034106419 000000001943 2ROSIVALDO DA SILVA            192035              12022020REA000000000000000000000024452400                    00000000000000000000000                    00000000069829580350                     00
3410001300246A00000034108004 000000015567 0JANETE DOS SANTOS SANTIAGO    191894              12022020REA000000000000000000000024452400                    00000000000000000000000                    00000000051526341395                     00
3410001300247A00000034106477 000000001025 7WILLY MARTINS                 193156              12022020REA000000000000000000000024452400                    00000000000000000000000                    00000000031813712972                     00
3410001300248A00000034107851 000000019418 8JANAINA OLIVEIRA DE FREITAS   192010              12022020REA000000000000000000000024452400                    00000000000000000000000                    00000042100001215572                     00
3410001300249A00000034103827 000000050092 1TIAGO GARCIA LEMOS            192593              12022020REA000000000000000000000024452400                    00000000000000000000000                    00000000037325983220                     00
3410001300250A00000034100024 000000086621 2ULISSES LAURINDO              192162              12022020REA000000000000000000000024452400                    00000000000000000000000                    00000000050825850290                     00
34100015         000252000000006736009400000000000000000000                                                                                                                                                                                     
34100021C9841040 222347623000178                    06248 000000045232 5CELER PAGAMENTOS                                                                                   00000                                   00000000                     
3410002300001A00000003304455 000013000145 4BELLATRIX SERVICOS DE ALIMENTA191962              12022020REA000000000000000000000002262000                    00000000000000000000000                    00000018100083135302                     00
3410002300002A00000023703739 000000051462 4MUNIRA DA SILVA ZACARIAS      191941              12022020REA000000000000000000000000212000                    00000000000000000000000                    00000000051266360654                     00
3410002300003A00000000101862 000000057047 8FATIMA SANTIAGO DE MELLO OLIVE192688              12022020REA000000000000000000000000027000                    00000000000000000000000                    00000074100011062762                     00
3410002300004A00000010401457 000000049379 1HUDENILSON LIMA OLIVEIRA      193174              12022020REA000000000000000000000000002500                    00000000000000000000000                    00000000043208561474                     00
3410002300005A00000023703053 000000047664 1DANIELE MOURA XAVIER          192361              12022020REA000000000000000000000000046000                    00000000000000000000000                    00000000015235531620                     00
3410002300006A00000023701999 000000052972 9ALAN GUTEMBERGUE DOS SANTOS   192980              12022020REA000000000000000000000000037500                    00000000000000000000000                    00000000086256409825                     00
3410002300007A00000023700320 000000591634 8GUENA SALES DA SILVA VARGAS   193160              12022020REA000000000000000000000021122500                    00000000000000000000000                    00000000051250117119                     00
3410002300008A00000010401549 000000063455 7PRISCILA DE LIMA CATRINCK     193003              12022020REA000000000000000000000000021095                    00000000000000000000000                    00000000094271195197                     00
3410002300009A00000010401548 000000018250 2ANTONIA DE ALBUQUERQUE BRITO  193260              12022020REA000000000000000000000122262000                    00000000000000000000000                    00000000019296579430                     00
3410002300010A00000023705423 000000014748 6MARY ANNE GARCIA FRANCO       193302              12022020REA000000000000000000000000002000                    00000000000000000000000                    00000000027223848847                     00
3410002300011A00000023702130 000000000106 6EDWARD MALTA DE OLIVEIRA      193177              12022020REA000000000000000000000000940975                    00000000000000000000000                    00000000040294973140                     00
3410002300012A00000074800434 000000066833 8SABRINA ALMEIDA DO NASCIMENTO 193082              12022020REA000000000000000000000000946000                    00000000000000000000000                    00000000028002735269                     00
3410002300013A00000000101027 000000000053 1MARIA CELIA SOUSA             192681              12022020REA000000000000000000000000946000                    00000000000000000000000                    00000000000352865040                     00
3410002300014A00000023703157 000000034696 9DIEGO GARCIA DA SILVA         192710              12022020REA000000000000000000000000946000                    00000000000000000000000                    00000071100094045390                     00
3410002300015A00000000105902 000000002189 0BAR E LANCHONETE DO CHOPP EIRE191889              12022020REA000000000000000000000000946000                    00000000000000000000000                    00000036100033452571                     00
3410002300016A00000000109377 000000012680 2BIGATAO e CIA LTDA ME         192160              12022020REA000000000000000000000000946000                    00000000000000000000000                    00000050100065765805                     00
3410002300017A00000023702505 000000025707 9LEGAMO MOVEIS E ELETRODOMESTIC192981              12022020REA000000000000000000000000004000                    00000000000000000000000                    00000007100047966152                     00
3410002300018A00000004100111 000060577530 1ASSISTENCIA TECNICA PAV LTDA  192670              12022020REA000000000000000000000000042000                    00000000000000000000000                    00000081100001673160                     00
3410002300019A00000000101195 000000040736 4ML MODAS COMROUPAS ACES EIRELI193129              12022020REA000000000000000000000244524000                    00000000000000000000000                    00000028464073000153                     00
3410002300020A00000000101612 000000035279 9MAGNO CALIXTO DE PAULA        192580              12022020REA000000000000000000000001806229                    00000000000000000000000                    00000000095308234604                     00
3410002300021A00000075603260 000000009469 2CARINA VASQUES SECHIM         192412              12022020REA000000000000000000000001892000                    00000000000000000000000                    00000000002712587480                     00
3410002300022A00000000104288 000000016304 0VANILSON C SA                 192682              12022020REA000000000000000000000000004000                    00000000000000000000000                    00000084100000512720                     00
3410002300023A00000000104992 000000010339 0CASA NOVA MATERIAIS DE CONSTRU192423              12022020REA000000000000000000000000042000                    00000000000000000000000                    00000093100015162702                     00
3410002300024A00000003303293 000013005972 8MILITZ COMERCIO DE PRODUTOS OR192947              12022020REA000000000000000000000244524000                    00000000000000000000000                    00000056100009111501                     00
3410002300025A00000000104992 000000007433 0MARA REGINA PEREIRA DE SOUZA  193169              12022020REA000000000000000000000000946000                    00000000000000000000000                    00000091100074535821                     00
3410002300026A00000008500101 000000732600 9MAGNUM INSTRUMENTOS MUSICAIS L192825              12022020REA000000000000000000000000946000                    00000000000000000000000                    00000039100079179028                     00
3410002300027A00000004100350 000200701090 1CENTRO TECNICO DE COMUNICACOES192046              12022020REA000000000000000000000000946000                    00000000000000000000000                    00000000100034579600                     00
3410002300028A00000010401033 000023018851 6JEFFERSON BANDEIRA DOS SANTOS 192110              12022020REA000000000000000000000000946000                    00000000000000000000000                    00000000089461284101                     00
3410002300029A00000003304423 000013000353 6EDILENE CRISTINA COUTINHO TAFA192745              12022020REA000000000000000000000122262000                    00000000000000000000000                    00000018100007735021                     00
3410002300030A00000010400353 000000379777 7EXTRATOS HERBIS               191902              12022020REA000000000000000000000021122500                    00000000000000000000000                    00000000005880425002                     00
3410002300031A00000010404668 001300007387 9MARCELO UBIRAJARA FILOCOMO    192782              12022020REA000000000000000000000000037500                    00000000000000000000000                    00000000099870930190                     00
3410002300032A00000023701563 000000570001 9BELOSMAR VILAR DE CARVALHO    192464              12022020REA000000000000000000000000027000                    00000000000000000000000                    00000000086487620815                     00
3410002300033A00000074500000 000000000000 0ESTABELECIMENTO PADRAO AFILIAD192832              12022020REA000000000000000000000000046201                    00000000000000000000000                    00000000070054413702                     00
3410002300034A00000000103145 000000001515 6MARIANA ALVES BRAGANCA        192566              12022020REA000000000000000000000000002500                    00000000000000000000000                    00000000048813118244                     00
3410002300035A00000023705247 000000043900 2RONY LOPES DA COSTA           192506              12022020REA000000000000000000000000212000                    00000000000000000000000                    00000000022192834020                     00
3410002300036A00000010400898 000000002712 8ADMINISTRADORA DE SERVICOS DE 192324              12022020REA000000000000000000000002262000                    00000000000000000000000                    00000053100027867603                     00
3410002300037A00000010403252 001300019415 9JEFFERSON PRADO SOARES        191834              12022020REA000000000000000000000000946000                    00000000000000000000000                    00000000019129838509                     00
3410002300038A00000003303041 000013008001 9APM EMPREENDIMENTOS DE CARTAO 192904              12022020REA000000000000000000000000002000                    00000000000000000000000                    00000088100083191803                     00
3410002300039A00000000103058 000000040336 9JOSE REINALDO PEREIRA         192557              12022020REA000000000000000000000122262000                    00000000000000000000000                    00000000051089229143                     00
3410002300040A00000010402205 000000019260 2ERIC CARDOSO FERNANDES SILVA  192189              12022020REA000000000000000000000000946000                    00000000000000000000000                    00000000035128270718                     00
3410002300041A00000010404551 001300007769 0ANTONIO WANDERSON MOREIRA     192938              12022020REA000000000000000000000000946000                    00000000000000000000000                    00000000048385841210                     00
3410002300042A00000023700023 000000253043 0LUCIA HELENA VICENTE PENEDO   193092              12022020REA000000000000000000000000002000                    00000000000000000000000                    00000078100019780462                     00
3410002300043A00000008500101 000000679040 2SALVA MED EMERGENCIAS MEDICAS 192909              12022020REA000000000000000000000000021000                    00000000000000000000000                    00000084100071549040                     00
3410002300044A00000010400740 001300030577 0SILVANA HELENA GUERREIRO MARIA192397              12022020REA000000000000000000000000002000                    00000000000000000000000                    00000000037881725842                     00
3410002300045A00000023700288 000001008628 0ALAN CLAUDIO DE OLIVEIRA MOURA192524              12022020REA000000000000000000000000004250                    00000000000000000000000                    00000000068386501340                     00
3410002300046A00000000103036 000000029993 6ANTONIO MARCOS PEREIRA GLAGAU 191912              12022020REA000000000000000000000122262000                    00000000000000000000000                    00000000035193755089                     00
3410002300047A00000003304172 000001038561 0FRANCISCO EDUARDO DE SOUSA DOS193247              12022020REA000000000000000000000000946197                    00000000000000000000000                    00000000082331040516                     00
3410002300048A00000010400036 001300074869 0MARIA DA CONCEICAO PEREIRA SIL192176              12022020REA000000000000000000000000946000                    00000000000000000000000                    00000000000416608469                     00
3410002300049A00000010401653 001300147662 4PAULO CESAR SOARES DE ALMEIDA 192407              12022020REA000000000000000000000000946000                    00000000000000000000000                    00000000048871490770                     00
3410002300050A00000004100790 000068513620 2MALLET LANCHERIA E CAFE LTDA. 191994              12022020REA000000000000000000000000002349                    00000000000000000000000                    00000076100066731900                     00
3410002300051A00000023700023 000000253043 0J C ZANI CONFECCOES EIRELI    193130              12022020REA000000000000000000000000021000                    00000000000000000000000                    00000017276511000133                     00
3410002300052A00000023700064 000000307791 8DAIANE IRIS DE SOUZA          192352              12022020REA000000000000000000000122262000                    00000000000000000000000                    00000000062840497573                     00
3410002300053A00000023700023 000000253043 0J C ZANI CONFECCOES EIRELI    192783              12022020REA000000000000000000000122262094                    00000000000000000000000                    00000024200058418421                     00
3410002300054A00000023700023 000000253043 0J C ZANI CONFECCOES EIRELI    192410              12022020REA000000000000000000000122262000                    00000000000000000000000                    00000032300058418421                     00
3410002300055A00000023700023 000000253043 0D D PALMEIRA CONFECCOES EIRELI192030              12022020REA000000000000000000000122262000                    00000000000000000000000                    00000017276511000133                     00
3410002300056A00000023700023 000000253043 0D D PALMEIRA CONFECCOES       193299              12022020REA000000000000000000000122262000                    00000000000000000000000                    00000017276511000133                     00
3410002300057A00000026000001 000001960141 6LUCAS RIBEIRO ALONSO FAUSTINO 192597              12022020REA000000000000000000000000946000                    00000000000000000000000                    00000000031168631130                     00
3410002300058A00000003304458 000013001557 1ESCOLA INFANCIA FELIZ LDTA-ME 192489              12022020REA000000000000000000000000827200                    00000000000000000000000                    00000060100094330170                     00
3410002300059A00000023700681 000000008519 7LOIDEMAR DUARTE - ME          192658              12022020REA000000000000000000000000002000                    00000000000000000000000                    00000087100096074120                     00
3410002300060A00000000103022 000000041480 8AFRODITE LESSA PINHEIRO       191799              12022020REA000000000000000000000000021000                    00000000000000000000000                    00000000002291272063                     00
3410002300061A00000010400539 001300002966 4ERINALDO GUEDES DA SILVA      192550              12022020REA000000000000000000000122262000                    00000000000000000000000                    00000000002426945508                     00
3410002300062A00000000100716 000000067137 1MABEL INSTRUMENTOS MUSICAIS EI192820              12022020REA000000000000000000000000955900                    00000000000000000000000                    00000060100010240313                     00
3410002300063A00000023701849 000000007528 0RENATA DEFENDI                193083              12022020REA000000000000000000000000027000                    00000000000000000000000                    00000000006101820130                     00
3410002300064A00000010404689 001300006559 5MARIA DARLENE SANTOS DE SOUSA 191925              12022020REA000000000000000000000000122500                    00000000000000000000000                    00000000080334181410                     00
3410002300065A00000010402008 001300086335 2MARIA VERA LUCIA F FERREIRA   193048              12022020REA000000000000000000000000046000                    00000000000000000000000                    00000000002421267900                     00
3410002300066A00000000106993 000000018433 0ELTON RAMOS DA SILVA          192433              12022020REA000000000000000000000000002500                    00000000000000000000000                    00000000019194328099                     00
3410002300067A00000004100150 000190261050 8FERRAGEM ROTHER HERZOG LTDA.  192794              12022020REA000000000000000000000000212000                    00000000000000000000000                    00000016100016106778                     00
3410002300068A00000023700023 000000253043 0A DE ALMEIDA SILVA  CIA LTDA  192954              12022020REA000000000000000000000002262000                    00000000000000000000000                    00000099100081559103                     00
3410002300069A00000023700073 000000602778 4NILSON DAMIAO DEMENCIANO JUNIO191852              12022020REA000000000000000000000000946000                    00000000000000000000000                    00000000065187468820                     00
3410002300070A00000000102870 000000003230 1TEONIO VIEIRA PINTO FILHO     192520              12022020REA000000000000000000000000940100                    00000000000000000000000                    00000081100033809380                     00
3410002300071A00000010401958 000300000614 5COMERCIAL CASA SAO PAULO LTDA 191890              12022020REA000000000000000000000000837100                    00000000000000000000000                    00000055100043494220                     00
3410002300072A00000003304422 000001054910 4RENATA ROBERTA ALVES MARCHIONI192244              12022020REA000000000000000000000000002000                    00000000000000000000000                    00000000006859529741                     00
3410002300073A00000000101246 000000069168 2VM COMPONENTES ELETRONICOS EIR192714              12022020REA000000000000000000000122262000                    00000000000000000000000                    00000005100042558091                     00
3410002300074A00000000103140 000000037625 6MARTA  JUSSARA DE MOURA       191944              12022020REA000000000000000000000000946000                    00000000000000000000000                    00000000000351469826                     00
3410002300075A00000003304172 000013001612 6SIDNALDO RICARDO DE SOUZA     191897              12022020REA000000000000000000000000946000                    00000000000000000000000                    00000005100003908241                     00
3410002300076A00000000400221 000000005053 1FRANCINEUMA COSTA ALVES       192453              12022020REA000000000000000000000000946000                    00000000000000000000000                    00000000078327706861                     00
3410002300077A00000000106864 000000012148 7W WANDER MARTINS ME           193186              12022020REA000000000000000000000122262000                    00000000000000000000000                    00000074100023962671                     00
3410002300078A00000000106864 000000198266 4FERNANDA ROSSINI MARTINHO     192839              12022020REA000000000000000000000000002000                    00000000000000000000000                    00000000060830999353                     00
3410002300079A00000023703224 000000009232 0MUCIO RODRIGUES DE OLIVEIRA SO192089              12022020REA000000000000000000000000008400                    00000000000000000000000                    00000069200036811592                     00
3410002300080A00000010401307 001300250042 0RUTH LEA JORGE DA SILVA DUARTE192417              12022020REA000000000000000000000000378400                    00000000000000000000000                    00000000002321337346                     00
3410002300081A00000003301762 000001003432 9EDUARDO SALOMAO POLO          192303              12022020REA000000000000000000000000378400                    00000000000000000000000                    00000000011847128831                     00
3410002300082A00000003300932 000013001473 1ELIAS GOMES DA SILVA          192967              12022020REA000000000000000000000048904800                    00000000000000000000000                    00000069100001897531                     00
3410002300083A00000007700001 000001303337 9CESIO MULLER DE BEM           191982              12022020REA000000000000000000000048904800                    00000000000000000000000                    00000000094015408888                     00
3410002300084A00000074800434 000000050313 4JOSE L S TASCHETO             193076              12022020REA000000000000000000000048904800                    00000000000000000000000                    00000049100051542010                     00
3410002300085A00000003304279 000001003441 3CECILIA CHAGAS SILVA GOUVEIA  193237              12022020REA000000000000000000000024452400                    00000000000000000000000                    00000000078300708146                     00
3410002300086A00000010400118 000000003325 -ADMINISTRADORA DE CARTAO DE DE192100              12022020REA000000000000000000000024452400                    00000000000000000000000                    00000099999999999999                     00
3410002300087A00000010400936 000000003169 4SHOW MUSICA PRODUCOES ARTISTIC191995              12022020REA000000000000000000000024452400                    00000000000000000000000                    00000076100021012451                     00
3410002300088A00000008900001 000000003853 9NATHALIA GARCIA FERREIRA 39153192245              12022020REA000000000000000000000024452400                    00000000000000000000000                    00000020100000762313                     00
3410002300089A00000010404407 000000023767 3ANA CAROLINA LIMA DO NASCIMENT192404              12022020REA000000000000000000000024452400                    00000000000000000000000                    00000000086360644738                     00
3410002300090A00000023701849 000000630115 0DINAMAR VAZ PEREZ DA SILVA    193172              12022020REA000000000000000000000024452400                    00000000000000000000000                    00000000039801312890                     00
3410002300091A00000000104992 000000012698 5ROSILENE ALVES DA SILVA DE OLI193006              12022020REA000000000000000000000024452400                    00000000000000000000000                    00000000094195957818                     00
3410002300092A00000010401108 001300089141 1FERNANDA APARECIDA ROLON DE OL192795              12022020REA000000000000000000000024452400                    00000000000000000000000                    00000000000110253360                     00
3410002300093A00000023707319 000000020634 2VILLELA REIS EIRELI           193085              12022020REA000000000000000000000024452400                    00000000000000000000000                    00000054100095638880                     00
3410002300094A00000000100008 000000000008 7TESTE                         192454              12022020REA000000000000000000000024452400                    00000000000000000000000                    00000000011034646559                     00
3410002300095A00000024800077 000000000077 7WTU                           192019              12022020REA000000000000000000000024452400                    00000000000000000000000                    00000000047015494876                     00
3410002300096A00000010404483 000000000838 1CSS SERVICO E ESQUADRIAS EIREL192154              12022020REA000000000000000000000024452400                    00000000000000000000000                    00000086100007862172                     00
3410002300097A00000003303778 000013001510 2ALEX GREGIO FERNANDES VAZ     192278              12022020REA000000000000000000000024452400                    00000000000000000000000                    00000014100074734942                     00
3410002300098A00000023703238 000000067885 6GLAUCINEIDE SILVA BORGES      192443              12022020REA000000000000000000000024452400                    00000000000000000000000                    00000000094335308108                     00
3410002300099A00000000100799 000000038986 2ALEFE DE SEIXAS PEREIRA       192229              12022020REA000000000000000000000024452400                    00000000000000000000000                    00000000000845568883                     00
3410002300100A00000003303132 000013000951 6L M SERVICOS AUTOMOTIVOS LIMIT192615              12022020REA000000000000000000000024452400                    00000000000000000000000                    00000086100005218370                     00
3410002300101A00000023700374 000000006676 1FERNANDO RODRIGUES DE OLIVEIRA192424              12022020REA000000000000000000000024452400                    00000000000000000000000                    00000000009822145292                     00
3410002300102A00000010401048 000000032380 5ERIDAN GONCALVES DOS SANTOS   191841              12022020REA000000000000000000000024452400                    00000000000000000000000                    00000000040389151318                     00
3410002300103A00000010403966 001300031701 5BRUNO THOMAZ ROCHA PEREIRA    192143              12022020REA000000000000000000000024452400                    00000000000000000000000                    00000000013844948473                     00
3410002300104A00000023701122 000000007550 7VALECOM SOLUCOES EMPRESARIAIS 192066              12022020REA000000000000000000000024452400                    00000000000000000000000                    00000064100099752982                     00
3410002300105A00000010400311 001300031367 2TICIANE LETICIA BELARMINO     192886              12022020REA000000000000000000000024452400                    00000000000000000000000                    00000000072857776683                     00
3410002300106A00000023700023 000000253043 0LUCAS AUGUSTO FERREIRA TERNERO191913              12022020REA000000000000000000000024452400                    00000000000000000000000                    00000011100066504333                     00
3410002300107A00000010400610 001300010983 3DOMINGOS SOUSA                193283              12022020REA000000000000000000000024452400                    00000000000000000000000                    00000000094188257326                     00
3410002300108A00000010400893 001300077097 1WELBERT GILVAN PIMENTA MARQUES192650              12022020REA000000000000000000000024452400                    00000000000000000000000                    00000000087687539850                     00
3410002300109A00000000102916 000000217181 3VANESSA DENIZ FRETES          191951              12022020REA000000000000000000000024452400                    00000000000000000000000                    00000000070199403820                     00
3410002300110A00000000104992 000000008383 6JOSE RAMOS MARTINS            193262              12022020REA000000000000000000000024452400                    00000000000000000000000                    00000000100031867930                     00
3410002300111A00000010401568 001300061307 3SONIA GOULARTE DE REZENDE     192496              12022020REA000000000000000000000024452400                    00000000000000000000000                    00000000041111524300                     00
3410002300112A00000010400324 001300002094 3LUCINEI APARECIDO TOREZIN     192571              12022020REA000000000000000000000024452400                    00000000000000000000000                    00000000052895886202                     00
3410002300113A00000075603125 000002130113 1JOSE ROBERTO DAMAGLIO         192310              12022020REA000000000000000000000024452400                    00000000000000000000000                    00000060100064287981                     00
3410002300114A00000010400944 000000003393 3BARROS E GUIMARAES LTDA       192119              12022020REA000000000000000000000024452400                    00000000000000000000000                    00000039100031513013                     00
3410002300115A00000010403604 000000000785 0JOAO BOSCO FERREIRA DA SILVA F193021              12022020REA000000000000000000000024452400                    00000000000000000000000                    00000008100069111941                     00
3410002300116A00000003301002 000001041941 7RONI PORCELANATO LIQUIDO      192111              12022020REA000000000000000000000024452400                    00000000000000000000000                    00000000043030758095                     00
3410002300117A00000000101835 000000038141 1ISABELY C B DE LIMA  CASA DE F192133              12022020REA000000000000000000000024452400                    00000000000000000000000                    00000089100076494490                     00
3410002300118A00000023702437 000000006614 1MARISA GOMES 11451284837      193069              12022020REA000000000000000000000024452400                    00000000000000000000000                    00000082100067880472                     00
3410002300119A00000010401688 000000002330 1IEG MALHAS EIRELI             193191              12022020REA000000000000000000000024452400                    00000000000000000000000                    00000001100060002922                     00
3410002300120A00000075604310 000002582001 0ROBERTA FLAVIA BARBOSA NOVAES 193053              12022020REA000000000000000000000024452400                    00000000000000000000000                    00000076100045366091                     00
3410002300121A00000010400919 001300043508 0ANTONIO JEFFERSON DE ALMEIDA B192062              12022020REA000000000000000000000024452400                    00000000000000000000000                    00000000003303283869                     00
3410002300122A00000010404070 001300014657 3LUZINETE DE SOUZA SANTOS      192567              12022020REA000000000000000000000024452400                    00000000000000000000000                    00000000092836763272                     00
3410002300123A00000023701849 000000010862 6OGUENEIS ALMEIDA SOLA         192993              12022020REA000000000000000000000024452400                    00000000000000000000000                    00000083100036761002                     00
3410002300124A00000008900012 000001100652 8RAIMUNDO ACILIBIO RABELO DE AS191952              12022020REA000000000000000000000024452400                    00000000000000000000000                    00000000070830438173                     00
3410002300125A00000023700536 000000005773 8RENAN GOMES FERREIRA 455729878192101              12022020REA000000000000000000000024452400                    00000000000000000000000                    00000084100002824603                     00
3410002300126A00000007700001 000002689899 3KELLY CRISTINE ARCANJO DA SILV191794              12022020REA000000000000000000000024452400                    00000000000000000000000                    00000089100040877723                     00
3410002300127A00000023701739 000000003766 4ROSIMARA FRUCHI BARBOSA       192959              12022020REA000000000000000000000024452400                    00000000000000000000000                    00000000054815759731                     00
3410002300128A00000003300113 000001005737 0MARILIA CARVALHO DOS SANTOS   193256              12022020REA000000000000000000000024452400                    00000000000000000000000                    00000000023831367272                     00
3410002300129A00000023700557 000000020490 0DANILO RIBEIRO DA SILVA       192821              12022020REA000000000000000000000024452400                    00000000000000000000000                    00000035100072754042                     00
3410002300130A00000023702280 000000009960 0BEL COMERCIO DE ALIMENTOS LTDA193218              12022020REA000000000000000000000024452400                    00000000000000000000000                    00000074200045241392                     00
3410002300131A00000075603113 000000044702 1MARIA APARECIDO LEITE RODRIGUE193131              12022020REA000000000000000000000024452400                    00000000000000000000000                    00000000027662390144                     00
3410002300132A00000000104341 000000015270 6FLAVIO FERREIRA               192482              12022020REA000000000000000000000024452400                    00000000000000000000000                    00000000036684033920                     00
3410002300133A00000010403507 001300009852 0MICHEL EDUARDO TAVARES        192317              12022020REA000000000000000000000024452400                    00000000000000000000000                    00000000080825405912                     00
3410002300134A00000007700001 000000963491 6TRUE ACAI DISTRIBUICAO LTDA   193032              12022020REA000000000000000000000024452400                    00000000000000000000000                    00000092100008517332                     00
3410002300135A00000010400033 001300028887 1IVO AQUINO DA COSTA           192447              12022020REA000000000000000000000024452400                    00000000000000000000000                    00000000033445274010                     00
3410002300136A00000026000001 000005614607 1JOSE ROGERIO MEIRELES MACEDO  193073              12022020REA000000000000000000000024452400                    00000000000000000000000                    00000000044305848503                     00
3410002300137A00000010402272 001300060505 8JOHNY BRAGA BARRETO           191998              12022020REA000000000000000000000024452400                    00000000000000000000000                    00000000060163406340                     00
3410002300138A00000021200001 000001265787 5BRUNO DANIEL DE LIMA          192161              12022020REA000000000000000000000024452400                    00000000000000000000000                    00000000045850981004                     00
3410002300139A00000023700997 000000030470 0REJANE CLAUDINO MELO          191926              12022020REA000000000000000000000024452400                    00000000000000000000000                    00000000002303065348                     00
3410002300140A00000003301268 000013001326 1TERRAS GOIANAS CLINICA MEDICA 191849              12022020REA000000000000000000000024452400                    00000000000000000000000                    00000080100075569782                     00
3410002300141A00000010401247 001301597716 0RAFAEL DOS REYS SIQUEIRA      192518              12022020REA000000000000000000000024452400                    00000000000000000000000                    00000000011780501811                     00
3410002300142A00000010400118 000000003397 5TERRAS GOIANAS CLINICA MEDICA 192155              12022020REA000000000000000000000024452400                    00000000000000000000000                    00000080100075569782                     00
3410002300143A00000000102253 000000011755 2FERNANDO SAMPAIO FREIRE       191868              12022020REA000000000000000000000024452400                    00000000000000000000000                    00000000046301925300                     00
3410002300144A00000010400118 000000003325 8ADMINISTRADORA DE CARTAO DE DE193049              12022020REA000000000000000000000024452400                    00000000000000000000000                    00000099999999999999                     00
3410002300145A00000023702280 000000009959 7BEL COMERCIO DE ALIMENTOS LTDA191809              12022020REA000000000000000000000024452400                    00000000000000000000000                    00000066100045241392                     00
3410002300146A00000000101218 000000071313 9ELIZANGELA VIEIRA CASTRO      191822              12022020REA000000000000000000000024452400                    00000000000000000000000                    00000000040390831998                     00
3410002300147A00000010402037 000000020343 8GILVAN RODRIGUES SOUZA        192047              12022020REA000000000000000000000024452400                    00000000000000000000000                    00000000082805405552                     00
3410002300148A00000010403464 000000020814 0IRAN PEREIRA GOMES MORAIS     191979              12022020REA000000000000000000000024452400                    00000000000000000000000                    00000000010139119700                     00
3410002300149A00000010402010 001300165520 7MAYARA SOUZA DE LIMA          192619              12022020REA000000000000000000000024452400                    00000000000000000000000                    00000000073432669690                     00
3410002300150A00000010400118 000000003325 8ADMINISTRADORA DE CARTAO DE DE191869              12022020REA000000000000000000000024452400                    00000000000000000000000                    00000025100036505638                     00
3410002300151A00000010400155 001300137594 1ALEKSANDRO MELLO BARRETO      192053              12022020REA000000000000000000000024452400                    00000000000000000000000                    00000000076641893650                     00
3410002300152A00000023703090 000000014499 1AUGUSTUS PASSAGENS E TURISMO  192043              12022020REA000000000000000000000024452400                    00000000000000000000000                    00000020100098326034                     00
3410002300153A00000003300348 000013002558 3WILLIAM GONCALVES 33440372855 192651              12022020REA000000000000000000000024452400                    00000000000000000000000                    00000003100017766322                     00
3410002300154A00000003300680 000001003359 5LUIS HENRIQUE COVOLAN         191874              12022020REA000000000000000000000024452400                    00000000000000000000000                    00000000056892363490                     00
3410002300155A00000010400118 000000003325 8ADMINISTRADORA DE CARTAO DE DE193141              12022020REA000000000000000000000024452400                    00000000000000000000000                    00000001100033602403                     00
3410002300156A00000010404732 000000000188 6RODRIGO HEIDI HAGIO           193113              12022020REA000000000000000000000024452400                    00000000000000000000000                    00000055100061523181                     00
3410002300157A00000008500101 000000880388 9MARIVALDO MARQUES DE OLIVEIRA 191964              12022020REA000000000000000000000024452400                    00000000000000000000000                    00000000003847933701                     00
3410002300158A00000003303051 000001083540 0CLAUDINEI APARECIDO SOARES DA 193115              12022020REA000000000000000000000024452400                    00000000000000000000000                    00000000004872158172                     00
3410002300159A00000010400610 001300110100 3ESTEFFANI RAMOS RIBEIRO       192840              12022020REA000000000000000000000024452400                    00000000000000000000000                    00000000093101540550                     00
