34100000      081222347623000178                    06248 000000045232 5CELER PAGAMENTOS              Itau Unibanco S.A                       12702202000000000000000                                                                           
34100011C9801040 222347623000178                    06248 000000045232 5CELER PAGAMENTOS                                                                                   00000                                   00000000                     
3410001300001A00000034108131 000000001282 8IRANDUBA FRIGORIFICO DE PESCAD203202              27022020REA000000000000000000000000003420                    00000000000000000000000                    00000004408929000105                     00
3410001300002A00000034108789 000000049434 4TABARATO INDUSTRIA E COMERCIO 203527              27022020REA000000000000000000000000013309                    00000000000000000000000                    00000017059837000290                     00
3410001300003A00000034103746 000000000764 4VANTUIL OLIVEIRA LOPES        203027              27022020REA000000000000000000000000071888                    00000000000000000000000                    00000000058193251849                     00
3410001300004A00000034100059 000000078359 7ADMINISTRADORA DE CARTAO DE TO203190              27022020REA000000000000000000000000086931                    00000000000000000000000                    00000011487917000189                     00
3410001300005A00000034108527 000000008961 2VICENTE DE PAULA RODRIGUES DE 203420              27022020REA000000000000000000000000016988                    00000000000000000000000                    00000006262046000165                     00
3410001300006A00000034102746 000000025961 9MARIA APARECIDA LAURINDA DA SI203486              27022020REA000000000000000000000000093893                    00000000000000000000000                    00000020959355000110                     00
3410001300007A00000034102746 000000029168 7CARTAO DE DESCONTOS DE PARNAMI203216              27022020REA000000000000000000000000021223                    00000000000000000000000                    00000031830018000144                     00
3410001300008A00000034108895 000000036292 2AMORSAUDE CLINICA MEDICA E ODO203066              27022020REA000000000000000000000000103907                    00000000000000000000000                    00000030280982000183                     00
3410001300009A00000034100445 000000075637 2SINGULAR CONSULTORIA EM VIAGEN203191              27022020REA000000000000000000000000053586                    00000000000000000000000                    00000029685986000162                     00
3410001300010A00000034107063 000000011769 6MIL HORAS VIAGENS E TURISMO LT203607              27022020REA000000000000000000000000030545                    00000000000000000000000                    00000058088535000146                     00
3410001300011A00000034100771 000000008230 2CLAUDIA REGINA BALDUCCI  TRINU203495              27022020REA000000000000000000000000030246                    00000000000000000000000                    00000024810922000122                     00
3410001300012A00000034100360 000000008748 0FAMILY TOURS SAO PAULO VIAGENS203350              27022020REA000000000000000000000000021299                    00000000000000000000000                    00000006711842000138                     00
3410001300013A00000034100393 000000044460 9TEAM TRAVEL AGENCIA DE VIAGENS203217              27022020REA000000000000000000000000083032                    00000000000000000000000                    00000000165202000193                     00
3410001300014A00000034106238 000000065656 2TOGETHER AGENCIA DE VIAGENS E 203199              27022020REA000000000000000000000000596498                    00000000000000000000000                    00000007678652000129                     00
3410001300015A00000034100252 000000064905 8PAZTUR AGENCIA DE VIAGENS E TU203388              27022020REA000000000000000000000000429454                    00000000000000000000000                    00000004964427000160                     00
3410001300016A0000003419170  00000005854  0J3 VIAGENS E TURISMO LTDA ME  203461              27022020REA000000000000000000000000024910                    00000000000000000000000                    00000022807477000116                     00
3410001300017A00000034108729 000000023207 7CASSIA AGENCIA DE PASSAGENS E 203086              27022020REA000000000000000000000000100056                    00000000000000000000000                    00000058022013000141                     00
3410001300018A00000034100429 000000057981 6AKTUAL VIAG E TURISMO LTDA    203187              27022020REA000000000000000000000000114843                    00000000000000000000000                    00000065422370000162                     00
3410001300019A00000034109643 000000001241 3PATRICK SEMAAN                203266              27022020REA000000000000000000000000090691                    00000000000000000000000                    00000020600790000153                     00
3410001300020A00000034100188 000000067924 5VIRTUAL TRAVEL AGENCIA DE TURI203157              27022020REA000000000000000000000000081228                    00000000000000000000000                    00000005377432000130                     00
3410001300021A00000034101633 000000064800 9CARLAVIEIRA AGENCIA DE VIAGENS203145              27022020REA000000000000000000000000105311                    00000000000000000000000                    00000011768218000107                     00
3410001300022A00000034108848 000000024661 0MARIA CLAUDIA DA SILVA BASTOS 203300              27022020REA000000000000000000000000006399                    00000000000000000000000                    00000026481817000112                     00
3410001300023A00000034100263 000000036196 6CENOG AGENCIA DE VIAGENS E TUR203500              27022020REA000000000000000000000000066820                    00000000000000000000000                    00000015362212000196                     00
3410001300024A00000034100660 000000032270 2TOUR HOUSE VIAGENS E TURISMO L203114              27022020REA000000000000000000000000003293                    00000000000000000000000                    00000064601925000170                     00
3410001300025A00000034107657 000000015933 6NEXUS STUDIO DE VIAGENS E TURI203162              27022020REA000000000000000000000000018179                    00000000000000000000000                    00000008009868000164                     00
3410001300026A00000034108857 000000012607 5AGENCIA JORGE DE TURISMO E PAS203024              27022020REA000000000000000000000000226720                    00000000000000000000000                    00000061489399000100                     00
3410001300027A00000034104807 000000019605 2RB TOUR AGENCIA DE VIAGENS E T203263              27022020REA000000000000000000000000020629                    00000000000000000000000                    00000008538734000130                     00
3410001300028A00000034101640 000000042224 0ADRIANA MONTEIRO DE ALMEIDA ME203355              27022020REA000000000000000000000000035602                    00000000000000000000000                    00000015000319000194                     00
3410001300029A00000034100672 000000008708 7ADMINISTRADORA DE CARTAO DE TO203270              27022020REA000000000000000000000000014565                    00000000000000000000000                    00000025130983000101                     00
3410001300030A00000034108222 000000004469 8SILVIA APARECIDA MICHELAZZO AM203397              27022020REA000000000000000000000000001323                    00000000000000000000000                    00000000087015528800                     00
3410001300031A00000034100215 000000042080 3MARMORARIA TARDOC LTDA ME     203068              27022020REA000000000000000000000000014668                    00000000000000000000000                    00000002968921000178                     00
3410001300032A00000034101587 000000010719 2FRANCISCA MARIA FERREIRA DA SI203368              27022020REA000000000000000000000000025006                    00000000000000000000000                    00000020917157000193                     00
3410001300033A00000034100066 000000004343 1HOSPITAL SANTA PAULA          203348              27022020REA000000000000000000000000243726                    00000000000000000000000                    00000060777901000116                     00
3410001300034A00000034100507 000000029530 1MARCO ANTONIO MIANI           203587              27022020REA000000000000000000000000008870                    00000000000000000000000                    00000000006236131821                     00
3410001300035A00000034108895 000000036284 9AMORSAUDE BETIM CLINICA MEDICA203320              27022020REA000000000000000000000000025934                    00000000000000000000000                    00000030280982000183                     00
3410001300036A00000034103142 000000060595 9AMORSAUDE IBIRITE CLINICA MEDI203551              27022020REA000000000000000000000000013564                    00000000000000000000000                    00000032454844000107                     00
3410001300037A00000034109173 000000005032 0APARECIDO LUCIANO CASTAGNA ME 203417              27022020REA000000000000000000000000075363                    00000000000000000000000                    00000007503635000150                     00
3410001300038A00000034100215 000000033511 8BONFIM E SOUZA COMERCIO DE MAT203038              27022020REA000000000000000000000000067094                    00000000000000000000000                    00000006310047000138                     00
3410001300039A00000034108078 000000024444 2CARTAO DE TODOS DIADEMA LTDA M203028              27022020REA000000000000000000000000002428                    00000000000000000000000                    00000024868160000115                     00
3410001300040A00000034100504 000000020522 0MOVEIS E DECORACAO JW EIRELI  203635              27022020REA000000000000000000000000019290                    00000000000000000000000                    00000032356068000102                     00
3410001300041A00000034109069 000000014300 7ROBERTA MURCIA ANTONIASSI     203035              27022020REA000000000000000000000000054152                    00000000000000000000000                    00000020296177000194                     00
3410001300042A00000034103754 000000044102 4DAVI COSTA MEDEIROS CONSULTORI203361              27022020REA000000000000000000000000141276                    00000000000000000000000                    00000021387467000106                     00
3410001300043A00000034107011 000000008564 9SERGIO JORCELIO DE SA TORRES  203025              27022020REA000000000000000000000000079095                    00000000000000000000000                    00000000038960249149                     00
3410001300044A00000034101640 000000048969 4JBL CONSULTORIA DE MEIOS DE PA203168              27022020REA000000000000000000000000002466                    00000000000000000000000                    00000032527339000137                     00
3410001300045A00000034100002 000000035253 2THIAGO MOREIRA ANDRE          203568              27022020REA000000000000000000000000031942                    00000000000000000000000                    00000003424849000180                     00
3410001300046A00000034108615 000000099635 5MARIA SALETE GOMES SALES      203625              27022020REA000000000000000000000000001737                    00000000000000000000000                    00000013527316000188                     00
3410001300047A00000034100002 000000035253 2LUCAS FERREIRA MAGALHAES      203622              27022020REA000000000000000000000000057796                    00000000000000000000000                    00000003424849000180                     00
3410001300048A00000034100002 000000035253 2EDIMILSON CAMARGO             203440              27022020REA000000000000000000000000020756                    00000000000000000000000                    00000003424849000180                     00
3410001300049A00000034100002 000000035253 2ALEXANDRE RAMOS               203496              27022020REA000000000000000000000000062693                    00000000000000000000000                    00000003424849000180                     00
3410001300050A00000034109639 000000016124 0JULIANO AUGUSTO LLUIS MENDES  203345              27022020REA000000000000000000000000009649                    00000000000000000000000                    00000000023109567830                     00
3410001300051A00000034100792 000000063933 8EDUSA INDUSTRIAL DE ACOS LTDA 203309              27022020REA000000000000000000000000059608                    00000000000000000000000                    00000067565093000172                     00
3410001300052A00000034100002 000000035253 2A  G COSMETICOS LTDA          203378              27022020REA000000000000000000000000125789                    00000000000000000000000                    00000003424849000180                     00
3410001300053A00000034100002 000000035253 2CLEBER PEDROSO VIANA 383094848203253              27022020REA000000000000000000000000007084                    00000000000000000000000                    00000003424849000180                     00
3410001300054A00000034100002 000000035253 2ALLOR COMERCIO E DISTRIBUICAO 203538              27022020REA000000000000000000000000032651                    00000000000000000000000                    00000003424849000180                     00
3410001300055A00000034100406 000000006049 1ALLOR COMERCIO E DISTRIBUICAO 203666              27022020REA000000000000000000000000053510                    00000000000000000000000                    00000000952818000104                     00
3410001300056A00000034100002 000000035253 2COMMIL COMERCIO E SERVICOS LTD203074              27022020REA000000000000000000000000160453                    00000000000000000000000                    00000003424849000180                     00
3410001300057A00000034107915 000000013985 6DIEGO HENRIQUE ARAUJO FERREIRA203089              27022020REA000000000000000000000000013126                    00000000000000000000000                    00000000070579623122                     00
3410001300058A00000034100002 000000035253 2MICHELLE PEREIRA RAPINI 216315203359              27022020REA000000000000000000000000009438                    00000000000000000000000                    00000003424849000180                     00
3410001300059A00000034100002 000000035253 2DIEGO RICARDO ZAGO  COSMETICOS203115              27022020REA000000000000000000000000014136                    00000000000000000000000                    00000003424849000180                     00
3410001300060A00000034100002 000000035253 2COMERCIAL DE COSMETICOS BELEZA203172              27022020REA000000000000000000000000046869                    00000000000000000000000                    00000003424849000180                     00
3410001300061A00000034105655 000000056595 9LUIZ CARLOS DE ASSIS BEZERRA  203048              27022020REA000000000000000000000000004709                    00000000000000000000000                    00000000082073635768                     00
3410001300062A00000034100002 000000035253 2NETWORK BEAUTY  FASHION COSMET203590              27022020REA000000000000000000000000024440                    00000000000000000000000                    00000003424849000180                     00
3410001300063A00000034108015 000000004423 6AARAN INDUSTRIA E COMERCIO DE 203491              27022020REA000000000000000000000000050060                    00000000000000000000000                    00000000229392000165                     00
3410001300064A00000034108031 000000009829 9CARIGNATI E LANDI COMERCIAL LT203352              27022020REA000000000000000000000000011250                    00000000000000000000000                    00000003300858000160                     00
3410001300065A00000034107446 000000020536 6EDUARDO AGRIPINO BIAZON       203616              27022020REA000000000000000000000000043375                    00000000000000000000000                    00000005906650000114                     00
3410001300066A00000034106915 000000018144 7MONIQUE EVA MARTINS SIQUEIRA  203040              27022020REA000000000000000000000000025000                    00000000000000000000000                    00000000036076524812                     00
3410001300067A00000034103094 000000019465 5FERNANDA MARQUESINI DE FARIA  203079              27022020REA000000000000000000000000037530                    00000000000000000000000                    00000000042190888816                     00
3410001300068A00000034103005 000000003318 2EDIVALDO RODRIGUES DOS SANTOS 203049              27022020REA000000000000000000000000146917                    00000000000000000000000                    00000000014483706802                     00
3410001300069A00000034101644 000000062360 3V F DOS SANTOS COMERCIO DE MOV203624              27022020REA000000000000000000000000106666                    00000000000000000000000                    00000012258816000107                     00
3410001300070A00000034108394 000000005605 8TABAJARA MATERIAIS PARA CONSTR203620              27022020REA000000000000000000000000023492                    00000000000000000000000                    00000004901881000172                     00
3410001300071A00000034101478 000000026876 4GIL PORTO DE BRITO ME         203467              27022020REA000000000000000000000000021748                    00000000000000000000000                    00000017322294000170                     00
3410001300072A00000034101478 000000061849 7GIL PORTO DE BRITO ME         203671              27022020REA000000000000000000000000047503                    00000000000000000000000                    00000017322294000170                     00
3410001300073A00000034104516 000000030570 5AUTO POSTO MONTREAL VARGAS LTD203673              27022020REA000000000000000000000000004801                    00000000000000000000000                    00000005283897000121                     00
3410001300074A00000034104516 000000030570 5AUTO POSTO MONTREAL VARGAS LTD203672              27022020REA000000000000000000000000015894                    00000000000000000000000                    00000005283897000121                     00
3410001300075A00000034104516 000000030570 5AUTO POSTO MONTREAL VARGAS LTD203674              27022020REA000000000000000000000000016977                    00000000000000000000000                    00000005283897000121                     00
3410001300076A00000034100865 000000013771 5MARCOS ROBERTO FERREIRA BISPO 203405              27022020REA000000000000000000000000310768                    00000000000000000000000                    00000049170780000107                     00
3410001300077A00000034106610 000000022106 8G E DE AZEVEDO  CIA LTDA      203675              27022020REA000000000000000000000000007656                    00000000000000000000000                    00000000488051000104                     00
3410001300078A00000034100077 000000040096 8J DOS SANTOS PEREIRA  MODAS   203441              27022020REA000000000000000000000000053106                    00000000000000000000000                    00000026995735000196                     00
3410001300079A00000034101587 000000058050 5THAIS MARA DA SILVA NOGUEIRA  203463              27022020REA000000000000000000000000002340                    00000000000000000000000                    00000000005882102340                     00
3410001300080A00000034103010 000000003587 5PARTISANS PUB BAR LTDA        203343              27022020REA000000000000000000000000015646                    00000000000000000000000                    00000014147047000197                     00
3410001300081A00000034100668 000000003998 5SANDRA ROSANE PILARSKI        203563              27022020REA000000000000000000000000002352                    00000000000000000000000                    00000000026452399861                     00
3410001300082A00000034108078 000000008555 5PANIFICADORA E CONFEITARIA MIA203584              27022020REA000000000000000000000000200321                    00000000000000000000000                    00000049249600000187                     00
3410001300083A00000034103130 000000051351 2PADARIA RUA DO ROCIO PAES E LA203459              27022020REA000000000000000000000000093217                    00000000000000000000000                    00000027444888000108                     00
3410001300084A00000034103788 000000058820 4TANJI E DARCIE LTDA           203092              27022020REA000000000000000000000000116789                    00000000000000000000000                    00000017084440000177                     00
3410001300085A00000034102974 000000035415 7ROSEMERY DOS SANTOS REGO COSME203103              27022020REA000000000000000000000000058642                    00000000000000000000000                    00000021415909000180                     00
3410001300086A00000034100445 000000011116 4FLAPTUR AGENCIA DE VIAGENS E T203681              27022020REA000000000000000000000000753037                    00000000000000000000000                    00000004003611000144                     00
3410001300087A00000034103827 000000012759 2EVANDRO DE SOUSA BORGES       203448              27022020REA000000000000000000000000125834                    00000000000000000000000                    00000008778057000128                     00
3410001300088A00000034100366 000000035906 5RAIMUNDO FAZ TUDO SERVICOS MEC203371              27022020REA000000000000000000000000001912                    00000000000000000000000                    00000005876008000210                     00
3410001300089A00000034101338 000000060062 8AMANNDA PEIXOTO DO NASCIMENTO 203065              27022020REA000000000000000000000000004788                    00000000000000000000000                    00000000000310113300                     00
3410001300090A00000034104878 000000006012 0JOSE FABIANO FAVERO           203278              27022020REA000000000000000000000000117612                    00000000000000000000000                    00000000008657880733                     00
3410001300091A00000034102977 000000018500 4W S C CONFECCOES LTDA         203541              27022020REA000000000000000000000000006015                    00000000000000000000000                    00000010890478000198                     00
3410001300092A00000034100002 000000035253 2LILIAN REGINA GOMES PASSAGNO D203118              27022020REA000000000000000000000000127712                    00000000000000000000000                    00000005694739000164                     00
3410001300093A00000034107410 000000007320 4MARCELO JORGE MIRANDA         203439              27022020REA000000000000000000000000005830                    00000000000000000000000                    00000000070152063315                     00
3410001300094A00000034100002 000000035253 2LOOK S COMESTICOS LTDA        203554              27022020REA000000000000000000000000304157                    00000000000000000000000                    00000003424849000180                     00
3410001300095A00000034108036 000000011339 0JAIME GUILHERMINO DE SOUZA    203241              27022020REA000000000000000000000000001946                    00000000000000000000000                    00000000013865140807                     00
3410001300096A00000034100187 000000013926 6CRZ COMERCIO E REPRESENTACOES 203468              27022020REA000000000000000000000000823942                    00000000000000000000000                    00000047738604000101                     00
3410001300097A00000034103789 000000047873 6RINALDO PETRONI NETO          203276              27022020REA000000000000000000000000026459                    00000000000000000000000                    00000000004012824813                     00
3410001300098A00000034104285 000000011799 2DIEGO LEITE DE BARROS ASSESSOR203543              27022020REA000000000000000000000000083332                    00000000000000000000000                    00000011316118000140                     00
3410001300099A00000034108217 000000019647 9RAQUEL FARIA SABIONI 277042048203321              27022020REA000000000000000000000000017071                    00000000000000000000000                    00000034178383000104                     00
3410001300100A00000034104414 000000049059 1JUCINALDO SOUZA ROLIM         203375              27022020REA000000000000000000000000021970                    00000000000000000000000                    00000000097188840334                     00
3410001300101A00000034103130 000000066171 7ORIGINAL FOOD HALL LANCHES EIR203141              27022020REA000000000000000000000000004220                    00000000000000000000000                    00000032968102000191                     00
3410001300102A00000034101338 000000002976 0LUCIANO MEDEIROS DE ARAUJO    203096              27022020REA000000000000000000000000003448                    00000000000000000000000                    00000000050080563368                     00
3410001300103A00000034107493 000000031816 1SHEILA NAIANA DE LIRA SOUZA 10203621              27022020REA000000000000000000000000001466                    00000000000000000000000                    00000033864272000199                     00
3410001300104A00000034108031 000000031681 6ANDRE LUIZ HERMENEGILDO ESTAN 203136              27022020REA000000000000000000000000034173                    00000000000000000000000                    00000000029038808836                     00
3410001300105A00000034103839 000000008967 3LABORATORIO DE ANALISES CLINIC203254              27022020REA000000000000000000000000009801                    00000000000000000000000                    00000077811685000180                     00
3410001300106A00000034108205 000000001264 7GERSON COSTA RAMOS            203628              27022020REA000000000000000000000000005374                    00000000000000000000000                    00000000019930247866                     00
3410001300107A00000034106492 000000016570 6IZABEL DE SOUZA SALAZAR FURTAD203339              27022020REA000000000000000000000000003165                    00000000000000000000000                    00000018230240000148                     00
3410001300108A00000034109639 000000000230 3CARLA GROSS                   203475              27022020REA000000000000000000000000018001                    00000000000000000000000                    00000000013208817851                     00
3410001300109A00000034100718 000000003545 4GUNA BARBOSA GUIMARAES        203306              27022020REA000000000000000000000000002163                    00000000000000000000000                    00000000019244963809                     00
3410001300110A00000034107293 000000000672 7ALDENEIDE MERENCIANO DA SILVA 203150              27022020REA000000000000000000000000012241                    00000000000000000000000                    00000000000809805979                     00
3410001300111A00000034104086 000000006811 3AKIKO FUJII                   203023              27022020REA000000000000000000000000028130                    00000000000000000000000                    00000000015430322814                     00
3410001300112A00000034107922 000000000102 4BRUNO CAMILO DO NASCIMENTO    203484              27022020REA000000000000000000000000032722                    00000000000000000000000                    00000000007594113446                     00
3410001300113A00000034100372 000000087961 9LUCRECIA RAFAELA PEREIRA DA SI203485              27022020REA000000000000000000000000004478                    00000000000000000000000                    00000000001814356401                     00
3410001300114A00000034106530 000000018212 7MACWELL ANTONIO DE MELO       203037              27022020REA000000000000000000000000007186                    00000000000000000000000                    00000017966384000102                     00
3410001300115A00000034107221 000000029428 8JEU BATISTA DA COSTA 004392192203402              27022020REA000000000000000000000000001232                    00000000000000000000000                    00000035464758000165                     00
3410001300116A00000034104440 000000012431 3JOAO ADAUTO BRUM              203567              27022020REA000000000000000000000000012471                    00000000000000000000000                    00000000090596382634                     00
3410001300117A00000034108290 000000050980 4CYNTIA RAQUEL DUARTE PEREIRA  203596              27022020REA000000000000000000000000003323                    00000000000000000000000                    00000035541745000142                     00
3410001300118A00000034104440 000000012868 6VALERIA QUEIROZ DE LIMA MARQUE203307              27022020REA000000000000000000000000017627                    00000000000000000000000                    00000000002565941714                     00
3410001300119A00000034100641 000000018181 3NILSON LOPES MACHADO          203109              27022020REA000000000000000000000000107713                    00000000000000000000000                    00000000010150357877                     00
3410001300120A00000034103797 000000004697 0VALTER YASSUYUKI SHIMAZU      203067              27022020REA000000000000000000000000112209                    00000000000000000000000                    00000000004685174801                     00
3410001300121A00000034107690 000000035000 9VANDILMO FERREIRA CAMPOS      203410              27022020REA000000000000000000000000014184                    00000000000000000000000                    00000000041175127817                     00
3410001300122A00000034107135 000000019411 1RENATO SIDNEI GARCIA COMERIO D203152              27022020REA000000000000000000000000001131                    00000000000000000000000                    00000023602994000111                     00
3410001300123A00000034108568 000000005241 2ANTONIO CLAUDINELY DOS SANTOS 203123              27022020REA000000000000000000000000009354                    00000000000000000000000                    00000026740165000193                     00
3410001300124A00000034107474 000000028714 6MAYARA ALESSANDRA CHAGAS DA CO203203              27022020REA000000000000000000000000003420                    00000000000000000000000                    00000000009969421492                     00
3410001300125A00000034100218 000000052532 7RS CURSOS PROFISSIONAIS LTDA  203093              27022020REA000000000000000000000000015686                    00000000000000000000000                    00000005217020000132                     00
3410001300126A00000034100332 000000008778 2MARIA ZELIA TEREZA DE SOUZA   203311              27022020REA000000000000000000000000021202                    00000000000000000000000                    00000052965167000190                     00
3410001300127A00000034106914 000000015610 1ANTONIO CARLOS SENA           203186              27022020REA000000000000000000000000003821                    00000000000000000000000                    00000000010065844807                     00
3410001300128A00000034107924 000000025208 8MARCELA S DO NASCIMENTO SENA  203251              27022020REA000000000000000000000000099784                    00000000000000000000000                    00000030351178000148                     00
34100015         000130000000000008499498000000000000000000                                                                                                                                                                                     
34100021C9841040 222347623000178                    06248 000000045232 5CELER PAGAMENTOS                                                                                   00000                                   00000000                     
3410002300001A00000003304442 000013000418 5CARTAO DE DESCONTO TERRA DOS B203618              27022020REA000000000000000000000000024742                    00000000000000000000000                    00000011051024000196                     00
3410002300002A00000023703157 000000034696 9DIEGO GARCIA DA SILVA         203058              27022020REA000000000000000000000000146023                    00000000000000000000000                    00000009354049000117                     00
3410002300003A00000008500109 000000044648 3EPR CENTRO AUTOMOTIVO ME LTDA 203395              27022020REA000000000000000000000000218422                    00000000000000000000000                    00000030636108000136                     00
3410002300004A00000023700600 000000024244 6TABARATO INDUSTRIA E COMERCIO 203499              27022020REA000000000000000000000000027700                    00000000000000000000000                    00000017059837000109                     00
3410002300005A00000003304585 000001019191 6CLAUDIO BARBOSA REBOUCAS      203073              27022020REA000000000000000000000000020553                    00000000000000000000000                    00000000024510173334                     00
3410002300006A00000003303962 000001082657 7ATILA RANGEL TEOFILO          203523              27022020REA000000000000000000000000015336                    00000000000000000000000                    00000000044783558353                     00
3410002300007A00000023702251 000000040140 4INDUSTRIA E COMDE CONFECCAO FL203329              27022020REA000000000000000000000000022523                    00000000000000000000000                    00000004968641000276                     00
3410002300008A00000023701232 000000024820 7ADMINISTRADORA DE CARTAO DE DE203579              27022020REA000000000000000000000000109977                    00000000000000000000000                    00000031284933000181                     00
3410002300009A00000000101195 000000037261 7U2MODASCOM DE ROUPAS E ACES EI203642              27022020REA000000000000000000000000009760                    00000000000000000000000                    00000018144504000140                     00
3410002300010A00000000101195 000000037063 0MY MODAS COMROUPAS ACES EIRELI203643              27022020REA000000000000000000000000021373                    00000000000000000000000                    00000017880168000212                     00
3410002300011A00000000101195 000000040736 4MY MODAS COMROUPAS ACES EIRELI203380              27022020REA000000000000000000000000021957                    00000000000000000000000                    00000028464073000153                     00
3410002300012A00000000101195 000000038010 5MIRA MODAS COMSERVDA MODA EIRE203644              27022020REA000000000000000000000000009756                    00000000000000000000000                    00000019603894000302                     00
3410002300013A00000000101195 000000040736 4MIRA MODAS COMSERVDA MODA EIRE203143              27022020REA000000000000000000000000017098                    00000000000000000000000                    00000028464073000153                     00
3410002300014A00000075604370 000000032990 8PDV365 PRODUCAO E AUTOMACAO DE203138              27022020REA000000000000000000000001336326                    00000000000000000000000                    00000012569291000112                     00
3410002300015A00000023701849 000000011116 3MIX LAR EIRELI                203284              27022020REA000000000000000000000000006751                    00000000000000000000000                    00000028940115000185                     00
3410002300016A00000074800911 000000029816 6BORRACHARIA NOSSA SENHORA APAR203547              27022020REA000000000000000000000000004417                    00000000000000000000000                    00000006917099000177                     00
3410002300017A00000023702371 000000032300 4ESTELLA CRISTHINA ALVES       203406              27022020REA000000000000000000000000008104                    00000000000000000000000                    00000000097009105120                     00
3410002300018A00000003304387 000013000211 4N C ADMINISTRADORA DE CARTAO D203062              27022020REA000000000000000000000000004347                    00000000000000000000000                    00000011174739000136                     00
3410002300019A00000003300037 000000147525 4DILVANIA APARECIDA VIEIRA     203177              27022020REA000000000000000000000000008359                    00000000000000000000000                    00000000001899964800                     00
3410002300020A00000023700023 000000253043 0JOSE APARECIDO  PICOLO  CIA LT203629              27022020REA000000000000000000000000110592                    00000000000000000000000                    00000017276511000133                     00
3410002300021A00000023701849 000000001268 8AURELIO FERREIRA RIBEIRO ME   203471              27022020REA000000000000000000000000081152                    00000000000000000000000                    00000005669371000184                     00
3410002300022A00000000101218 000000014405 3RAIMUNDO ISAIAS MONTEIRO PINTO203403              27022020REA000000000000000000000000011446                    00000000000000000000000                    00000000062422260306                     00
3410002300023A00000010404551 000000000217 0L.P. CONSTRUCOES LTDA ME      203597              27022020REA000000000000000000000000048468                    00000000000000000000000                    00000041314790000167                     00
3410002300024A00000026000001 000071128234 0RENATO LOPES DE PAULA         203054              27022020REA000000000000000000000000021179                    00000000000000000000000                    00000000002942683163                     00
3410002300025A00000000101702 000000210986 7VIDRAUTOS COMERCIO DE VIDROS P203022              27022020REA000000000000000000000000010841                    00000000000000000000000                    00000005646392000184                     00
3410002300026A00000021200001 000000972876 7JOSYMARIA PESTANA             203588              27022020REA000000000000000000000000012097                    00000000000000000000000                    00000000004474505301                     00
3410002300027A00000008500101 000000732600 9MAGNUM INSTRUMENTOS MUSICAIS L203602              27022020REA000000000000000000000000716850                    00000000000000000000000                    00000082097197000193                     00
3410002300028A00000010400898 000000002712 8ADMINISTRADORA DE SERVICOS DE 203144              27022020REA000000000000000000000000032314                    00000000000000000000000                    00000030676872000135                     00
3410002300029A00000008500101 000000679040 2SALVA MED EMERGENCIAS MEDICAS 203299              27022020REA000000000000000000000000027088                    00000000000000000000000                    00000004094517000148                     00
3410002300030A00000003304478 000013007361 8M E R BAR E RESTAURANTE LTDA  203645              27022020REA000000000000000000000000012815                    00000000000000000000000                    00000027719058000146                     00
3410002300031A00000023702740 000000017010 0BEATRIZ SILVA CARVALHAES      203132              27022020REA000000000000000000000000059716                    00000000000000000000000                    00000015147464000100                     00
3410002300032A00000000106864 000000012148 7W WANDER MARTINS ME           203409              27022020REA000000000000000000000000004555                    00000000000000000000000                    00000017626932000147                     00
3410002300033A00000023703238 000000014041 4BARBARA DOS SANTOS PROTAZIO   203387              27022020REA000000000000000000000000005181                    00000000000000000000000                    00000000061719495319                     00
3410002300034A00000008500101 000000954287 6ELIAS CAVALHEIRO              203084              27022020REA000000000000000000000000001964                    00000000000000000000000                    00000000003347243927                     00
3410002300035A00000000400295 000000001707 4RANILSON FERREIRA CARDOZO     203119              27022020REA000000000000000000000000004488                    00000000000000000000000                    00000000001000931323                     00
3410002300036A00000010404557 000300000878 2ADMINISTRADORA DE CARTAO DE TO203646              27022020REA000000000000000000000000001570                    00000000000000000000000                    00000025341175000193                     00
3410002300037A00000010404557 000300000878 2ADMINISTRADORA DE CARTAO DE TO203647              27022020REA000000000000000000000000043200                    00000000000000000000000                    00000025341175000193                     00
3410002300038A00000010404557 000000000878 2ADMINISTRADORA DE CARTAO DE TO203367              27022020REA000000000000000000000000045308                    00000000000000000000000                    00000025341175000193                     00
3410002300039A00000010400118 000000003357 6ADMINISTRADORA DE CARTAO DE DE203460              27022020REA000000000000000000000000004855                    00000000000000000000000                    00000030877366000104                     00
3410002300040A00000010400917 000000005066 0ADMINISTRADORA DE CARTAO DE DE203456              27022020REA000000000000000000000000041293                    00000000000000000000000                    00000031407148000179                     00
3410002300041A00000003300254 000013003667 7PHOENIX TREINAMENTO E DESENVOL203242              27022020REA000000000000000000000000163882                    00000000000000000000000                    00000025284710000111                     00
3410002300042A00000010403245 000000004626 7ALINE ELAINE GUIMARAES        203319              27022020REA000000000000000000000000024042                    00000000000000000000000                    00000000028537168807                     00
3410002300043A00000003300083 000013007492 1CENTRAL DE NEGOCIOS AGENCIA DE203443              27022020REA000000000000000000000000626438                    00000000000000000000000                    00000004885275000100                     00
3410002300044A00000023703061 000000013470 8LIMATUR CONGRESSOS E EVENTOS L203364              27022020REA000000000000000000000000089361                    00000000000000000000000                    00000022528147000191                     00
3410002300045A00000023700095 000000148486 9ALTERNATUR AGENCIA DE VIAGENS 203452              27022020REA000000000000000000000000237005                    00000000000000000000000                    00000058645359000104                     00
3410002300046A00000023700830 000000001396 0ARISTOFANES DA SILVA BATISTA N203572              27022020REA000000000000000000000000041761                    00000000000000000000000                    00000000001890637858                     00
3410002300047A00000023702297 000000116826 6M VERMELHO PRODUTOS ALIMENTICI203279              27022020REA000000000000000000000000003680                    00000000000000000000000                    00000059456723000142                     00
3410002300048A00000023702249 000000018639 2ATILA ALVES DE OLIVEIRA 217321203412              27022020REA000000000000000000000000049661                    00000000000000000000000                    00000028115797000191                     00
3410002300049A0000002370128  00000004256  0GRAN VIAGGI TURISMO LTDA ME   203262              27022020REA000000000000000000000000053998                    00000000000000000000000                    00000069288967000117                     00
3410002300050A00000023701789 000000043251 2CONTINENTTRAVEL  AGENCIA DE VI203505              27022020REA000000000000000000000000037096                    00000000000000000000000                    00000017714146000100                     00
3410002300051A00000010400815 0 0000100048 8CARLOS HENRIQUE QUEIROGA AMARA203416              27022020REA000000000000000000000000194827                    00000000000000000000000                    00000000023212926600                     00
3410002300052A00000000400016 000000189639 3ALVENIS RODRIGUES TEIXEIRA    203358              27022020REA000000000000000000000000004013                    00000000000000000000000                    00000000029462177368                     00
3410002300053A00000003300386 000013002741 3DANIELLA MARX LEVY SASSI 10649203481              27022020REA000000000000000000000000028315                    00000000000000000000000                    00000023539884000152                     00
3410002300054A00000074800155 000000028554 4JOAO SIMAO MATERIAIS DE CONSTR203560              27022020REA000000000000000000000000013393                    00000000000000000000000                    00000087248100000110                     00
3410002300055A00000003303733 000013003898 0CARTAO DE DESCONTOS           203219              27022020REA000000000000000000000000230316                    00000000000000000000000                    00000025135387000114                     00
3410002300056A00000075603125 000000632446 0SANTOS  DIOGO LTDA            203344              27022020REA000000000000000000000000138328                    00000000000000000000000                    00000003177943000182                     00
3410002300057A00000075603125 000000631809 6ANSELMO ACETI INFORMATICA  ME 203182              27022020REA000000000000000000000000218523                    00000000000000000000000                    00000004322177000165                     00
3410002300058A00000023700218 000000018737 2JANE KELLY CARNEIRO DA SILVA  203598              27022020REA000000000000000000000000034158                    00000000000000000000000                    00000017601199000106                     00
3410002300059A00000000100781 000000018701 1ADEMIR APARECIDO CONSTANTINO M203076              27022020REA000000000000000000000000227864                    00000000000000000000000                    00000004162718000135                     00
3410002300060A00000010400288 000300000148 3FORTALEZA DA CONSTRUCAO DE BAR203648              27022020REA000000000000000000000000002390                    00000000000000000000000                    00000007865688000111                     00
3410002300061A00000000101218 000000037972 7F J DA CONCEICAO MENEZES      203424              27022020REA000000000000000000000000011760                    00000000000000000000000                    00000011008923000106                     00
3410002300062A00000003304410 000001000864 0CARLOS EVANILSON OLIVEIRA VASC203391              27022020REA000000000000000000000000016873                    00000000000000000000000                    00000000003902801352                     00
3410002300063A00000000102502 000000046291 8VICOSO ESTACIONAMENTO LTDA    203612              27022020REA000000000000000000000000014607                    00000000000000000000000                    00000007799557000183                     00
3410002300064A00000074800913 000000042678 4GIANINA ELIS DE LOS SANTOS GON203322              27022020REA000000000000000000000000023544                    00000000000000000000000                    00000000000114350116                     00
3410002300065A00000010401045 000000003062 0ARACAJU ADMINISTRACAO DE CARTA203529              27022020REA000000000000000000000000046307                    00000000000000000000000                    00000031747596000111                     00
3410002300066A00000074800155 000000015946 8VALDO COMUNICACAO VISUAL LTDA 203112              27022020REA000000000000000000000000079355                    00000000000000000000000                    00000000321078000108                     00
3410002300067A00000023701232 000000024868 1ATENDIMENTO MEDICO E ODONTOLOG203407              27022020REA000000000000000000000000258247                    00000000000000000000000                    00000031132613000106                     00
3410002300068A00000023700223 000000211185 3SUELI APARECIDA PORPHIRIO FERN203340              27022020REA000000000000000000000000082936                    00000000000000000000000                    00000008075662000132                     00
3410002300069A00000000108240 000000000191 0ATENDIMENTO MEDICO E ODONTOLOG203649              27022020REA000000000000000000000000009685                    00000000000000000000000                    00000031710733000143                     00
3410002300070A00000010401464 000000028961 7MARIA CLEMENTINA DE ALMEIDA OL203239              27022020REA000000000000000000000000019316                    00000000000000000000000                    00000000060934255172                     00
3410002300071A00000003303733 000013004404 0AZEVEDO E MENDES SERVICOS ADMI203285              27022020REA000000000000000000000000517035                    00000000000000000000000                    00000024996244000134                     00
3410002300072A00000003301629 000001008933 8BRUNO MACHADO DE ARAUJO       203472              27022020REA000000000000000000000000018158                    00000000000000000000000                    00000000005341958306                     00
3410002300073A00000010401174 000000023501 4ADRIELSO PERPETUO FREITAS     203178              27022020REA000000000000000000000000040978                    00000000000000000000000                    00000000033936139873                     00
3410002300074A00000010404292 000000000487 6SONHO DE CRIANCA CONFECCAO INF203257              27022020REA000000000000000000000000008921                    00000000000000000000000                    00000022704478000135                     00
3410002300075A00000010404292 000000023725 4MAICON ROBSON GABARDO         203341              27022020REA000000000000000000000000007191                    00000000000000000000000                    00000000000851022960                     00
3410002300076A00000023700023 000000253043 0DANIEL MARCONI                203462              27022020REA000000000000000000000000045091                    00000000000000000000000                    00000017276511000133                     00
3410002300077A00000075604340 000000084173 0PARQUE DE TECNOLOGIA DA INFORM203032              27022020REA000000000000000000000000007263                    00000000000000000000000                    00000024933602000160                     00
3410002300078A00000042200043 000000581000 6FLORESTE E SUPRIMENTO FLORESTA203650              27022020REA000000000000000000000000068005                    00000000000000000000000                    00000008140158000179                     00
3410002300079A00000023705440 000000001029 4JULIETA BRAGA PINTO           203095              27022020REA000000000000000000000000008738                    00000000000000000000000                    00000007764368000175                     00
3410002300080A00000023700146 000000128668 4ALBERTE DE ANDRADE GONCALVES  203479              27022020REA000000000000000000000000002325                    00000000000000000000000                    00000000041322978883                     00
3410002300081A00000000101873 000000006886 1ROSEMARY LOUVEIRA             203045              27022020REA000000000000000000000000010828                    00000000000000000000000                    00000000036766658134                     00
3410002300082A00000003301133 000013000676 1VALDIR FARIAS DA SILVA ELETRON203230              27022020REA000000000000000000000000215817                    00000000000000000000000                    00000010829509000103                     00
3410002300083A00000023700023 000000253043 0JOAO H BOTELHO GENNARI RESTAUR203413              27022020REA000000000000000000000000999268                    00000000000000000000000                    00000017276511000133                     00
3410002300084A00000008900004 000000300525 3JORGE HENRIQUE MICHEL  CIA LTD203511              27022020REA000000000000000000000000074684                    00000000000000000000000                    00000057820698000109                     00
3410002300085A00000003304279 000013003282 7ADRIANGELA DE ALMEIDA OLIVEIRA203651              27022020REA000000000000000000000000002111                    00000000000000000000000                    00000023324976000115                     00
3410002300086A00000003304279 000013003282 7ADRIANGELA DE ALMEIDA OLIVEIRA203652              27022020REA000000000000000000000000016745                    00000000000000000000000                    00000023324976000115                     00
3410002300087A00000023701849 000000009225 8JESSIKA APARECIDA MORAES DE CA203315              27022020REA000000000000000000000000063642                    00000000000000000000000                    00000000000356019144                     00
3410002300088A00000000100165 000000021763 8LUANA DE SOUZA MARTINS        203501              27022020REA000000000000000000000000079057                    00000000000000000000000                    00000000033641893828                     00
3410002300089A00000023700534 000000081028 2OSVALDO ANTONIO DE FREITAS    203087              27022020REA000000000000000000000000028381                    00000000000000000000000                    00000000088888088849                     00
3410002300090A00000003304501 000013002428 2CEMA CENTRO MEDICO E ODONTOLOG203575              27022020REA000000000000000000000000064635                    00000000000000000000000                    00000010576511000100                     00
3410002300091A00000000106939 000000053750 0ADMINISTRADORA DE CONSULTORIOS203552              27022020REA000000000000000000000000346667                    00000000000000000000000                    00000025966574000140                     00
3410002300092A00000003303749 000013002584 8GREEN GOY NOYORI EIRELI  ME   203594              27022020REA000000000000000000000000178323                    00000000000000000000000                    00000005877577000108                     00
3410002300093A00000008500101 000000303434 8CLAUDIONEI SCOTTINI           203548              27022020REA000000000000000000000000016607                    00000000000000000000000                    00000000007875269911                     00
3410002300094A00000010402047 000000304973 1CLINICA MEDICA E ODONTOLOGICA 203098              27022020REA000000000000000000000000242557                    00000000000000000000000                    00000031570751000177                     00
3410002300095A00000010401461 000000001628 9BRIZOLA R SETTE E MARIA DO CAR203069              27022020REA000000000000000000000000040811                    00000000000000000000000                    00000030914197000135                     00
3410002300096A00000000100095 000000028910 8FF INDUSTRIA DE ALIMENTOS LTDA203653              27022020REA000000000000000000000000004978                    00000000000000000000000                    00000020169895000280                     00
3410002300097A00000000100095 000000028910 8FF INDUSTRIA DE ALIMENTOS LTDA203654              27022020REA000000000000000000000000008102                    00000000000000000000000                    00000020169895000280                     00
3410002300098A00000000100095 000000028910 8FF INDUSTRIA DE ALIMENTOS LTDA203326              27022020REA000000000000000000000000008833                    00000000000000000000000                    00000020169895000280                     00
3410002300099A00000023700190 000001000613 9RONIVALDO VICENTE ALVES       203072              27022020REA000000000000000000000000001470                    00000000000000000000000                    00000000018422787890                     00
3410002300100A00000000101498 000000008037 3PEDRO DELLA GIUSTINA SOUZA    203260              27022020REA000000000000000000000000095743                    00000000000000000000000                    00000078872769000197                     00
3410002300101A00000010403418 000300001218 7AUTO CENTER VILLAS CAR COMERCI203655              27022020REA000000000000000000000000011434                    00000000000000000000000                    00000005552018000110                     00
3410002300102A00000010403418 000300001218 7AUTO CENTER VILLAS CAR COMERCI203656              27022020REA000000000000000000000000011870                    00000000000000000000000                    00000005552018000110                     00
3410002300103A00000010403418 000300001218 7AUTO CENTER VILLAS CAR COMERCI203657              27022020REA000000000000000000000000018775                    00000000000000000000000                    00000005552018000110                     00
3410002300104A00000003303047 000013002290 1CATANDUVA ADMINISTRADORA DE CA203581              27022020REA000000000000000000000000002107                    00000000000000000000000                    00000024028199000124                     00
3410002300105A00000007700001 000002524430 2GLAUCIA JANAINA DOS SANTOS CAB203334              27022020REA000000000000000000000000261157                    00000000000000000000000                    00000000001884551084                     00
3410002300106A00000003301512 000013002407 2PAIVA E PAIVA CONSULTORIOS MED203125              27022020REA000000000000000000000000106360                    00000000000000000000000                    00000028782455000125                     00
3410002300107A00000023702886 000000023605 5LRM ACESSORIOS SERVICOS A L ME203658              27022020REA000000000000000000000000011494                    00000000000000000000000                    00000001342545000149                     00
3410002300108A00000023702886 000000010142 7LRM ACESSORIOS SERVICOS A L ME203376              27022020REA000000000000000000000000026352                    00000000000000000000000                    00000001342545000149                     00
3410002300109A00000000100552 000000029499 3EDUARDO RODRIGUES GAMA        203200              27022020REA000000000000000000000000002279                    00000000000000000000000                    00000000092553923104                     00
3410002300110A00000023702112 000000002890 8LATICINIOS ZACARIAS LTDA      203240              27022020REA000000000000000000000000013309                    00000000000000000000000                    00000060570488000114                     00
3410002300111A00000023701902 000000033080 9VALDIR ALBERTO LEDESMA        203398              27022020REA000000000000000000000000019147                    00000000000000000000000                    00000000083556834120                     00
3410002300112A00000000106713 000000006702 7IVO RODRIGUES JUNIOR          203512              27022020REA000000000000000000000000007253                    00000000000000000000000                    00000000040442856830                     00
3410002300113A00000008900012 000001100473 8ALPHA E OMEGA COMERCIO E ENGEN203312              27022020REA000000000000000000000000006481                    00000000000000000000000                    00000009250673000174                     00
3410002300114A00000008900001 000000003797 4NAIR DA SILVA MUNIZ 1728733782203225              27022020REA000000000000000000000000120924                    00000000000000000000000                    00000029549230000196                     00
3410002300115A00000003304422 000013001206 1MEDMAX COMERCIO DE EQUIPAMENTO203528              27022020REA000000000000000000000000185473                    00000000000000000000000                    00000007760277000161                     00
3410002300116A00000023700513 000000010771 9CLINICA AMOR SAUDE MARABA LTDA203659              27022020REA000000000000000000000000035696                    00000000000000000000000                    00000031960104000171                     00
3410002300117A00000074800728 000000063824 2JULIANO FRANCISCO DA SILVA ACA203515              27022020REA000000000000000000000000030158                    00000000000000000000000                    00000019204801000105                     00
3410002300118A00000000103472 000000061038 0F A F DA SILVA MATERIAL DE CON203389              27022020REA000000000000000000000000070096                    00000000000000000000000                    00000027188035000152                     00
3410002300119A00000000100165 000000037203 0REGIANE ZACCHEU CARMINATI     203396              27022020REA000000000000000000000000046440                    00000000000000000000000                    00000032467627000143                     00
3410002300120A00000010404732 000000022338 6CRISTIANE ROCHA DO AMARANTE   203308              27022020REA000000000000000000000000005697                    00000000000000000000000                    00000000065322843191                     00
3410002300121A00000010401651 000000019490 2CARTAO DE TODOS PETROPOLIS LTD203271              27022020REA000000000000000000000000018332                    00000000000000000000000                    00000013584247000144                     00
3410002300122A00000008900012 000001100652 8RAIMUNDO ACILIBIO RABELO DE AS203351              27022020REA000000000000000000000000002799                    00000000000000000000000                    00000000037183403807                     00
3410002300123A00000003300113 000001005737 0MARILIA CARVALHO DOS SANTOS   203192              27022020REA000000000000000000000000023352                    00000000000000000000000                    00000000027276313832                     00
3410002300124A00000023700997 000000030470 0REJANE CLAUDINO MELO          203356              27022020REA000000000000000000000000026423                    00000000000000000000000                    00000000084356030320                     00
3410002300125A00000003301268 000013001326 1TERRAS GOIANAS CLINICA MEDICA 203163              27022020REA000000000000000000000000206486                    00000000000000000000000                    00000028796557000108                     00
3410002300126A00000010400118 000000003397 5TERRAS GOIANAS CLINICA MEDICA 203576              27022020REA000000000000000000000000016380                    00000000000000000000000                    00000028796557000108                     00
3410002300127A00000010400118 000000003325 8ADMINISTRADORA DE CARTAO DE DE203414              27022020REA000000000000000000000000026703                    00000000000000000000000                    00000030420633000110                     00
3410002300128A00000023702349 000000000800 1FAGUNDES CERTIFICADORA E SERVI203085              27022020REA000000000000000000000000005452                    00000000000000000000000                    00000004740806000177                     00
3410002300129A00000023700682 000000035812 6M M CABELEIREIROS LTDA        203220              27022020REA000000000000000000000000010449                    00000000000000000000000                    00000024552836000167                     00
3410002300130A00000023701536 000000012324 2ATAMIR DIAS MARQUES           203122              27022020REA000000000000000000000000092168                    00000000000000000000000                    00000000001516003179                     00
3410002300131A00000010400283 000000003246 2CLINICA MEDICA E ODONTOLOGICA 203385              27022020REA000000000000000000000000099612                    00000000000000000000000                    00000032283114000182                     00
3410002300132A00000023701849 000000008908 7KELVIN HENRY COUTINHO BITTENCO203252              27022020REA000000000000000000000000010283                    00000000000000000000000                    00000000004748649100                     00
3410002300133A00000000100063 000000005933 1CENTRO DE ENDOCRINOLOGIA E MET203036              27022020REA000000000000000000000000095419                    00000000000000000000000                    00000035439728001090                     00
3410002300134A00000000100063 000000005933 1CENTRO DE ENDOCRINOLOGIA E MET203204              27022020REA000000000000000000000000053948                    00000000000000000000000                    00000035439728000522                     00
3410002300135A00000003301403 000013001315 0ARIELY NASCIMENTO DOS SANTOS D203336              27022020REA000000000000000000000000006644                    00000000000000000000000                    00000023675741000178                     00
3410002300136A00000007700001 000002214080 8IDEIA MIDIA GRAFICA DIGITAL  E203070              27022020REA000000000000000000000000078621                    00000000000000000000000                    00000007988078000105                     00
3410002300137A00000010400919 000000000051 6MASTER REPRESENTACOES E SERVIC203524              27022020REA000000000000000000000000026142                    00000000000000000000000                    00000001925334000139                     00
3410002300138A00000000101409 000000028674 5VEXNET TELECON INFORMATICA LTD203165              27022020REA000000000000000000000000118676                    00000000000000000000000                    00000011500145000178                     00
3410002300139A00000023701579 000000048855 0PAULO ROBERTO NOBRE DOS SANTOS203534              27022020REA000000000000000000000000012339                    00000000000000000000000                    00000026814967000109                     00
3410002300140A00000010401086 000003003899 3CARTAO DE DESCONTO TAPG ITAQUE203110              27022020REA000000000000000000000000012179                    00000000000000000000000                    00000024819584000190                     00
3410002300141A00000023700624 000000025096 1ECO AUTO EXPRESS SERVICOS AUTO203196              27022020REA000000000000000000000000011515                    00000000000000000000000                    00000022295962000158                     00
3410002300142A00000003300932 000013001501 7CASA DOS RELOJOEIROS EIRELI   203660              27022020REA000000000000000000000000051350                    00000000000000000000000                    00000005475850000160                     00
3410002300143A00000010401688 000300000216 9WAUS MALHAS LTDA              203661              27022020REA000000000000000000000000005844                    00000000000000000000000                    00000021902093000110                     00
3410002300144A00000010401688 000000000216 9WAUS MALHAS LTDA              203530              27022020REA000000000000000000000000006818                    00000000000000000000000                    00000021902093000110                     00
3410002300145A00000023700458 000000007549 3MARIA LUCILENE LOPES CARNEIRO 203431              27022020REA000000000000000000000000023881                    00000000000000000000000                    00000021810036000100                     00
3410002300146A00000075603169 000000009707 1CASA DA PIMENTA COMERCIAL DE B203221              27022020REA000000000000000000000000004042                    00000000000000000000000                    00000008098251000162                     00
3410002300147A00000013301569 000000028087 9ROBIS GRAVINO DA FONSECA      203633              27022020REA000000000000000000000000009681                    00000000000000000000000                    00000000009616611780                     00
3410002300148A00000008900003 000000201762 8EDIVALDO DIAS                 203525              27022020REA000000000000000000000000003694                    00000000000000000000000                    00000000013666671829                     00
3410002300149A00000013301075 000000009280 0ALEXANDRE PEDRO DA ROSA       203342              27022020REA000000000000000000000000236618                    00000000000000000000000                    00000027060549000128                     00
3410002300150A00000013301579 000000028236 7CAIO CESAR PEREIRA            203445              27022020REA000000000000000000000000010075                    00000000000000000000000                    00000020863883000170                     00
3410002300151A00000013301602 000000001492 3REGILDA FERNANDA SPEER GARCIA 203435              27022020REA000000000000000000000000009681                    00000000000000000000000                    00000000005666111981                     00
3410002300152A00000013301075 000000027569 7DELLA ROCCA E ROSA ACADEMIA LT203055              27022020REA000000000000000000000000007231                    00000000000000000000000                    00000029699928000198                     00
3410002300153A00000013301075 000000028391 6AUTO POSTO SAO PEDRO EIRELI   203059              27022020REA000000000000000000000000053133                    00000000000000000000000                    00000080107030000130                     00
3410002300154A00000013301075 000000006792 0VALDORI DE LIMA               203146              27022020REA000000000000000000000000060797                    00000000000000000000000                    00000000095131388953                     00
3410002300155A00000013301608 000000006806 3ELISANDRO COELHO              203634              27022020REA000000000000000000000000248247                    00000000000000000000000                    00000012246661000180                     00
3410002300156A00000003304323 000013003436 6EDUARDO NICOLAS SOARES DE SOUS203488              27022020REA000000000000000000000000146542                    00000000000000000000000                    00000030085614000184                     00
3410002300157A00000013301608 000000009668 7MARCIEL WIETCOVSKI            203099              27022020REA000000000000000000000000390317                    00000000000000000000000                    00000022380543000114                     00
3410002300158A00000023700105 000000220583 1CASA DE GAROA EIRELLI         203664              27022020REA000000000000000000000000000591                    00000000000000000000000                    00000008515856000101                     00
3410002300159A00000023700105 000000220583 1CASA DE GAROA EIRELLI         203662              27022020REA000000000000000000000000005270                    00000000000000000000000                    00000008515856000101                     00
3410002300160A00000023700105 000000220583 1CASA DE GAROA EIRELLI         203046              27022020REA000000000000000000000000007134                    00000000000000000000000                    00000008515856000101                     00
3410002300161A00000023700105 000000220583 1CASA DE GAROA EIRELLI         203663              27022020REA000000000000000000000000031840                    00000000000000000000000                    00000008515856000101                     00
3410002300162A00000023700105 000000220583 1CASA DE GAROA EIRELLI         203665              27022020REA000000000000000000000000066000                    00000000000000000000000                    00000008515856000101                     00
3410002300163A00000008900003 000000201334 7RAFAEL DONIZETE BUCCI 17205150203029              27022020REA000000000000000000000000003399                    00000000000000000000000                    00000022566440000143                     00
3410002300164A00000013301075 000000009739 0PAULA CAROLINA DA SILVA MEI   203185              27022020REA000000000000000000000000034621                    00000000000000000000000                    00000028678665000178                     00
3410002300165A00000013301075 000000009944 9ROSILENE VAMBOMMEL MEYER 05387203126              27022020REA000000000000000000000000021888                    00000000000000000000000                    00000024149220000140                     00
3410002300166A00000013301075 000000028645 1LEONARDO AMARAL ANSELMO       203102              27022020REA000000000000000000000000006868                    00000000000000000000000                    00000011399970000128                     00
3410002300167A00000013301075 000000007161 7DOUGLAS MACHADO 06651273914   203615              27022020REA000000000000000000000000025634                    00000000000000000000000                    00000018755866000178                     00
3410002300168A00000013301075 000000028122 0FERNANDO PRIM                 203030              27022020REA000000000000000000000000002438                    00000000000000000000000                    00000012455426000119                     00
3410002300169A00000013301003 000000014342 1NELI ALTINIZIA DALLASTRA      203264              27022020REA000000000000000000000000058047                    00000000000000000000000                    00000017693296000176                     00
3410002300170A00000000104992 000000012516 4CHURRASCARIA E CAFETERIA ESTRE203531              27022020REA000000000000000000000000006839                    00000000000000000000000                    00000030774098000103                     00
3410002300171A00000000101606 000000048998 0ALBERTO JOSE PLACIDO DE LIMA  203516              27022020REA000000000000000000000000008817                    00000000000000000000000                    00000000070869413872                     00
3410002300172A00000009904301 000000017506 4ROGERIO PEREIRA BECEGATO      203277              27022020REA000000000000000000000000034664                    00000000000000000000000                    00000000010600196801                     00
3410002300173A00000010403625 000000000420 1VAL FREIRE ESTETICA EIRELI    203210              27022020REA000000000000000000000000709086                    00000000000000000000000                    00000022147131000139                     00
3410002300174A00000023701849 000000007000 9LEONIDIA ALVES CARDOSO        203555              27022020REA000000000000000000000002028068                    00000000000000000000000                    00000003030434000203                     00
3410002300175A00000007000240 000000040819 4COMANDO COMERCIO E CONFECCAO D203386              27022020REA000000000000000000000000006644                    00000000000000000000000                    00000013179784000109                     00
3410002300176A00000023702024 000000028240 5MICHELLE SOARES DE ABRANTES   203245              27022020REA000000000000000000000000007061                    00000000000000000000000                    00000000007385454143                     00
3410002300177A00000023701211 000000070392 3PRENDA MARI LTDA              203418              27022020REA000000000000000000000000058251                    00000000000000000000000                    00000002637865000199                     00
3410002300178A00000023705474 000000004421 0ESPACO TAMAREIRA POUSADA E EVE203047              27022020REA000000000000000000000000162100                    00000000000000000000000                    00000029121579000122                     00
3410002300179A00000013301608 000000002508 9AGENOR MOLINARI               203169              27022020REA000000000000000000000000001449                    00000000000000000000000                    00000000045525501953                     00
3410002300180A00000023700417 000000067546 6ANALISES CLINICAS SANTO INACIO203179              27022020REA000000000000000000000000006014                    00000000000000000000000                    00000003535069000108                     00
3410002300181A00000013301075 000000011578 9ROSELI DA CRUZ KOBUS          203427              27022020REA000000000000000000000000038245                    00000000000000000000000                    00000000003570927911                     00
3410002300182A00000013301075 000000027769 0KARINE BOARETTO CAMPOS        203104              27022020REA000000000000000000000000019960                    00000000000000000000000                    00000024626117000143                     00
3410002300183A00000013301062 000000005590 5NERI DE BORBA                 203599              27022020REA000000000000000000000000014926                    00000000000000000000000                    00000000073524875904                     00
3410002300184A00000008900012 000001100671 4LUCIANE PACELLI NUNES         203561              27022020REA000000000000000000000000028674                    00000000000000000000000                    00000000011928583873                     00
3410002300185A00000008900003 000000201865 9SILVINO DE BIAZZI FILHO       203243              27022020REA000000000000000000000000231600                    00000000000000000000000                    00000012002353000100                     00
3410002300186A00000007700001 000004180888 6FRANCISCO EGILEUDO DE QUEIROZ 203113              27022020REA000000000000000000000000018496                    00000000000000000000000                    00000000068838670315                     00
3410002300187A00000023700420 000000000599 1LCNT AGENCIA DE VIAGENS LTDA  203160              27022020REA000000000000000000000000025057                    00000000000000000000000                    00000008029036000100                     00
3410002300188A00000003301724 000013000568 1CENTRO DE LUBRIFICACAO E MECAN203526              27022020REA000000000000000000000000053469                    00000000000000000000000                    00000027719181000167                     00
3410002300189A00000023701842 000000070832 1RETIFICA DE MOTORES H NORTE LT203544              27022020REA000000000000000000000000052931                    00000000000000000000000                    00000019256489000195                     00
3410002300190A00000000101230 000000054027 7ANA CLAUDIA DA SILVA AMORIM   203201              27022020REA000000000000000000000000006944                    00000000000000000000000                    00000000056650582387                     00
3410002300191A00000013301003 000000014380 4DAIANE TOMAZETTO BERNARDI     203623              27022020REA000000000000000000000000208878                    00000000000000000000000                    00000028893656000108                     00
3410002300192A00000013301003 000000009293 2MARCELO CASTANHA DOCES        203120              27022020REA000000000000000000000000001173                    00000000000000000000000                    00000031303083000111                     00
3410002300193A00000013301003 000000004779 1NADIR FRANCISCO PERONDI E CIA 203133              27022020REA000000000000000000000000235727                    00000000000000000000000                    00000004688117000160                     00
3410002300194A00000013301075 000000022364 6ALZIRA RENGEL ME              203613              27022020REA000000000000000000000000020736                    00000000000000000000000                    00000002897872000120                     00
3410002300195A00000023701563 000000027180 2JR COSMETICOS  E REPRESENTACAO203669              27022020REA000000000000000000000000069913                    00000000000000000000000                    00000019874071000141                     00
3410002300196A00000023701563 000000027180 2JR COSMETICOS  E REPRESENTACAO203667              27022020REA000000000000000000000000081123                    00000000000000000000000                    00000019874071000141                     00
3410002300197A00000023701563 000000027180 2JR COSMETICOS  E REPRESENTACAO203668              27022020REA000000000000000000000000189830                    00000000000000000000000                    00000019874071000141                     00
3410002300198A00000003303208 000001083899 5DAFNE DA COSTA ALMEIDA        203573              27022020REA000000000000000000000000043006                    00000000000000000000000                    00000000031082357880                     00
3410002300199A00000013301075 000000010179 6FREITAS MATERIAIS DE CONSTRUCA203100              27022020REA000000000000000000000000202214                    00000000000000000000000                    00000009356757000197                     00
3410002300200A00000013301075 000000025906 3PEDRO MOREIRA DE SOUZA        203134              27022020REA000000000000000000000000006497                    00000000000000000000000                    00000005980807000151                     00
3410002300201A00000023701453 000000064528 1VAGNER LOPES                  203075              27022020REA000000000000000000000000005467                    00000000000000000000000                    00000000002592833714                     00
3410002300202A00000013301075 000000014943 8NILTON POMMERENING            203480              27022020REA000000000000000000000000078110                    00000000000000000000000                    00000000068523238972                     00
3410002300203A00000023703134 000000013795 2FABIANO FERNANDES PAIXAO      203026              27022020REA000000000000000000000000005290                    00000000000000000000000                    00000000028182813859                     00
3410002300204A00000010404368 000000000404 6GERAL CLINIC SERVICOS DE SAUDE203393              27022020REA000000000000000000000000033166                    00000000000000000000000                    00000024755221000138                     00
3410002300205A00000013301009 000000006384 3MIOTTO E ROSS RESTAURANTE E CA203071              27022020REA000000000000000000000000006727                    00000000000000000000000                    00000033566833000173                     00
3410002300206A00000013301003 000000014638 2EXCLUSIVA PNEUS E AUTO CENTER 203183              27022020REA000000000000000000000000204058                    00000000000000000000000                    00000033826693000125                     00
3410002300207A00000013301075 000000016325 2JUAREZ CAPISTRANO             203116              27022020REA000000000000000000000000003404                    00000000000000000000000                    00000000072046465920                     00
3410002300208A00000013301075 000000027686 3AYRON CORREIA COMERCIO DE PRES203246              27022020REA000000000000000000000000023344                    00000000000000000000000                    00000029617720000182                     00
3410002300209A00000013301009 000000006138 7HILARIO SCHNEIDER E CIA LTDA  203610              27022020REA000000000000000000000000074391                    00000000000000000000000                    00000077665313000193                     00
3410002300210A00000013301075 000000023619 5POSTO DE COMBUSTIVEL SAMAMBAIA203535              27022020REA000000000000000000000000115010                    00000000000000000000000                    00000030864632000164                     00
3410002300211A00000013301075 000000027123 3SICRET RISTOW TESKE           203372              27022020REA000000000000000000000000025607                    00000000000000000000000                    00000001421753000133                     00
3410002300212A00000013301003 000000014620 0TRANSPORTES DE PASSAGEIROS OLI203401              27022020REA000000000000000000000000016650                    00000000000000000000000                    00000006959809000121                     00
3410002300213A00000075603256 000000002350 7JANDEIR APARECIDO DE ALMEIDA E203292              27022020REA000000000000000000000000006238                    00000000000000000000000                    00000006895016000196                     00
3410002300214A00000013301075 000000026360 5LEANDRO FERREIRA GUINCHO ME   203056              27022020REA000000000000000000000000029175                    00000000000000000000000                    00000012633409000124                     00
3410002300215A00000010400749 000000000834 3P W F T GUEDES PROMOCOES      203039              27022020REA000000000000000000000000120512                    00000000000000000000000                    00000004893646000104                     00
3410002300216A00000013301003 000000009793 4TIAGO JUNIOR RESTELATTO MIOLA 203349              27022020REA000000000000000000000000099442                    00000000000000000000000                    00000021767295000104                     00
3410002300217A00000000100156 000000026049 5ANA CRISTINA P D EPIRO MADEIRA203078              27022020REA000000000000000000000000350260                    00000000000000000000000                    00000008231663000129                     00
3410002300218A00000074800738 000000033828 7MARCIO SOARES THOME           203399              27022020REA000000000000000000000000009259                    00000000000000000000000                    00000000001479987433                     00
3410002300219A00000023701243 000000010394 2MARCOS ALMEIDA DA SILVA       203453              27022020REA000000000000000000000000001373                    00000000000000000000000                    00000017816207000131                     00
3410002300220A00000000100387 000000073100 5GINA KESIA ARAUJO FRANCA      203421              27022020REA000000000000000000000000011312                    00000000000000000000000                    00000000003600480308                     00
3410002300221A00000023707988 000000068441 4OSVALDO DIAS DA SILVA JUNIOR  203373              27022020REA000000000000000000000000005731                    00000000000000000000000                    00000000006656398138                     00
3410002300222A00000013301075 000000022862 1TED MARYNUS CONFECCOES LTDA   203630              27022020REA000000000000000000000000025485                    00000000000000000000000                    00000082855537000106                     00
3410002300223A00000013301075 000000009897 3RICARDO FORSRTER              203286              27022020REA000000000000000000000000017714                    00000000000000000000000                    00000000010835541908                     00
3410002300224A00000000100156 000000028423 8GABRIELA DE PAULISTA FARIA    203589              27022020REA000000000000000000000000008031                    00000000000000000000000                    00000000046175131835                     00
3410002300225A00000013301075 000000010280 6MADEIREIRA CALAO              203175              27022020REA000000000000000000000000012611                    00000000000000000000000                    00000017287231000120                     00
3410002300226A00000023705386 000000016057 1LL ADRIANI LOCACAO EIRELI     203603              27022020REA000000000000000000000000017500                    00000000000000000000000                    00000033775915000128                     00
3410002300227A00000023700413 000000150464 9ELISEU MARCAL MESQUITA        203536              27022020REA000000000000000000000000014579                    00000000000000000000000                    00000000014039910818                     00
3410002300228A00000013301075 000000010335 7MATEUS RESTAURANTE E PIZZARIA 203346              27022020REA000000000000000000000000003687                    00000000000000000000000                    00000031139441000100                     00
3410002300229A00000010403548 000000000598 6CARLOS DANIEL DE SOUZA PORFIRI203432              27022020REA000000000000000000000000015714                    00000000000000000000000                    00000021857887000109                     00
3410002300230A00000013301502 000000009893 0GILBERTO DALBERTI LTDA        203638              27022020REA000000000000000000000000017334                    00000000000000000000000                    00000015085011000199                     00
3410002300231A00000013301003 000000014675 7JERUSA ALBERTON ASSMANN       203466              27022020REA000000000000000000000000014552                    00000000000000000000000                    00000003893571000190                     00
3410002300232A00000000100799 000000025388 0DIGABEL  DEPOSITO ITATIBENSE D203592              27022020REA000000000000000000000000035316                    00000000000000000000000                    00000061834784000148                     00
3410002300233A00000010400307 000030000465 4EVANGELISTA LOPES DE SOUZA ME 203353              27022020REA000000000000000000000000151601                    00000000000000000000000                    00000008091527000180                     00
3410002300234A00000000100799 000000043058 7DEBORA CRISTINA FACINA        203218              27022020REA000000000000000000000000004785                    00000000000000000000000                    00000000041838847804                     00
3410002300235A00000023702831 000000032144 3LL ANDRIANI                   203457              27022020REA000000000000000000000000070000                    00000000000000000000000                    00000012662553000199                     00
3410002300236A00000010404125 000000024821 4REGINALDO DA SILVA LOTIERSO   203226              27022020REA000000000000000000000000024984                    00000000000000000000000                    00000000010101925824                     00
3410002300237A00000013301003 000000014800 8LUTERO JOAO DA MOTTA          203433              27022020REA000000000000000000000000001848                    00000000000000000000000                    00000005841347000180                     00
3410002300238A00000013301588 000000019079 9ALTAIR VALENTIM SILVA         203539              27022020REA000000000000000000000000013129                    00000000000000000000000                    00000000006629134931                     00
3410002300239A00000026000001 000071128234 0RENATO LOPES DE PAULA         203556              27022020REA000000000000000000000000170088                    00000000000000000000000                    00000000002942683163                     00
3410002300240A00000008900003 000000201990 6TIAGO HENRIQUE MENGALI        203280              27022020REA000000000000000000000000064274                    00000000000000000000000                    00000012149895000100                     00
3410002300241A00000013301003 000000004315 0D M PANISSON TRANSPORTES EIREL203458              27022020REA000000000000000000000000106337                    00000000000000000000000                    00000020726483000113                     00
3410002300242A00000000101814 000000899329 7WILLIAMS SALES PARAISO        203636              27022020REA000000000000000000000000011060                    00000000000000000000000                    00000000067066283449                     00
3410002300243A00000013301075 000000025728 1ELOIZA FARIAS                 203142              27022020REA000000000000000000000000004118                    00000000000000000000000                    00000000008120312961                     00
3410002300244A00000013301075 000000027162 4PAULO CRISTINA MEI            203545              27022020REA000000000000000000000000001670                    00000000000000000000000                    00000023231907000167                     00
3410002300245A00000013301003 000000014242 5CM COMERCIO DE PECAS IMPLEMENT203585              27022020REA000000000000000000000000069643                    00000000000000000000000                    00000007043675000167                     00
3410002300246A00000013301003 000000004069 0R E CONFECCOES LTDA ME        203513              27022020REA000000000000000000000000090355                    00000000000000000000000                    00000019802468000128                     00
3410002300247A00000013301009 000000006377 0PAULO FERDINANDO FERREIRA     203514              27022020REA000000000000000000000000018501                    00000000000000000000000                    00000015726900000198                     00
3410002300248A00000023703327 000000005605 7STUDIO DA BELEZA LTDA         203506              27022020REA000000000000000000000000003320                    00000000000000000000000                    00000033734830000100                     00
3410002300249A00000010404166 000000003583 0GERSONITA LIMA DOS SANTOS     203041              27022020REA000000000000000000000000002914                    00000000000000000000000                    00000014045684000152                     00
3410002300250A00000013301075 000000026683 3JULIO CEZAR DE AVILA          203383              27022020REA000000000000000000000000010188                    00000000000000000000000                    00000017385690000147                     00
3410002300251A00000013301075 000000007971 5JULIA BORBA ROCHA ME          203601              27022020REA000000000000000000000000116909                    00000000000000000000000                    00000014775306000124                     00
3410002300252A00000000102199 000000021107 9ORGANIZACAO FARMACEUTICA PEREI203595              27022020REA000000000000000000000000002149                    00000000000000000000000                    00000034960823000180                     00
3410002300253A00000065500655 000004534682 8NAJLA THAISA BORGES TORRES    203057              27022020REA000000000000000000000000020590                    00000000000000000000000                    00000000003000857109                     00
3410002300254A00000023702505 000000027369 4GABRIEL VINICIUS DE SA        203265              27022020REA000000000000000000000000014973                    00000000000000000000000                    00000000043307351800                     00
3410002300255A00000013301075 000000016886 6VALDIR ROLING E CIA LTDA      203562              27022020REA000000000000000000000000046008                    00000000000000000000000                    00000001941213000180                     00
3410002300256A00000000101409 000000032002 1FRANCISCO MARQUES SOARES      203392              27022020REA000000000000000000000000012997                    00000000000000000000000                    00000000008524070765                     00
3410002300257A00000013301075 000000029040 8MARILI SALVADOR               203438              27022020REA000000000000000000000000004085                    00000000000000000000000                    00000031524799000149                     00
3410002300258A00000003301626 000001007535 2ALINE DA SILVA MENDES TEIXEIRA203281              27022020REA000000000000000000000000012025                    00000000000000000000000                    00000000005548472135                     00
3410002300259A00000013301584 000000014932 2DROGARIA 19 DE AGOSTO         203619              27022020REA000000000000000000000000065010                    00000000000000000000000                    00000017557673000140                     00
3410002300260A00000013301620 000000014774 5ANGELICA APARECIDA DOS ANJOS  203626              27022020REA000000000000000000000000011803                    00000000000000000000000                    00000028879387000117                     00
3410002300261A00000013301075 000000009748 9PICO DA VILA LANCHES BAR      203234              27022020REA000000000000000000000000022173                    00000000000000000000000                    00000010412787000152                     00
3410002300262A00000013301075 000000029207 9JOSE CARLOS DE MELO           203273              27022020REA000000000000000000000000002334                    00000000000000000000000                    00000034118204000143                     00
3410002300263A00000013301003 000000014981 0CRISTIANA SILVA VARELA        203507              27022020REA000000000000000000000000009706                    00000000000000000000000                    00000018106143000148                     00
3410002300264A00000013301003 000000009546 0FAVERO E BORTOLIN FISIOTERAPIA203446              27022020REA000000000000000000000000078872                    00000000000000000000000                    00000032415298000197                     00
3410002300265A00000013301075 000000029251 6IATAN PICKLER                 203327              27022020REA000000000000000000000000002918                    00000000000000000000000                    00000000009582934905                     00
3410002300266A00000013301003 000000005950 1ALVARO FERREIRA DE SOUZA E CIA203316              27022020REA000000000000000000000000009607                    00000000000000000000000                    00000002816859000107                     00
3410002300267A00000021200001 000002690722 4UBIRACY DE OLIVEIRA NUNES     203232              27022020REA000000000000000000000000002161                    00000000000000000000000                    00000000004643325402                     00
3410002300268A00000023700393 000000070245 5ADALBERTO AMEROSIN            203540              27022020REA000000000000000000000000072456                    00000000000000000000000                    00000000014987059878                     00
3410002300269A00000013301609 000000029253 2MARINA SOARES CORREA          203428              27022020REA000000000000000000000000144246                    00000000000000000000000                    00000000085496596068                     00
3410002300270A00000023701579 000000020790 0MERCIA MARIA FRAGA MOTA       203323              27022020REA000000000000000000000000020123                    00000000000000000000000                    00000005516137000117                     00
3410002300271A00000010400920 000000021289 6PK COMERCIO DE COLCOES LTDA   203258              27022020REA000000000000000000000000003510                    00000000000000000000000                    00000012446564000131                     00
3410002300272A00000023702113 000000611109 2JOSAEL GOMES DA SILVA         203042              27022020REA000000000000000000000000011750                    00000000000000000000000                    00000000072637390115                     00
3410002300273A00000042200037 000000580417 0CEARA DISTRIBUIDORA DE EQUIPAM203670              27022020REA000000000000000000000000006317                    00000000000000000000000                    00000029654959000122                     00
3410002300274A00000013301003 000000014787 7FARMACIA COLINA DOIS VIZINHOS 203227              27022020REA000000000000000000000000009619                    00000000000000000000000                    00000027212030000118                     00
3410002300275A00000013301075 000000010029 3JAISON ARCENO DA SILVA MEI    203304              27022020REA000000000000000000000000022149                    00000000000000000000000                    00000030404012000142                     00
3410002300276A00000003300225 000001301499 8ROGERIO CATHO ME              203063              27022020REA000000000000000000000000007809                    00000000000000000000000                    00000005782896000121                     00
3410002300277A00000013301075 000000029304 0NIVALDO MARQUES LAGUNA        203261              27022020REA000000000000000000000000014773                    00000000000000000000000                    00000028692830000146                     00
3410002300278A00000000107114 000000013705 7MARCOS VINICIUS LOPES DE PAULA203127              27022020REA000000000000000000000000006202                    00000000000000000000000                    00000000000674059166                     00
3410002300279A00000013301003 000000004821 6GENIR HELLSTROM PETRI         203332              27022020REA000000000000000000000000007780                    00000000000000000000000                    00000000078253551991                     00
3410002300280A00000013301009 000000006108 5MARIANI DIAS                  203604              27022020REA000000000000000000000000010368                    00000000000000000000000                    00000027102728000180                     00
3410002300281A00000013301075 000000016752 5ALAMEDA AGROPECUARIA LTDA     203153              27022020REA000000000000000000000000030634                    00000000000000000000000                    00000029262472000102                     00
