34100000      081222347623000178                    06248 000000045232 5CELER PAGAMENTOS              Itau Unibanco S.A                       11202202000000000000000                                                                           
34100011C9801040 222347623000178                    06248 000000045232 5CELER PAGAMENTOS                                                                                   00000                                   00000000                     
3410001300001A00000034104453 000000012173 5AVANCAR CURSOS DE CAPACITACAO 195559              12022020REA000000000000000000000000276085                    00000000000000000000000                    00000014869305000149                     00
3410001300002A00000034103746 000000000764 4VANTUIL OLIVEIRA LOPES        194650              12022020REA000000000000000000000000019354                    00000000000000000000000                    00000000058193251849                     00
3410001300003A00000034100059 000000078359 7ADMINISTRADORA DE CARTAO DE TO194944              12022020REA000000000000000000000000019443                    00000000000000000000000                    00000011487917000189                     00
3410001300004A00000034100364 000000034000 0MARCUS VITOR ALVES VERAS      195479              12022020REA000000000000000000000000061437                    00000000000000000000000                    00000000070506392490                     00
3410001300005A00000034108380 000000019163 8BENTO DA SILVA ME             195569              12022020REA000000000000000000000000005669                    00000000000000000000000                    00000014167568000106                     00
3410001300006A00000034106530 000000018212 7MACWELL ANTONIO DE MELO       195462              12022020REA000000000000000000000000143876                    00000000000000000000000                    00000017966384000102                     00
3410001300007A00000034108527 000000008961 2VICENTE DE PAULA RODRIGUES DE 195362              12022020REA000000000000000000000000029152                    00000000000000000000000                    00000006262046000165                     00
3410001300008A00000034102746 000000025961 9MARIA APARECIDA LAURINDA DA SI195475              12022020REA000000000000000000000000046485                    00000000000000000000000                    00000020959355000110                     00
3410001300009A00000034108380 000000008411 4FACHIK COMERCIAL LTDA         195393              12022020REA000000000000000000000000231668                    00000000000000000000000                    00000010311023000170                     00
3410001300010A00000034108907 000000028937 8RO MOTO PECAS                 195729              12022020REA000000000000000000000000038524                    00000000000000000000000                    00000016965440000113                     00
3410001300011A00000034102746 000000029168 7CARTAO DE DESCONTOS DE PARNAMI194978              12022020REA000000000000000000000000037764                    00000000000000000000000                    00000031830018000144                     00
3410001300012A00000034108895 000000036292 2AMORSAUDE CLINICA MEDICA E ODO194716              12022020REA000000000000000000000000013801                    00000000000000000000000                    00000030280982000183                     00
3410001300013A00000034100845 000000005418 8NEXT2 TURISMO LTDA            194726              12022020REA000000000000000000000000219050                    00000000000000000000000                    00000018464447000187                     00
3410001300014A0000003419170  00000005854  0J3 VIAGENS E TURISMO LTDA ME  195443              12022020REA000000000000000000000000037503                    00000000000000000000000                    00000022807477000116                     00
3410001300015A00000034100445 000000048922 2MAGARI BLU VIAGENS LTDA       194747              12022020REA000000000000000000000000137615                    00000000000000000000000                    00000017489835000150                     00
3410001300016A00000034103170 000000002815 7DUEME VIAGENS E TURISMO LTDA  195667              12022020REA000000000000000000000000067329                    00000000000000000000000                    00000057366551000271                     00
3410001300017A00000034101633 000000064800 9CARLAVIEIRA AGENCIA DE VIAGENS194855              12022020REA000000000000000000000000040695                    00000000000000000000000                    00000011768218000107                     00
3410001300018A00000034100189 000000002184 3GUIA DE EXPERIENCIAS E LAZER L194655              12022020REA000000000000000000000000055023                    00000000000000000000000                    00000007887884000197                     00
3410001300019A00000034108848 000000024661 0MARIA CLAUDIA DA SILVA BASTOS 195122              12022020REA000000000000000000000000143636                    00000000000000000000000                    00000026481817000112                     00
3410001300020A00000034100646 000000050180 9ANITA FISCHER AGENCIA DE VIAGE195715              12022020REA000000000000000000000000271181                    00000000000000000000000                    00000005394337000144                     00
3410001300021A00000034101640 000000042224 0ADRIANA MONTEIRO DE ALMEIDA ME195230              12022020REA000000000000000000000000071201                    00000000000000000000000                    00000015000319000194                     00
3410001300022A00000034106519 000000015554 0VENDA NOVA ADM DE CARTOES LTDA195028              12022020REA000000000000000000000000008805                    00000000000000000000000                    00000012989806000133                     00
3410001300023A00000034106668 000000019122 1LEANDRA APARECIDA DE LIMA     194797              12022020REA000000000000000000000000035369                    00000000000000000000000                    00000000015931545859                     00
3410001300024A00000034100022 000000015049 4BRUNA MICHELE ORTIZ           194823              12022020REA000000000000000000000000009710                    00000000000000000000000                    00000000039460764835                     00
3410001300025A00000034100870 000000049804 5ADMINISTRADORA DE CARTAO DE TO194758              12022020REA000000000000000000000000002453                    00000000000000000000000                    00000010319953000170                     00
3410001300026A00000034100215 000000042080 3MARMORARIA TARDOC LTDA ME     194718              12022020REA000000000000000000000000014080                    00000000000000000000000                    00000002968921000178                     00
3410001300027A00000034101587 000000010719 2FRANCISCA MARIA FERREIRA DA SI195253              12022020REA000000000000000000000000160907                    00000000000000000000000                    00000020917157000193                     00
3410001300028A00000034100507 000000029530 1MARCO ANTONIO MIANI           195641              12022020REA000000000000000000000000008687                    00000000000000000000000                    00000000006236131821                     00
3410001300029A00000034109379 000000019699 2MIGUEL GIOVANNI RUCHEL        195257              12022020REA000000000000000000000000026283                    00000000000000000000000                    00000000059688971987                     00
3410001300030A00000034108895 000000036284 9AMORSAUDE BETIM CLINICA MEDICA195148              12022020REA000000000000000000000000017114                    00000000000000000000000                    00000030280982000183                     00
3410001300031A00000034103142 000000060595 9AMORSAUDE IBIRITE CLINICA MEDI195587              12022020REA000000000000000000000000265253                    00000000000000000000000                    00000032454844000107                     00
3410001300032A00000034109173 000000005032 0APARECIDO LUCIANO CASTAGNA ME 195352              12022020REA000000000000000000000000019986                    00000000000000000000000                    00000007503635000150                     00
3410001300033A00000034106223 000000000315 0MARILANE DOS SANTOS MARTINS   195349              12022020REA000000000000000000000000141617                    00000000000000000000000                    00000000000042247365                     00
3410001300034A00000034100215 000000033511 8BONFIM E SOUZA COMERCIO DE MAT194668              12022020REA000000000000000000000000006586                    00000000000000000000000                    00000006310047000138                     00
3410001300035A00000034108109 000000035660 3CREUNICE PEREIRA DE MATOS     194938              12022020REA000000000000000000000000016295                    00000000000000000000000                    00000000056178301120                     00
3410001300036A00000034106554 000000016941 4RICARDO MARCELINO DE OLIVEIRA 195673              12022020REA000000000000000000000000162300                    00000000000000000000000                    00000000036513299845                     00
3410001300037A00000034103218 000000038808 4MURBAK MOVEIS E DECORACOES EIR195558              12022020REA000000000000000000000002222554                    00000000000000000000000                    00000021592190000153                     00
3410001300038A00000034107412 000000019138 4FRANCISCO FABIO SANTOS DE OLIV195066              12022020REA000000000000000000000000014038                    00000000000000000000000                    00000000061401595391                     00
3410001300039A00000034101640 000000046640 3ROBERTO SANTOS DE ALMEIDA 5605195738              12022020REA000000000000000000000000008487                    00000000000000000000000                    00000026361134000121                     00
3410001300040A00000034107477 000000018926 5MS BAR E RESTAURANTE MEXICANO 195570              12022020REA000000000000000000000000031725                    00000000000000000000000                    00000027825387000252                     00
3410001300041A00000034109314 000000018153 9CELINA PEREIRA MASCARENHAS ME 194690              12022020REA000000000000000000000000061663                    00000000000000000000000                    00000009080995000112                     00
3410001300042A00000034104868 000000014743 2DANISLAN BAHIA LUZ 31066664803195131              12022020REA000000000000000000000000006666                    00000000000000000000000                    00000015551131000134                     00
3410001300043A00000034103754 000000044102 4DAVI COSTA MEDEIROS CONSULTORI195242              12022020REA000000000000000000000000053098                    00000000000000000000000                    00000021387467000106                     00
3410001300044A00000034101640 000000052990 3FRANCISCO DE ASSIS BATISTA DA 195340              12022020REA000000000000000000000000112577                    00000000000000000000000                    00000017170742000168                     00
3410001300045A00000034107011 000000008564 9SERGIO JORCELIO DE SA TORRES  194640              12022020REA000000000000000000000000016136                    00000000000000000000000                    00000000038960249149                     00
3410001300046A00000034101640 000000048969 4JBL CONSULTORIA DE MEIOS DE PA194899              12022020REA000000000000000000000000403992                    00000000000000000000000                    00000032527339000137                     00
3410001300047A00000034100002 000000035253 2THIAGO MOREIRA ANDRE          195611              12022020REA000000000000000000000000029946                    00000000000000000000000                    00000003424849000180                     00
3410001300048A00000034108615 000000099635 5MARIA SALETE GOMES SALES      195739              12022020REA000000000000000000000000006594                    00000000000000000000000                    00000013527316000188                     00
3410001300049A00000034100002 000000035253 2LUCAS FERREIRA MAGALHAES      195736              12022020REA000000000000000000000000108859                    00000000000000000000000                    00000003424849000180                     00
3410001300050A00000034109639 000000016124 0JULIANO AUGUSTO LLUIS MENDES  195216              12022020REA000000000000000000000000421606                    00000000000000000000000                    00000000023109567830                     00
3410001300051A00000034106680 000000015662 4REGINALDO JABALI DA SILVA     195313              12022020REA000000000000000000000000418140                    00000000000000000000000                    00000000091883563968                     00
3410001300052A00000034104453 000000018199 4AVANCE EQUIPAMENTOS E ACESSORI194896              12022020REA000000000000000000000000198963                    00000000000000000000000                    00000022691736000196                     00
3410001300053A00000034100066 000000036043 9CENTRO BRASILEIRO DE UROLOGIA 195329              12022020REA000000000000000000000000222420                    00000000000000000000000                    00000015148490000145                     00
3410001300054A00000034104453 000000012173 5AVANCAR CURSOS DE CAPACITACAO 195160              12022020REA000000000000000000000000115855                    00000000000000000000000                    00000014869305000149                     00
3410001300055A00000034100864 000000007114 7ELIANA BEZERRA DE SOUSA FEITOS195684              12022020REA000000000000000000000000020745                    00000000000000000000000                    00000000002862371130                     00
3410001300056A00000034100002 000000035253 2A  G COSMETICOS LTDA          195280              12022020REA000000000000000000000000039381                    00000000000000000000000                    00000003424849000180                     00
3410001300057A00000034100002 000000035253 2COMMIL COMERCIO E SERVICOS LTD194733              12022020REA000000000000000000000000027008                    00000000000000000000000                    00000003424849000180                     00
3410001300058A00000034107915 000000013985 6DIEGO HENRIQUE ARAUJO FERREIRA194762              12022020REA000000000000000000000000085340                    00000000000000000000000                    00000000070579623122                     00
3410001300059A00000034100002 000000035253 2DIEGO RICARDO ZAGO  COSMETICOS194811              12022020REA000000000000000000000000009232                    00000000000000000000000                    00000003424849000180                     00
3410001300060A00000034100002 000000035253 2COMERCIAL DE COSMETICOS BELEZA194907              12022020REA000000000000000000000000015137                    00000000000000000000000                    00000003424849000180                     00
3410001300061A00000034101644 000000066493 8GILDOMAR DOS SANTOS           195480              12022020REA000000000000000000000000050875                    00000000000000000000000                    00000000042820359191                     00
3410001300062A00000034100002 000000035253 2JR COSMETICOS  E REPRESENTACAO195240              12022020REA000000000000000000000000048144                    00000000000000000000000                    00000003424849000180                     00
3410001300063A00000034100002 000000035253 2NETWORK BEAUTY  FASHION COSMET195651              12022020REA000000000000000000000000080888                    00000000000000000000000                    00000003424849000180                     00
3410001300064A00000034105245 000000003832 7ALEX SANDRO VALEJO EVES       195188              12022020REA000000000000000000000000019956                    00000000000000000000000                    00000000000192870114                     00
3410001300065A00000034108527 000000006728 7ANA EMILIA SILVA              195716              12022020REA000000000000000000000000197000                    00000000000000000000000                    00000000075528630304                     00
3410001300066A00000034108004 000000015567 0JANETE DOS SANTOS SANTIAGO    194646              12022020REA000000000000000000000000004412                    00000000000000000000000                    00000000059314362515                     00
3410001300067A00000034108015 000000004423 6AARAN INDUSTRIA E COMERCIO DE 195485              12022020REA000000000000000000000000017266                    00000000000000000000000                    00000000229392000165                     00
3410001300068A00000034100560 000000038225 1JONES SOUZA DA SILVA          195123              12022020REA000000000000000000000000005687                    00000000000000000000000                    00000000032044349825                     00
3410001300069A00000034108031 000000009829 9CARIGNATI E LANDI COMERCIAL LT195225              12022020REA000000000000000000000000085875                    00000000000000000000000                    00000003300858000160                     00
3410001300070A00000034107446 000000020536 6EDUARDO AGRIPINO BIAZON       195726              12022020REA000000000000000000000000060760                    00000000000000000000000                    00000005906650000114                     00
3410001300071A00000034106223 000000003851 1LUCILENE DO NASCIMENTO REBOUCA194936              12022020REA000000000000000000000000182273                    00000000000000000000000                    00000000058037195368                     00
3410001300072A00000034106915 000000018144 7MONIQUE EVA MARTINS SIQUEIRA  194672              12022020REA000000000000000000000000020687                    00000000000000000000000                    00000000036076524812                     00
3410001300073A00000034109237 000000005870 7MARCIO DOS SANTOS FERNANDES   195746              12022020REA000000000000000000000000013811                    00000000000000000000000                    00000000067076530759                     00
3410001300074A00000034103094 000000019465 5FERNANDA MARQUESINI DE FARIA  194742              12022020REA000000000000000000000000036887                    00000000000000000000000                    00000000042190888816                     00
3410001300075A00000034101644 000000057053 1LILIANE D FATIMA ALVES        194852              12022020REA000000000000000000000000040617                    00000000000000000000000                    00000000000973975121                     00
3410001300076A00000034101644 000000062360 3V F DOS SANTOS COMERCIO DE MOV195734              12022020REA000000000000000000000000008685                    00000000000000000000000                    00000012258816000107                     00
3410001300077A00000034108394 000000003842 9FRANCISCO DAS CHAGAS DE SOUSA 194981              12022020REA000000000000000000000000082459                    00000000000000000000000                    00000000058476318120                     00
3410001300078A00000034108356 000000017791 8MILLADY VITORINO DIAS         194670              12022020REA000000000000000000000000002891                    00000000000000000000000                    00000000014587865796                     00
3410001300079A00000034101478 000000026876 4GIL PORTO DE BRITO ME         195449              12022020REA000000000000000000000000024289                    00000000000000000000000                    00000017322294000170                     00
3410001300080A00000034100865 000000013771 5MARCOS ROBERTO FERREIRA BISPO 195334              12022020REA000000000000000000000000123525                    00000000000000000000000                    00000049170780000107                     00
3410001300081A00000034100560 000000077000 0MATOS PEDRO E LOTIERSO INFORMA195083              12022020REA000000000000000000000000001936                    00000000000000000000000                    00000034300874000186                     00
3410001300082A00000034101587 000000058050 5THAIS MARA DA SILVA NOGUEIRA  195442              12022020REA000000000000000000000000008673                    00000000000000000000000                    00000000005882102340                     00
3410001300083A00000034100792 000000040187 9RONALDO CLEMENTE              194982              12022020REA000000000000000000000000072266                    00000000000000000000000                    00000000007110347885                     00
3410001300084A00000034107837 000000009905 5JADMA CARLA SAMPAIO           195747              12022020REA000000000000000000000000001232                    00000000000000000000000                    00000000064086275287                     00
3410001300085A00000034103010 000000003587 5PARTISANS PUB BAR LTDA        195209              12022020REA000000000000000000000000007468                    00000000000000000000000                    00000014147047000197                     00
3410001300086A00000034100668 000000003998 5SANDRA ROSANE PILARSKI        195606              12022020REA000000000000000000000000040224                    00000000000000000000000                    00000000026452399861                     00
3410001300087A00000034104419 000000005454 1MARIA ERITANIA ALVES DE ARAUJO194764              12022020REA000000000000000000000000003287                    00000000000000000000000                    00000000001943754128                     00
3410001300088A00000034103613 000000010718 8ELIZABETE VIEIRA CABRAL GARCIA195411              12022020REA000000000000000000000000034423                    00000000000000000000000                    00000000013196194876                     00
3410001300089A00000034108078 000000008555 5PANIFICADORA E CONFEITARIA MIA195635              12022020REA000000000000000000000000455897                    00000000000000000000000                    00000049249600000187                     00
3410001300090A00000034103130 000000051351 2PADARIA RUA DO ROCIO PAES E LA195438              12022020REA000000000000000000000000114858                    00000000000000000000000                    00000027444888000108                     00
3410001300091A00000034106646 000000016487 8DIEGO RAMOS DE VILLIO         195602              12022020REA000000000000000000000000150280                    00000000000000000000000                    00000000042694648878                     00
3410001300092A00000034100762 000000043282 1NELSON LUIZ DE VILLIO         194914              12022020REA000000000000000000000000051567                    00000000000000000000000                    00000000006321954870                     00
3410001300093A00000034103788 000000058820 4TANJI E DARCIE LTDA           194765              12022020REA000000000000000000000000053081                    00000000000000000000000                    00000017084440000177                     00
3410001300094A00000034108290 000000049307 4TIAGO ALVES DOS SANTOS        194665              12022020REA000000000000000000000000004168                    00000000000000000000000                    00000000001578347432                     00
3410001300095A00000034103744 000000004501 8CLAUDIO FERNANDO BARBOSA      194813              12022020REA000000000000000000000000030131                    00000000000000000000000                    00000000004438801664                     00
3410001300096A00000034101514 000000044166 4LAB CAR SERVICOS AUTOMOTIVOS L195285              12022020REA000000000000000000000000019700                    00000000000000000000000                    00000026658145000178                     00
3410001300097A00000034107690 000000035000 9VANDILMO FERREIRA CAMPOS      195244              12022020REA000000000000000000000000001475                    00000000000000000000000                    00000000041175127817                     00
3410001300098A00000034108789 000000054433 8HS IMOBILIARIA LTDA           195269              12022020REA000000000000000000000000154820                    00000000000000000000000                    00000011351497000109                     00
3410001300099A00000034102921 000000032440 2ROBERTO JORDAO DIAS           195690              12022020REA000000000000000000000000066801                    00000000000000000000000                    00000012300707000100                     00
3410001300100A00000034103613 000000011505 8PATRICIA APARECIDA RIBEIRO NEV195047              12022020REA000000000000000000000000058000                    00000000000000000000000                    00000000034885863830                     00
3410001300101A00000034109354 000000035583 7GENIVALDO DE ASSIS LESBRAO 603195307              12022020REA000000000000000000000000015337                    00000000000000000000000                    00000024459605000103                     00
3410001300102A00000034103240 000000023651 7SONHO E MAGIA AGENCIA DE VIAGE195085              12022020REA000000000000000000000000040688                    00000000000000000000000                    00000030803887000117                     00
3410001300103A00000034103827 000000012759 2EVANDRO DE SOUSA BORGES       195423              12022020REA000000000000000000000000157942                    00000000000000000000000                    00000008778057000128                     00
3410001300104A00000034100002 000000035253 2DRUMOND  NEGRO COMERCIO DE COS194920              12022020REA000000000000000000000000061869                    00000000000000000000000                    00000003424849000504                     00
3410001300105A00000034100366 000000035906 5RAIMUNDO FAZ TUDO SERVICOS MEC195263              12022020REA000000000000000000000000044939                    00000000000000000000000                    00000005876008000210                     00
3410001300106A00000034101338 000000060062 8AMANNDA PEIXOTO DO NASCIMENTO 194712              12022020REA000000000000000000000000520848                    00000000000000000000000                    00000000000310113300                     00
3410001300107A00000034100792 000000015663 0BOI BOM RIO PRETO CHURRASCARIA195288              12022020REA000000000000000000000000240059                    00000000000000000000000                    00000001107896000175                     00
3410001300108A00000034100561 000000019551 2AUTO ESTUFA VIAMAX LTDA       195502              12022020REA000000000000000000000000120000                    00000000000000000000000                    00000022055956000123                     00
3410001300109A00000034100691 000000005705 3THAINARA DA SILVA RIBEIRO     195001              12022020REA000000000000000000000000065258                    00000000000000000000000                    00000000045759216880                     00
3410001300110A00000034104903 000000008710 6DOUGLAS MESSIAS MACAUBA       195748              12022020REA000000000000000000000000004793                    00000000000000000000000                    00000000038752837831                     00
3410001300111A00000034107410 000000007320 4MARCELO JORGE MIRANDA         195406              12022020REA000000000000000000000000014629                    00000000000000000000000                    00000000070152063315                     00
3410001300112A00000034105437 000000000725 4NILTON APARECIDO RUFINO       195277              12022020REA000000000000000000000000014702                    00000000000000000000000                    00000000007177252860                     00
3410001300113A00000034100718 000000004098 3RODRIGO DOS SANTOS CARRARA    195339              12022020REA000000000000000000000000131129                    00000000000000000000000                    00000000039181386826                     00
3410001300114A00000034106922 000000014273 9ANTONIO MARCOS PEREIRA MAFRA  195433              12022020REA000000000000000000000000002130                    00000000000000000000000                    00000000005045477633                     00
3410001300115A00000034100002 000000035253 2LOOK S COMESTICOS LTDA        195593              12022020REA000000000000000000000000041146                    00000000000000000000000                    00000003424849000180                     00
3410001300116A00000034104878 000000033017 6MARCOS AZEVEDO DA SILVA       195184              12022020REA000000000000000000000000004018                    00000000000000000000000                    00000000080762999772                     00
3410001300117A00000034100187 000000013926 6CRZ COMERCIO E REPRESENTACOES 195450              12022020REA000000000000000000000000223993                    00000000000000000000000                    00000047738604000101                     00
3410001300118A00000034109237 000000033218 5ALISON ALVES MIRANDA          195191              12022020REA000000000000000000000000215241                    00000000000000000000000                    00000034743843000108                     00
3410001300119A00000034104285 000000011799 2DIEGO LEITE DE BARROS ASSESSOR195574              12022020REA000000000000000000000000060313                    00000000000000000000000                    00000011316118000140                     00
3410001300120A00000034108217 000000019647 9RAQUEL FARIA SABIONI 277042048195149              12022020REA000000000000000000000000019897                    00000000000000000000000                    00000034178383000104                     00
3410001300121A00000034103130 000000066171 7ORIGINAL FOOD HALL LANCHES EIR194850              12022020REA000000000000000000000000002716                    00000000000000000000000                    00000032968102000191                     00
3410001300122A00000034107412 000000046895 6LUAN GABRIEL SANTOS LIMA      195030              12022020REA000000000000000000000000095000                    00000000000000000000000                    00000000062221670396                     00
3410001300123A00000034101338 000000002976 0LUCIANO MEDEIROS DE ARAUJO    194774              12022020REA000000000000000000000000049008                    00000000000000000000000                    00000000050080563368                     00
3410001300124A00000034100004 000000004440 0CR COSTA BRINQUEDOS           195258              12022020REA000000000000000000000000107112                    00000000000000000000000                    00000059426429000198                     00
3410001300125A00000034106509 000000020558 6JEAM VASCONCELOS DE ALMEIDA   194676              12022020REA000000000000000000000000259517                    00000000000000000000000                    00000021430227000147                     00
3410001300126A00000034108871 000000033880 5WASHINGTON LUIZ RIBEIRO SILVA 195247              12022020REA000000000000000000000000020739                    00000000000000000000000                    00000035310896000190                     00
3410001300127A00000034108031 000000031681 6ANDRE LUIZ HERMENEGILDO ESTAN 194842              12022020REA000000000000000000000000029222                    00000000000000000000000                    00000000029038808836                     00
3410001300128A00000034103839 000000008967 3LABORATORIO DE ANALISES CLINIC195060              12022020REA000000000000000000000000067339                    00000000000000000000000                    00000077811685000180                     00
3410001300129A00000034108874 000000000613 6CS8 VIAGENS E TURISMO LTDA ME 195711              12022020REA000000000000000000000000150985                    00000000000000000000000                    00000013493042000153                     00
3410001300130A00000034106458 000000020883 9RICARDO GARCIA                195660              12022020REA000000000000000000000000006403                    00000000000000000000000                    00000000015588449886                     00
3410001300131A00000034108205 000000001264 7GERSON COSTA RAMOS            195743              12022020REA000000000000000000000000004886                    00000000000000000000000                    00000000019930247866                     00
3410001300132A00000034106914 000000018038 2BM RADIADORES  MANUTENCAO E VE195407              12022020REA000000000000000000000000333526                    00000000000000000000000                    00000026226785000109                     00
3410001300133A00000034106515 000000001404 8JARDELSON FERREIRA DA SILVA   195235              12022020REA000000000000000000000000015000                    00000000000000000000000                    00000000005854789450                     00
3410001300134A00000034106492 000000016570 6IZABEL DE SOUZA SALAZAR FURTAD195203              12022020REA000000000000000000000000001230                    00000000000000000000000                    00000018230240000148                     00
3410001300135A00000034108297 000000008904 0MARKOBRAS AMBIENTAL EIRELI    195053              12022020REA000000000000000000000000075286                    00000000000000000000000                    00000001860710000154                     00
3410001300136A00000034100874 000000008614 3A H ROMEIRO  MATERIAL DE CONST194722              12022020REA000000000000000000000000035047                    00000000000000000000000                    00000009369666000196                     00
3410001300137A00000034108412 000000007553 6STEFANO HENRIQUE TACITO MECANI195006              12022020REA000000000000000000000000055980                    00000000000000000000000                    00000006215319000110                     00
3410001300138A00000034101338 000000021549 2LUCAS AGUIAR FREIRE           194971              12022020REA000000000000000000000000165946                    00000000000000000000000                    00000000005377104340                     00
3410001300139A00000034100519 000000024389 3ELEANDRO SIGNORI              195762              12022020REA000000000000000000000000042890                    00000000000000000000000                    00000000099269295087                     00
3410001300140A00000034107493 000000023719 7GILMARA RODRIGUES DOS SANTOS S195080              12022020REA000000000000000000000000004383                    00000000000000000000000                    00000000009588281725                     00
3410001300141A00000034105652 000000027826 7FELIPE GOMES DA COSTA         195282              12022020REA000000000000000000000000009740                    00000000000000000000000                    00000000008186726411                     00
3410001300142A00000034106288 000000024896 3DAV PRODUCOES E EVENTOS       195375              12022020REA000000000000000000000000184211                    00000000000000000000000                    00000035375456000110                     00
3410001300143A00000034107293 000000000672 7ALDENEIDE MERENCIANO DA SILVA 194862              12022020REA000000000000000000000000018806                    00000000000000000000000                    00000000000809805979                     00
3410001300144A00000034104086 000000006811 3AKIKO FUJII                   194629              12022020REA000000000000000000000000063414                    00000000000000000000000                    00000000015430322814                     00
3410001300145A00000034107706 000000024030 1THIAGO FELIPE CAMARA SOUZA    194682              12022020REA000000000000000000000000101706                    00000000000000000000000                    00000030628410000142                     00
3410001300146A00000034107922 000000000102 4BRUNO CAMILO DO NASCIMENTO    195467              12022020REA000000000000000000000000155567                    00000000000000000000000                    00000000007594113446                     00
3410001300147A00000034100233 000000034955 4MICHELE APARECIDA MARQUES BISP194808              12022020REA000000000000000000000000015931                    00000000000000000000000                    00000000008035424963                     00
3410001300148A00000034100792 000000008250 5ASSOCIACAO DE SAUDE INTEGRAL M194877              12022020REA000000000000000000000000112333                    00000000000000000000000                    00000021012051000103                     00
3410001300149A00000034100372 000000087961 9LUCRECIA RAFAELA PEREIRA DA SI195468              12022020REA000000000000000000000000010202                    00000000000000000000000                    00000000001814356401                     00
3410001300150A00000034107221 000000029428 8JEU BATISTA DA COSTA 004392192195332              12022020REA000000000000000000000000015488                    00000000000000000000000                    00000035464758000165                     00
3410001300151A00000034104440 000000012431 3JOAO ADAUTO BRUM              195608              12022020REA000000000000000000000000040650                    00000000000000000000000                    00000000090596382634                     00
3410001300152A00000034100426 000000014676 7ANDRE RODRIGO MARTINS FERREIRA194812              12022020REA000000000000000000000000100000                    00000000000000000000000                    00000031049557000140                     00
3410001300153A00000034108290 000000050980 4CYNTIA RAQUEL DUARTE PEREIRA  195670              12022020REA000000000000000000000000003437                    00000000000000000000000                    00000035541745000142                     00
3410001300154A00000034100453 000000024037 6MARIA DO CARMO DE MELO RODRIGU195581              12022020REA000000000000000000000000212218                    00000000000000000000000                    00000000001177804484                     00
3410001300155A00000034102782 000000004146 7CLICK BIKE COMERCIO DE BICICLE194684              12022020REA000000000000000000000000176334                    00000000000000000000000                    00000026379824000108                     00
3410001300156A00000034100502 000000008225 8LETICIA APARECIDA FURQUIM     195552              12022020REA000000000000000000000000054802                    00000000000000000000000                    00000000045161813806                     00
3410001300157A00000034104440 000000012868 6VALERIA QUEIROZ DE LIMA MARQUE195129              12022020REA000000000000000000000000050654                    00000000000000000000000                    00000000002565941714                     00
3410001300158A00000034103797 000000004697 0VALTER YASSUYUKI SHIMAZU      194717              12022020REA000000000000000000000000225418                    00000000000000000000000                    00000000004685174801                     00
3410001300159A00000034102783 000000012005 4DOUGLAS FERNANDO SOUZA        195276              12022020REA000000000000000000000000113079                    00000000000000000000000                    00000000038940581881                     00
3410001300160A00000034107135 000000019411 1RENATO SIDNEI GARCIA COMERIO D194865              12022020REA000000000000000000000000050224                    00000000000000000000000                    00000023602994000111                     00
3410001300161A00000034100561 000000022511 1A P BARBOSA JORDAO OPTICA     195192              12022020REA000000000000000000000000037354                    00000000000000000000000                    00000028235666000148                     00
3410001300162A00000034108568 000000005241 2ANTONIO CLAUDINELY DOS SANTOS 194822              12022020REA000000000000000000000000035893                    00000000000000000000000                    00000026740165000193                     00
3410001300163A00000034105783 000000006960 1MARIA DA PENHA DA SILVA       195199              12022020REA000000000000000000000000331886                    00000000000000000000000                    00000033169420000155                     00
3410001300164A00000034100218 000000052532 7RS CURSOS PROFISSIONAIS LTDA  194767              12022020REA000000000000000000000000011674                    00000000000000000000000                    00000005217020000132                     00
3410001300165A00000034102483 000000001930 9FABIO DE OLIVEIRA GOIS        195167              12022020REA000000000000000000000000012744                    00000000000000000000000                    00000000069770999415                     00
3410001300166A00000034100332 000000008778 2MARIA ZELIA TEREZA DE SOUZA   195134              12022020REA000000000000000000000000416680                    00000000000000000000000                    00000052965167000190                     00
3410001300167A00000034105579 000000027105 6B4NK SERVICO TECNOLOGIA LTDA  194874              12022020REA000000000000000000000000003749                    00000000000000000000000                    00000029089036000175                     00
3410001300168A00000034103827 000000058292 9FRANCISCO DOUGLAS LIMA ROSENO 195637              12022020REA000000000000000000000000029598                    00000000000000000000000                    00000013919241000180                     00
3410001300169A00000034103344 000000043536 1WILLIAN DIEGO CESTILLE        195609              12022020REA000000000000000000000000002278                    00000000000000000000000                    00000030347182000132                     00
3410001300170A00000034104861 000000032002 8AMF COMERCIO DE PRODUTOS DESCA195000              12022020REA000000000000000000000000009401                    00000000000000000000000                    00000031033045000196                     00
34100015         000172000000000016075989000000000000000000                                                                                                                                                                                     
34100021C9841040 222347623000178                    06248 000000045232 5CELER PAGAMENTOS                                                                                   00000                                   00000000                     
3410002300001A00000023700354 000000130813 4CELER                         195164              12022020REA000000000000000000000000002541                    00000000000000000000000                    00000022347623000178                     00
3410002300002A00000003304442 000013000418 5CARTAO DE DESCONTO TERRA DOS B195730              12022020REA000000000000000000000000030457                    00000000000000000000000                    00000011051024000196                     00
3410002300003A00000000104288 000000021080 3ROBERTH BAETA NASCIMENTO FILHO195110              12022020REA000000000000000000000000002259                    00000000000000000000000                    00000000060946630399                     00
3410002300004A00000004100028 000060862100 3NARA R LEAL DE CORDEIRO       195497              12022020REA000000000000000000000000018117                    00000000000000000000000                    00000002909169000194                     00
3410002300005A00000023700388 000000061107 7LA HUR SOUZA MARQUES          195405              12022020REA000000000000000000000000013631                    00000000000000000000000                    00000000022547444020                     00
3410002300006A00000023703157 000000034696 9DIEGO GARCIA DA SILVA         194698              12022020REA000000000000000000000000031592                    00000000000000000000000                    00000009354049000117                     00
3410002300007A00000010401174 001300040828 1VALERIA SILVA LOCCI           195409              12022020REA000000000000000000000000001234                    00000000000000000000000                    00000000032847745807                     00
3410002300008A00000008500109 000000044648 3EPR CENTRO AUTOMOTIVO ME LTDA 195316              12022020REA000000000000000000000000076455                    00000000000000000000000                    00000030636108000136                     00
3410002300009A00000000400265 000000016213 0AUTO CENTER LOJAO DO OLEO LTDA195354              12022020REA000000000000000000000000190718                    00000000000000000000000                    00000002285681000107                     00
3410002300010A00000023700600 000000024244 6TABARATO INDUSTRIA E COMERCIO 195509              12022020REA000000000000000000000000045675                    00000000000000000000000                    00000017059837000109                     00
3410002300011A00000003304585 000001019191 6CLAUDIO BARBOSA REBOUCAS      194730              12022020REA000000000000000000000000060013                    00000000000000000000000                    00000000024510173334                     00
3410002300012A00000003303962 000001082657 7ATILA RANGEL TEOFILO          195544              12022020REA000000000000000000000000188579                    00000000000000000000000                    00000000044783558353                     00
3410002300013A00000023702251 000000040140 4INDUSTRIA E COMDE CONFECCAO FL195174              12022020REA000000000000000000000000028780                    00000000000000000000000                    00000004968641000276                     00
3410002300014A00000023700513 000000010481 7F e G ADMINISTRADORA DE CARTOE195706              12022020REA000000000000000000000000022216                    00000000000000000000000                    00000030672643000142                     00
3410002300015A00000023701232 000000024820 7ADMINISTRADORA DE CARTAO DE DE195624              12022020REA000000000000000000000000053527                    00000000000000000000000                    00000031284933000181                     00
3410002300016A00000000104288 000000018690 2FERNANDO EDUARDO DE SOUZA FERN194963              12022020REA000000000000000000000000011213                    00000000000000000000000                    00000000001250454336                     00
3410002300017A00000000101195 000000040736 4MIRA COMERCIO DE CALCADOS CONF195692              12022020REA000000000000000000000000080985                    00000000000000000000000                    00000028464073000153                     00
3410002300018A00000000101195 000000040736 4CONFECCOES  MIROA LTDA        195093              12022020REA000000000000000000000000136241                    00000000000000000000000                    00000028464073000153                     00
3410002300019A00000000101195 000000040736 4U2MODASCOM DE ROUPAS E ACES EI195551              12022020REA000000000000000000000000324136                    00000000000000000000000                    00000028464073000153                     00
3410002300020A00000000101195 000000040736 4M2MODAS COM DE ROUPAS E ACESSL195108              12022020REA000000000000000000000000170601                    00000000000000000000000                    00000028464073000153                     00
3410002300021A00000000101195 000000040736 4M2MODAS COM DE ROUPAS E ACESSL195392              12022020REA000000000000000000000000113188                    00000000000000000000000                    00000028464073000153                     00
3410002300022A00000000101195 000000040736 4H2KIM CO CALC ROUPAS E ACESS  194728              12022020REA000000000000000000000000060508                    00000000000000000000000                    00000028464073000153                     00
3410002300023A00000000101195 000000040736 4H2KIM CO CALC ROUPAS E ACESS E194770              12022020REA000000000000000000000000343451                    00000000000000000000000                    00000028464073000153                     00
3410002300024A00000000101195 000000040736 4MY MODAS COMROUPAS ACES EIRELI195287              12022020REA000000000000000000000000229801                    00000000000000000000000                    00000028464073000153                     00
3410002300025A00000000101195 000000040736 4MIRA MODAS COMSERVDA MODA EIRE194854              12022020REA000000000000000000000000278168                    00000000000000000000000                    00000028464073000153                     00
3410002300026A00000075604370 000000032990 8PDV365 PRODUCAO E AUTOMACAO DE194843              12022020REA000000000000000000000000123327                    00000000000000000000000                    00000012569291000112                     00
3410002300027A00000010401816 000000002974 6ANTONIO ROBERTO DOS SANTOS COL194906              12022020REA000000000000000000000000161262                    00000000000000000000000                    00000023179151000154                     00
3410002300028A00000000105799 000000010279 2TATIELI FERREIRA ARAUJO       195139              12022020REA000000000000000000000000020826                    00000000000000000000000                    00000000002941914102                     00
3410002300029A00000023701849 000000011116 3MIX LAR EIRELI                195105              12022020REA000000000000000000000000016159                    00000000000000000000000                    00000028940115000185                     00
3410002300030A00000000104992 000000012279 3WAGNER LEAL DIAS              195295              12022020REA000000000000000000000000030921                    00000000000000000000000                    00000000000985585102                     00
3410002300031A00000010402228 001300000692 8LUCIO PEREIRA GAVILAN         195689              12022020REA000000000000000000000000005886                    00000000000000000000000                    00000000048172847149                     00
3410002300032A00000074800911 000000029816 6BORRACHARIA NOSSA SENHORA APAR195582              12022020REA000000000000000000000000006871                    00000000000000000000000                    00000006917099000177                     00
3410002300033A00000023701849 000000001116 9MARISTELA GUIMARAES LEONEL ME 195365              12022020REA000000000000000000000000003430                    00000000000000000000000                    00000011709286000103                     00
3410002300034A00000023701849 000000006337 1ANTONIO CARLOS LEAO RODRIGUES 195614              12022020REA000000000000000000000000008625                    00000000000000000000000                    00000005802239000107                     00
3410002300035A00000010402112 001300007006 4IRACEMA GOULART MEDEIROS      195036              12022020REA000000000000000000000000204025                    00000000000000000000000                    00000000052629767000                     00
3410002300036A00000003304387 000013000211 4N C ADMINISTRADORA DE CARTAO D194711              12022020REA000000000000000000000000004936                    00000000000000000000000                    00000011174739000136                     00
3410002300037A00000003300037 000000147525 4DILVANIA APARECIDA VIEIRA     194913              12022020REA000000000000000000000000006286                    00000000000000000000000                    00000000001899964800                     00
3410002300038A00000010400017 001300068810 4CLEITON TRAVASSO              195588              12022020REA000000000000000000000000018742                    00000000000000000000000                    00000000079936822153                     00
3410002300039A00000023700023 000000253043 0J JOAO DE SOUZA PECAS EPP     195520              12022020REA000000000000000000000000028830                    00000000000000000000000                    00000017276511000133                     00
3410002300040A00000023700023 000000253043 0JOSE APARECIDO  PICOLO  CIA LT195751              12022020REA000000000000000000000000483063                    00000000000000000000000                    00000017276511000133                     00
3410002300041A00000023700023 000000253043 0HL SOSSO SJ DO RIO PRETO ME   195100              12022020REA000000000000000000000000744411                    00000000000000000000000                    00000017276511000133                     00
3410002300042A00000023700023 000000253043 0A L SOSSO CONFECCOES ME       195718              12022020REA000000000000000000000000155156                    00000000000000000000000                    00000017276511000133                     00
3410002300043A00000000100048 000000135373 0VANESSA PAULO DA SILVA        195381              12022020REA000000000000000000000000010781                    00000000000000000000000                    00000000002864387123                     00
3410002300044A00000023701849 000000001268 8AURELIO FERREIRA RIBEIRO ME   195458              12022020REA000000000000000000000000010627                    00000000000000000000000                    00000005669371000184                     00
3410002300045A00000000104992 000000012830 9VANIA LUCIA FRANCISCA DA SILVA195528              12022020REA000000000000000000000000003332                    00000000000000000000000                    00000000028029356153                     00
3410002300046A00000010404551 000000000217 0L.P. CONSTRUCOES LTDA ME      195674              12022020REA000000000000000000000000317571                    00000000000000000000000                    00000041314790000167                     00
3410002300047A00000026000001 000071128234 0RENATO LOPES DE PAULA         194692              12022020REA000000000000000000000000027920                    00000000000000000000000                    00000000002942683163                     00
3410002300048A00000000103673 000000024938 6MARCIA DOS SANTOS MARTINS     194846              12022020REA000000000000000000000000178133                    00000000000000000000000                    00000014971559000173                     00
3410002300049A00000000101702 000000210986 7VIDRAUTOS COMERCIO DE VIDROS P194631              12022020REA000000000000000000000000330802                    00000000000000000000000                    00000005646392000184                     00
3410002300050A00000010400340 001300041293 8MARCIO MOREIRA FUNCHAL        195363              12022020REA000000000000000000000000027020                    00000000000000000000000                    00000000069335257672                     00
3410002300051A00000000104992 000000009676 8NESTOR RODRIGUES NETO         194773              12022020REA000000000000000000000000058262                    00000000000000000000000                    00000000000860438112                     00
3410002300052A00000008500101 000000732600 9MAGNUM INSTRUMENTOS MUSICAIS L195694              12022020REA000000000000000000000000181785                    00000000000000000000000                    00000082097197000193                     00
3410002300053A00000010400898 000000002712 8ADMINISTRADORA DE SERVICOS DE 194851              12022020REA000000000000000000000000007308                    00000000000000000000000                    00000030676872000135                     00
3410002300054A00000010404551 001300007769 0ANTONIO WANDERSON MOREIRA     194860              12022020REA000000000000000000000000234112                    00000000000000000000000                    00000000001214858384                     00
3410002300055A00000008500101 000000679040 2SALVA MED EMERGENCIAS MEDICAS 195121              12022020REA000000000000000000000000005408                    00000000000000000000000                    00000004094517000148                     00
3410002300056A00000023700023 000000253043 0J C ZANI CONFECCOES EIRELI    195070              12022020REA000000000000000000000000127308                    00000000000000000000000                    00000017276511000133                     00
3410002300057A00000023700023 000000253043 0D D PALMEIRA CONFECCOES       195646              12022020REA000000000000000000000000019190                    00000000000000000000000                    00000017276511000133                     00
3410002300058A00000023700023 000000253043 0D D PALMEIRA CONFECCOES       195434              12022020REA000000000000000000000000183980                    00000000000000000000000                    00000017276511000133                     00
3410002300059A00000010402346 001300042296 6NIVALDO PEREIRA DA SILVA      195335              12022020REA000000000000000000000000004650                    00000000000000000000000                    00000000065792980497                     00
3410002300060A00000023700023 000000253043 0O D PALMEIRA CONFECCOES       194975              12022020REA000000000000000000000000090936                    00000000000000000000000                    00000017276511000133                     00
3410002300061A00000010403014 001300032643 3MARCELO SANTOS NOGUEIRA       195554              12022020REA000000000000000000000000250469                    00000000000000000000000                    00000000085616605468                     00
3410002300062A00000004100790 000190156720 6SILVIA FUZER                  195493              12022020REA000000000000000000000000011108                    00000000000000000000000                    00000000839916000130                     00
3410002300063A00000010403283 001300003920 9SILVIA MARIA DA SILVA         195181              12022020REA000000000000000000000000066887                    00000000000000000000000                    00000000099832593468                     00
3410002300064A00000003304478 000013007361 8M E R BAR E RESTAURANTE LTDA  195169              12022020REA000000000000000000000000042372                    00000000000000000000000                    00000027719058000146                     00
3410002300065A00000023702740 000000017010 0BEATRIZ SILVA CARVALHAES      194840              12022020REA000000000000000000000000043436                    00000000000000000000000                    00000015147464000100                     00
3410002300066A00000010400047 001300053396 1WELLINGTON FERREIRA DA SILVA  195217              12022020REA000000000000000000000000033702                    00000000000000000000000                    00000000025361007404                     00
3410002300067A00000010400539 001300002966 4ERINALDO GUEDES DA SILVA      195427              12022020REA000000000000000000000000018093                    00000000000000000000000                    00000000080554962420                     00
3410002300068A00000010401307 001300250042 0RUTH LEA JORGE DA SILVA DUARTE195368              12022020REA000000000000000000000000015488                    00000000000000000000000                    00000000064373312320                     00
3410002300069A00000010401033 001300032289 4ROSELIA DE LIMA DA COSTA      195310              12022020REA000000000000000000000000120000                    00000000000000000000000                    00000000050409298468                     00
3410002300070A00000000104992 000000012552 0PAMELA CRISTINA MEDINA SANTOS 194660              12022020REA000000000000000000000000005975                    00000000000000000000000                    00000000004631835176                     00
3410002300071A00000023703238 000000014041 4BARBARA DOS SANTOS PROTAZIO   195302              12022020REA000000000000000000000000003883                    00000000000000000000000                    00000000061719495319                     00
3410002300072A00000008500101 000000954287 6ELIAS CAVALHEIRO              194750              12022020REA000000000000000000000000020904                    00000000000000000000000                    00000000003347243927                     00
3410002300073A00000010400017 001300068586 5SIRLENE MARTINS DA SILVA CARDO195236              12022020REA000000000000000000000000001568                    00000000000000000000000                    00000000055996000172                     00
3410002300074A00000010404557 000000000878 2ADMINISTRADORA DE CARTAO DE TO195252              12022020REA000000000000000000000000058533                    00000000000000000000000                    00000025341175000193                     00
3410002300075A00000000101873 000000123912 0TONY EWERTON GUNIZEL SIQUEIRA 195744              12022020REA000000000000000000000000027264                    00000000000000000000000                    00000000000840872186                     00
3410002300076A00000010400917 000000005066 0ADMINISTRADORA DE CARTAO DE DE195435              12022020REA000000000000000000000000048625                    00000000000000000000000                    00000031407148000179                     00
3410002300077A00000003300254 000013003667 7PHOENIX TREINAMENTO E DESENVOL195043              12022020REA000000000000000000000000161139                    00000000000000000000000                    00000025284710000111                     00
3410002300078A00000023700851 000000004635 3VALDEIR BATISTA DA COSTA      194817              12022020REA000000000000000000000000004299                    00000000000000000000000                    00000000093102577172                     00
3410002300079A00000010403245 000000004626 7ALINE ELAINE GUIMARAES        195147              12022020REA000000000000000000000000003904                    00000000000000000000000                    00000000028537168807                     00
3410002300080A00000023700023 000000253043 0TAWE COMERCIO DE CALCADOS E AC195255              12022020REA000000000000000000000000136755                    00000000000000000000000                    00000017276511000133                     00
3410002300081A00000003300083 000013007492 1CENTRAL DE NEGOCIOS AGENCIA DE195413              12022020REA000000000000000000000001352935                    00000000000000000000000                    00000004885275000100                     00
3410002300082A00000023703061 000000013470 8LIMATUR CONGRESSOS E EVENTOS L195248              12022020REA000000000000000000000000029355                    00000000000000000000000                    00000022528147000191                     00
3410002300083A00000023701800 000000039689 3FABIO FRANCISCO DOS SANTOS    195733              12022020REA000000000000000000000000007859                    00000000000000000000000                    00000000003496571497                     00
3410002300084A00000023701789 000000043251 2CONTINENTTRAVEL  AGENCIA DE VI195513              12022020REA000000000000000000000000012142                    00000000000000000000000                    00000017714146000100                     00
3410002300085A00000000400016 000000189639 3ALVENIS RODRIGUES TEIXEIRA    195237              12022020REA000000000000000000000000034796                    00000000000000000000000                    00000000029462177368                     00
3410002300086A00000003303829 000013004328 3ALESSANDRA SAYURI SAKAI 176105194962              12022020REA000000000000000000000000006972                    00000000000000000000000                    00000022933270000198                     00
3410002300087A00000023701445 000000030451 4UPPER CLASS AGENCIA DE VIAGENS194699              12022020REA000000000000000000000000080950                    00000000000000000000000                    00000066090770000180                     00
3410002300088A00000000105101 000000020027 1VERA LUCIA BASTOS TIGRE       194905              12022020REA000000000000000000000000027889                    00000000000000000000000                    00000000023191201300                     00
3410002300089A00000003303733 000013003898 0CARTAO DE DESCONTOS           194988              12022020REA000000000000000000000000080699                    00000000000000000000000                    00000025135387000114                     00
3410002300090A00000075603125 000000632446 0SANTOS  DIOGO LTDA            195214              12022020REA000000000000000000000000021736                    00000000000000000000000                    00000003177943000182                     00
3410002300091A00000008900008 000000701806 1OTICA RENATA DUARTE LTDA      195415              12022020REA000000000000000000000000041144                    00000000000000000000000                    00000030841809000107                     00
3410002300092A00000075603125 000000631809 6ANSELMO ACETI INFORMATICA  ME 194921              12022020REA000000000000000000000000156153                    00000000000000000000000                    00000004322177000165                     00
3410002300093A00000075603125 000001130514 2MANDONI e CIA LTDA            195679              12022020REA000000000000000000000000103511                    00000000000000000000000                    00000047004510000109                     00
3410002300094A00000010404511 000000000733 5JOSE ANCELMO DE OLIVEIRA CANTI195019              12022020REA000000000000000000000000010886                    00000000000000000000000                    00000001587437000136                     00
3410002300095A00000023700218 000000018737 2JANE KELLY CARNEIRO DA SILVA  195682              12022020REA000000000000000000000000029961                    00000000000000000000000                    00000017601199000106                     00
3410002300096A00000010403792 000000000895 8CLINICA AMOR SAUDE ITABUNA EIR195650              12022020REA000000000000000000000000166455                    00000000000000000000000                    00000030522210000100                     00
3410002300097A00000000100781 000000018701 1ADEMIR APARECIDO CONSTANTINO M194738              12022020REA000000000000000000000000052013                    00000000000000000000000                    00000004162718000135                     00
3410002300098A00000023700023 000000253043 0VHRP COM DE ARTIGOS DE MODA EI195487              12022020REA000000000000000000000000342070                    00000000000000000000000                    00000017276511000133                     00
3410002300099A00000000101226 000000117490 8BRUNO LEANDRO FERREIRA DA SILV195695              12022020REA000000000000000000000000037600                    00000000000000000000000                    00000000009930497706                     00
3410002300100A00000010403540 001300023605 1MARIA JUSCILEIDE REGO DA SILVA195510              12022020REA000000000000000000000000022814                    00000000000000000000000                    00000000004281351370                     00
3410002300101A00000010401603 001300070147 8KARLA REGINA MARQUES DOS SANTO195414              12022020REA000000000000000000000000019907                    00000000000000000000000                    00000000026868048823                     00
3410002300102A00000074805237 000000048003 7FORTALEZA DA CONSTRUCAO DE BAR194972              12022020REA000000000000000000000000025389                    00000000000000000000000                    00000007865688000111                     00
3410002300103A00000023700332 000000024839 8LARISSA SIPOLI                195454              12022020REA000000000000000000000000017002                    00000000000000000000000                    00000000005805646900                     00
3410002300104A00000010401610 000000021683 3MICHAEL BIRCKE PUTINHON       195756              12022020REA000000000000000000000000013080                    00000000000000000000000                    00000000036482408893                     00
3410002300105A00000003304410 000001000864 0CARLOS EVANILSON OLIVEIRA VASC195305              12022020REA000000000000000000000000007753                    00000000000000000000000                    00000000003902801352                     00
3410002300106A00000026000001 000001507461 8EWERTON ROSA GOMES            194827              12022020REA000000000000000000000000014507                    00000000000000000000000                    00000000002330612150                     00
3410002300107A00000000102502 000000046291 8VICOSO ESTACIONAMENTO LTDA    195721              12022020REA000000000000000000000000035879                    00000000000000000000000                    00000007799557000183                     00
3410002300108A00000074800913 000000042678 4GIANINA ELIS DE LOS SANTOS GON195150              12022020REA000000000000000000000000031392                    00000000000000000000000                    00000000000114350116                     00
3410002300109A00000010401045 000000003062 0ARACAJU ADMINISTRACAO DE CARTA195556              12022020REA000000000000000000000000024878                    00000000000000000000000                    00000031747596000111                     00
3410002300110A00000074800155 000000015946 8VALDO COMUNICACAO VISUAL LTDA 194798              12022020REA000000000000000000000000003995                    00000000000000000000000                    00000000321078000108                     00
3410002300111A00000023701232 000000024868 1ATENDIMENTO MEDICO E ODONTOLOG195336              12022020REA000000000000000000000000123556                    00000000000000000000000                    00000031132613000106                     00
3410002300112A00000023700223 000000211185 3SUELI APARECIDA PORPHIRIO FERN195205              12022020REA000000000000000000000000002357                    00000000000000000000000                    00000008075662000132                     00
3410002300113A00000003304204 000013003089 0RAFAEL LEITE DE CAMPOS 3272292195321              12022020REA000000000000000000000000004120                    00000000000000000000000                    00000023058314000140                     00
3410002300114A00000023701849 000000011726 9MARCOS GABRIEL COUTINHO BITTEN195625              12022020REA000000000000000000000000011717                    00000000000000000000000                    00000000009569214180                     00
3410002300115A00000010402946 001300021792 2ERITON RAFAEL BERNARDES PINTO 194930              12022020REA000000000000000000000000041845                    00000000000000000000000                    00000000033754872826                     00
3410002300116A00000010401464 000000028961 7MARIA CLEMENTINA DE ALMEIDA OL195035              12022020REA000000000000000000000000004454                    00000000000000000000000                    00000000060934255172                     00
3410002300117A00000010400309 001300044160 2LUCINEIA RIBAS SANTOS         195464              12022020REA000000000000000000000000004881                    00000000000000000000000                    00000000037289920899                     00
3410002300118A00000003303733 000013004404 0AZEVEDO E MENDES SERVICOS ADMI195103              12022020REA000000000000000000000000281403                    00000000000000000000000                    00000024996244000134                     00
3410002300119A00000075604393 000000008327 5MAGDA LEMES                   194910              12022020REA000000000000000000000000002940                    00000000000000000000000                    00000025045470000100                     00
3410002300120A00000003301629 000001008933 8BRUNO MACHADO DE ARAUJO       195461              12022020REA000000000000000000000000098308                    00000000000000000000000                    00000000005341958306                     00
3410002300121A00000010400619 001300014470 0MARIA DO AMPARO FREITAS DE OLI195473              12022020REA000000000000000000000000089500                    00000000000000000000000                    00000000099214024391                     00
3410002300122A00000010404292 001300012459 3CLEDINEI ALVES BARBOSA        194769              12022020REA000000000000000000000000002158                    00000000000000000000000                    00000000089206479172                     00
3410002300123A00000023701485 000000008938 9FABIO DA SILVA MACEDO         194942              12022020REA000000000000000000000000005076                    00000000000000000000000                    00000000014089295890                     00
3410002300124A00000010404292 000000000487 6SONHO DE CRIANCA CONFECCAO INF195061              12022020REA000000000000000000000000030778                    00000000000000000000000                    00000022704478000135                     00
3410002300125A00000023706247 000000004874 7KAUE DOS SANTOS OLIVEIRA      195068              12022020REA000000000000000000000000020201                    00000000000000000000000                    00000022630392000105                     00
3410002300126A00000023700023 000000253043 0DANIEL MARCONI                195446              12022020REA000000000000000000000000103649                    00000000000000000000000                    00000017276511000133                     00
3410002300127A00000023701849 000000003796 6LUCIMAR FLORES KUFF           195714              12022020REA000000000000000000000000011395                    00000000000000000000000                    00000000051968193120                     00
3410002300128A00000000400189 000000042245 9ELIEZIO ALVES BRANDAO         195440              12022020REA000000000000000000000000056500                    00000000000000000000000                    00000000090124758304                     00
3410002300129A00000000102916 000000018131 5FLORESTE E SUPRIMENTO FLORESTA194647              12022020REA000000000000000000000000007772                    00000000000000000000000                    00000008140158000179                     00
3410002300130A00000023705440 000000001029 4JULIETA BRAGA PINTO           194771              12022020REA000000000000000000000000002508                    00000000000000000000000                    00000007764368000175                     00
3410002300131A00000075605631 000000008368 2LM INGRESSOS LTDA             195082              12022020REA000000000000000000000000350020                    00000000000000000000000                    00000028947845000108                     00
3410002300132A00000003304470 000013000843 6FRANCISCO FORTALEZA FILHO     194824              12022020REA000000000000000000000000050527                    00000000000000000000000                    00000020871449000132                     00
3410002300133A00000010401095 000300001348 5MULTIX OIL LUBRIFICANTES E ACE194818              12022020REA000000000000000000000000044923                    00000000000000000000000                    00000011779919000141                     00
3410002300134A00000003301133 000013000676 1VALDIR FARIAS DA SILVA ELETRON195010              12022020REA000000000000000000000000603210                    00000000000000000000000                    00000010829509000103                     00
3410002300135A00000023700023 000000253043 0JOYCE CHAVES ZANI             195274              12022020REA000000000000000000000000204432                    00000000000000000000000                    00000017276511000133                     00
3410002300136A00000023700023 000000253043 0JOAO H BOTELHO GENNARI RESTAUR195348              12022020REA000000000000000000000000141611                    00000000000000000000000                    00000017276511000133                     00
3410002300137A00000003300037 000013009907 3SERGIO DE OLIVEIRA SILVA      194996              12022020REA000000000000000000000001151461                    00000000000000000000000                    00000007041322000128                     00
3410002300138A00000008900004 000000300525 3JORGE HENRIQUE MICHEL  CIA LTD195521              12022020REA000000000000000000000000051232                    00000000000000000000000                    00000057820698000109                     00
3410002300139A00000010400631 000000001106 7DALTO RESTAURANTE EIRELI      195403              12022020REA000000000000000000000000014033                    00000000000000000000000                    00000010586971000119                     00
3410002300140A00000003304279 000013003282 7ADRIANGELA DE ALMEIDA OLIVEIRA195649              12022020REA000000000000000000000000106838                    00000000000000000000000                    00000023324976000115                     00
3410002300141A00000010400799 001300044012 1ALDOUS ANTONIO ALVES          195177              12022020REA000000000000000000000000005750                    00000000000000000000000                    00000000035768936874                     00
3410002300142A00000023700534 000000081028 2OSVALDO ANTONIO DE FREITAS    194753              12022020REA000000000000000000000000018888                    00000000000000000000000                    00000000088888088849                     00
3410002300143A00000003304501 000013002428 2CEMA CENTRO MEDICO E ODONTOLOG195618              12022020REA000000000000000000000000032261                    00000000000000000000000                    00000010576511000100                     00
3410002300144A00000000106939 000000053750 0ADMINISTRADORA DE CONSULTORIOS195590              12022020REA000000000000000000000000283183                    00000000000000000000000                    00000025966574000140                     00
3410002300145A00000003303749 000013002584 8GREEN GOY NOYORI EIRELI  ME   195666              12022020REA000000000000000000000000079001                    00000000000000000000000                    00000005877577000108                     00
3410002300146A00000000101295 000000163113 6ROSIMAYRE FACANHA DA SILVA    195156              12022020REA000000000000000000000000008275                    00000000000000000000000                    00000000015552004353                     00
3410002300147A00000010402047 000000304973 1CLINICA MEDICA E ODONTOLOGICA 194781              12022020REA000000000000000000000000088268                    00000000000000000000000                    00000031570751000177                     00
3410002300148A00000010401461 000000001628 9BRIZOLA R SETTE E MARIA DO CAR194719              12022020REA000000000000000000000000005271                    00000000000000000000000                    00000030914197000135                     00
3410002300149A00000074800902 000000022339 5ADRIELI FERNANDA DOS SANTOS RI195054              12022020REA000000000000000000000000003920                    00000000000000000000000                    00000000004146438101                     00
3410002300150A00000000100095 000000028910 8FF INDUSTRIA DE ALIMENTOS LTDA195155              12022020REA000000000000000000000000021814                    00000000000000000000000                    00000020169895000280                     00
3410002300151A00000023700190 000001000613 9RONIVALDO VICENTE ALVES       194725              12022020REA000000000000000000000000001568                    00000000000000000000000                    00000000018422787890                     00
3410002300152A00000000100179 000000058009 0ANA LUCIA KUDO                195197              12022020REA000000000000000000000000010130                    00000000000000000000000                    00000000011991484828                     00
3410002300153A00000000104992 000000012085 5FRANCIELEN MARIA SANTI ALVES  194863              12022020REA000000000000000000000000019336                    00000000000000000000000                    00000028373410000105                     00
3410002300154A00000003304557 000013003301 4FRANCIANE DE OLIVEIRA SOLER ME195430              12022020REA000000000000000000000000089751                    00000000000000000000000                    00000024884742000195                     00
3410002300155A00000010400137 000000003240 9ADMINISTRADORA DE CARTAO DE DE195044              12022020REA000000000000000000000000005708                    00000000000000000000000                    00000031952058000169                     00
3410002300156A00000000101498 000000008037 3PEDRO DELLA GIUSTINA SOUZA    195064              12022020REA000000000000000000000000012315                    00000000000000000000000                    00000078872769000197                     00
3410002300157A00000023700103 000000004135 1JOSE AUGUSTO NETO DE SOUZA  EL194878              12022020REA000000000000000000000000019602                    00000000000000000000000                    00000032905516000171                     00
3410002300158A00000010403418 000003001218 7AUTO CENTER VILLAS CAR COMERCI195643              12022020REA000000000000000000000000027753                    00000000000000000000000                    00000005552018000110                     00
3410002300159A00000010402228 001300039259 3FRANCISCO TENORIO DE ALMEIDA  195007              12022020REA000000000000000000000000001562                    00000000000000000000000                    00000000005690170330                     00
3410002300160A00000003303047 000013002290 1CATANDUVA ADMINISTRADORA DE CA195631              12022020REA000000000000000000000000004214                    00000000000000000000000                    00000024028199000124                     00
3410002300161A00000003300087 000001054402 1RUDINEI RODRIGUES RIGUETO     195589              12022020REA000000000000000000000000017583                    00000000000000000000000                    00000000055448240615                     00
3410002300162A00000007700001 000002524430 2GLAUCIA JANAINA DOS SANTOS CAB195193              12022020REA000000000000000000000000110797                    00000000000000000000000                    00000000001884551084                     00
3410002300163A00000010400973 001300080774 8JOSE ANTONIO DE SOUZA         195223              12022020REA000000000000000000000000005809                    00000000000000000000000                    00000000070202044491                     00
3410002300164A00000023701849 000000003305 7ROSEMAR FLORES BEZERRA        194805              12022020REA000000000000000000000000008695                    00000000000000000000000                    00000000055479979191                     00
3410002300165A00000010400095 001300095763 1LUANA DE PAULA NAZARIO        195455              12022020REA000000000000000000000000001470                    00000000000000000000000                    00000000007299670690                     00
3410002300166A00000003301512 000013002407 2PAIVA E PAIVA CONSULTORIOS MED194828              12022020REA000000000000000000000000996415                    00000000000000000000000                    00000028782455000125                     00
3410002300167A00000000400218 000000000614 4I SANTOS DA ROCHA             194911              12022020REA000000000000000000000000067015                    00000000000000000000000                    00000010393793000100                     00
3410002300168A00000010401863 001300006998 9LUCAS CARVALHO BREVE          194745              12022020REA000000000000000000000000009012                    00000000000000000000000                    00000000041787362809                     00
3410002300169A00000010400890 001300006278 4DARLI CESAR TEIXEIRA  GONCALVE195324              12022020REA000000000000000000000000001550                    00000000000000000000000                    00000000032159631833                     00
3410002300170A00000023700645 000000603663 5RUBERLANIO MOREIRA DE OLIVEIRA194799              12022020REA000000000000000000000000001899                    00000000000000000000000                    00000000082349029387                     00
3410002300171A00000010401576 001300154874 0RITA DE CASSIA CRUZ DO NASCIME195376              12022020REA000000000000000000000000013201                    00000000000000000000000                    00000000002870900350                     00
3410002300172A00000023702505 000000026311 7A NORDESTINA LESTE  MOVEIS ELE194752              12022020REA000000000000000000000000899108                    00000000000000000000000                    00000026699733000150                     00
3410002300173A00000023702505 000000025707 9LEGAMO MOVEIS E ELETRODOMESTIC195357              12022020REA000000000000000000000000039623                    00000000000000000000000                    00000025166974000170                     00
3410002300174A00000003304470 000001014109 5BRUNA ALMEIDA DE CASTRO PRUDEN195162              12022020REA000000000000000000000000005122                    00000000000000000000000                    00000000002508341380                     00
3410002300175A00000023702505 000000026148 3J  J MOVEIS ELETRODOMESTICOS E194969              12022020REA000000000000000000000000036005                    00000000000000000000000                    00000024836100000110                     00
3410002300176A00000008900001 000000003797 4NAIR DA SILVA MUNIZ 1728733782195002              12022020REA000000000000000000000000064569                    00000000000000000000000                    00000029549230000196                     00
3410002300177A00000010400311 001300019534 3DEISE APARECIDA DE OLIVEIRA MA195518              12022020REA000000000000000000000000088949                    00000000000000000000000                    00000000040014257858                     00
3410002300178A00000023700513 000000010772 7CLINICA AMOR SAUDE MARABA LTDA194964              12022020REA000000000000000000000000145955                    00000000000000000000000                    00000031960104000171                     00
3410002300179A00000010400340 001300062299 1WEDJA MARCIA DA SILVA SANTOS  195062              12022020REA000000000000000000000000017113                    00000000000000000000000                    00000000040654229813                     00
3410002300180A00000074800728 000000063824 2JULIANO FRANCISCO DA SILVA ACA195526              12022020REA000000000000000000000000040280                    00000000000000000000000                    00000019204801000105                     00
3410002300181A00000010402183 001300015843 0NARA LIVIA FREITAS CAVALCANTE 195498              12022020REA000000000000000000000000050000                    00000000000000000000000                    00000000001976312310                     00
3410002300182A00000023700023 000000125921 0LUIZ ANTONIO LOPES            194651              12022020REA000000000000000000000000005508                    00000000000000000000000                    00000000079749585887                     00
3410002300183A00000000103472 000000061038 0F A F DA SILVA MATERIAL DE CON195299              12022020REA000000000000000000000000199904                    00000000000000000000000                    00000027188035000152                     00
3410002300184A00000000100165 000000037203 0REGIANE ZACCHEU CARMINATI     195317              12022020REA000000000000000000000000004361                    00000000000000000000000                    00000032467627000143                     00
3410002300185A00000000101041 000000024929 7JOAO ARY ALVES                195400              12022020REA000000000000000000000000314656                    00000000000000000000000                    00000000040832406368                     00
3410002300186A00000021200001 000000284975 5ERIKA ALVES DA SILVA          194893              12022020REA000000000000000000000000006910                    00000000000000000000000                    00000000005893105184                     00
3410002300187A00000010404732 000000022338 6CRISTIANE ROCHA DO AMARANTE   195130              12022020REA000000000000000000000000005474                    00000000000000000000000                    00000000065322843191                     00
3410002300188A00000023700645 000000031522 2TAYNARA LOURENCO PEREIRA      195763              12022020REA000000000000000000000000130649                    00000000000000000000000                    00000000060877644373                     00
3410002300189A00000023702371 000000080846 6WILANEIS ALVES BATISTA        194697              12022020REA000000000000000000000000002341                    00000000000000000000000                    00000000097700711100                     00
3410002300190A00000010401651 000000019490 2CARTAO DE TODOS PETROPOLIS LTD195077              12022020REA000000000000000000000000013411                    00000000000000000000000                    00000013584247000144                     00
3410002300191A00000075603188 000000077635 1INGRID KELLY MELO DA SILVA EIR195717              12022020REA000000000000000000000000035888                    00000000000000000000000                    00000018353709000136                     00
3410002300192A00000010401168 001300005315 4FABRICIO AUGUSTO DE GODOI     195045              12022020REA000000000000000000000000007856                    00000000000000000000000                    00000000021525912836                     00
3410002300193A00000007700001 000002437774 0RENAN ROCHA SILVA REBOUCAS    194663              12022020REA000000000000000000000000027726                    00000000000000000000000                    00000000003004079399                     00
3410002300194A00000000102916 000000217181 3VANESSA DENIZ FRETES          195040              12022020REA000000000000000000000000286359                    00000000000000000000000                    00000000002830499107                     00
3410002300195A00000008900012 000001100652 8RAIMUNDO ACILIBIO RABELO DE AS195229              12022020REA000000000000000000000000041484                    00000000000000000000000                    00000000037183403807                     00
3410002300196A00000023700557 000000020490 0DANILO RIBEIRO DA SILVA       194894              12022020REA000000000000000000000000036000                    00000000000000000000000                    00000024045727000153                     00
3410002300197A00000023700997 000000030470 0REJANE CLAUDINO MELO          195231              12022020REA000000000000000000000000010922                    00000000000000000000000                    00000000084356030320                     00
3410002300198A00000003301268 000013001326 1TERRAS GOIANAS CLINICA MEDICA 194885              12022020REA000000000000000000000000268109                    00000000000000000000000                    00000028796557000108                     00
3410002300199A00000010400118 000000003325 8ADMINISTRADORA DE CARTAO DE DE195347              12022020REA000000000000000000000000034674                    00000000000000000000000                    00000030420633000110                     00
3410002300200A00000003304470 000013001757 5JOSE ARAUJO BEZERRA ME        195296              12022020REA000000000000000000000000035041                    00000000000000000000000                    00000029878869000115                     00
3410002300201A00000010402224 001300051399 2MANOEL GONCALVES DOS SANTOS MO195767              12022020REA000000000000000000000000006816                    00000000000000000000000                    00000000001271530120                     00
3410002300202A00000023702349 000000000800 1FAGUNDES CERTIFICADORA E SERVI194749              12022020REA000000000000000000000000123990                    00000000000000000000000                    00000004740806000177                     00
3410002300203A00000023700682 000000035812 6M M CABELEIREIROS LTDA        194989              12022020REA000000000000000000000000044234                    00000000000000000000000                    00000024552836000167                     00
3410002300204A00000023701536 000000012324 2ATAMIR DIAS MARQUES           194819              12022020REA000000000000000000000000008784                    00000000000000000000000                    00000000001516003179                     00
3410002300205A00000023701232 000000041430 1MARIA CLAUDIA ALVES DA SILVA  194856              12022020REA000000000000000000000000025423                    00000000000000000000000                    00000000000871404460                     00
3410002300206A00000023705394 000000000373 5JOSE KAIDE PINHEIRO AMORIM    194759              12022020REA000000000000000000000000015770                    00000000000000000000000                    00000000004764822326                     00
3410002300207A00000010400283 000000003246 2CLINICA MEDICA E ODONTOLOGICA 195293              12022020REA000000000000000000000000054813                    00000000000000000000000                    00000032283114000182                     00
3410002300208A00000023700645 000000004540 3MARIA CLEANE DE SOUZA ALMEIDA 195048              12022020REA000000000000000000000000004748                    00000000000000000000000                    00000000000022999337                     00
3410002300209A00000023702127 000000017618 4RAQUEL ALMEIDA BRASIL         195378              12022020REA000000000000000000000000024388                    00000000000000000000000                    00000000038486652391                     00
3410002300210A00000023701849 000000008908 7KELVIN HENRY COUTINHO BITTENCO195059              12022020REA000000000000000000000000026475                    00000000000000000000000                    00000000004748649100                     00
3410002300211A00000000100063 000000005933 1CENTRO DE ENDOCRINOLOGIA E MET194965              12022020REA000000000000000000000000010481                    00000000000000000000000                    00000035439728000522                     00
3410002300212A00000003301403 000013001315 0ARIELY NASCIMENTO DOS SANTOS D195204              12022020REA000000000000000000000000012619                    00000000000000000000000                    00000023675741000178                     00
3410002300213A00000075603125 000002110717 3ALEXANDRE FINAZI MILAN        195322              12022020REA000000000000000000000000001712                    00000000000000000000000                    00000000010259761850                     00
3410002300214A00000007700001 000001352171 3YURI ARAGAO FONTENELE         194960              12022020REA000000000000000000000000012429                    00000000000000000000000                    00000000068045239387                     00
3410002300215A00000010400031 001300069827 0EDNA MOURA DA SILVA           195265              12022020REA000000000000000000000000035740                    00000000000000000000000                    00000000064178056387                     00
3410002300216A00000007700001 000002214080 8IDEIA MIDIA GRAFICA DIGITAL  E194720              12022020REA000000000000000000000000009230                    00000000000000000000000                    00000007988078000105                     00
3410002300217A00000003304536 000013003394 9IVETE CORREIA PORTO 3213114685195140              12022020REA000000000000000000000000010658                    00000000000000000000000                    00000014765094000102                     00
3410002300218A00000010400919 000000000051 6MASTER REPRESENTACOES E SERVIC195548              12022020REA000000000000000000000000035752                    00000000000000000000000                    00000001925334000139                     00
3410002300219A00000000101409 000000028674 5VEXNET TELECON INFORMATICA LTD194890              12022020REA000000000000000000000000021880                    00000000000000000000000                    00000011500145000178                     00
3410002300220A00000007700001 000002059383 0LUIS EUGENIO SEVERINO DE MENDO194927              12022020REA000000000000000000000000008079                    00000000000000000000000                    00000000021855978334                     00
3410002300221A00000023701579 000000048855 0PAULO ROBERTO NOBRE DOS SANTOS195562              12022020REA000000000000000000000000040263                    00000000000000000000000                    00000026814967000109                     00
3410002300222A00000010400017 001300033070 6WUELITON DE BARROS SIQUEIRA   194768              12022020REA000000000000000000000000052012                    00000000000000000000000                    00000000005363423189                     00
3410002300223A00000026000001 000003910006 8HENRIQUE BERILLI SILVA MENDES 194932              12022020REA000000000000000000000000008644                    00000000000000000000000                    00000000000935458190                     00
3410002300224A00000003301584 000013001247 0INDUSTRIA BRASILEIRA DE ESPUMA195215              12022020REA000000000000000000000000005750                    00000000000000000000000                    00000014660026000251                     00
3410002300225A00000023700624 000000025096 1ECO AUTO EXPRESS SERVICOS AUTO194954              12022020REA000000000000000000000000036115                    00000000000000000000000                    00000022295962000158                     00
3410002300226A00000010400917 001300018838 4ERIKA TAVARES DA SILVA        195254              12022020REA000000000000000000000000039532                    00000000000000000000000                    00000000006439686445                     00
3410002300227A00000010400672 001300031895 3ISABEL CRISTINA DE FARIAS LIMA195642              12022020REA000000000000000000000000001897                    00000000000000000000000                    00000000078563615300                     00
3410002300228A00000023701549 000000005107 1JOSE CARLOS DOS SANTOS 0194485195081              12022020REA000000000000000000000000003312                    00000000000000000000000                    00000023652989000113                     00
3410002300229A00000023703238 000000091504 1DUO COMERCIO DE OTICA EIRELI  195672              12022020REA000000000000000000000000112555                    00000000000000000000000                    00000008038666000140                     00
3410002300230A00000023703238 000000091504 1CASA DOS RELOJOEIROS EIRELI   195659              12022020REA000000000000000000000000192419                    00000000000000000000000                    00000008038666000140                     00
3410002300231A00000023703238 000000091504 1CASA DOS RELOJOEIROS EIRELI   195264              12022020REA000000000000000000000000054277                    00000000000000000000000                    00000008038666000140                     00
3410002300232A00000010400674 001300758202 9SILVIA CAMILO LEAL            195484              12022020REA000000000000000000000000044999                    00000000000000000000000                    00000000055725945120                     00
3410002300233A00000075603169 000000009707 1CASA DA PIMENTA COMERCIAL DE B194992              12022020REA000000000000000000000000001071                    00000000000000000000000                    00000008098251000162                     00
3410002300234A00000023701226 000000138181 4IGREJA EVANGELICA CASA FIRME  195531              12022020REA000000000000000000000000067487                    00000000000000000000000                    00000003017933000180                     00
3410002300235A00000008900012 000001100659 5YZZA CASES  ACESSORIOS PARA CE194662              12022020REA000000000000000000000000012275                    00000000000000000000000                    00000029872341000139                     00
3410002300236A00000023703238 000000091504 1CASA DOS RELOJOEIROS EIRELI   195712              12022020REA000000000000000000000000181871                    00000000000000000000000                    00000008038666000140                     00
3410002300237A00000023703238 000000091504 1CASA DOS RELOJOEIROS EIRELI   195677              12022020REA000000000000000000000000018773                    00000000000000000000000                    00000008038666000140                     00
3410002300238A00000023703238 000000091504 1NOVO VISUAL COMERCIO DE OCULOS195676              12022020REA000000000000000000000000057256                    00000000000000000000000                    00000008038666000140                     00
3410002300239A00000023703238 000000091504 1MILLA COMERCIO DE OTICA EIRELI195700              12022020REA000000000000000000000000294857                    00000000000000000000000                    00000008038666000140                     00
