34100000      081222347623000178                    06248 000000045232 5CELER PAGAMENTOS              Itau Unibanco S.A                       11902202000000000000000                                                                           
34100011C9801040 222347623000178                    06248 000000045232 5CELER PAGAMENTOS                                                                                   00000                                   00000000                     
3410001300001A00000034101378 000000030394 3THAYNARA ROCHA LIMA           197843              19022020REA000000000000000000000000002910                    00000000000000000000000                    00000000002935433130                     00
3410001300002A00000034100059 000000078359 7ADMINISTRADORA DE CARTAO DE TO197572              19022020REA000000000000000000000000519182                    00000000000000000000000                    00000011487917000189                     00
3410001300003A00000034101589 000000035930 4ALINE LAMUNIER DE PAULA SILVA 197718              19022020REA000000000000000000000000053246                    00000000000000000000000                    00000031131123000195                     00
3410001300004A00000034102746 000000025961 9MARIA APARECIDA LAURINDA DA SI197812              19022020REA000000000000000000000001029878                    00000000000000000000000                    00000020959355000110                     00
3410001300005A00000034108895 000000036292 2AMORSAUDE CLINICA MEDICA E ODO197473              19022020REA000000000000000000000001928517                    00000000000000000000000                    00000030280982000183                     00
3410001300006A00000034104807 000000016629 5UNICA TRAVEL AGENCIA DE TURISM197804              19022020REA000000000000000000000000055435                    00000000000000000000000                    00000013498624000122                     00
3410001300007A00000034106238 000000065656 2TOGETHER AGENCIA DE VIAGENS E 197578              19022020REA000000000000000000000000163375                    00000000000000000000000                    00000007678652000129                     00
3410001300008A00000034107048 000000079483 3CONSULTORIA DE VIAGEM         197800              19022020REA000000000000000000000000049511                    00000000000000000000000                    00000004269838000136                     00
3410001300009A00000034100285 000000057309 3BE HAPPY VIAGENS E TURISMO LTD197479              19022020REA000000000000000000000000167072                    00000000000000000000000                    00000001202742000162                     00
3410001300010A00000034108729 000000023207 7CASSIA AGENCIA DE PASSAGENS E 197484              19022020REA000000000000000000000000033996                    00000000000000000000000                    00000058022013000141                     00
3410001300011A00000034106519 000000015554 0VENDA NOVA ADM DE CARTOES LTDA197608              19022020REA000000000000000000000000034238                    00000000000000000000000                    00000012989806000133                     00
3410001300012A00000034100672 000000008708 7ADMINISTRADORA DE CARTAO DE TO197637              19022020REA000000000000000000000000021857                    00000000000000000000000                    00000025130983000101                     00
3410001300013A00000034108222 000000004469 8SILVIA APARECIDA MICHELAZZO AM197739              19022020REA000000000000000000000000002000                    00000000000000000000000                    00000000087015528800                     00
3410001300014A00000034100022 000000015049 4BRUNA MICHELE ORTIZ           197513              19022020REA000000000000000000000000018643                    00000000000000000000000                    00000000039460764835                     00
3410001300015A00000034100215 000000042080 3MARMORARIA TARDOC LTDA ME     197474              19022020REA000000000000000000000000366603                    00000000000000000000000                    00000002968921000178                     00
3410001300016A00000034100066 000000004343 1HOSPITAL SANTA PAULA          197700              19022020REA000000000000000000000001910654                    00000000000000000000000                    00000060777901000116                     00
3410001300017A00000034109379 000000019699 2MIGUEL GIOVANNI RUCHEL        197713              19022020REA000000000000000000000000039639                    00000000000000000000000                    00000000059688971987                     00
3410001300018A00000034108895 000000036284 9AMORSAUDE BETIM CLINICA MEDICA197675              19022020REA000000000000000000000000446401                    00000000000000000000000                    00000030280982000183                     00
3410001300019A00000034109173 000000005032 0APARECIDO LUCIANO CASTAGNA ME 197754              19022020REA000000000000000000000000403784                    00000000000000000000000                    00000007503635000150                     00
3410001300020A00000034101446 000000062417 1CENNABRAS INDUSTRIA E COMERCIO197732              19022020REA000000000000000000000001087273                    00000000000000000000000                    00000060028370000169                     00
3410001300021A00000034100215 000000033511 8BONFIM E SOUZA COMERCIO DE MAT197447              19022020REA000000000000000000000000516936                    00000000000000000000000                    00000006310047000138                     00
3410001300022A00000034108078 000000024444 2CARTAO DE TODOS DIADEMA LTDA M197439              19022020REA000000000000000000000000002428                    00000000000000000000000                    00000024868160000115                     00
3410001300023A00000034101585 000000026168 6MARCELO DE OLIVEIRA DOURADO   197813              19022020REA000000000000000000000000017885                    00000000000000000000000                    00000000006914903174                     00
3410001300024A00000034100504 000000020522 0MOVEIS E DECORACAO JW EIRELI  197946              19022020REA000000000000000000000000083686                    00000000000000000000000                    00000032356068000102                     00
3410001300025A00000034109069 000000014300 7ROBERTA MURCIA ANTONIASSI     197444              19022020REA000000000000000000000000170731                    00000000000000000000000                    00000020296177000194                     00
3410001300026A00000034103754 000000044102 4DAVI COSTA MEDEIROS CONSULTORI197709              19022020REA000000000000000000000000024533                    00000000000000000000000                    00000021387467000106                     00
3410001300027A00000034107011 000000008564 9SERGIO JORCELIO DE SA TORRES  197436              19022020REA000000000000000000000000342160                    00000000000000000000000                    00000000038960249149                     00
3410001300028A00000034100002 000000035253 2THIAGO MOREIRA ANDRE          197882              19022020REA000000000000000000000000580884                    00000000000000000000000                    00000003424849000180                     00
3410001300029A00000034108615 000000099635 5MARIA SALETE GOMES SALES      197940              19022020REA000000000000000000000000062128                    00000000000000000000000                    00000013527316000188                     00
3410001300030A00000034100002 000000035253 2LUCAS FERREIRA MAGALHAES      197937              19022020REA000000000000000000000000318704                    00000000000000000000000                    00000003424849000180                     00
3410001300031A00000034100002 000000035253 2TALITA CANDIDO NAKAMURA 377290197769              19022020REA000000000000000000000000010305                    00000000000000000000000                    00000003424849000180                     00
3410001300032A00000034100002 000000035253 2EDIMILSON CAMARGO             197781              19022020REA000000000000000000000000144409                    00000000000000000000000                    00000003424849000180                     00
3410001300033A00000034100002 000000035253 2ALEXANDRE RAMOS               197824              19022020REA000000000000000000000000593715                    00000000000000000000000                    00000003424849000180                     00
3410001300034A00000034100792 000000063933 8EDUSA INDUSTRIAL DE ACOS LTDA 197665              19022020REA000000000000000000000000182082                    00000000000000000000000                    00000067565093000172                     00
3410001300035A00000034100002 000000035253 2A  G COSMETICOS LTDA          197725              19022020REA000000000000000000000001038322                    00000000000000000000000                    00000003424849000180                     00
3410001300036A00000034100002 000000035253 2CLEBER PEDROSO VIANA 383094848197629              19022020REA000000000000000000000000234424                    00000000000000000000000                    00000003424849000180                     00
3410001300037A00000034100002 000000035253 2ALLOR COMERCIO E DISTRIBUICAO 197856              19022020REA000000000000000000000000138985                    00000000000000000000000                    00000003424849000180                     00
3410001300038A00000034100002 000000035253 2COMMIL COMERCIO E SERVICOS LTD197478              19022020REA000000000000000000000000914210                    00000000000000000000000                    00000003424849000180                     00
3410001300039A00000034100002 000000035253 2MICHELLE PEREIRA RAPINI 216315197707              19022020REA000000000000000000000000092721                    00000000000000000000000                    00000003424849000180                     00
3410001300040A00000034100002 000000035253 2DIEGO RICARDO ZAGO  COSMETICOS197505              19022020REA000000000000000000000000226075                    00000000000000000000000                    00000003424849000180                     00
3410001300041A00000034100002 000000035253 2PAULO PEREIRA JUNIOR          197784              19022020REA000000000000000000000000003542                    00000000000000000000000                    00000003424849000180                     00
3410001300042A00000034100002 000000035253 2COMERCIAL DE COSMETICOS BELEZA197554              19022020REA000000000000000000000000234574                    00000000000000000000000                    00000003424849000180                     00
3410001300043A00000034100002 000000035253 2ALICE MARIA ZANATTA PERBONI   197816              19022020REA000000000000000000000000031500                    00000000000000000000000                    00000003424849000180                     00
3410001300044A00000034100002 000000035253 2JR COSMETICOS  E REPRESENTACAO197708              19022020REA000000000000000000000002961167                    00000000000000000000000                    00000003424849000180                     00
3410001300045A00000034100002 000000035253 2NETWORK BEAUTY  FASHION COSMET197906              19022020REA000000000000000000000000477440                    00000000000000000000000                    00000003424849000180                     00
3410001300046A00000034108015 000000004423 6AARAN INDUSTRIA E COMERCIO DE 197819              19022020REA000000000000000000000000672365                    00000000000000000000000                    00000000229392000165                     00
3410001300047A00000034103005 000000003318 2EDIVALDO RODRIGUES DOS SANTOS 197454              19022020REA000000000000000000000000519958                    00000000000000000000000                    00000000014483706802                     00
3410001300048A00000034101644 000000062360 3V F DOS SANTOS COMERCIO DE MOV197939              19022020REA000000000000000000000001857331                    00000000000000000000000                    00000012258816000107                     00
3410001300049A00000034100865 000000013771 5MARCOS ROBERTO FERREIRA BISPO 197748              19022020REA000000000000000000000001288170                    00000000000000000000000                    00000049170780000107                     00
3410001300050A00000034103156 000000041732 5LAPOGEE CONFECCOES LTDA       197605              19022020REA000000000000000000000000030662                    00000000000000000000000                    00000003877833000123                     00
3410001300051A00000034100077 000000040096 8J DOS SANTOS PEREIRA  MODAS   197782              19022020REA000000000000000000000000198771                    00000000000000000000000                    00000026995735000196                     00
3410001300052A00000034101011 000000013748 4CASHTAG FINTECH               197912              19022020REA000000000000000000000000001075                    00000000000000000000000                    00000030704036000117                     00
3410001300053A00000034108557 000000007408 8KELI CRISTINA ARGERI          197462              19022020REA000000000000000000000000554183                    00000000000000000000000                    00000000030928994821                     00
3410001300054A00000034103010 000000003587 5PARTISANS PUB BAR LTDA        197697              19022020REA000000000000000000000000074996                    00000000000000000000000                    00000014147047000197                     00
3410001300055A00000034108078 000000008555 5PANIFICADORA E CONFEITARIA MIA197897              19022020REA000000000000000000000000006502                    00000000000000000000000                    00000049249600000187                     00
3410001300056A00000034103130 000000051351 2PADARIA RUA DO ROCIO PAES E LA197796              19022020REA000000000000000000000000012825                    00000000000000000000000                    00000027444888000108                     00
3410001300057A00000034103788 000000058820 4TANJI E DARCIE LTDA           197487              19022020REA000000000000000000000000606291                    00000000000000000000000                    00000017084440000177                     00
3410001300058A00000034102974 000000035415 7ROSEMERY DOS SANTOS REGO COSME197497              19022020REA000000000000000000000000155686                    00000000000000000000000                    00000021415909000180                     00
3410001300059A00000034104528 000000017976 7DANIEL NUNES SPEZAMIGLIO      197907              19022020REA000000000000000000000000639111                    00000000000000000000000                    00000000028830150827                     00
3410001300060A00000034100002 000000035253 2DRUMOND  NEGRO COMERCIO DE COS197561              19022020REA000000000000000000000000152878                    00000000000000000000000                    00000003424849000504                     00
3410001300061A00000034100002 000000035253 2LILIAN REGINA GOMES PASSAGNO D197508              19022020REA000000000000000000000000673000                    00000000000000000000000                    00000005694739000164                     00
3410001300062A00000034100002 000000035253 2LOOK S COMESTICOS LTDA        197873              19022020REA000000000000000000000000678473                    00000000000000000000000                    00000003424849000180                     00
3410001300063A00000034108036 000000011339 0JAIME GUILHERMINO DE SOUZA    197614              19022020REA000000000000000000000000062047                    00000000000000000000000                    00000000013865140807                     00
3410001300064A00000034100187 000000013926 6CRZ COMERCIO E REPRESENTACOES 197802              19022020REA000000000000000000000001753357                    00000000000000000000000                    00000047738604000101                     00
3410001300065A00000034104285 000000011799 2DIEGO LEITE DE BARROS ASSESSOR197861              19022020REA000000000000000000000000882141                    00000000000000000000000                    00000011316118000140                     00
3410001300066A00000034108217 000000019647 9RAQUEL FARIA SABIONI 277042048197676              19022020REA000000000000000000000000159216                    00000000000000000000000                    00000034178383000104                     00
3410001300067A00000034106492 000000016570 6IZABEL DE SOUZA SALAZAR FURTAD197692              19022020REA000000000000000000000000006066                    00000000000000000000000                    00000018230240000148                     00
3410001300068A00000034100002 000000035253 2KAIROS DISTRIBUIDORA DE COSMET197716              19022020REA000000000000000000000000022306                    00000000000000000000000                    00000003424849000504                     00
3410001300069A00000034109639 000000000230 3CARLA GROSS                   197807              19022020REA000000000000000000000000041353                    00000000000000000000000                    00000000013208817851                     00
3410001300070A00000034104086 000000006811 3AKIKO FUJII                   197433              19022020REA000000000000000000000000171662                    00000000000000000000000                    00000000015430322814                     00
34100015         000072000000000028958185000000000000000000                                                                                                                                                                                     
34100021C9841040 222347623000178                    06248 000000045232 5CELER PAGAMENTOS                                                                                   00000                                   00000000                     
3410002300001A00000023702213 000000014633 1MURILO MALTA PORTO            197587              19022020REA000000000000000000000000064800                    00000000000000000000000                    00000000032340495806                     00
3410002300002A00000003304442 000013000418 5CARTAO DE DESCONTO TERRA DOS B197936              19022020REA000000000000000000000000105931                    00000000000000000000000                    00000011051024000196                     00
3410002300003A00000004100028 000060862100 3NARA R LEAL DE CORDEIRO       197823              19022020REA000000000000000000000000334295                    00000000000000000000000                    00000002909169000194                     00
3410002300004A00000023703157 000000034696 9DIEGO GARCIA DA SILVA         197463              19022020REA000000000000000000000000756050                    00000000000000000000000                    00000009354049000117                     00
3410002300005A00000008500109 000000044648 3EPR CENTRO AUTOMOTIVO ME LTDA 197737              19022020REA000000000000000000000001337263                    00000000000000000000000                    00000030636108000136                     00
3410002300006A00000023700513 000000010481 7F e G ADMINISTRADORA DE CARTOE197925              19022020REA000000000000000000000000003231                    00000000000000000000000                    00000030672643000142                     00
3410002300007A00000023701232 000000024820 7ADMINISTRADORA DE CARTAO DE DE197892              19022020REA000000000000000000000000361009                    00000000000000000000000                    00000031284933000181                     00
3410002300008A00000075604370 000000032990 8PDV365 PRODUCAO E AUTOMACAO DE197530              19022020REA000000000000000000000004744243                    00000000000000000000000                    00000012569291000112                     00
3410002300009A00000023701849 000000011116 3MIX LAR EIRELI                197650              19022020REA000000000000000000000000005691                    00000000000000000000000                    00000028940115000185                     00
3410002300010A00000074800911 000000029816 6BORRACHARIA NOSSA SENHORA APAR197867              19022020REA000000000000000000000000012752                    00000000000000000000000                    00000006917099000177                     00
3410002300011A00000003304387 000013000211 4N C ADMINISTRADORA DE CARTAO D197468              19022020REA000000000000000000000000020286                    00000000000000000000000                    00000011174739000136                     00
3410002300012A00000003300037 000000147525 4DILVANIA APARECIDA VIEIRA     197558              19022020REA000000000000000000000000038930                    00000000000000000000000                    00000000001899964800                     00
3410002300013A00000010400017 001300068810 4CLEITON TRAVASSO              197869              19022020REA000000000000000000000000095724                    00000000000000000000000                    00000000079936822153                     00
3410002300014A00000000100048 000000135373 0VANESSA PAULO DA SILVA        197763              19022020REA000000000000000000000000033537                    00000000000000000000000                    00000000002864387123                     00
3410002300015A00000023701849 000000001268 8AURELIO FERREIRA RIBEIRO ME   197805              19022020REA000000000000000000000000331077                    00000000000000000000000                    00000005669371000184                     00
3410002300016A00000000101218 000000014405 3RAIMUNDO ISAIAS MONTEIRO PINTO197746              19022020REA000000000000000000000000123662                    00000000000000000000000                    00000000062422260306                     00
3410002300017A00000026000001 000071128234 0RENATO LOPES DE PAULA         197459              19022020REA000000000000000000000000181122                    00000000000000000000000                    00000000002942683163                     00
3410002300018A00000010401464 000000020347 0ELIETE GOMES TEIXEIRA         197768              19022020REA000000000000000000000000025720                    00000000000000000000000                    00000000069897263187                     00
3410002300019A00000004100280 000060702370 6ALVES E CARLOTT LTDA          197591              19022020REA000000000000000000000000050677                    00000000000000000000000                    00000003112643000115                     00
3410002300020A00000008500101 000000732600 9MAGNUM INSTRUMENTOS MUSICAIS L197922              19022020REA000000000000000000000004532768                    00000000000000000000000                    00000082097197000193                     00
3410002300021A00000010400898 000000002712 8ADMINISTRADORA DE SERVICOS DE 197533              19022020REA000000000000000000000000170462                    00000000000000000000000                    00000030676872000135                     00
3410002300022A00000008500101 000000679040 2SALVA MED EMERGENCIAS MEDICAS 197662              19022020REA000000000000000000000000413965                    00000000000000000000000                    00000004094517000148                     00
3410002300023A00000000106864 000000012148 7W WANDER MARTINS ME           197751              19022020REA000000000000000000000000017116                    00000000000000000000000                    00000017626932000147                     00
3410002300024A00000010400017 001300068586 5SIRLENE MARTINS DA SILVA CARDO197706              19022020REA000000000000000000000000005520                    00000000000000000000000                    00000000055996000172                     00
3410002300025A00000010404557 000000000878 2ADMINISTRADORA DE CARTAO DE TO197711              19022020REA000000000000000000000000149282                    00000000000000000000000                    00000025341175000193                     00
3410002300026A00000000104992 000000012120 7JOSE VIEIRA ALVES             197446              19022020REA000000000000000000000000050879                    00000000000000000000000                    00000001474101000167                     00
3410002300027A00000010400118 000000003357 6ADMINISTRADORA DE CARTAO DE DE197797              19022020REA000000000000000000000000004855                    00000000000000000000000                    00000030877366000104                     00
3410002300028A00000010400917 000000005066 0ADMINISTRADORA DE CARTAO DE DE197794              19022020REA000000000000000000000000148078                    00000000000000000000000                    00000031407148000179                     00
3410002300029A00000010403245 000000004626 7ALINE ELAINE GUIMARAES        197674              19022020REA000000000000000000000000036234                    00000000000000000000000                    00000000028537168807                     00
3410002300030A00000023702297 000000116826 6M VERMELHO PRODUTOS ALIMENTICI197645              19022020REA000000000000000000000000035091                    00000000000000000000000                    00000059456723000142                     00
3410002300031A00000074800155 000000028554 4JOAO SIMAO MATERIAIS DE CONSTR197878              19022020REA000000000000000000000000035207                    00000000000000000000000                    00000087248100000110                     00
3410002300032A00000010401192 000000003396 3ADMINISTRADORA DE CARTAO DE TO197568              19022020REA000000000000000000000000004830                    00000000000000000000000                    00000011858879000123                     00
3410002300033A00000003303733 000013003898 0CARTAO DE DESCONTOS           197592              19022020REA000000000000000000000000431010                    00000000000000000000000                    00000025135387000114                     00
3410002300034A00000075603125 000000632446 0SANTOS  DIOGO LTDA            197698              19022020REA000000000000000000000000918251                    00000000000000000000000                    00000003177943000182                     00
3410002300035A00000075603125 000000631809 6ANSELMO ACETI INFORMATICA  ME 197562              19022020REA000000000000000000000001499184                    00000000000000000000000                    00000004322177000165                     00
3410002300036A00000023700218 000000018737 2JANE KELLY CARNEIRO DA SILVA  197915              19022020REA000000000000000000000000355758                    00000000000000000000000                    00000017601199000106                     00
3410002300037A00000010403792 000000000895 8CLINICA AMOR SAUDE ITABUNA EIR197905              19022020REA000000000000000000000001165768                    00000000000000000000000                    00000030522210000100                     00
3410002300038A00000000100781 000000018701 1ADEMIR APARECIDO CONSTANTINO M197480              19022020REA000000000000000000000000399827                    00000000000000000000000                    00000004162718000135                     00
3410002300039A00000023702221 000000027308 2SQG INFO COMERCIO EQUIP INFORM197862              19022020REA000000000000000000000000187905                    00000000000000000000000                    00000058500174000101                     00
3410002300040A00000023700023 000000156781 0GRAZIELA CIRILO PUTINHON      197901              19022020REA000000000000000000000000005908                    00000000000000000000000                    00000000037150100880                     00
3410002300041A00000000100467 000000014512 2JOSE MIGUEL DE SOUZA          197902              19022020REA000000000000000000000000031050                    00000000000000000000000                    00000000093817592949                     00
3410002300042A00000026000001 000001507461 8EWERTON ROSA GOMES            197512              19022020REA000000000000000000000000156620                    00000000000000000000000                    00000000002330612150                     00
3410002300043A00000000102502 000000046291 8VICOSO ESTACIONAMENTO LTDA    197933              19022020REA000000000000000000000000069817                    00000000000000000000000                    00000007799557000183                     00
3410002300044A00000010401045 000000003062 0ARACAJU ADMINISTRACAO DE CARTA197848              19022020REA000000000000000000000000181458                    00000000000000000000000                    00000031747596000111                     00
3410002300045A00000074800155 000000015946 8VALDO COMUNICACAO VISUAL LTDA 197503              19022020REA000000000000000000000000114700                    00000000000000000000000                    00000000321078000108                     00
3410002300046A00000023701232 000000024868 1ATENDIMENTO MEDICO E ODONTOLOG197749              19022020REA000000000000000000000002089190                    00000000000000000000000                    00000031132613000106                     00
3410002300047A00000023700223 000000211185 3SUELI APARECIDA PORPHIRIO FERN197693              19022020REA000000000000000000000000121312                    00000000000000000000000                    00000008075662000132                     00
3410002300048A00000003304039 000013002389 4ATENDIMENTO MEDICO E ODONTOLOG197889              19022020REA000000000000000000000000012106                    00000000000000000000000                    00000031710733000143                     00
3410002300049A00000003300722 000013001412 3INSTITUTO FRANCANO DE GASTRONO197683              19022020REA000000000000000000000000013553                    00000000000000000000000                    00000027481398000181                     00
3410002300050A00000003303733 000013004404 0AZEVEDO E MENDES SERVICOS ADMI197651              19022020REA000000000000000000000003547346                    00000000000000000000000                    00000024996244000134                     00
3410002300051A00000010404292 000000000487 6SONHO DE CRIANCA CONFECCAO INF197630              19022020REA000000000000000000000000057326                    00000000000000000000000                    00000022704478000135                     00
3410002300052A00000010404292 000000023725 4MAICON ROBSON GABARDO         197694              19022020REA000000000000000000000000184537                    00000000000000000000000                    00000000000851022960                     00
3410002300053A00000075604340 000000084173 0PARQUE DE TECNOLOGIA DA INFORM197443              19022020REA000000000000000000000000056054                    00000000000000000000000                    00000024933602000160                     00
3410002300054A00000000102916 000000018131 5FLORESTE E SUPRIMENTO FLORESTA197438              19022020REA000000000000000000000000293509                    00000000000000000000000                    00000008140158000179                     00
3410002300055A00000003304470 000013000843 6FRANCISCO FORTALEZA FILHO     197514              19022020REA000000000000000000000000016296                    00000000000000000000000                    00000020871449000132                     00
3410002300056A00000000102936 000000048939 5LABORATORIO CREATIVE SOLUCOES 197719              19022020REA000000000000000000000000159350                    00000000000000000000000                    00000026114551000170                     00
3410002300057A00000010400353 001300023446 1ENZO WILSON BARBOSA AMARAL    197545              19022020REA000000000000000000000000024415                    00000000000000000000000                    00000000027812461823                     00
3410002300058A00000000104992 000000011755 2PAULO MARTINS RODRIGUES       197553              19022020REA000000000000000000000000223123                    00000000000000000000000                    00000037178951000165                     00
3410002300059A00000023700023 000000253043 0JOAO H BOTELHO GENNARI RESTAUR197752              19022020REA000000000000000000000001284928                    00000000000000000000000                    00000017276511000133                     00
3410002300060A00000008900004 000000300525 3JORGE HENRIQUE MICHEL  CIA LTD197832              19022020REA000000000000000000000000999959                    00000000000000000000000                    00000057820698000109                     00
3410002300061A00000023701849 000000009225 8JESSIKA APARECIDA MORAES DE CA197670              19022020REA000000000000000000000000163828                    00000000000000000000000                    00000000000356019144                     00
3410002300062A00000023700534 000000081028 2OSVALDO ANTONIO DE FREITAS    197485              19022020REA000000000000000000000000026109                    00000000000000000000000                    00000000088888088849                     00
3410002300063A00000003304501 000013002428 2CEMA CENTRO MEDICO E ODONTOLOG197888              19022020REA000000000000000000000000478017                    00000000000000000000000                    00000010576511000100                     00
3410002300064A00000000106939 000000053750 0ADMINISTRADORA DE CONSULTORIOS197870              19022020REA000000000000000000000001591999                    00000000000000000000000                    00000025966574000140                     00
3410002300065A00000003303749 000013002584 8GREEN GOY NOYORI EIRELI  ME   197910              19022020REA000000000000000000000001726473                    00000000000000000000000                    00000005877577000108                     00
3410002300066A00000000100506 000000030540 5CLINICA AMOR SAUDE ITABUNA EIR197597              19022020REA000000000000000000000000162134                    00000000000000000000000                    00000030522210000100                     00
3410002300067A00000010402047 000000304973 1CLINICA MEDICA E ODONTOLOGICA 197490              19022020REA000000000000000000000001525485                    00000000000000000000000                    00000031570751000177                     00
3410002300068A00000010401461 000000001628 9BRIZOLA R SETTE E MARIA DO CAR197475              19022020REA000000000000000000000000099749                    00000000000000000000000                    00000030914197000135                     00
3410002300069A00000000100095 000000028910 8FF INDUSTRIA DE ALIMENTOS LTDA197680              19022020REA000000000000000000000000009641                    00000000000000000000000                    00000020169895000280                     00
3410002300070A00000000100929 000000057972 6CLINICA SAUDE CIDADANIA ITU LT197811              19022020REA000000000000000000000000014597                    00000000000000000000000                    00000009286567000221                     00
3410002300071A00000000101498 000000008037 3PEDRO DELLA GIUSTINA SOUZA    197633              19022020REA000000000000000000000000803946                    00000000000000000000000                    00000078872769000197                     00
3410002300072A00000003303047 000013002290 1CATANDUVA ADMINISTRADORA DE CA197896              19022020REA000000000000000000000000025281                    00000000000000000000000                    00000024028199000124                     00
3410002300073A00000003301512 000013002407 2PAIVA E PAIVA CONSULTORIOS MED197516              19022020REA000000000000000000000000013369                    00000000000000000000000                    00000028782455000125                     00
3410002300074A00000023702886 000000010142 7LRM ACESSORIOS SERVICOS A L ME197723              19022020REA000000000000000000000001003397                    00000000000000000000000                    00000001342545000149                     00
3410002300075A00000023702112 000000002890 8LATICINIOS ZACARIAS LTDA      197613              19022020REA000000000000000000000000013771                    00000000000000000000000                    00000060570488000114                     00
3410002300076A00000023701902 000000033080 9VALDIR ALBERTO LEDESMA        197740              19022020REA000000000000000000000000008123                    00000000000000000000000                    00000000083556834120                     00
3410002300077A00000010401576 001300154874 0RITA DE CASSIA CRUZ DO NASCIME197760              19022020REA000000000000000000000000051340                    00000000000000000000000                    00000000002870900350                     00
3410002300078A00000000106713 000000006702 7IVO RODRIGUES JUNIOR          197833              19022020REA000000000000000000000000048355                    00000000000000000000000                    00000000040442856830                     00
3410002300079A00000008900012 000001100473 8ALPHA E OMEGA COMERCIO E ENGEN197667              19022020REA000000000000000000000000065574                    00000000000000000000000                    00000009250673000174                     00
3410002300080A00000008900001 000000003797 4NAIR DA SILVA MUNIZ 1728733782197598              19022020REA000000000000000000000000726986                    00000000000000000000000                    00000029549230000196                     00
3410002300081A00000003304422 000013001206 1MEDMAX COMERCIO DE EQUIPAMENTO197846              19022020REA000000000000000000000000991196                    00000000000000000000000                    00000007760277000161                     00
3410002300082A00000023700513 000000010772 7CLINICA AMOR SAUDE MARABA LTDA197579              19022020REA000000000000000000000000263454                    00000000000000000000000                    00000031960104000171                     00
3410002300083A00000074800728 000000063824 2JULIANO FRANCISCO DA SILVA ACA197837              19022020REA000000000000000000000000648530                    00000000000000000000000                    00000019204801000105                     00
3410002300084A00000000100165 000000037203 0REGIANE ZACCHEU CARMINATI     197738              19022020REA000000000000000000000000067718                    00000000000000000000000                    00000032467627000143                     00
3410002300085A00000010401651 000000019490 2CARTAO DE TODOS PETROPOLIS LTD197638              19022020REA000000000000000000000000084572                    00000000000000000000000                    00000013584247000144                     00
3410002300086A00000023705777 000000008480 8MARIA HELENA MARINHO DE ARAUJO197495              19022020REA000000000000000000000000062584                    00000000000000000000000                    00000000042218268434                     00
3410002300087A00000008900001 000000003853 9NATHALIA GARCIA FERREIRA 39153197871              19022020REA000000000000000000000000004286                    00000000000000000000000                    00000031326700000102                     00
3410002300088A00000000104992 000000012698 5ROSILENE ALVES DA SILVA DE OLI197765              19022020REA000000000000000000000000007616                    00000000000000000000000                    00000000081875959149                     00
3410002300089A00000003300113 000001005737 0MARILIA CARVALHO DOS SANTOS   197575              19022020REA000000000000000000000000001642                    00000000000000000000000                    00000000027276313832                     00
3410002300090A00000023700997 000000030470 0REJANE CLAUDINO MELO          197704              19022020REA000000000000000000000000053331                    00000000000000000000000                    00000000084356030320                     00
3410002300091A00000003301268 000013001326 1TERRAS GOIANAS CLINICA MEDICA 197546              19022020REA000000000000000000000000943266                    00000000000000000000000                    00000028796557000108                     00
3410002300092A00000010400118 000000003397 5TERRAS GOIANAS CLINICA MEDICA 197890              19022020REA000000000000000000000000199966                    00000000000000000000000                    00000028796557000108                     00
3410002300093A00000010400118 000000003325 8ADMINISTRADORA DE CARTAO DE DE197753              19022020REA000000000000000000000000008059                    00000000000000000000000                    00000030420633000110                     00
3410002300094A00000010402224 001300051399 2MANOEL GONCALVES DOS SANTOS MO197950              19022020REA000000000000000000000000008901                    00000000000000000000000                    00000000001271530120                     00
3410002300095A00000023702349 000000000800 1FAGUNDES CERTIFICADORA E SERVI197483              19022020REA000000000000000000000000070735                    00000000000000000000000                    00000004740806000177                     00
3410002300096A00000023701536 000000012324 2ATAMIR DIAS MARQUES           197511              19022020REA000000000000000000000000203199                    00000000000000000000000                    00000000001516003179                     00
3410002300097A00000010400283 000000003246 2CLINICA MEDICA E ODONTOLOGICA 197734              19022020REA000000000000000000000000673194                    00000000000000000000000                    00000032283114000182                     00
3410002300098A00000023701849 000000008908 7KELVIN HENRY COUTINHO BITTENCO197628              19022020REA000000000000000000000000082962                    00000000000000000000000                    00000000004748649100                     00
3410002300099A00000000100063 000000005933 1CENTRO DE ENDOCRINOLOGIA E MET197445              19022020REA000000000000000000000000149889                    00000000000000000000000                    00000035439728001090                     00
3410002300100A00000000100063 000000005933 1CENTRO DE ENDOCRINOLOGIA E MET197580              19022020REA000000000000000000000000172301                    00000000000000000000000                    00000035439728000522                     00
3410002300101A00000007700001 000002214080 8IDEIA MIDIA GRAFICA DIGITAL  E197476              19022020REA000000000000000000000000075870                    00000000000000000000000                    00000007988078000105                     00
3410002300102A00000000101409 000000028674 5VEXNET TELECON INFORMATICA LTD197547              19022020REA000000000000000000000000490942                    00000000000000000000000                    00000011500145000178                     00
3410002300103A00000003304422 000013001705 9MARIMAX COMERCIO E IMPORTACAO 197703              19022020REA000000000000000000000000348965                    00000000000000000000000                    00000020339865000194                     00
3410002300104A00000010401086 000003003899 3CARTAO DE DESCONTO TAPG ITAQUE197500              19022020REA000000000000000000000000030772                    00000000000000000000000                    00000024819584000190                     00
3410002300105A00000008900003 000000201790 3JEANE RITA TEIXEIRA MARTINS FE197743              19022020REA000000000000000000000000016106                    00000000000000000000000                    00000000007493050880                     00
3410002300106A00000023701549 000000005107 1JOSE CARLOS DOS SANTOS 0194485197641              19022020REA000000000000000000000000021692                    00000000000000000000000                    00000023652989000113                     00
3410002300107A00000010401688 000000000216 9WAUS MALHAS LTDA              197849              19022020REA000000000000000000000000023376                    00000000000000000000000                    00000021902093000110                     00
3410002300108A00000023700458 000000007549 3MARIA LUCILENE LOPES CARNEIRO 197766              19022020REA000000000000000000000000184273                    00000000000000000000000                    00000021810036000100                     00
3410002300109A00000075603169 000000009707 1CASA DA PIMENTA COMERCIAL DE B197593              19022020REA000000000000000000000000013685                    00000000000000000000000                    00000008098251000162                     00
3410002300110A00000013301569 000000028087 9ROBIS GRAVINO DA FONSECA      197944              19022020REA000000000000000000000000007609                    00000000000000000000000                    00000000009616611780                     00
3410002300111A00000008900003 000000201762 8EDIVALDO DIAS                 197844              19022020REA000000000000000000000000017399                    00000000000000000000000                    00000000013666671829                     00
3410002300112A00000013301075 000000009280 0ALEXANDRE PEDRO DA ROSA       197695              19022020REA000000000000000000000000651507                    00000000000000000000000                    00000027060549000128                     00
3410002300113A00000013301579 000000028236 7CAIO CESAR PEREIRA            197788              19022020REA000000000000000000000000026230                    00000000000000000000000                    00000020863883000170                     00
3410002300114A00000013301602 000000010256 3ELSON A CEZAR E CIA LTDA      197526              19022020REA000000000000000000000000163447                    00000000000000000000000                    00000007527024000142                     00
3410002300115A00000013301602 000000001492 3REGILDA FERNANDA SPEER GARCIA 197775              19022020REA000000000000000000000000035482                    00000000000000000000000                    00000000005666111981                     00
3410002300116A00000013301075 000000027569 7DELLA ROCCA E ROSA ACADEMIA LT197460              19022020REA000000000000000000000000112023                    00000000000000000000000                    00000029699928000198                     00
3410002300117A00000013301075 000000028391 6AUTO POSTO SAO PEDRO EIRELI   197464              19022020REA000000000000000000000000127234                    00000000000000000000000                    00000080107030000130                     00
3410002300118A00000013301602 000000009702 0GREGORIO EXTERKOTTER ME       197913              19022020REA000000000000000000000000029043                    00000000000000000000000                    00000086025236000106                     00
3410002300119A00000013301075 000000006792 0VALDORI DE LIMA               197534              19022020REA000000000000000000000000068848                    00000000000000000000000                    00000000095131388953                     00
3410002300120A00000013301075 000000028394 0JULIANO OSVALDO MELCHIORETTO 0197456              19022020REA000000000000000000000000013333                    00000000000000000000000                    00000021964826000140                     00
3410002300121A00000008900012 000001100508 4TAMIRES SILVA DE CARVALHO BRIT197951              19022020REA000000000000000000000000004034                    00000000000000000000000                    00000029819449000168                     00
3410002300122A00000013301608 000000006806 3ELISANDRO COELHO              197945              19022020REA000000000000000000000000047715                    00000000000000000000000                    00000012246661000180                     00
3410002300123A00000013301608 000000009668 7MARCIEL WIETCOVSKI            197491              19022020REA000000000000000000000002444060                    00000000000000000000000                    00000022380543000114                     00
3410002300124A00000000100063 000000005933 1CENTRO DE ENDOCRINOLOGIA E MET197712              19022020REA000000000000000000000000013428                    00000000000000000000000                    00000035439728000107                     00
3410002300125A00000000100063 000000005933 1CENTRO DE ENDOCRINOLOGIA E MET197657              19022020REA000000000000000000000000037099                    00000000000000000000000                    00000035439728001251                     00
3410002300126A00000013301609 000000028552 8ESCRITORIO DO PAPEL PAPELARIA 197625              19022020REA000000000000000000000000007061                    00000000000000000000000                    00000027910160000124                     00
3410002300127A00000023700105 000000220583 1CASA DE GAROA EIRELLI         197452              19022020REA000000000000000000000000322647                    00000000000000000000000                    00000008515856000101                     00
3410002300128A00000008900003 000000201334 7RAFAEL DONIZETE BUCCI 17205150197440              19022020REA000000000000000000000000020974                    00000000000000000000000                    00000022566440000143                     00
3410002300129A00000023702902 000000028499 8QUIK DISTRIBUIDORA DE ARMARINH197930              19022020REA000000000000000000000000064533                    00000000000000000000000                    00000008202176000138                     00
3410002300130A00000013301075 000000019157 4SIMONE RUSSONI 06514821944    197604              19022020REA000000000000000000000000082377                    00000000000000000000000                    00000031728404000120                     00
3410002300131A00000013301075 000000009739 0PAULA CAROLINA DA SILVA MEI   197565              19022020REA000000000000000000000000369704                    00000000000000000000000                    00000028678665000178                     00
3410002300132A00000013301075 000000009944 9ROSILENE VAMBOMMEL MEYER 05387197517              19022020REA000000000000000000000000086301                    00000000000000000000000                    00000024149220000140                     00
3410002300133A00000013301075 000000028645 1LEONARDO AMARAL ANSELMO       197496              19022020REA000000000000000000000000099597                    00000000000000000000000                    00000011399970000128                     00
3410002300134A00000013301075 000000007161 7DOUGLAS MACHADO 06651273914   197935              19022020REA000000000000000000000000153388                    00000000000000000000000                    00000018755866000178                     00
3410002300135A00000013301075 000000028122 0FERNANDO PRIM                 197441              19022020REA000000000000000000000000016089                    00000000000000000000000                    00000012455426000119                     00
3410002300136A00000013301003 000000014342 1NELI ALTINIZIA DALLASTRA      197635              19022020REA000000000000000000000000193899                    00000000000000000000000                    00000017693296000176                     00
3410002300137A00000000104992 000000012516 4CHURRASCARIA E CAFETERIA ESTRE197850              19022020REA000000000000000000000000040399                    00000000000000000000000                    00000030774098000103                     00
3410002300138A00000010403625 000000000420 1VAL FREIRE ESTETICA EIRELI    197585              19022020REA000000000000000000000001834819                    00000000000000000000000                    00000022147131000139                     00
3410002300139A00000013301009 000000006427 0ALINE CRISTINA MORAES BASSO   197885              19022020REA000000000000000000000000039089                    00000000000000000000000                    00000033700523000108                     00
3410002300140A00000023701849 000000007000 9LEONIDIA ALVES CARDOSO        197875              19022020REA000000000000000000000002348699                    00000000000000000000000                    00000003030434000203                     00
3410002300141A00000023701211 000000070392 3PRENDA MARI LTDA              197755              19022020REA000000000000000000000000186976                    00000000000000000000000                    00000002637865000199                     00
3410002300142A00000023705474 000000004421 0ESPACO TAMAREIRA POUSADA E EVE197453              19022020REA000000000000000000000000515139                    00000000000000000000000                    00000029121579000122                     00
3410002300143A00000013301075 000000026680 9ALINE SOUZA RAMOS KRAISCH     197469              19022020REA000000000000000000000000047309                    00000000000000000000000                    00000095873352000168                     00
3410002300144A00000023700417 000000067546 6ANALISES CLINICAS SANTO INACIO197560              19022020REA000000000000000000000000049049                    00000000000000000000000                    00000003535069000108                     00
3410002300145A00000010404890 001300004295 4STEFANI BIRCKE PUTINHON       197736              19022020REA000000000000000000000000092499                    00000000000000000000000                    00000000042057880885                     00
3410002300146A00000023707819 000000007662 7NEODEL TECNOLOGIA E SOFTWARE L197865              19022020REA000000000000000000000000086589                    00000000000000000000000                    00000017837599000115                     00
3410002300147A00000013301075 000000011578 9ROSELI DA CRUZ KOBUS          197762              19022020REA000000000000000000000000064310                    00000000000000000000000                    00000000003570927911                     00
3410002300148A00000013301062 000000005590 5NERI DE BORBA                 197916              19022020REA000000000000000000000000007152                    00000000000000000000000                    00000000073524875904                     00
3410002300149A00000008900012 000001100671 4LUCIANE PACELLI NUNES         197879              19022020REA000000000000000000000000057834                    00000000000000000000000                    00000000011928583873                     00
3410002300150A00000008900003 000000201865 9SILVINO DE BIAZZI FILHO       197617              19022020REA000000000000000000000000282871                    00000000000000000000000                    00000012002353000100                     00
3410002300151A00000000104211 000000042257 6PESSOA E CASTRO LTDA          197903              19022020REA000000000000000000000000064784                    00000000000000000000000                    00000013165208000102                     00
3410002300152A00000000100799 000000048442 3VIEIRA E LANCONICOMERCIO EM AL197767              19022020REA000000000000000000000000016369                    00000000000000000000000                    00000017506373000131                     00
3410002300153A00000013301003 000000014380 4DAIANE TOMAZETTO BERNARDI     197938              19022020REA000000000000000000000001798072                    00000000000000000000000                    00000028893656000108                     00
3410002300154A00000013301003 000000009293 2MARCELO CASTANHA DOCES        197509              19022020REA000000000000000000000000024483                    00000000000000000000000                    00000031303083000111                     00
3410002300155A00000013301003 000000004779 1NADIR FRANCISCO PERONDI E CIA 197527              19022020REA000000000000000000000001057063                    00000000000000000000000                    00000004688117000160                     00
3410002300156A00000013301003 000000014238 7RICARDO SOUZA ACACIO          197596              19022020REA000000000000000000000000015382                    00000000000000000000000                    00000032678630000106                     00
3410002300157A00000013301075 000000022364 6ALZIRA RENGEL ME              197934              19022020REA000000000000000000000000005687                    00000000000000000000000                    00000002897872000120                     00
3410002300158A00000013301003 000000004207 2SILVIA DE OLIVEIRA SANTO AUTOP197744              19022020REA000000000000000000000000014552                    00000000000000000000000                    00000006123354000100                     00
3410002300159A00000003300702 000013001645 1LAS PILATES SERVICOS DE FISIOT197566              19022020REA000000000000000000000000055296                    00000000000000000000000                    00000021268093000100                     00
3410002300160A00000003303208 000001083899 5DAFNE DA COSTA ALMEIDA        197886              19022020REA000000000000000000000000179336                    00000000000000000000000                    00000000031082357880                     00
3410002300161A00000013301075 000000010179 6FREITAS MATERIAIS DE CONSTRUCA197492              19022020REA000000000000000000000000801332                    00000000000000000000000                    00000009356757000197                     00
3410002300162A00000013301009 000000003749 4OSS  NICHELLE LTDA            197770              19022020REA000000000000000000000000164451                    00000000000000000000000                    00000007449665000126                     00
3410002300163A00000013301003 000000006150 6S F FIORENTIN                 197779              19022020REA000000000000000000000000018820                    00000000000000000000000                    00000008878267000198                     00
3410002300164A00000013301075 000000025906 3PEDRO MOREIRA DE SOUZA        197528              19022020REA000000000000000000000000001656                    00000000000000000000000                    00000005980807000151                     00
3410002300165A00000013301003 000000011505 3CRISTIAN JUNIOR BELINI 0955134197764              19022020REA000000000000000000000000155834                    00000000000000000000000                    00000029975504000109                     00
3410002300166A00000013301075 000000009014 0FABIO DE CARVALHO PINTO       197839              19022020REA000000000000000000000000006679                    00000000000000000000000                    00000000011914453727                     00
3410002300167A00000013301075 000000010931 2LUIZ DIOMAR ZONTA             197917              19022020REA000000000000000000000000005000                    00000000000000000000000                    00000084430370000159                     00
3410002300168A00000013301075 000000014943 8NILTON POMMERENING            197808              19022020REA000000000000000000000000118593                    00000000000000000000000                    00000000068523238972                     00
3410002300169A00000003304268 000001000717 6ELISANGELA DA COLLINA FURLAN  197588              19022020REA000000000000000000000000535811                    00000000000000000000000                    00000000016479065808                     00
3410002300170A00000013301009 000000006384 3MIOTTO E ROSS RESTAURANTE E CA197477              19022020REA000000000000000000000000111062                    00000000000000000000000                    00000033566833000173                     00
3410002300171A00000013301003 000000014638 2EXCLUSIVA PNEUS E AUTO CENTER 197563              19022020REA000000000000000000000000791938                    00000000000000000000000                    00000033826693000125                     00
3410002300172A00000023701849 000000001358 7PORTAL GLASS INDUSTRIAL E COME197771              19022020REA000000000000000000000000611267                    00000000000000000000000                    00000016964735000175                     00
3410002300173A00000013301003 000000014536 0FRIGO E COLPANI LTDA          197845              19022020REA000000000000000000000000065992                    00000000000000000000000                    00000019086002000173                     00
3410002300174A00000013301075 000000027686 3AYRON CORREIA COMERCIO DE PRES197619              19022020REA000000000000000000000000110341                    00000000000000000000000                    00000029617720000182                     00
3410002300175A00000013301009 000000006138 7HILARIO SCHNEIDER E CIA LTDA  197931              19022020REA000000000000000000000000261272                    00000000000000000000000                    00000077665313000193                     00
3410002300176A00000013301075 000000023619 5POSTO DE COMBUSTIVEL SAMAMBAIA197854              19022020REA000000000000000000000000030019                    00000000000000000000000                    00000030864632000164                     00
3410002300177A00000013301075 000000027123 3SICRET RISTOW TESKE           197720              19022020REA000000000000000000000000251193                    00000000000000000000000                    00000001421753000133                     00
3410002300178A00000026000001 000005324163 1NAIA CHAVES DE SOUSA PORTO    197900              19022020REA000000000000000000000000049821                    00000000000000000000000                    00000000000353625370                     00
3410002300179A00000003301404 000013001478 9KINDER CURSO E ACADEMIA DA CRI197594              19022020REA000000000000000000000000079433                    00000000000000000000000                    00000033470872000172                     00
3410002300180A00000013301075 000000010983 5IMAK TRATORES E MOTORES LTDA  197559              19022020REA000000000000000000000000002655                    00000000000000000000000                    00000078833506000179                     00
3410002300181A00000013301003 000000014620 0TRANSPORTES DE PASSAGEIROS OLI197742              19022020REA000000000000000000000000036343                    00000000000000000000000                    00000006959809000121                     00
3410002300182A00000010400749 000000000834 3P W F T GUEDES PROMOCOES      197448              19022020REA000000000000000000000000848938                    00000000000000000000000                    00000004893646000104                     00
3410002300183A00000013301003 000000009793 4TIAGO JUNIOR RESTELATTO MIOLA 197701              19022020REA000000000000000000000000423331                    00000000000000000000000                    00000021767295000104                     00
3410002300184A00000010404942 001300000569 4ANTONIO MEIRA NETO            197470              19022020REA000000000000000000000000001354                    00000000000000000000000                    00000000002568127805                     00
3410002300185A00000013301003 000000006175 1S F GOLINSKI LTDA             197652              19022020REA000000000000000000000000065142                    00000000000000000000000                    00000020008973000184                     00
3410002300186A00000013301075 000000022862 1TED MARYNUS CONFECCOES LTDA   197942              19022020REA000000000000000000000000323787                    00000000000000000000000                    00000082855537000106                     00
3410002300187A00000013301075 000000009897 3RICARDO FORSRTER              197653              19022020REA000000000000000000000000018084                    00000000000000000000000                    00000000010835541908                     00
3410002300188A00000013301518 000000002227 6AURI GEWEHR                   197806              19022020REA000000000000000000000000036566                    00000000000000000000000                    00000000064388069949                     00
3410002300189A00000013301075 000000010280 6MADEIREIRA CALAO              197556              19022020REA000000000000000000000000518944                    00000000000000000000000                    00000017287231000120                     00
3410002300190A00000013301075 000000010969 0SOCIEDADE ESPOSTIVA E RECREATI197926              19022020REA000000000000000000000000049598                    00000000000000000000000                    00000083488627000160                     00
3410002300191A00000013301075 000000027689 8SEBASTIAO DA CRUZ             197705              19022020REA000000000000000000000000010671                    00000000000000000000000                    00000021009192000177                     00
3410002300192A00000023705386 000000016057 1LL ADRIANI LOCACAO EIRELI     197923              19022020REA000000000000000000000000091667                    00000000000000000000000                    00000033775915000128                     00
3410002300193A00000013301003 000000009582 6METALURGICA SALTO CAXIAS      197943              19022020REA000000000000000000000000006808                    00000000000000000000000                    00000074150319000130                     00
3410002300194A00000013301075 000000010335 7MATEUS RESTAURANTE E PIZZARIA 197699              19022020REA000000000000000000000000001450                    00000000000000000000000                    00000031139441000100                     00
3410002300195A00000013301502 000000009893 0GILBERTO DALBERTI LTDA        197948              19022020REA000000000000000000000000007181                    00000000000000000000000                    00000015085011000199                     00
3410002300196A00000013301003 000000014675 7JERUSA ALBERTON ASSMANN       197801              19022020REA000000000000000000000000194291                    00000000000000000000000                    00000003893571000190                     00
3410002300197A00000023702831 000000032144 3LL ANDRIANI                   197795              19022020REA000000000000000000000000214333                    00000000000000000000000                    00000012662553000199                     00
3410002300198A00000013301003 000000006003 8JONAS AURELIO CAGNINI ELETRONI197639              19022020REA000000000000000000000000086619                    00000000000000000000000                    00000022073994000109                     00
3410002300199A00000013301003 000000014800 8LUTERO JOAO DA MOTTA          197772              19022020REA000000000000000000000000018575                    00000000000000000000000                    00000005841347000180                     00
3410002300200A00000013301588 000000019079 9ALTAIR VALENTIM SILVA         197857              19022020REA000000000000000000000000055627                    00000000000000000000000                    00000000006629134931                     00
3410002300201A00000026000001 000071128234 0RENATO LOPES DE PAULA         197876              19022020REA000000000000000000000000689943                    00000000000000000000000                    00000000002942683163                     00
3410002300202A00000008900003 000000202016 5MARCELO RIBEIRO FIORITE  CIA L197696              19022020REA000000000000000000000000006678                    00000000000000000000000                    00000066786146000112                     00
3410002300203A00000008900003 000000201990 6TIAGO HENRIQUE MENGALI        197646              19022020REA000000000000000000000000434912                    00000000000000000000000                    00000012149895000100                     00
3410002300204A00000010400756 001300013656 8OTACILIO LOPES BARBALHO       197609              19022020REA000000000000000000000000021210                    00000000000000000000000                    00000000010554437465                     00
3410002300205A00000013301588 000000010696 8EDESIO BUSNARDO               197919              19022020REA000000000000000000000000027127                    00000000000000000000000                    00000008724989000198                     00
3410002300206A00000013301003 000000011076 0ELIZANDRO DAROZ               197785              19022020REA000000000000000000000000022595                    00000000000000000000000                    00000003078436000191                     00
3410002300207A00000013301075 000000023635 7ANTONIO GILMAR COGNACO        197776              19022020REA000000000000000000000000040651                    00000000000000000000000                    00000000064684121968                     00
3410002300208A00000013301075 000000025728 1ELOIZA FARIAS                 197532              19022020REA000000000000000000000000023558                    00000000000000000000000                    00000000008120312961                     00
3410002300209A00000013301075 000000027162 4PAULO CRISTINA MEI            197863              19022020REA000000000000000000000000021453                    00000000000000000000000                    00000023231907000167                     00
3410002300210A00000013301003 000000014242 5CM COMERCIO DE PECAS IMPLEMENT197898              19022020REA000000000000000000000000149184                    00000000000000000000000                    00000007043675000167                     00
3410002300211A00000013301003 000000014886 5FRANCIELA T DAROS PAPELARIA E 197571              19022020REA000000000000000000000000030342                    00000000000000000000000                    00000030682114000120                     00
3410002300212A00000013301003 000000004069 0R E CONFECCOES LTDA ME        197834              19022020REA000000000000000000000000477459                    00000000000000000000000                    00000019802468000128                     00
3410002300213A00000013301003 000000014778 8SALVADOR MECANICA E AUTO PECAS197911              19022020REA000000000000000000000000003793                    00000000000000000000000                    00000010245951000184                     00
3410002300214A00000013301009 000000006377 0PAULO FERDINANDO FERREIRA     197835              19022020REA000000000000000000000000751158                    00000000000000000000000                    00000015726900000198                     00
3410002300215A00000010403052 000000000091 0DUARTE  VIANA LTDA            197681              19022020REA000000000000000000000000062847                    00000000000000000000000                    00000003258166000109                     00
3410002300216A00000013301075 000000026683 3JULIO CEZAR DE AVILA          197733              19022020REA000000000000000000000000154131                    00000000000000000000000                    00000017385690000147                     00
3410002300217A00000013301075 000000007971 5JULIA BORBA ROCHA ME          197920              19022020REA000000000000000000000000549841                    00000000000000000000000                    00000014775306000124                     00
3410002300218A00000013301009 000000005772 0CARLOS C DA COSTA CONFECCOES  197488              19022020REA000000000000000000000000135901                    00000000000000000000000                    00000029908151000124                     00
3410002300219A00000065500655 000004534682 8NAJLA THAISA BORGES TORRES    197461              19022020REA000000000000000000000000085818                    00000000000000000000000                    00000000003000857109                     00
3410002300220A00000013301009 000000009053 0ROSALINO PARISOTTO            197489              19022020REA000000000000000000000000024322                    00000000000000000000000                    00000006235660000138                     00
3410002300221A00000013301075 000000016886 6VALDIR ROLING E CIA LTDA      197880              19022020REA000000000000000000000000114169                    00000000000000000000000                    00000001941213000180                     00
3410002300222A00000013301075 000000029040 8MARILI SALVADOR               197780              19022020REA000000000000000000000000154341                    00000000000000000000000                    00000031524799000149                     00
3410002300223A00000000100048 000000161751 6RICARDO BASSANI               197437              19022020REA000000000000000000000000268570                    00000000000000000000000                    00000000099854872149                     00
3410002300224A00000010400615 000000021060 0NATALIA DE SOUZA FERREIRA     197434              19022020REA000000000000000000000000192197                    00000000000000000000000                    00000000002451579137                     00
3410002300225A00000013301075 000000029207 9JOSE CARLOS DE MELO           197642              19022020REA000000000000000000000000004169                    00000000000000000000000                    00000034118204000143                     00
3410002300226A00000013301003 000000014981 0CRISTIANA SILVA VARELA        197829              19022020REA000000000000000000000000027024                    00000000000000000000000                    00000018106143000148                     00
3410002300227A00000013301003 000000009546 0FAVERO E BORTOLIN FISIOTERAPIA197789              19022020REA000000000000000000000001465581                    00000000000000000000000                    00000032415298000197                     00
3410002300228A00000013301075 000000029251 6IATAN PICKLER                 197682              19022020REA000000000000000000000000007294                    00000000000000000000000                    00000000009582934905                     00
3410002300229A00000013301003 000000005950 1ALVARO FERREIRA DE SOUZA E CIA197671              19022020REA000000000000000000000000027226                    00000000000000000000000                    00000002816859000107                     00
3410002300230A00000023700393 000000070245 5ADALBERTO AMEROSIN            197858              19022020REA000000000000000000000000079623                    00000000000000000000000                    00000000014987059878                     00
3410002300231A00000013301075 000000029210 9ADRIANES DISTRIBUIDORA DE COSM197904              19022020REA000000000000000000000000004376                    00000000000000000000000                    00000010233076000110                     00
3410002300232A00000000102194 000000006738 5ANDRE PERUGINI                197612              19022020REA000000000000000000000000027556                    00000000000000000000000                    00000000047995050682                     00
3410002300233A00000000102194 000000021657 7HOTEL FILHOS DE GANDHI LTDA   197435              19022020REA000000000000000000000000014029                    00000000000000000000000                    00000022552673000197                     00
3410002300234A00000010400920 000000021289 6PK COMERCIO DE COLCOES LTDA   197631              19022020REA000000000000000000000000073811                    00000000000000000000000                    00000012446564000131                     00
3410002300235A00000013301003 000000014787 7FARMACIA COLINA DOIS VIZINHOS 197599              19022020REA000000000000000000000000003577                    00000000000000000000000                    00000027212030000118                     00
3410002300236A00000013301003 000000014946 2CORADELLI E CORADELLI PRESENTE197836              19022020REA000000000000000000000000064130                    00000000000000000000000                    00000010798133000109                     00
3410002300237A00000013301075 000000029304 0NIVALDO MARQUES LAGUNA        197634              19022020REA000000000000000000000000138851                    00000000000000000000000                    00000028692830000146                     00
3410002300238A00000000107114 000000013705 7MARCOS VINICIUS LOPES DE PAULA197518              19022020REA000000000000000000000000102632                    00000000000000000000000                    00000000000674059166                     00
3410002300239A00000013301003 000000004821 6GENIR HELLSTROM PETRI         197687              19022020REA000000000000000000000000005835                    00000000000000000000000                    00000000078253551991                     00
3410002300240A00000013301009 000000006108 5MARIANI DIAS                  197924              19022020REA000000000000000000000000237555                    00000000000000000000000                    00000027102728000180                     00
3410002300241A00000013301075 000000016752 5ALAMEDA AGROPECUARIA LTDA     197537              19022020REA000000000000000000000000011406                    00000000000000000000000                    00000029262472000102                     00
3410002300242A00000010400749 000000000905 6FRANCISCO VALDIR CHAVES       197581              19022020REA000000000000000000000000392228                    00000000000000000000000                    00000023560519000120                     00
3410002300243A00000013301075 000000021812 0LAVACAO E BORRACHARIA DOIS IRM197449              19022020REA000000000000000000000000056475                    00000000000000000000000                    00000079817037000167                     00
3410002300244A00000013301009 000000006531 5JHONAS DA SILVA E CIA LTDA    197618              19022020REA000000000000000000000000009755                    00000000000000000000000                    00000009468615000111                     00
3410002300245A00000013301003 000000014712 5B Z CONSTRUTORA ZOLET BLOCOS E197504              19022020REA000000000000000000000000060709                    00000000000000000000000                    00000029437698000199                     00
3410002300246A00000013301058 000000009045 0J A TEIXEIRA BARANCELLI RESTAU197881              19022020REA000000000000000000000000025934                    00000000000000000000000                    00000006143819000194                     00
3410002300247A00000013301003 000000004568 3DBORBA METALURGICA LTDA       197615              19022020REA000000000000000000000000118110                    00000000000000000000000                    00000019272827000182                     00
3410002300248A00000013301003 000000003269 7LEONILDA BONETE BRANDAO       197747              19022020REA000000000000000000000000003890                    00000000000000000000000                    00000000002265585920                     00
3410002300249A00000010400749 001300002175 4MISSILENE ALMEIDA DE OLIVEIRA 197616              19022020REA000000000000000000000000110025                    00000000000000000000000                    00000000000456141308                     00
3410002300250A00000013301075 000000029377 6VERA MERIANE DE SOUZA FERREIRA197455              19022020REA000000000000000000000000076192                    00000000000000000000000                    00000029443933000135                     00
3410002300251A00000013301003 000000014545 9CENTRO DE FORMACAO DE CONDUTOR197841              19022020REA000000000000000000000000284077                    00000000000000000000000                    00000010575109000100                     00
3410002300252A00000000106997 000000008595 2VANIA MARIA SEVALHO MESQUITA L197519              19022020REA000000000000000000000000025940                    00000000000000000000000                    00000000032028920297                     00
3410002300253A00000013301009 000000006537 4VALERIO JOSE GONCALVES        197758              19022020REA000000000000000000000000029235                    00000000000000000000000                    00000027360800000170                     00
3410002300254A00000013301668 000000005029 6RENATO CESAR CORREA           197486              19022020REA000000000000000000000000044425                    00000000000000000000000                    00000026541291000119                     00
3410002300255A00000013301075 000000027318 0FERRARIA BECKER LTDA ME       197541              19022020REA000000000000000000000000054460                    00000000000000000000000                    00000081373904000164                     00
3410002300256A00000013301668 000000006064 0L Z BRILHAR ECO PISCINAS EIREL197643              19022020REA000000000000000000000000179267                    00000000000000000000000                    00000023205574000100                     00
3410002300257A00000013301075 000000010148 6ELIEZER MARTINS SONANIOTTO    197921              19022020REA000000000000000000000000235628                    00000000000000000000000                    00000027868442000100                     00
3410002300258A00000013301075 000000028644 3PATRICIA MARIA SALVADOR ME    197727              19022020REA000000000000000000000000037633                    00000000000000000000000                    00000033546377000108                     00
3410002300259A00000013301003 000000003618 8FABIANO GANZALA               197820              19022020REA000000000000000000000000015000                    00000000000000000000000                    00000000009621706904                     00
3410002300260A00000023700023 000000253043 0ODA JAPANESE FOOD RESTAURANTE 197877              19022020REA000000000000000000000000579538                    00000000000000000000000                    00000017276511000133                     00
3410002300261A00000013301075 000000029178 1SELIO JOSE DAS NEVES          197688              19022020REA000000000000000000000000010649                    00000000000000000000000                    00000032886702000100                     00
3410002300262A00000013301620 000000014915 2RA COMERCIO DE MEDICAMENTOS   197691              19022020REA000000000000000000000000146443                    00000000000000000000000                    00000003783356000137                     00
3410002300263A00000013301003 000000014831 8NILVA MARLI FIORESE SAGGIORATT197855              19022020REA000000000000000000000000161747                    00000000000000000000000                    00000009025741000100                     00
3410002300264A00000013301003 000000011241 0ISADORA FERNANDA CALGAROTTO DE197724              19022020REA000000000000000000000000016104                    00000000000000000000000                    00000000008864571906                     00
3410002300265A00000013301062 000000015112 2SOLANGI VITORETI BARANOSWKI   197471              19022020REA000000000000000000000000097268                    00000000000000000000000                    00000034320260000166                     00
3410002300266A00000000104206 000000022655 6SANTOS MEDICINA DE TRAFEGO LTD197859              19022020REA000000000000000000000000096174                    00000000000000000000000                    00000031512104000109                     00
3410002300267A00000000103570 000000025601 3SOUVIE COMERCIO INDUSTRIA IMPO197658              19022020REA000000000000000000000001181214                    00000000000000000000000                    00000012226852000180                     00
3410002300268A00000013301009 000000003356 1EVERSON CHIOCHETA E CIA       197482              19022020REA000000000000000000000000004046                    00000000000000000000000                    00000004203553000100                     00
3410002300269A00000013301668 000000006118 2E H ZUFFO LOCACAO DE IMPRESSOR197685              19022020REA000000000000000000000000038749                    00000000000000000000000                    00000025359528000182                     00
3410002300270A00000013301610 000000006217 0ANTONIO BITENCOURT MATIAS     197606              19022020REA000000000000000000000000003867                    00000000000000000000000                    00000000064701875953                     00
3410002300271A00000013301058 000000006576 5ROSANGELA APARECIDA COREA PINT197817              19022020REA000000000000000000000000037778                    00000000000000000000000                    00000012950165000103                     00
3410002300272A00000008900012 000001100681 1EVANDRO CRISTIANO SILVERIO 224197589              19022020REA000000000000000000000000001455                    00000000000000000000000                    00000033377574000132                     00
3410002300273A00000013301584 000000007745 3VERA LUCIA MARIA DE JESUS     197814              19022020REA000000000000000000000000006564                    00000000000000000000000                    00000000023595515900                     00
3410002300274A00000013301075 000000027952 8DIVIACO LTDA                  197524              19022020REA000000000000000000000000063866                    00000000000000000000000                    00000017441311000199                     00
3410002300275A00000013301009 000000006374 6CELLA E SILVA                 197899              19022020REA000000000000000000000000103797                    00000000000000000000000                    00000028091229000106                     00
3410002300276A00000013301075 000000029523 0ONE ACADEMIA DE CONDICIONAMENT197498              19022020REA000000000000000000000000258784                    00000000000000000000000                    00000018556009000149                     00
3410002300277A00000000104992 000000012185 1ASSOCIACAO MISSIONARIA ASSEMBL197555              19022020REA000000000000000000000000117756                    00000000000000000000000                    00000028952444000146                     00
3410002300278A00000013301075 000000029453 5JACKSON VEICULOS              197818              19022020REA000000000000000000000000234006                    00000000000000000000000                    00000027450702000123                     00
3410002300279A00000013301062 000000005191 8GEVERSON BERGAMO              197792              19022020REA000000000000000000000000057282                    00000000000000000000000                    00000000008428513996                     00
3410002300280A00000013301003 000000015024 0ELIZANDRA DA SILVA            197759              19022020REA000000000000000000000000287499                    00000000000000000000000                    00000000003294406916                     00
3410002300281A00000013301075 000000020517 6IVANIR TEREZINHA RICARDO BAUMG197543              19022020REA000000000000000000000000012011                    00000000000000000000000                    00000017545367000193                     00
3410002300282A00000013301075 000000029531 0ELETRO SOLUCOES               197927              19022020REA000000000000000000000000278501                    00000000000000000000000                    00000015549325000103                     00
3410002300283A00000013301003 000000004340 0LOVENI SCHUG                  197815              19022020REA000000000000000000000000019936                    00000000000000000000000                    00000026896430000127                     00
3410002300284A00000013301003 000000009371 8SUPERVALE DISTRIBUIDORA DE PRO197549              19022020REA000000000000000000000000140051                    00000000000000000000000                    00000013146318000127                     00
3410002300285A00000075603167 000000001325 0MARCIANA CUSTODIO DOS SANTOS  197842              19022020REA000000000000000000000000041455                    00000000000000000000000                    00000015049654000187                     00
3410002300286A00000013301609 000000009645 8P2M LAVANDERIA LTDA ME        197893              19022020REA000000000000000000000000009818                    00000000000000000000000                    00000007118530000188                     00
3410002300287A00000013301003 000000004974 3WISOSKI E SPIASSI             197728              19022020REA000000000000000000000000009239                    00000000000000000000000                    00000078103876000150                     00
3410002300288A00000013301609 000000027693 6MERCADO FERNANDES E SOUZA     197602              19022020REA000000000000000000000000040513                    00000000000000000000000                    00000029062121000140                     00
3410002300289A00000023701918 000000017151 4NATALIA PEREIRA FERNANDES 3988197540              19022020REA000000000000000000000000083662                    00000000000000000000000                    00000034589412000120                     00
3410002300290A00000013301075 000000021964 9COMERCIO DE MALHAS AMANDA     197777              19022020REA000000000000000000000000073535                    00000000000000000000000                    00000080421738000161                     00
3410002300291A00000013301009 000000009182 0ZANETTI E SCHWADE             197564              19022020REA000000000000000000000000091444                    00000000000000000000000                    00000001228198000128                     00
3410002300292A00000013301591 000000012412 5MARCIANO MANSKE               197677              19022020REA000000000000000000000000064080                    00000000000000000000000                    00000000000587386908                     00
3410002300293A00000013301003 000000015245 5CLINICA ODONTOLOGICA SABADIN  197620              19022020REA000000000000000000000000004863                    00000000000000000000000                    00000033312866000197                     00
3410002300294A00000013301075 000000008413 1WILLIAN JAMIR DA ROSA         197756              19022020REA000000000000000000000000016543                    00000000000000000000000                    00000015451012000100                     00
3410002300295A00000013301584 000000007716 0ANDREZA FRANCA CRESPI         197932              19022020REA000000000000000000000000017474                    00000000000000000000000                    00000000010672903970                     00
3410002300296A00000075603256 000000002823 1RODRIGO LUCAS DANTAS          197825              19022020REA000000000000000000000000148844                    00000000000000000000000                    00000027789955000126                     00
3410002300297A00000000100268 000000016964 1CASA DA CRIANCA DE VOTUPORANGA197567              19022020REA000000000000000000000000200786                    00000000000000000000000                    00000045163920000169                     00
3410002300298A00000013301003 000000015266 8MARCIA DE FATIMA CALGAROTTO CO197928              19022020REA000000000000000000000000275671                    00000000000000000000000                    00000010283209000163                     00
3410002300299A00000013301003 000000011523 1ANTONIO ALVES                 197761              19022020REA000000000000000000000000001933                    00000000000000000000000                    00000012553297000100                     00
3410002300300A00000013301003 000000009662 8VICTOR HUGO DE SOUZA DISTRIBUI197790              19022020REA000000000000000000000000072758                    00000000000000000000000                    00000032740457000129                     00
3410002300301A00000023706326 000000006804 7JOSE ALBERTO MARTINS NOVAIS BA197465              19022020REA000000000000000000000000469511                    00000000000000000000000                    00000026758357000127                     00
3410002300302A00000003303554 000013000683 0BELLA PETROPOLIS PADARIA E CON197586              19022020REA000000000000000000000002725648                    00000000000000000000000                    00000006949388000158                     00
3410002300303A00000013301075 000000010126 5MARIA DE SENA LOPES           197830              19022020REA000000000000000000000000002334                    00000000000000000000000                    00000000091584469900                     00
3410002300304A00000000104206 000000017204 9CENTRO MEDICO DE RIBEIRAO PRET197672              19022020REA000000000000000000000000200835                    00000000000000000000000                    00000056014871000119                     00
3410002300305A00000013301075 000000029265 6DANTAS SAMARY COMERCIO AGRICOL197715              19022020REA000000000000000000000000668173                    00000000000000000000000                    00000010275685000132                     00
3410002300306A00000013301003 000000009906 6JB MATERIAIS ELETRICOS LTDA ME197506              19022020REA000000000000000000000000135322                    00000000000000000000000                    00000001965594000138                     00
3410002300307A00000013301593 000000029414 4VANDERLEI PINHEIRO            197773              19022020REA000000000000000000000000021738                    00000000000000000000000                    00000000000106326970                     00
3410002300308A00000010404053 000000002535 0NELMA MORAIS DE AZEVEDO       197826              19022020REA000000000000000000000000581951                    00000000000000000000000                    00000000618825000174                     00
3410002300309A00000010400749 000000000693 6JOSE ALVES FILHO CONSTRUCAO   197729              19022020REA000000000000000000000000337760                    00000000000000000000000                    00000010842709000198                     00
3410002300310A00000013301003 000000015308 7ANTONIO CARLOS DOS SANTOS O CO197538              19022020REA000000000000000000000000044631                    00000000000000000000000                    00000013239007000102                     00
3410002300311A00000008900006 000000502498 6YAVINI NOBREGA CANO 4848057981197457              19022020REA000000000000000000000000226363                    00000000000000000000000                    00000034833639000170                     00
3410002300312A00000013301075 000000029655 4LANCHONETE CLAUDETE LTDA      197741              19022020REA000000000000000000000000248247                    00000000000000000000000                    00000033145407000166                     00
3410002300313A00000003301229 000013000644 8LA NOTRE COUSINE LTDA         197539              19022020REA000000000000000000000000113222                    00000000000000000000000                    00000021675847000146                     00
3410002300314A00000013301075 000000029765 8MARILETE PAUL STEIN           197529              19022020REA000000000000000000000000001644                    00000000000000000000000                    00000019959471000150                     00
3410002300315A00000023702621 000000030652 5HIGIENOPOLIS ROTISSERIE E CONE197548              19022020REA000000000000000000000002007717                    00000000000000000000000                    00000011579530000152                     00
3410002300316A00000010403868 000003000308 8BATERIAS S N LTDA             197786              19022020REA000000000000000000000000290315                    00000000000000000000000                    00000007861844000176                     00
3410002300317A00000013301003 000000011453 7GESSO DOIS VIZINHOS           197690              19022020REA000000000000000000000000328217                    00000000000000000000000                    00000012824254000103                     00
3410002300318A00000013301078 000000029762 3SIDNEI DE OLIVEIRA LEAL       197827              19022020REA000000000000000000000000007484                    00000000000000000000000                    00000000084299576934                     00
3410002300319A00000013301075 000000029839 5LANCHERIA E CHOPERIA ENTRE AMI197847              19022020REA000000000000000000000000006808                    00000000000000000000000                    00000029626012000108                     00
3410002300320A00000013301003 000000006193 0MARCIA RAITZ                  197745              19022020REA000000000000000000000000026907                    00000000000000000000000                    00000030697554000150                     00
3410002300321A00000000101724 000000008044 6PAULO RANGEL DA COSTA SANTOS  197663              19022020REA000000000000000000000000005313                    00000000000000000000000                    00000000004077127556                     00
3410002300322A00000013301009 000000005768 1KREMER E KUNTZ LTDA           197793              19022020REA000000000000000000000000251666                    00000000000000000000000                    00000002910574000122                     00
3410002300323A00000013301581 000000029825 5GILBERTO SMANIOTI             197623              19022020REA000000000000000000000000004474                    00000000000000000000000                    00000000003222482993                     00
3410002300324A00000023700450 000000129042 8ETOR LOPEZ RIVERO             197774              19022020REA000000000000000000000000574739                    00000000000000000000000                    00000000019181641850                     00
3410002300325A00000023702153 000001006561 5EDILSON ARAUJO DOS SANTOS     197679              19022020REA000000000000000000000000003876                    00000000000000000000000                    00000000066592445149                     00
3410002300326A00000013301009 000000009242 8ALCEU DUARTE                  197636              19022020REA000000000000000000000000017734                    00000000000000000000000                    00000017704896000192                     00
3410002300327A00000013301003 000000015140 8DIANE PILONETTO               197655              19022020REA000000000000000000000000060135                    00000000000000000000000                    00000028241670000119                     00
3410002300328A00000013301003 000000006161 1PRODOCIMO E FILHOS LTDA       197520              19022020REA000000000000000000000000368416                    00000000000000000000000                    00000012370646000140                     00
3410002300329A00000013301009 000000006789 0ADRIANGELA OLIVO              197451              19022020REA000000000000000000000000001917                    00000000000000000000000                    00000000008595430993                     00
3410002300330A00000013301009 000000009284 3ROSANI DE OLIVEIRA            197783              19022020REA000000000000000000000000005835                    00000000000000000000000                    00000034776712000119                     00
3410002300331A00000010400570 001300018690 4FRANCIELLI DOS SANTOS ROSA    197466              19022020REA000000000000000000000000096785                    00000000000000000000000                    00000000007631517932                     00
3410002300332A00000023701992 000000041167 1CONFEITARIA E CONVENIENCIAS DO197909              19022020REA000000000000000000000001649457                    00000000000000000000000                    00000025370152000107                     00
3410002300333A00000013301009 000000009194 4GUARNIERI E GARNIERI LTDA     197621              19022020REA000000000000000000000000100667                    00000000000000000000000                    00000019570611000101                     00
3410002300334A00000010400008 001300928337 0DORIMAR MARIA DOS SANTOS      197573              19022020REA000000000000000000000000002266                    00000000000000000000000                    00000000061041963149                     00
3410002300335A00000013301009 000000003568 8ANDRELINA CARNEIRO ROA        197821              19022020REA000000000000000000000000052098                    00000000000000000000000                    00000016582141000108                     00
3410002300336A00000013301018 000000015453 9ELLEN BURILLE DE OLIVEIRA     197557              19022020REA000000000000000000000000076175                    00000000000000000000000                    00000034984451000122                     00
3410002300337A00000010400936 000300003212 7KATIA FERNANDA BAPTISTA 049489197515              19022020REA000000000000000000000000221618                    00000000000000000000000                    00000026225230000142                     00
3410002300338A00000075603125 000002130346 0SILVIO CESAR BIAZOTO          197853              19022020REA000000000000000000000000127462                    00000000000000000000000                    00000009330719000165                     00
3410002300339A00000013301662 000000009683 0PEREIRA DE CARVALHO E CIA LTDA197507              19022020REA000000000000000000000000005538                    00000000000000000000000                    00000013407878000198                     00
