34100000      081222347623000178                    06248 000000045232 5CELER PAGAMENTOS              Itau Unibanco S.A                       11902202000000000000000                                                                           
34100011C9801040 222347623000178                    06248 000000045232 5CELER PAGAMENTOS                                                                                   00000                                   00000000                     
3410001300001A00000034108789 000000049434 4TABARATO INDUSTRIA E COMERCIO 200822              19022020REA000000000000000000000000039974                    00000000000000000000000                    00000017059837000290                     00
3410001300002A00000034104453 000000012173 5AVANCAR CURSOS DE CAPACITACAO 200827              19022020REA000000000000000000000000142517                    00000000000000000000000                    00000014869305000149                     00
3410001300003A00000034103746 000000000764 4VANTUIL OLIVEIRA LOPES        200347              19022020REA000000000000000000000000003032                    00000000000000000000000                    00000000058193251849                     00
3410001300004A00000034100059 000000078359 7ADMINISTRADORA DE CARTAO DE TO200504              19022020REA000000000000000000000000078200                    00000000000000000000000                    00000011487917000189                     00
3410001300005A00000034108527 000000008961 2VICENTE DE PAULA RODRIGUES DE 200715              19022020REA000000000000000000000000006674                    00000000000000000000000                    00000006262046000165                     00
3410001300006A00000034102746 000000025961 9MARIA APARECIDA LAURINDA DA SI200785              19022020REA000000000000000000000000079113                    00000000000000000000000                    00000020959355000110                     00
3410001300007A00000034102746 000000029168 7CARTAO DE DESCONTOS DE PARNAMI200524              19022020REA000000000000000000000000023173                    00000000000000000000000                    00000031830018000144                     00
3410001300008A00000034108895 000000036292 2AMORSAUDE CLINICA MEDICA E ODO200381              19022020REA000000000000000000000000221632                    00000000000000000000000                    00000030280982000183                     00
3410001300009A00000034107119 000000011714 6DECOLA BRASIL AGENCIA DE VIAGE200846              19022020REA000000000000000000000000071000                    00000000000000000000000                    00000002139750000174                     00
3410001300010A00000034107048 000000079483 3CONSULTORIA DE VIAGEM         200770              19022020REA000000000000000000000000074546                    00000000000000000000000                    00000004269838000136                     00
3410001300011A00000034100285 000000057309 3BE HAPPY VIAGENS E TURISMO LTD200391              19022020REA000000000000000000000000016575                    00000000000000000000000                    00000001202742000162                     00
3410001300012A00000034108729 000000023207 7CASSIA AGENCIA DE PASSAGENS E 200403              19022020REA000000000000000000000000106504                    00000000000000000000000                    00000058022013000141                     00
3410001300013A00000034100021 000000030813 5AGENCIA DE TURISMO VASCO DA GA200537              19022020REA000000000000000000000000069144                    00000000000000000000000                    00000058133323000133                     00
3410001300014A00000034108857 000000012607 5AGENCIA JORGE DE TURISMO E PAS200341              19022020REA000000000000000000000000024725                    00000000000000000000000                    00000061489399000100                     00
3410001300015A00000034101640 000000042224 0ADRIANA MONTEIRO DE ALMEIDA ME200645              19022020REA000000000000000000000000036061                    00000000000000000000000                    00000015000319000194                     00
3410001300016A00000034106519 000000015554 0VENDA NOVA ADM DE CARTOES LTDA200546              19022020REA000000000000000000000000002435                    00000000000000000000000                    00000012989806000133                     00
3410001300017A00000034106668 000000019122 1LEANDRA APARECIDA DE LIMA     200426              19022020REA000000000000000000000000012459                    00000000000000000000000                    00000000015931545859                     00
3410001300018A00000034100022 000000015049 4BRUNA MICHELE ORTIZ           200441              19022020REA000000000000000000000000023272                    00000000000000000000000                    00000000039460764835                     00
3410001300019A00000034100215 000000042080 3MARMORARIA TARDOC LTDA ME     200383              19022020REA000000000000000000000000031371                    00000000000000000000000                    00000002968921000178                     00
3410001300020A00000034101587 000000010719 2FRANCISCA MARIA FERREIRA DA SI200655              19022020REA000000000000000000000000009455                    00000000000000000000000                    00000020917157000193                     00
3410001300021A00000034100507 000000029530 1MARCO ANTONIO MIANI           200878              19022020REA000000000000000000000000025436                    00000000000000000000000                    00000000006236131821                     00
3410001300022A00000034109379 000000019699 2MIGUEL GIOVANNI RUCHEL        200658              19022020REA000000000000000000000000085858                    00000000000000000000000                    00000000059688971987                     00
3410001300023A00000034108895 000000036284 9AMORSAUDE BETIM CLINICA MEDICA200612              19022020REA000000000000000000000000013788                    00000000000000000000000                    00000030280982000183                     00
3410001300024A00000034103142 000000060595 9AMORSAUDE IBIRITE CLINICA MEDI200842              19022020REA000000000000000000000000102908                    00000000000000000000000                    00000032454844000107                     00
3410001300025A00000034109173 000000005032 0APARECIDO LUCIANO CASTAGNA ME 200713              19022020REA000000000000000000000000026836                    00000000000000000000000                    00000007503635000150                     00
3410001300026A00000034101446 000000062417 1CENNABRAS INDUSTRIA E COMERCIO200683              19022020REA000000000000000000000000292244                    00000000000000000000000                    00000060028370000169                     00
3410001300027A00000034100215 000000033511 8BONFIM E SOUZA COMERCIO DE MAT200355              19022020REA000000000000000000000000022439                    00000000000000000000000                    00000006310047000138                     00
3410001300028A00000034107412 000000019138 4FRANCISCO FABIO SANTOS DE OLIV200565              19022020REA000000000000000000000000059040                    00000000000000000000000                    00000000061401595391                     00
3410001300029A00000034107011 000000008564 9SERGIO JORCELIO DE SA TORRES  200343              19022020REA000000000000000000000000012236                    00000000000000000000000                    00000000038960249149                     00
3410001300030A00000034101640 000000048969 4JBL CONSULTORIA DE MEIOS DE PA200483              19022020REA000000000000000000000000017530                    00000000000000000000000                    00000032527339000137                     00
3410001300031A00000034100002 000000035253 2THIAGO MOREIRA ANDRE          200860              19022020REA000000000000000000000000033942                    00000000000000000000000                    00000003424849000180                     00
3410001300032A00000034108615 000000099635 5MARIA SALETE GOMES SALES      200926              19022020REA000000000000000000000000012142                    00000000000000000000000                    00000013527316000188                     00
3410001300033A00000034100002 000000035253 2TALITA CANDIDO NAKAMURA 377290200732              19022020REA000000000000000000000000010305                    00000000000000000000000                    00000003424849000180                     00
3410001300034A00000034100002 000000035253 2EDIMILSON CAMARGO             200744              19022020REA000000000000000000000000006682                    00000000000000000000000                    00000003424849000180                     00
3410001300035A00000034100002 000000035253 2ALEXANDRE RAMOS               200796              19022020REA000000000000000000000000104328                    00000000000000000000000                    00000003424849000180                     00
3410001300036A00000034109639 000000016124 0JULIANO AUGUSTO LLUIS MENDES  200637              19022020REA000000000000000000000000038401                    00000000000000000000000                    00000000023109567830                     00
3410001300037A00000034104453 000000018199 4AVANCE EQUIPAMENTOS E ACESSORI200480              19022020REA000000000000000000000000015460                    00000000000000000000000                    00000022691736000196                     00
3410001300038A00000034100864 000000007114 7ELIANA BEZERRA DE SOUSA FEITOS200899              19022020REA000000000000000000000000006264                    00000000000000000000000                    00000000002862371130                     00
3410001300039A00000034100002 000000035253 2A  G COSMETICOS LTDA          200676              19022020REA000000000000000000000000081530                    00000000000000000000000                    00000003424849000180                     00
3410001300040A00000034100002 000000035253 2CLEBER PEDROSO VIANA 383094848200559              19022020REA000000000000000000000000045933                    00000000000000000000000                    00000003424849000180                     00
3410001300041A00000034100002 000000035253 2COMMIL COMERCIO E SERVICOS LTD200389              19022020REA000000000000000000000000068997                    00000000000000000000000                    00000003424849000180                     00
3410001300042A00000034107915 000000013985 6DIEGO HENRIQUE ARAUJO FERREIRA200407              19022020REA000000000000000000000000034927                    00000000000000000000000                    00000000070579623122                     00
3410001300043A00000034100002 000000035253 2MICHELLE PEREIRA RAPINI 216315200647              19022020REA000000000000000000000000024325                    00000000000000000000000                    00000003424849000180                     00
3410001300044A00000034100002 000000035253 2COMERCIAL DE COSMETICOS BELEZA200487              19022020REA000000000000000000000000003574                    00000000000000000000000                    00000003424849000180                     00
3410001300045A00000034100002 000000035253 2JR COSMETICOS  E REPRESENTACAO200648              19022020REA000000000000000000000000151412                    00000000000000000000000                    00000003424849000180                     00
3410001300046A00000034100002 000000035253 2NETWORK BEAUTY  FASHION COSMET200883              19022020REA000000000000000000000000052922                    00000000000000000000000                    00000003424849000180                     00
3410001300047A00000034108015 000000004423 6AARAN INDUSTRIA E COMERCIO DE 200790              19022020REA000000000000000000000000023484                    00000000000000000000000                    00000000229392000165                     00
3410001300048A00000034107446 000000020536 6EDUARDO AGRIPINO BIAZON       200916              19022020REA000000000000000000000000046329                    00000000000000000000000                    00000005906650000114                     00
3410001300049A00000034103005 000000003318 2EDIVALDO RODRIGUES DOS SANTOS 200363              19022020REA000000000000000000000000100054                    00000000000000000000000                    00000000014483706802                     00
3410001300050A00000034101644 000000062360 3V F DOS SANTOS COMERCIO DE MOV200923              19022020REA000000000000000000000000032625                    00000000000000000000000                    00000012258816000107                     00
3410001300051A00000034108394 000000005605 8TABAJARA MATERIAIS PARA CONSTR200920              19022020REA000000000000000000000000076076                    00000000000000000000000                    00000004901881000172                     00
3410001300052A00000034101478 000000026876 4GIL PORTO DE BRITO ME         200772              19022020REA000000000000000000000000168124                    00000000000000000000000                    00000017322294000170                     00
3410001300053A00000034100865 000000013771 5MARCOS ROBERTO FERREIRA BISPO 200701              19022020REA000000000000000000000000160405                    00000000000000000000000                    00000049170780000107                     00
3410001300054A00000034100560 000000077000 0MATOS PEDRO E LOTIERSO INFORMA200573              19022020REA000000000000000000000000031396                    00000000000000000000000                    00000034300874000186                     00
3410001300055A00000034100032 000000021412 4PEDRO VELASCO                 200681              19022020REA000000000000000000000000001842                    00000000000000000000000                    00000004132191000104                     00
3410001300056A00000034100077 000000040096 8J DOS SANTOS PEREIRA  MODAS   200746              19022020REA000000000000000000000000026906                    00000000000000000000000                    00000026995735000196                     00
3410001300057A00000034103010 000000003587 5PARTISANS PUB BAR LTDA        200634              19022020REA000000000000000000000000007955                    00000000000000000000000                    00000014147047000197                     00
3410001300058A00000034100668 000000003998 5SANDRA ROSANE PILARSKI        200855              19022020REA000000000000000000000000008468                    00000000000000000000000                    00000000026452399861                     00
3410001300059A00000034108728 000000009420 5MARCOS DE CASTRO CAMPOS CONFEC200927              19022020REA000000000000000000000000017676                    00000000000000000000000                    00000005353544000150                     00
3410001300060A00000034108078 000000008555 5PANIFICADORA E CONFEITARIA MIA200874              19022020REA000000000000000000000000170591                    00000000000000000000000                    00000049249600000187                     00
3410001300061A00000034103130 000000051351 2PADARIA RUA DO ROCIO PAES E LA200765              19022020REA000000000000000000000000082369                    00000000000000000000000                    00000027444888000108                     00
3410001300062A00000034103788 000000058820 4TANJI E DARCIE LTDA           200410              19022020REA000000000000000000000000136082                    00000000000000000000000                    00000017084440000177                     00
3410001300063A00000034102974 000000035415 7ROSEMERY DOS SANTOS REGO COSME200420              19022020REA000000000000000000000000020540                    00000000000000000000000                    00000021415909000180                     00
3410001300064A00000034100445 000000011116 4FLAPTUR AGENCIA DE VIAGENS E T200497              19022020REA000000000000000000000000083312                    00000000000000000000000                    00000004003611000144                     00
3410001300065A00000034102921 000000032440 2ROBERTO JORDAO DIAS           200903              19022020REA000000000000000000000000053916                    00000000000000000000000                    00000012300707000100                     00
3410001300066A00000034103613 000000011505 8PATRICIA APARECIDA RIBEIRO NEV200553              19022020REA000000000000000000000000021971                    00000000000000000000000                    00000000034885863830                     00
3410001300067A00000034103827 000000012759 2EVANDRO DE SOUSA BORGES       200755              19022020REA000000000000000000000000060259                    00000000000000000000000                    00000008778057000128                     00
3410001300068A00000034100366 000000035906 5RAIMUNDO FAZ TUDO SERVICOS MEC200664              19022020REA000000000000000000000000007860                    00000000000000000000000                    00000005876008000210                     00
3410001300069A00000034100002 000000035253 2LILIAN REGINA GOMES PASSAGNO D200433              19022020REA000000000000000000000000010610                    00000000000000000000000                    00000005694739000164                     00
3410001300070A00000034100002 000000035253 2LOOK S COMESTICOS LTDA        200845              19022020REA000000000000000000000000043077                    00000000000000000000000                    00000003424849000180                     00
3410001300071A00000034108036 000000011339 0JAIME GUILHERMINO DE SOUZA    200551              19022020REA000000000000000000000000070939                    00000000000000000000000                    00000000013865140807                     00
3410001300072A00000034108279 000000017143 6FRANCISCO ROGILDO VASCONCELOS 200737              19022020REA000000000000000000000000028629                    00000000000000000000000                    00000063488100000129                     00
3410001300073A00000034100187 000000013926 6CRZ COMERCIO E REPRESENTACOES 200773              19022020REA000000000000000000000000665877                    00000000000000000000000                    00000047738604000101                     00
3410001300074A00000034103789 000000047873 6RINALDO PETRONI NETO          200576              19022020REA000000000000000000000000003666                    00000000000000000000000                    00000000004012824813                     00
3410001300075A00000034109237 000000033218 5ALISON ALVES MIRANDA          200622              19022020REA000000000000000000000000025000                    00000000000000000000000                    00000034743843000108                     00
3410001300076A00000034104285 000000011799 2DIEGO LEITE DE BARROS ASSESSOR200833              19022020REA000000000000000000000000362063                    00000000000000000000000                    00000011316118000140                     00
3410001300077A00000034108217 000000019647 9RAQUEL FARIA SABIONI 277042048200613              19022020REA000000000000000000000000046574                    00000000000000000000000                    00000034178383000104                     00
3410001300078A00000034107493 000000031816 1SHEILA NAIANA DE LIRA SOUZA 10200921              19022020REA000000000000000000000000018553                    00000000000000000000000                    00000033864272000199                     00
3410001300079A00000034103839 000000008967 3LABORATORIO DE ANALISES CLINIC200560              19022020REA000000000000000000000000011539                    00000000000000000000000                    00000077811685000180                     00
3410001300080A00000034108874 000000000613 6CS8 VIAGENS E TURISMO LTDA ME 200911              19022020REA000000000000000000000000698293                    00000000000000000000000                    00000013493042000153                     00
3410001300081A00000034108205 000000001264 7GERSON COSTA RAMOS            200928              19022020REA000000000000000000000000004886                    00000000000000000000000                    00000000019930247866                     00
3410001300082A00000034106914 000000018038 2BM RADIADORES  MANUTENCAO E VE200743              19022020REA000000000000000000000000001968                    00000000000000000000000                    00000026226785000109                     00
3410001300083A00000034106492 000000016570 6IZABEL DE SOUZA SALAZAR FURTAD200630              19022020REA000000000000000000000000013056                    00000000000000000000000                    00000018230240000148                     00
3410001300084A00000034100002 000000035253 2KAIROS DISTRIBUIDORA DE COSMET200665              19022020REA000000000000000000000000014838                    00000000000000000000000                    00000003424849000504                     00
3410001300085A00000034108297 000000008904 0MARKOBRAS AMBIENTAL EIRELI    200557              19022020REA000000000000000000000000003180                    00000000000000000000000                    00000001860710000154                     00
3410001300086A00000034109639 000000000230 3CARLA GROSS                   200781              19022020REA000000000000000000000000004379                    00000000000000000000000                    00000000013208817851                     00
3410001300087A00000034100874 000000008614 3A H ROMEIRO  MATERIAL DE CONST200387              19022020REA000000000000000000000000004832                    00000000000000000000000                    00000009369666000196                     00
3410001300088A00000034108144 000000026653 6DAVID LIMA CELHO              200802              19022020REA000000000000000000000000252935                    00000000000000000000000                    00000000060762968362                     00
3410001300089A00000034105652 000000027826 7FELIPE GOMES DA COSTA         200678              19022020REA000000000000000000000000005747                    00000000000000000000000                    00000000008186726411                     00
3410001300090A00000034107493 000000006545 7MARIA DE FATIMA DOS SANTOS CER200813              19022020REA000000000000000000000000013121                    00000000000000000000000                    00000000054673445449                     00
3410001300091A00000034107293 000000000672 7ALDENEIDE MERENCIANO DA SILVA 200462              19022020REA000000000000000000000000008423                    00000000000000000000000                    00000000000809805979                     00
3410001300092A00000034104086 000000006811 3AKIKO FUJII                   200339              19022020REA000000000000000000000000050343                    00000000000000000000000                    00000000015430322814                     00
3410001300093A00000034107706 000000024030 1THIAGO FELIPE CAMARA SOUZA    200366              19022020REA000000000000000000000000029990                    00000000000000000000000                    00000030628410000142                     00
3410001300094A00000034107847 000000012459 6CATIA TEIXEIRA COMERCIO DE GRA200528              19022020REA000000000000000000000000175746                    00000000000000000000000                    00000027190072000103                     00
3410001300095A00000034109392 000000059025 4WAKY DA SILVA TAVARES 027 714 200429              19022020REA000000000000000000000000209990                    00000000000000000000000                    00000000002771450402                     00
3410001300096A00000034107922 000000000102 4BRUNO CAMILO DO NASCIMENTO    200783              19022020REA000000000000000000000000062176                    00000000000000000000000                    00000000007594113446                     00
3410001300097A00000034100792 000000008250 5ASSOCIACAO DE SAUDE INTEGRAL M200470              19022020REA000000000000000000000000066051                    00000000000000000000000                    00000021012051000103                     00
3410001300098A00000034100372 000000087961 9LUCRECIA RAFAELA PEREIRA DA SI200784              19022020REA000000000000000000000000032916                    00000000000000000000000                    00000000001814356401                     00
3410001300099A00000034107917 000000008741 8SHEILA VIVIAN DA SILVA  ME    200828              19022020REA000000000000000000000000148279                    00000000000000000000000                    00000010330721000113                     00
3410001300100A00000034106530 000000018212 7MACWELL ANTONIO DE MELO       200354              19022020REA000000000000000000000000011252                    00000000000000000000000                    00000017966384000102                     00
3410001300101A00000034107221 000000029428 8JEU BATISTA DA COSTA 004392192200700              19022020REA000000000000000000000000004136                    00000000000000000000000                    00000035464758000165                     00
3410001300102A00000034104440 000000012431 3JOAO ADAUTO BRUM              200859              19022020REA000000000000000000000000019878                    00000000000000000000000                    00000000090596382634                     00
3410001300103A00000034104440 000000012868 6VALERIA QUEIROZ DE LIMA MARQUE200601              19022020REA000000000000000000000000007263                    00000000000000000000000                    00000000002565941714                     00
3410001300104A00000034103797 000000004697 0VALTER YASSUYUKI SHIMAZU      200382              19022020REA000000000000000000000000019239                    00000000000000000000000                    00000000004685174801                     00
3410001300105A00000034101017 000000016518 2ADELSON COSTA DOS SANTOS SERVI200471              19022020REA000000000000000000000000033566                    00000000000000000000000                    00000028363131000152                     00
3410001300106A00000034101514 000000044166 4LAB CAR SERVICOS AUTOMOTIVOS L200897              19022020REA000000000000000000000000013082                    00000000000000000000000                    00000026658145000178                     00
3410001300107A00000034100263 000000090240 5FABIANA FERNANDES DE OLIVEIRA 200430              19022020REA000000000000000000000000238038                    00000000000000000000000                    00000000026137357830                     00
3410001300108A00000034100561 000000022511 1A P BARBOSA JORDAO OPTICA     200623              19022020REA000000000000000000000000065850                    00000000000000000000000                    00000028235666000148                     00
3410001300109A00000034108568 000000005241 2ANTONIO CLAUDINELY DOS SANTOS 200439              19022020REA000000000000000000000000052572                    00000000000000000000000                    00000026740165000193                     00
3410001300110A00000034108568 000000000876 0NATANAEL BATISTA DA CRUZ      200749              19022020REA000000000000000000000000044145                    00000000000000000000000                    00000000006110643670                     00
3410001300111A00000034100332 000000008778 2MARIA ZELIA TEREZA DE SOUZA   200604              19022020REA000000000000000000000000056922                    00000000000000000000000                    00000052965167000190                     00
34100015         000113000000000007413180000000000000000000                                                                                                                                                                                     
34100021C9841040 222347623000178                    06248 000000045232 5CELER PAGAMENTOS                                                                                   00000                                   00000000                     
3410002300001A00000003304442 000013000418 5CARTAO DE DESCONTO TERRA DOS B200919              19022020REA000000000000000000000000006558                    00000000000000000000000                    00000011051024000196                     00
3410002300002A00000023703157 000000034696 9DIEGO GARCIA DA SILVA         200373              19022020REA000000000000000000000000074022                    00000000000000000000000                    00000009354049000117                     00
3410002300003A00000008500109 000000044648 3EPR CENTRO AUTOMOTIVO ME LTDA 200693              19022020REA000000000000000000000000039760                    00000000000000000000000                    00000030636108000136                     00
3410002300004A00000000400265 000000016213 0AUTO CENTER LOJAO DO OLEO LTDA200711              19022020REA000000000000000000000000038503                    00000000000000000000000                    00000002285681000107                     00
3410002300005A00000023700600 000000024244 6TABARATO INDUSTRIA E COMERCIO 200799              19022020REA000000000000000000000000036544                    00000000000000000000000                    00000017059837000109                     00
3410002300006A00000003304585 000001019191 6CLAUDIO BARBOSA REBOUCAS      200388              19022020REA000000000000000000000000011748                    00000000000000000000000                    00000000024510173334                     00
3410002300007A00000003303962 000001082657 7ATILA RANGEL TEOFILO          200817              19022020REA000000000000000000000000079437                    00000000000000000000000                    00000000044783558353                     00
3410002300008A00000023702251 000000040140 4INDUSTRIA E COMDE CONFECCAO FL200618              19022020REA000000000000000000000000124915                    00000000000000000000000                    00000004968641000276                     00
3410002300009A00000023701232 000000024820 7ADMINISTRADORA DE CARTAO DE DE200868              19022020REA000000000000000000000000017900                    00000000000000000000000                    00000031284933000181                     00
3410002300010A00000000101195 000000040736 4MIRA COMERCIO DE CALCADOS CONF200898              19022020REA000000000000000000000000005659                    00000000000000000000000                    00000028464073000153                     00
3410002300011A00000000101195 000000040736 4CONFECCOES  MIROA LTDA        200577              19022020REA000000000000000000000000004716                    00000000000000000000000                    00000028464073000153                     00
3410002300012A00000000101195 000000040736 4U2MODASCOM DE ROUPAS E ACES EI200818              19022020REA000000000000000000000000035016                    00000000000000000000000                    00000028464073000153                     00
3410002300013A00000000101195 000000040736 4H2KIM CO CALC ROUPAS E ACESS E200411              19022020REA000000000000000000000000025207                    00000000000000000000000                    00000028464073000153                     00
3410002300014A00000000101195 000000040736 4MY MODAS COMROUPAS ACES EIRELI200680              19022020REA000000000000000000000000092229                    00000000000000000000000                    00000028464073000153                     00
3410002300015A00000000101195 000000040736 4MIRA MODAS COMSERVDA MODA EIRE200456              19022020REA000000000000000000000000035336                    00000000000000000000000                    00000028464073000153                     00
3410002300016A00000075604370 000000032990 8PDV365 PRODUCAO E AUTOMACAO DE200453              19022020REA000000000000000000000000356598                    00000000000000000000000                    00000012569291000112                     00
3410002300017A00000023701849 000000011116 3MIX LAR EIRELI                200582              19022020REA000000000000000000000000003035                    00000000000000000000000                    00000028940115000185                     00
3410002300018A00000010400353 000000370794 8BICHINHO FELIZ                200646              19022020REA000000000000000000000000001898                    00000000000000000000000                    00000000047723580649                     00
3410002300019A00000023700023 000000253043 0JOSE APARECIDO  PICOLO  CIA LT200931              19022020REA000000000000000000000000088700                    00000000000000000000000                    00000017276511000133                     00
3410002300020A00000023700023 000000253043 0HL SOSSO SJ DO RIO PRETO ME   200578              19022020REA000000000000000000000000011325                    00000000000000000000000                    00000017276511000133                     00
3410002300021A00000023700023 000000253043 0A L SOSSO CONFECCOES ME       200913              19022020REA000000000000000000000000008332                    00000000000000000000000                    00000017276511000133                     00
3410002300022A00000023701849 000000001268 8AURELIO FERREIRA RIBEIRO ME   200777              19022020REA000000000000000000000000019024                    00000000000000000000000                    00000005669371000184                     00
3410002300023A00000010404551 000000000217 0L.P. CONSTRUCOES LTDA ME      200892              19022020REA000000000000000000000000153153                    00000000000000000000000                    00000041314790000167                     00
3410002300024A00000026000001 000071128234 0RENATO LOPES DE PAULA         200371              19022020REA000000000000000000000000015012                    00000000000000000000000                    00000000002942683163                     00
3410002300025A00000000103673 000000024938 6MARCIA DOS SANTOS MARTINS     200455              19022020REA000000000000000000000000257883                    00000000000000000000000                    00000014971559000173                     00
3410002300026A00000000101702 000000210986 7VIDRAUTOS COMERCIO DE VIDROS P200338              19022020REA000000000000000000000000087920                    00000000000000000000000                    00000005646392000184                     00
3410002300027A00000008500101 000000732600 9MAGNUM INSTRUMENTOS MUSICAIS L200904              19022020REA000000000000000000000000190861                    00000000000000000000000                    00000082097197000193                     00
3410002300028A00000004100350 000200701090 1CENTRO TECNICO DE COMUNICACOES200620              19022020REA000000000000000000000000011614                    00000000000000000000000                    00000000697543000100                     00
3410002300029A00000010400898 000000002712 8ADMINISTRADORA DE SERVICOS DE 200457              19022020REA000000000000000000000000042580                    00000000000000000000000                    00000030676872000135                     00
3410002300030A00000008500101 000000679040 2SALVA MED EMERGENCIAS MEDICAS 200596              19022020REA000000000000000000000000019670                    00000000000000000000000                    00000004094517000148                     00
3410002300031A00000023702740 000000017010 0BEATRIZ SILVA CARVALHAES      200451              19022020REA000000000000000000000000043519                    00000000000000000000000                    00000015147464000100                     00
3410002300032A00000008500101 000000954287 6ELIAS CAVALHEIRO              200399              19022020REA000000000000000000000000007561                    00000000000000000000000                    00000000003347243927                     00
3410002300033A00000010404557 000000000878 2ADMINISTRADORA DE CARTAO DE TO200653              19022020REA000000000000000000000000029662                    00000000000000000000000                    00000025341175000193                     00
3410002300034A00000000101873 000000123912 0TONY EWERTON GUNIZEL SIQUEIRA 200929              19022020REA000000000000000000000000002456                    00000000000000000000000                    00000000000840872186                     00
3410002300035A00000010400917 000000005066 0ADMINISTRADORA DE CARTAO DE DE200763              19022020REA000000000000000000000000033985                    00000000000000000000000                    00000031407148000179                     00
3410002300036A00000003300254 000013003667 7PHOENIX TREINAMENTO E DESENVOL200552              19022020REA000000000000000000000000238529                    00000000000000000000000                    00000025284710000111                     00
3410002300037A00000023700023 000000253043 0TAWE COMERCIO DE CALCADOS E AC200654              19022020REA000000000000000000000000051906                    00000000000000000000000                    00000017276511000133                     00
3410002300038A00000003300083 000013007492 1CENTRAL DE NEGOCIOS AGENCIA DE200750              19022020REA000000000000000000000000041416                    00000000000000000000000                    00000004885275000100                     00
3410002300039A00000023703061 000000013470 8LIMATUR CONGRESSOS E EVENTOS L200651              19022020REA000000000000000000000000244387                    00000000000000000000000                    00000022528147000191                     00
3410002300040A00000023700095 000000148486 9ALTERNATUR AGENCIA DE VIAGENS 200760              19022020REA000000000000000000000000817220                    00000000000000000000000                    00000058645359000104                     00
3410002300041A00000000101262 000000024505 4ISABELA CRISTINA DA SILVA     200549              19022020REA000000000000000000000000003817                    00000000000000000000000                    00000000009692739406                     00
3410002300042A00000023700653 000000009892 2BIOSFERA BRASIL AGENCIA DE TUR200434              19022020REA000000000000000000000000016566                    00000000000000000000000                    00000006025918000171                     00
3410002300043A00000010400815 0 0000100048 8CARLOS HENRIQUE QUEIROGA AMARA200712              19022020REA000000000000000000000000016575                    00000000000000000000000                    00000000023212926600                     00
3410002300044A00000023701741 000000043538 4ALIVE TRAVEL VIAGENS E TURISMO200374              19022020REA000000000000000000000000029006                    00000000000000000000000                    00000012695291000169                     00
3410002300045A0000002370449  000000086976 7JAZZ VIAGENS E TURISMO LTDA ME200666              19022020REA000000000000000000000000049661                    00000000000000000000000                    00000001585612000156                     00
3410002300046A00000074800155 000000028554 4JOAO SIMAO MATERIAIS DE CONSTR200852              19022020REA000000000000000000000000014568                    00000000000000000000000                    00000087248100000110                     00
3410002300047A00000023703381 000000401411 1QUICKLY TRAVEL AGENCIA DE VIAG200925              19022020REA000000000000000000000000282271                    00000000000000000000000                    00000002576328000186                     00
3410002300048A00000000105101 000000020027 1VERA LUCIA BASTOS TIGRE       200485              19022020REA000000000000000000000000005080                    00000000000000000000000                    00000000023191201300                     00
3410002300049A00000003303733 000013003898 0CARTAO DE DESCONTOS           200529              19022020REA000000000000000000000000097669                    00000000000000000000000                    00000025135387000114                     00
3410002300050A00000075603125 000000632446 0SANTOS  DIOGO LTDA            200636              19022020REA000000000000000000000000057446                    00000000000000000000000                    00000003177943000182                     00
3410002300051A00000075603125 000000631809 6ANSELMO ACETI INFORMATICA  ME 200492              19022020REA000000000000000000000000066050                    00000000000000000000000                    00000004322177000165                     00
3410002300052A00000010404511 000000000733 5JOSE ANCELMO DE OLIVEIRA CANTI200544              19022020REA000000000000000000000000001337                    00000000000000000000000                    00000001587437000136                     00
3410002300053A00000023700218 000000018737 2JANE KELLY CARNEIRO DA SILVA  200895              19022020REA000000000000000000000000028633                    00000000000000000000000                    00000017601199000106                     00
3410002300054A00000010403792 000000000895 8CLINICA AMOR SAUDE ITABUNA EIR200882              19022020REA000000000000000000000000052284                    00000000000000000000000                    00000030522210000100                     00
3410002300055A00000000100781 000000018701 1ADEMIR APARECIDO CONSTANTINO M200392              19022020REA000000000000000000000000159248                    00000000000000000000000                    00000004162718000135                     00
3410002300056A00000010401610 000000021683 3MICHAEL BIRCKE PUTINHON       200938              19022020REA000000000000000000000000001952                    00000000000000000000000                    00000000036482408893                     00
3410002300057A00000003304410 000001000864 0CARLOS EVANILSON OLIVEIRA VASC200690              19022020REA000000000000000000000000010202                    00000000000000000000000                    00000000003902801352                     00
3410002300058A00000026000001 000001507461 8EWERTON ROSA GOMES            200440              19022020REA000000000000000000000000036098                    00000000000000000000000                    00000000002330612150                     00
3410002300059A00000000102502 000000046291 8VICOSO ESTACIONAMENTO LTDA    200914              19022020REA000000000000000000000000023208                    00000000000000000000000                    00000007799557000183                     00
3410002300060A00000074800913 000000042678 4GIANINA ELIS DE LOS SANTOS GON200614              19022020REA000000000000000000000000044731                    00000000000000000000000                    00000000000114350116                     00
3410002300061A00000010401045 000000003062 0ARACAJU ADMINISTRACAO DE CARTA200824              19022020REA000000000000000000000000033893                    00000000000000000000000                    00000031747596000111                     00
3410002300062A00000074800155 000000015946 8VALDO COMUNICACAO VISUAL LTDA 200427              19022020REA000000000000000000000000031652                    00000000000000000000000                    00000000321078000108                     00
3410002300063A00000023701232 000000024868 1ATENDIMENTO MEDICO E ODONTOLOG200703              19022020REA000000000000000000000000239088                    00000000000000000000000                    00000031132613000106                     00
3410002300064A00000023701849 000000011726 9MARCOS GABRIEL COUTINHO BITTEN200869              19022020REA000000000000000000000000005592                    00000000000000000000000                    00000000009569214180                     00
3410002300065A00000003303733 000013004404 0AZEVEDO E MENDES SERVICOS ADMI200583              19022020REA000000000000000000000000474528                    00000000000000000000000                    00000024996244000134                     00
3410002300066A00000074800902 000000024927 0MAIARA DE ALMEIDA FONSECA MEND200495              19022020REA000000000000000000000000006073                    00000000000000000000000                    00000000002251819169                     00
3410002300067A00000003301629 000001008933 8BRUNO MACHADO DE ARAUJO       200778              19022020REA000000000000000000000000002398                    00000000000000000000000                    00000000005341958306                     00
3410002300068A00000023701485 000000008938 9FABIO DA SILVA MACEDO         200502              19022020REA000000000000000000000000006973                    00000000000000000000000                    00000000014089295890                     00
3410002300069A00000010404292 000000000487 6SONHO DE CRIANCA CONFECCAO INF200561              19022020REA000000000000000000000000001939                    00000000000000000000000                    00000022704478000135                     00
3410002300070A00000010404292 000000023725 4MAICON ROBSON GABARDO         200631              19022020REA000000000000000000000000018020                    00000000000000000000000                    00000000000851022960                     00
3410002300071A00000023700023 000000253043 0DANIEL MARCONI                200768              19022020REA000000000000000000000000042703                    00000000000000000000000                    00000017276511000133                     00
3410002300072A00000023705440 000000001029 4JULIETA BRAGA PINTO           200412              19022020REA000000000000000000000000005301                    00000000000000000000000                    00000007764368000175                     00
3410002300073A00000000101873 000000006886 1ROSEMARY LOUVEIRA             200360              19022020REA000000000000000000000000010925                    00000000000000000000000                    00000000036766658134                     00
3410002300074A00000010401095 000300001348 5MULTIX OIL LUBRIFICANTES E ACE200436              19022020REA000000000000000000000000042838                    00000000000000000000000                    00000011779919000141                     00
3410002300075A00000003301133 000013000676 1VALDIR FARIAS DA SILVA ELETRON200539              19022020REA000000000000000000000000122186                    00000000000000000000000                    00000010829509000103                     00
3410002300076A00000023700023 000000253043 0JOAO H BOTELHO GENNARI RESTAUR200708              19022020REA000000000000000000000000117055                    00000000000000000000000                    00000017276511000133                     00
3410002300077A00000008900004 000000300525 3JORGE HENRIQUE MICHEL  CIA LTD200808              19022020REA000000000000000000000000013929                    00000000000000000000000                    00000057820698000109                     00
3410002300078A00000023701849 000000009225 8JESSIKA APARECIDA MORAES DE CA200608              19022020REA000000000000000000000000023380                    00000000000000000000000                    00000000000356019144                     00
3410002300079A00000003304501 000013002428 2CEMA CENTRO MEDICO E ODONTOLOG200865              19022020REA000000000000000000000000031558                    00000000000000000000000                    00000010576511000100                     00
3410002300080A00000000106939 000000053750 0ADMINISTRADORA DE CONSULTORIOS200843              19022020REA000000000000000000000000221543                    00000000000000000000000                    00000025966574000140                     00
3410002300081A00000003303749 000013002584 8GREEN GOY NOYORI EIRELI  ME   200889              19022020REA000000000000000000000000165630                    00000000000000000000000                    00000005877577000108                     00
3410002300082A00000003301660 000013000532 9MARGARETH ALMEIDA DE DEUS     200659              19022020REA000000000000000000000000001794                    00000000000000000000000                    00000011110788000105                     00
3410002300083A00000010402047 000000304973 1CLINICA MEDICA E ODONTOLOGICA 200414              19022020REA000000000000000000000000099545                    00000000000000000000000                    00000031570751000177                     00
3410002300084A00000010401461 000000001628 9BRIZOLA R SETTE E MARIA DO CAR200384              19022020REA000000000000000000000000019289                    00000000000000000000000                    00000030914197000135                     00
3410002300085A00000000104992 000000012085 5FRANCIELEN MARIA SANTI ALVES  200464              19022020REA000000000000000000000000008354                    00000000000000000000000                    00000028373410000105                     00
3410002300086A00000000101498 000000008037 3PEDRO DELLA GIUSTINA SOUZA    200564              19022020REA000000000000000000000000022611                    00000000000000000000000                    00000078872769000197                     00
3410002300087A00000003303047 000013002290 1CATANDUVA ADMINISTRADORA DE CA200872              19022020REA000000000000000000000000002107                    00000000000000000000000                    00000024028199000124                     00
3410002300088A00000007700001 000002524430 2GLAUCIA JANAINA DOS SANTOS CAB200624              19022020REA000000000000000000000000067614                    00000000000000000000000                    00000000001884551084                     00
3410002300089A00000003301512 000013002407 2PAIVA E PAIVA CONSULTORIOS MED200444              19022020REA000000000000000000000000080036                    00000000000000000000000                    00000028782455000125                     00
3410002300090A00000023702886 000000010142 7LRM ACESSORIOS SERVICOS A L ME200671              19022020REA000000000000000000000000165247                    00000000000000000000000                    00000001342545000149                     00
3410002300091A00000023702112 000000002890 8LATICINIOS ZACARIAS LTDA      200550              19022020REA000000000000000000000000011684                    00000000000000000000000                    00000060570488000114                     00
3410002300092A00000023701902 000000033080 9VALDIR ALBERTO LEDESMA        200695              19022020REA000000000000000000000000004100                    00000000000000000000000                    00000000083556834120                     00
3410002300093A00000023701357 000000582797 3JOSE OTAVIO DA COSTA          200432              19022020REA000000000000000000000000043126                    00000000000000000000000                    00000000009583990698                     00
3410002300094A00000000102194 000000021647 0FONSECA  PUTTINI LTDA         200656              19022020REA000000000000000000000000020596                    00000000000000000000000                    00000001297788000102                     00
3410002300095A00000023702505 000000026311 7A NORDESTINA LESTE  MOVEIS ELE200400              19022020REA000000000000000000000000033464                    00000000000000000000000                    00000026699733000150                     00
3410002300096A00000000106713 000000006702 7IVO RODRIGUES JUNIOR          200809              19022020REA000000000000000000000000014507                    00000000000000000000000                    00000000040442856830                     00
3410002300097A00000008900012 000001100473 8ALPHA E OMEGA COMERCIO E ENGEN200605              19022020REA000000000000000000000000002259                    00000000000000000000000                    00000009250673000174                     00
3410002300098A00000008900001 000000003797 4NAIR DA SILVA MUNIZ 1728733782200535              19022020REA000000000000000000000000113690                    00000000000000000000000                    00000029549230000196                     00
3410002300099A00000003304422 000013001206 1MEDMAX COMERCIO DE EQUIPAMENTO200823              19022020REA000000000000000000000000709930                    00000000000000000000000                    00000007760277000161                     00
3410002300100A00000023700513 000000010772 7CLINICA AMOR SAUDE MARABA LTDA200511              19022020REA000000000000000000000000083006                    00000000000000000000000                    00000031960104000171                     00
3410002300101A00000074800728 000000063824 2JULIANO FRANCISCO DA SILVA ACA200812              19022020REA000000000000000000000000050090                    00000000000000000000000                    00000019204801000105                     00
3410002300102A00000023701849 000000003742 7AUTO ELETRICA NS APARECIDA LTD200468              19022020REA000000000000000000000000003920                    00000000000000000000000                    00000003201496000150                     00
3410002300103A00000000103472 000000061038 0F A F DA SILVA MATERIAL DE CON200689              19022020REA000000000000000000000000052901                    00000000000000000000000                    00000027188035000152                     00
3410002300104A00000000100165 000000037203 0REGIANE ZACCHEU CARMINATI     200694              19022020REA000000000000000000000000005399                    00000000000000000000000                    00000032467627000143                     00
3410002300105A00000000101041 000000024929 7JOAO ARY ALVES                200739              19022020REA000000000000000000000000034087                    00000000000000000000000                    00000000040832406368                     00
3410002300106A00000023701536 000000005805 0JOAO RICARDO MARTINS DA SILVA 200428              19022020REA000000000000000000000000008812                    00000000000000000000000                    00000000096605910125                     00
3410002300107A00000023700645 000000031522 2TAYNARA LOURENCO PEREIRA      200941              19022020REA000000000000000000000000046025                    00000000000000000000000                    00000000060877644373                     00
3410002300108A00000010401651 000000019490 2CARTAO DE TODOS PETROPOLIS LTD200569              19022020REA000000000000000000000000031216                    00000000000000000000000                    00000013584247000144                     00
3410002300109A00000074800911 000000031840 3LUCIENE BATISTA PRADO DOS SANT200586              19022020REA000000000000000000000000006341                    00000000000000000000000                    00000000087224070149                     00
3410002300110A00000008900012 000001100652 8RAIMUNDO ACILIBIO RABELO DE AS200641              19022020REA000000000000000000000000003290                    00000000000000000000000                    00000000037183403807                     00
3410002300111A00000003301268 000013001326 1TERRAS GOIANAS CLINICA MEDICA 200475              19022020REA000000000000000000000000235375                    00000000000000000000000                    00000028796557000108                     00
3410002300112A00000010400118 000000003325 8ADMINISTRADORA DE CARTAO DE DE200709              19022020REA000000000000000000000000007283                    00000000000000000000000                    00000030420633000110                     00
3410002300113A00000023702349 000000000800 1FAGUNDES CERTIFICADORA E SERVI200401              19022020REA000000000000000000000000014472                    00000000000000000000000                    00000004740806000177                     00
3410002300114A00000023702847 000000008900 1CLINICA DE NUTROLOGIA DR ABIB 200602              19022020REA000000000000000000000000452866                    00000000000000000000000                    00000002660576000100                     00
3410002300115A00000023700682 000000035812 6M M CABELEIREIROS LTDA        200530              19022020REA000000000000000000000000011134                    00000000000000000000000                    00000024552836000167                     00
3410002300116A00000023701536 000000012324 2ATAMIR DIAS MARQUES           200437              19022020REA000000000000000000000000004880                    00000000000000000000000                    00000000001516003179                     00
3410002300117A00000023705394 000000000373 5JOSE KAIDE PINHEIRO AMORIM    200406              19022020REA000000000000000000000000003792                    00000000000000000000000                    00000000004764822326                     00
3410002300118A00000010400283 000000003246 2CLINICA MEDICA E ODONTOLOGICA 200685              19022020REA000000000000000000000000090720                    00000000000000000000000                    00000032283114000182                     00
3410002300119A00000000400189 000000099865 2FRANCISCO JUNIOR FEITOSA      200856              19022020REA000000000000000000000000002259                    00000000000000000000000                    00000000040832554391                     00
3410002300120A00000000100063 000000005933 1CENTRO DE ENDOCRINOLOGIA E MET200351              19022020REA000000000000000000000000008048                    00000000000000000000000                    00000035439728001090                     00
3410002300121A00000000100063 000000005933 1CENTRO DE ENDOCRINOLOGIA E MET200512              19022020REA000000000000000000000000016550                    00000000000000000000000                    00000035439728000522                     00
3410002300122A00000003301403 000013001315 0ARIELY NASCIMENTO DOS SANTOS D200627              19022020REA000000000000000000000000003542                    00000000000000000000000                    00000023675741000178                     00
3410002300123A00000007700001 000002214080 8IDEIA MIDIA GRAFICA DIGITAL  E200385              19022020REA000000000000000000000000002730                    00000000000000000000000                    00000007988078000105                     00
3410002300124A00000010400936 000000002977 0BOM ACESSORIOS PARA VEICULOS L200486              19022020REA000000000000000000000000007397                    00000000000000000000000                    00000017310778000108                     00
3410002300125A00000010400919 000000000051 6MASTER REPRESENTACOES E SERVIC200819              19022020REA000000000000000000000000002843                    00000000000000000000000                    00000001925334000139                     00
3410002300126A00000000101409 000000028674 5VEXNET TELECON INFORMATICA LTD200477              19022020REA000000000000000000000000095861                    00000000000000000000000                    00000011500145000178                     00
3410002300127A00000023700624 000000025096 1ECO AUTO EXPRESS SERVICOS AUTO200507              19022020REA000000000000000000000000032251                    00000000000000000000000                    00000022295962000158                     00
3410002300128A00000023701549 000000005107 1JOSE CARLOS DOS SANTOS 0194485200572              19022020REA000000000000000000000000067596                    00000000000000000000000                    00000023652989000113                     00
3410002300129A00000023703238 000000091504 1CASA DOS RELOJOEIROS EIRELI   200662              19022020REA000000000000000000000000129174                    00000000000000000000000                    00000008038666000140                     00
3410002300130A00000023700458 000000007549 3MARIA LUCILENE LOPES CARNEIRO 200728              19022020REA000000000000000000000000015363                    00000000000000000000000                    00000021810036000100                     00
3410002300131A00000075603169 000000009707 1CASA DA PIMENTA COMERCIAL DE B200531              19022020REA000000000000000000000000001367                    00000000000000000000000                    00000008098251000162                     00
3410002300132A00000008900012 000001100659 5YZZA CASES  ACESSORIOS PARA CE200352              19022020REA000000000000000000000000011249                    00000000000000000000000                    00000029872341000139                     00
3410002300133A00000013301075 000000009280 0ALEXANDRE PEDRO DA ROSA       200632              19022020REA000000000000000000000000061035                    00000000000000000000000                    00000027060549000128                     00
3410002300134A00000013301579 000000028236 7CAIO CESAR PEREIRA            200752              19022020REA000000000000000000000000008830                    00000000000000000000000                    00000020863883000170                     00
3410002300135A00000013301075 000000028391 6AUTO POSTO SAO PEDRO EIRELI   200375              19022020REA000000000000000000000000061146                    00000000000000000000000                    00000080107030000130                     00
3410002300136A00000023703238 000000091504 1CASA DOS RELOJOEIROS EIRELI   200837              19022020REA000000000000000000000000012844                    00000000000000000000000                    00000008038666000140                     00
3410002300137A00000023702113 000000054931 2ANIMAL MED EIRELI             200478              19022020REA000000000000000000000000014992                    00000000000000000000000                    00000026859362000126                     00
3410002300138A00000013301075 000000028394 0JULIANO OSVALDO MELCHIORETTO 0200368              19022020REA000000000000000000000000058506                    00000000000000000000000                    00000021964826000140                     00
3410002300139A00000013301608 000000006806 3ELISANDRO COELHO              200939              19022020REA000000000000000000000000093904                    00000000000000000000000                    00000012246661000180                     00
3410002300140A00000003304323 000013003436 6EDUARDO NICOLAS SOARES DE SOUS200787              19022020REA000000000000000000000000075117                    00000000000000000000000                    00000030085614000184                     00
3410002300141A00000013301608 000000009668 7MARCIEL WIETCOVSKI            200415              19022020REA000000000000000000000000111184                    00000000000000000000000                    00000022380543000114                     00
3410002300142A00000000100063 000000005933 1CENTRO DE ENDOCRINOLOGIA E MET200657              19022020REA000000000000000000000000002872                    00000000000000000000000                    00000035439728000107                     00
3410002300143A00000023700105 000000220583 1CASA DE GAROA EIRELLI         200362              19022020REA000000000000000000000000100722                    00000000000000000000000                    00000008515856000101                     00
3410002300144A00000023701887 000000000786 2PEDRITO DE SOUZA AVILA        200413              19022020REA000000000000000000000000002940                    00000000000000000000000                    00000000032843100968                     00
3410002300145A00000013301075 000000009944 9ROSILENE VAMBOMMEL MEYER 05387200445              19022020REA000000000000000000000000004264                    00000000000000000000000                    00000024149220000140                     00
3410002300146A00000003303267 000001084560 2PAULO COSTA DANTAS            200857              19022020REA000000000000000000000000125660                    00000000000000000000000                    00000000003311596781                     00
3410002300147A00000013301075 000000007161 7DOUGLAS MACHADO 06651273914   200915              19022020REA000000000000000000000000025014                    00000000000000000000000                    00000018755866000178                     00
3410002300148A00000013301075 000000028122 0FERNANDO PRIM                 200349              19022020REA000000000000000000000000006436                    00000000000000000000000                    00000012455426000119                     00
3410002300149A00000013301003 000000014342 1NELI ALTINIZIA DALLASTRA      200567              19022020REA000000000000000000000000038696                    00000000000000000000000                    00000017693296000176                     00
3410002300150A00000000104992 000000012516 4CHURRASCARIA E CAFETERIA ESTRE200825              19022020REA000000000000000000000000027942                    00000000000000000000000                    00000030774098000103                     00
3410002300151A00000010403625 000000000420 1VAL FREIRE ESTETICA EIRELI    200516              19022020REA000000000000000000000000371550                    00000000000000000000000                    00000022147131000139                     00
3410002300152A00000013301003 000000009664 4CELIMAR R DIAS E CIA LTDA     200930              19022020REA000000000000000000000000020728                    00000000000000000000000                    00000006111672000150                     00
3410002300153A00000023702024 000000072761 0MANOEL SOARES DE ABRANTES     200609              19022020REA000000000000000000000000040366                    00000000000000000000000                    00000000087459086487                     00
3410002300154A00000023701849 000000007000 9LEONIDIA ALVES CARDOSO        200847              19022020REA000000000000000000000000780233                    00000000000000000000000                    00000003030434000203                     00
3410002300155A00000007000240 000000040819 4COMANDO COMERCIO E CONFECCAO D200686              19022020REA000000000000000000000000037707                    00000000000000000000000                    00000013179784000109                     00
3410002300156A00000000102911 000000041787 4JLA COMERCIO DE MATERIAIS DE C200376              19022020REA000000000000000000000000003081                    00000000000000000000000                    00000009624989000189                     00
3410002300157A00000023701211 000000070392 3PRENDA MARI LTDA              200714              19022020REA000000000000000000000000013594                    00000000000000000000000                    00000002637865000199                     00
3410002300158A00000013301075 000000026680 9ALINE SOUZA RAMOS KRAISCH     200379              19022020REA000000000000000000000000016303                    00000000000000000000000                    00000095873352000168                     00
3410002300159A00000023700417 000000067546 6ANALISES CLINICAS SANTO INACIO200490              19022020REA000000000000000000000000022979                    00000000000000000000000                    00000003535069000108                     00
3410002300160A00000013301003 000000014335 9MATEUS LUIZ BOGONI EIRELI     200803              19022020REA000000000000000000000000003311                    00000000000000000000000                    00000032541102000100                     00
3410002300161A00000013301075 000000011578 9ROSELI DA CRUZ KOBUS          200723              19022020REA000000000000000000000000003208                    00000000000000000000000                    00000000003570927911                     00
3410002300162A00000008900012 000001100671 4LUCIANE PACELLI NUNES         200853              19022020REA000000000000000000000000002819                    00000000000000000000000                    00000000011928583873                     00
3410002300163A00000003301724 000013000568 1CENTRO DE LUBRIFICACAO E MECAN200820              19022020REA000000000000000000000000002455                    00000000000000000000000                    00000027719181000167                     00
3410002300164A00000023701781 000000005906 4CAMILA CHAVES SILVA           200625              19022020REA000000000000000000000000007401                    00000000000000000000000                    00000014569626000128                     00
3410002300165A00000000101230 000000054027 7ANA CLAUDIA DA SILVA AMORIM   200510              19022020REA000000000000000000000000001773                    00000000000000000000000                    00000000056650582387                     00
3410002300166A00000000100799 000000048442 3VIEIRA E LANCONICOMERCIO EM AL200729              19022020REA000000000000000000000000016786                    00000000000000000000000                    00000017506373000131                     00
3410002300167A00000013301003 000000014380 4DAIANE TOMAZETTO BERNARDI     200922              19022020REA000000000000000000000000036158                    00000000000000000000000                    00000028893656000108                     00
3410002300168A00000013301003 000000009293 2MARCELO CASTANHA DOCES        200435              19022020REA000000000000000000000000040019                    00000000000000000000000                    00000031303083000111                     00
3410002300169A00000013301003 000000004779 1NADIR FRANCISCO PERONDI E CIA 200452              19022020REA000000000000000000000000122892                    00000000000000000000000                    00000004688117000160                     00
3410002300170A00000013301003 000000014238 7RICARDO SOUZA ACACIO          200533              19022020REA000000000000000000000000018044                    00000000000000000000000                    00000032678630000106                     00
3410002300171A00000003303208 000001083899 5DAFNE DA COSTA ALMEIDA        200862              19022020REA000000000000000000000000006948                    00000000000000000000000                    00000000031082357880                     00
3410002300172A00000013301075 000000010179 6FREITAS MATERIAIS DE CONSTRUCA200416              19022020REA000000000000000000000000015391                    00000000000000000000000                    00000009356757000197                     00
3410002300173A00000013301009 000000003749 4OSS  NICHELLE LTDA            200733              19022020REA000000000000000000000000046103                    00000000000000000000000                    00000007449665000126                     00
3410002300174A00000013301003 000000006257 0BARANCELLI  MATTEI LTDA       200706              19022020REA000000000000000000000000018167                    00000000000000000000000                    00000029498200000106                     00
3410002300175A00000013301003 000000011505 3CRISTIAN JUNIOR BELINI 0955134200724              19022020REA000000000000000000000000015714                    00000000000000000000000                    00000029975504000109                     00
3410002300176A00000023701453 000000064528 1VAGNER LOPES                  200390              19022020REA000000000000000000000000005781                    00000000000000000000000                    00000000002592833714                     00
3410002300177A00000023703134 000000013795 2FABIANO FERNANDES PAIXAO      200344              19022020REA000000000000000000000000003094                    00000000000000000000000                    00000000028182813859                     00
3410002300178A00000010404368 000000000404 6GERAL CLINIC SERVICOS DE SAUDE200691              19022020REA000000000000000000000000014214                    00000000000000000000000                    00000024755221000138                     00
3410002300179A00000003304268 000001000717 6ELISANGELA DA COLLINA FURLAN  200519              19022020REA000000000000000000000000011653                    00000000000000000000000                    00000000016479065808                     00
3410002300180A00000013301009 000000006384 3MIOTTO E ROSS RESTAURANTE E CA200386              19022020REA000000000000000000000000033932                    00000000000000000000000                    00000033566833000173                     00
3410002300181A00000013301003 000000014638 2EXCLUSIVA PNEUS E AUTO CENTER 200493              19022020REA000000000000000000000000064677                    00000000000000000000000                    00000033826693000125                     00
3410002300182A00000013301003 000000004888 7ADEMIR PEREIRA DA SILVA E CIA 200745              19022020REA000000000000000000000000004795                    00000000000000000000000                    00000007354973000178                     00
3410002300183A00000013301075 000000027686 3AYRON CORREIA COMERCIO DE PRES200554              19022020REA000000000000000000000000029836                    00000000000000000000000                    00000029617720000182                     00
3410002300184A00000013301075 000000023619 5POSTO DE COMBUSTIVEL SAMAMBAIA200829              19022020REA000000000000000000000000024613                    00000000000000000000000                    00000030864632000164                     00
3410002300185A00000003304008 000013002720 7PROMAQ COMERCIO DE MAQUINAS E 200844              19022020REA000000000000000000000000001954                    00000000000000000000000                    00000024626838000153                     00
3410002300186A00000013301075 000000022910 5ALECXANDRO ESPINDOLA          200450              19022020REA000000000000000000000000004936                    00000000000000000000000                    00000018573641000109                     00
3410002300187A00000013301075 000000027123 3SICRET RISTOW TESKE           200667              19022020REA000000000000000000000000029517                    00000000000000000000000                    00000001421753000133                     00
3410002300188A00000026000001 000005324163 1NAIA CHAVES DE SOUSA PORTO    200879              19022020REA000000000000000000000000018107                    00000000000000000000000                    00000000000353625370                     00
3410002300189A00000075603256 000000002350 7JANDEIR APARECIDO DE ALMEIDA E200589              19022020REA000000000000000000000000004312                    00000000000000000000000                    00000006895016000196                     00
3410002300190A00000010400749 000000000834 3P W F T GUEDES PROMOCOES      200356              19022020REA000000000000000000000000018896                    00000000000000000000000                    00000004893646000104                     00
3410002300191A00000010404093 000000004344 0MARINA OLIVEIRA BONIFACIO PACH200875              19022020REA000000000000000000000000003448                    00000000000000000000000                    00000000037973652841                     00
3410002300192A00000013301003 000000009793 4TIAGO JUNIOR RESTELATTO MIOLA 200639              19022020REA000000000000000000000000143062                    00000000000000000000000                    00000021767295000104                     00
3410002300193A00000000100156 000000026049 5ANA CRISTINA P D EPIRO MADEIRA200395              19022020REA000000000000000000000000002364                    00000000000000000000000                    00000008231663000129                     00
3410002300194A00000010400151 000000030584 7JOAO PAULO REZENDE            200542              19022020REA000000000000000000000000002287                    00000000000000000000000                    00000000004310740626                     00
3410002300195A00000074800738 000000033828 7MARCIO SOARES THOME           200696              19022020REA000000000000000000000000025216                    00000000000000000000000                    00000000001479987433                     00
3410002300196A00000000100387 000000073100 5GINA KESIA ARAUJO FRANCA      200716              19022020REA000000000000000000000000015049                    00000000000000000000000                    00000000003600480308                     00
3410002300197A00000023703304 000000008079 9ARG PARK ESTACIONAMENTO       200513              19022020REA000000000000000000000000002997                    00000000000000000000000                    00000015536157000103                     00
3410002300198A00000013301003 000000006175 1S F GOLINSKI LTDA             200584              19022020REA000000000000000000000000065142                    00000000000000000000000                    00000020008973000184                     00
3410002300199A00000013301075 000000022862 1TED MARYNUS CONFECCOES LTDA   200932              19022020REA000000000000000000000000033922                    00000000000000000000000                    00000082855537000106                     00
3410002300200A00000000100156 000000028423 8GABRIELA DE PAULISTA FARIA    200880              19022020REA000000000000000000000000002387                    00000000000000000000000                    00000000046175131835                     00
3410002300201A00000013301608 000000027877 7FERROFUSO COMERCIO DE FERRAGEN200741              19022020REA000000000000000000000000015876                    00000000000000000000000                    00000029094193000179                     00
3410002300202A00000075604390 000000028223 5RODRIGO MELO DA SILVA         200458              19022020REA000000000000000000000000132570                    00000000000000000000000                    00000000029266183873                     00
3410002300203A00000023705386 000000016057 1LL ADRIANI LOCACAO EIRELI     200905              19022020REA000000000000000000000000023000                    00000000000000000000000                    00000033775915000128                     00
3410002300204A00000013301003 000000009582 6METALURGICA SALTO CAXIAS      200933              19022020REA000000000000000000000000001459                    00000000000000000000000                    00000074150319000130                     00
3410002300205A00000010403548 000000000598 6CARLOS DANIEL DE SOUZA PORFIRI200734              19022020REA000000000000000000000000009331                    00000000000000000000000                    00000021857887000109                     00
3410002300206A00000013301003 000000014675 7JERUSA ALBERTON ASSMANN       200771              19022020REA000000000000000000000000004462                    00000000000000000000000                    00000003893571000190                     00
3410002300207A00000000100799 000000025388 0DIGABEL  DEPOSITO ITATIBENSE D200886              19022020REA000000000000000000000000197296                    00000000000000000000000                    00000061834784000148                     00
3410002300208A00000010400307 000030000465 4EVANGELISTA LOPES DE SOUZA ME 200642              19022020REA000000000000000000000000129495                    00000000000000000000000                    00000008091527000180                     00
3410002300209A00000000100799 000000043058 7DEBORA CRISTINA FACINA        200525              19022020REA000000000000000000000000026046                    00000000000000000000000                    00000000041838847804                     00
3410002300210A00000023702831 000000032144 3LL ANDRIANI                   200764              19022020REA000000000000000000000000058800                    00000000000000000000000                    00000012662553000199                     00
3410002300211A00000023702153 000000017396 7EDMILSON FERREIRA DE PAIVA    200640              19022020REA000000000000000000000000107793                    00000000000000000000000                    00000000059918721120                     00
3410002300212A00000010404125 000000024821 4REGINALDO DA SILVA LOTIERSO   200536              19022020REA000000000000000000000000023904                    00000000000000000000000                    00000000010101925824                     00
3410002300213A00000003300216 000013003063 3LG DA SILVA MODAS ME          200587              19022020REA000000000000000000000000067580                    00000000000000000000000                    00000017055711000166                     00
3410002300214A00000013301003 000000006003 8JONAS AURELIO CAGNINI ELETRONI200570              19022020REA000000000000000000000000229476                    00000000000000000000000                    00000022073994000109                     00
3410002300215A00000013301003 000000014800 8LUTERO JOAO DA MOTTA          200735              19022020REA000000000000000000000000006516                    00000000000000000000000                    00000005841347000180                     00
3410002300216A00000026000001 000071128234 0RENATO LOPES DE PAULA         200848              19022020REA000000000000000000000000038085                    00000000000000000000000                    00000000002942683163                     00
3410002300217A00000013301588 000000010696 8EDESIO BUSNARDO               200900              19022020REA000000000000000000000000001639                    00000000000000000000000                    00000008724989000198                     00
3410002300218A00000023703045 000000066454 5ARISMAR ARAUJO DE OLIVEIRA    200832              19022020REA000000000000000000000000004245                    00000000000000000000000                    00000000001443266558                     00
3410002300219A00000013301075 000000023635 7ANTONIO GILMAR COGNACO        200740              19022020REA000000000000000000000000071537                    00000000000000000000000                    00000000064684121968                     00
3410002300220A00000013301075 000000027162 4PAULO CRISTINA MEI            200834              19022020REA000000000000000000000000003190                    00000000000000000000000                    00000023231907000167                     00
3410002300221A00000000101035 000000039839 0MARIA DIVANIA ABREU BRAGA     200707              19022020REA000000000000000000000000002837                    00000000000000000000000                    00000029622932000158                     00
3410002300222A00000013301003 000000014242 5CM COMERCIO DE PECAS IMPLEMENT200876              19022020REA000000000000000000000000015997                    00000000000000000000000                    00000007043675000167                     00
3410002300223A00000013301003 000000004069 0R E CONFECCOES LTDA ME        200810              19022020REA000000000000000000000000043260                    00000000000000000000000                    00000019802468000128                     00
3410002300224A00000010403052 000000000091 0DUARTE  VIANA LTDA            200616              19022020REA000000000000000000000000004754                    00000000000000000000000                    00000003258166000109                     00
3410002300225A00000023703327 000000005605 7STUDIO DA BELEZA LTDA         200804              19022020REA000000000000000000000000010621                    00000000000000000000000                    00000033734830000100                     00
3410002300226A00000010403872 000000000821 9H11 PNEUS E RODAS LTDA        200890              19022020REA000000000000000000000000004913                    00000000000000000000000                    00000023773801000195                     00
3410002300227A00000013301075 000000007971 5JULIA BORBA ROCHA ME          200901              19022020REA000000000000000000000000009723                    00000000000000000000000                    00000014775306000124                     00
3410002300228A00000010400643 000000029874 8JUSCERAN UMBELINO DA SILVA    200597              19022020REA000000000000000000000000054540                    00000000000000000000000                    00000000093958250491                     00
3410002300229A00000000102199 000000021107 9ORGANIZACAO FARMACEUTICA PEREI200891              19022020REA000000000000000000000000007362                    00000000000000000000000                    00000034960823000180                     00
3410002300230A00000065500655 000004534682 8NAJLA THAISA BORGES TORRES    200372              19022020REA000000000000000000000000017658                    00000000000000000000000                    00000000003000857109                     00
3410002300231A00000013301003 000000014589 0CLAUDOMIR JUCIEL TARTAS       200643              19022020REA000000000000000000000000013679                    00000000000000000000000                    00000022322743000110                     00
3410002300232A00000013301075 000000016886 6VALDIR ROLING E CIA LTDA      200854              19022020REA000000000000000000000000003015                    00000000000000000000000                    00000001941213000180                     00
3410002300233A00000013301075 000000029040 8MARILI SALVADOR               200742              19022020REA000000000000000000000000044235                    00000000000000000000000                    00000031524799000149                     00
3410002300234A00000000100048 000000161751 6RICARDO BASSANI               200345              19022020REA000000000000000000000000076000                    00000000000000000000000                    00000000099854872149                     00
3410002300235A00000003301626 000001007535 2ALINE DA SILVA MENDES TEIXEIRA200579              19022020REA000000000000000000000000013029                    00000000000000000000000                    00000000005548472135                     00
3410002300236A00000013301075 000000029207 9JOSE CARLOS DE MELO           200574              19022020REA000000000000000000000000005738                    00000000000000000000000                    00000034118204000143                     00
3410002300237A00000013301003 000000014981 0CRISTIANA SILVA VARELA        200805              19022020REA000000000000000000000000004123                    00000000000000000000000                    00000018106143000148                     00
3410002300238A00000013301003 000000009546 0FAVERO E BORTOLIN FISIOTERAPIA200753              19022020REA000000000000000000000000046651                    00000000000000000000000                    00000032415298000197                     00
3410002300239A00000023706685 000000000268 2FRANCISCO DAS CHAGAS TEIXEIRA 200907              19022020REA000000000000000000000000005650                    00000000000000000000000                    00000007951687000190                     00
3410002300240A00000023700393 000000070245 5ADALBERTO AMEROSIN            200830              19022020REA000000000000000000000000008746                    00000000000000000000000                    00000000014987059878                     00
3410002300241A00000000102194 000000021657 7HOTEL FILHOS DE GANDHI LTDA   200342              19022020REA000000000000000000000000021015                    00000000000000000000000                    00000022552673000197                     00
3410002300242A00000023701579 000000020790 0MERCIA MARIA FRAGA MOTA       200615              19022020REA000000000000000000000000021753                    00000000000000000000000                    00000005516137000117                     00
3410002300243A00000010400920 000000021289 6PK COMERCIO DE COLCOES LTDA   200562              19022020REA000000000000000000000000005418                    00000000000000000000000                    00000012446564000131                     00
3410002300244A00000023702113 000000611109 2JOSAEL GOMES DA SILVA         200357              19022020REA000000000000000000000000012295                    00000000000000000000000                    00000000072637390115                     00
3410002300245A00000042200037 000000580417 0CEARA DISTRIBUIDORA DE EQUIPAM200540              19022020REA000000000000000000000000234266                    00000000000000000000000                    00000029654959000122                     00
3410002300246A00000023700997 000000007689 9VICENTINA DE PAULA ALVES MARTI200476              19022020REA000000000000000000000000042089                    00000000000000000000000                    00000000002398301303                     00
3410002300247A00000000400044 000000045709 0MSP COSMETICO EIRELI          200866              19022020REA000000000000000000000000043127                    00000000000000000000000                    00000028863335000152                     00
3410002300248A00000000100268 000000013536 4SOARES ZENATTI  ZENATTI LTDA  200517              19022020REA000000000000000000000000003677                    00000000000000000000000                    00000005808981000111                     00
3410002300249A00000013301003 000000014946 2CORADELLI E CORADELLI PRESENTE200811              19022020REA000000000000000000000000002420                    00000000000000000000000                    00000010798133000109                     00
3410002300250A00000013301075 000000029304 0NIVALDO MARQUES LAGUNA        200566              19022020REA000000000000000000000000031602                    00000000000000000000000                    00000028692830000146                     00
3410002300251A00000000107114 000000013705 7MARCOS VINICIUS LOPES DE PAULA200446              19022020REA000000000000000000000000010748                    00000000000000000000000                    00000000000674059166                     00
3410002300252A00000013301075 000000016752 5ALAMEDA AGROPECUARIA LTDA     200465              19022020REA000000000000000000000000008099                    00000000000000000000000                    00000029262472000102                     00
3410002300253A00000010404463 000000000417 4DE PAULA LANCHONETE E RESTAURA200408              19022020REA000000000000000000000000003400                    00000000000000000000000                    00000024281581000145                     00
3410002300254A00000003303737 000013003938 9CLINICA MEDICA E ODONTOLOGICA 200908              19022020REA000000000000000000000000011041                    00000000000000000000000                    00000031570751000177                     00
3410002300255A00000010400749 000000000905 6FRANCISCO VALDIR CHAVES       200514              19022020REA000000000000000000000000021066                    00000000000000000000000                    00000023560519000120                     00
3410002300256A00000013301075 000000021812 0LAVACAO E BORRACHARIA DOIS IRM200358              19022020REA000000000000000000000000018283                    00000000000000000000000                    00000079817037000167                     00
3410002300257A00000013301058 000000009045 0J A TEIXEIRA BARANCELLI RESTAU200858              19022020REA000000000000000000000000008947                    00000000000000000000000                    00000006143819000194                     00
3410002300258A00000023703118 000000012249 1AUTO POSTO MONTREAL VARGAS LTD200672              19022020REA000000000000000000000000094046                    00000000000000000000000                    00000005283897000121                     00
3410002300259A00000075604117 000000010104 4PEDRO HENRIQUE LIMA DUARTE    200396              19022020REA000000000000000000000000011429                    00000000000000000000000                    00000000011313346632                     00
3410002300260A00000008500101 000000233382 1THIAGO LUIZ QUADRO            200419              19022020REA000000000000000000000000030000                    00000000000000000000000                    00000000005732768971                     00
3410002300261A00000010401108 000000025461 2FRANCISCO SINGUIU ARAKAKI     200610              19022020REA000000000000000000000000001594                    00000000000000000000000                    00000000036535699153                     00
3410002300262A00000013301075 000000029377 6VERA MERIANE DE SOUZA FERREIRA200364              19022020REA000000000000000000000000015894                    00000000000000000000000                    00000029443933000135                     00
3410002300263A00000023700295 000000050121 2MARIA SILMARA DA SILVA BERNARD200776              19022020REA000000000000000000000000010343                    00000000000000000000000                    00000000061426807325                     00
3410002300264A00000013301003 000000014545 9CENTRO DE FORMACAO DE CONDUTOR200816              19022020REA000000000000000000000000029642                    00000000000000000000000                    00000010575109000100                     00
3410002300265A00000013301009 000000006537 4VALERIO JOSE GONCALVES        200718              19022020REA000000000000000000000000005446                    00000000000000000000000                    00000027360800000170                     00
3410002300266A00000013301668 000000006064 0L Z BRILHAR ECO PISCINAS EIREL200575              19022020REA000000000000000000000000007780                    00000000000000000000000                    00000023205574000100                     00
3410002300267A00000013301075 000000010148 6ELIEZER MARTINS SONANIOTTO    200902              19022020REA000000000000000000000000020689                    00000000000000000000000                    00000027868442000100                     00
3410002300268A00000013301003 000000014879 2DORATI DOS SANTOS             200494              19022020REA000000000000000000000000012309                    00000000000000000000000                    00000000052310442968                     00
3410002300269A00000075604364 000000029166 8CLINICA DA FAMILIA LTDA       200652              19022020REA000000000000000000000000020484                    00000000000000000000000                    00000027273516000166                     00
3410002300270A00000023700564 000000097974 0RAFAS TOUR OPERADORA DE TURISM200725              19022020REA000000000000000000000003081964                    00000000000000000000000                    00000007337145000121                     00
3410002300271A00000023700023 000000253043 0ODA JAPANESE FOOD RESTAURANTE 200849              19022020REA000000000000000000000000238704                    00000000000000000000000                    00000017276511000133                     00
3410002300272A00000013301075 000000029178 1SELIO JOSE DAS NEVES          200621              19022020REA000000000000000000000000002431                    00000000000000000000000                    00000032886702000100                     00
3410002300273A00000023701230 000000051072 6MB COMERCIO DE PELICULAS EIREL200873              19022020REA000000000000000000000000033394                    00000000000000000000000                    00000012373561000115                     00
3410002300274A00000013301620 000000014915 2RA COMERCIO DE MEDICAMENTOS   200628              19022020REA000000000000000000000000002431                    00000000000000000000000                    00000003783356000137                     00
3410002300275A00000013301062 000000015112 2SOLANGI VITORETI BARANOSWKI   200380              19022020REA000000000000000000000000007780                    00000000000000000000000                    00000034320260000166                     00
3410002300276A00000000103570 000000025601 3SOUVIE COMERCIO INDUSTRIA IMPO200590              19022020REA000000000000000000000000191084                    00000000000000000000000                    00000012226852000180                     00
3410002300277A00000013301503 000000004756 2JANETE LANG                   200677              19022020REA000000000000000000000000004863                    00000000000000000000000                    00000021132819000182                     00
3410002300278A00000013301009 000000009067 0ROSEMARI DE TOGNI ABITANTE E C200555              19022020REA000000000000000000000000002140                    00000000000000000000000                    00000000357741000124                     00
3410002300279A00000013301058 000000006576 5ROSANGELA APARECIDA COREA PINT200788              19022020REA000000000000000000000000014552                    00000000000000000000000                    00000012950165000103                     00
3410002300280A00000008900012 000001100681 1EVANDRO CRISTIANO SILVERIO 224200520              19022020REA000000000000000000000000008722                    00000000000000000000000                    00000033377574000132                     00
3410002300281A00000013301009 000000009154 5VERA LUCIA CARNEIRO GUEDES    200826              19022020REA000000000000000000000000007877                    00000000000000000000000                    00000034489472000171                     00
3410002300282A00000010404166 000000000337 8EDVALDO JOSE VIEIRA           200409              19022020REA000000000000000000000000001896                    00000000000000000000000                    00000005033151000160                     00
3410002300283A00000013301075 000000029523 0ONE ACADEMIA DE CONDICIONAMENT200421              19022020REA000000000000000000000000031475                    00000000000000000000000                    00000018556009000149                     00
3410002300284A00000013301062 000000005191 8GEVERSON BERGAMO              200761              19022020REA000000000000000000000000022854                    00000000000000000000000                    00000000008428513996                     00
3410002300285A00000000100963 000000084546 9EQUIMAQ COMERCIO DE MOVEIS E E200673              19022020REA000000000000000000000000252261                    00000000000000000000000                    00000021403747000160                     00
3410002300286A00000013301003 000000015024 0ELIZANDRA DA SILVA            200719              19022020REA000000000000000000000000008731                    00000000000000000000000                    00000000003294406916                     00
3410002300287A00000013301075 000000029531 0ELETRO SOLUCOES               200909              19022020REA000000000000000000000000019479                    00000000000000000000000                    00000015549325000103                     00
3410002300288A00000013301003 000000004340 0LOVENI SCHUG                  200786              19022020REA000000000000000000000000007294                    00000000000000000000000                    00000026896430000127                     00
3410002300289A00000013301003 000000009371 8SUPERVALE DISTRIBUIDORA DE PRO200481              19022020REA000000000000000000000000013161                    00000000000000000000000                    00000013146318000127                     00
3410002300290A00000013301075 000000029483 7JAIR MANOEL DA SILVEIRA       200779              19022020REA000000000000000000000000001499                    00000000000000000000000                    00000000069069158949                     00
3410002300291A00000023700628 000000018410 1IMAG COMERCIO E SERVICOS DE MA200870              19022020REA000000000000000000000000031520                    00000000000000000000000                    00000033332736000116                     00
3410002300292A00000003304470 000013001664 6G DOS SANTOS SILVEIRA MATERIAL200568              19022020REA000000000000000000000000009850                    00000000000000000000000                    00000024551823000173                     00
3410002300293A00000003300299 000013002438 7GIGANTE DO BRAS VESTUARIO E AC200687              19022020REA000000000000000000000000016045                    00000000000000000000000                    00000031191906000164                     00
3410002300294A00000003300299 000013001569 5D B MACHADO  CIA LTDA         200780              19022020REA000000000000000000000000009751                    00000000000000000000000                    00000018979183000102                     00
3410002300295A00000003300299 000013001595 6DAIANE BOSCOLO MACHADO ME     200558              19022020REA000000000000000000000000042758                    00000000000000000000000                    00000015591136000190                     00
3410002300296A00000023703014 000000015873 9A S ZENATTI RESTAURANTE ME    200821              19022020REA000000000000000000000000010741                    00000000000000000000000                    00000029800494000170                     00
3410002300297A00000013301003 000000004974 3WISOSKI E SPIASSI             200682              19022020REA000000000000000000000000009725                    00000000000000000000000                    00000078103876000150                     00
3410002300298A00000023701918 000000017151 4NATALIA PEREIRA FERNANDES 3988200469              19022020REA000000000000000000000000030992                    00000000000000000000000                    00000034589412000120                     00
