34100000      081222347623000178                    06248 000000045232 5CELER PAGAMENTOS              Itau Unibanco S.A                       11202202000000000000000                                                                           
34100011C9801040 222347623000178                    06248 000000045232 5CELER PAGAMENTOS                                                                                   00000                                   00000000                     
3410001300001A00000034108789 000000049434 4TABARATO INDUSTRIA E COMERCIO 194479              12022020REA000000000000000000000000032172                    00000000000000000000000                    00000017059837000290                     00
3410001300002A00000034103746 000000000764 4VANTUIL OLIVEIRA LOPES        194588              12022020REA000000000000000000000000019354                    00000000000000000000000                    00000000058193251849                     00
3410001300003A00000034100059 000000078359 7ADMINISTRADORA DE CARTAO DE TO194225              12022020REA000000000000000000000000051304                    00000000000000000000000                    00000011487917000189                     00
3410001300004A00000034106530 000000018212 7MACWELL ANTONIO DE MELO       194435              12022020REA000000000000000000000000069962                    00000000000000000000000                    00000017966384000102                     00
3410001300005A00000034108527 000000008961 2VICENTE DE PAULA RODRIGUES DE 194389              12022020REA000000000000000000000000008147                    00000000000000000000000                    00000006262046000165                     00
3410001300006A00000034102746 000000025961 9MARIA APARECIDA LAURINDA DA SI194441              12022020REA000000000000000000000000006407                    00000000000000000000000                    00000020959355000110                     00
3410001300007A00000034108380 000000008411 4FACHIK COMERCIAL LTDA         194403              12022020REA000000000000000000000000011107                    00000000000000000000000                    00000010311023000170                     00
3410001300008A00000034108907 000000028937 8RO MOTO PECAS                 194564              12022020REA000000000000000000000000028478                    00000000000000000000000                    00000016965440000113                     00
3410001300009A00000034102746 000000029168 7CARTAO DE DESCONTOS DE PARNAMI194244              12022020REA000000000000000000000000002453                    00000000000000000000000                    00000031830018000144                     00
3410001300010A00000034108895 000000036292 2AMORSAUDE CLINICA MEDICA E ODO194610              12022020REA000000000000000000000000032248                    00000000000000000000000                    00000030280982000183                     00
3410001300011A00000034107063 000000011769 6MIL HORAS VIAGENS E TURISMO LT194552              12022020REA000000000000000000000000073347                    00000000000000000000000                    00000058088535000146                     00
3410001300012A00000034107119 000000011714 6DECOLA BRASIL AGENCIA DE VIAGE194503              12022020REA000000000000000000000000086982                    00000000000000000000000                    00000002139750000174                     00
3410001300013A00000034100445 000000048922 2MAGARI BLU VIAGENS LTDA       194621              12022020REA000000000000000000000000129521                    00000000000000000000000                    00000017489835000150                     00
3410001300014A00000034109335 000000008494 4VIP AGENCIA DE VIAGENS E TURIS194386              12022020REA000000000000000000000000016214                    00000000000000000000000                    00000003531680000168                     00
3410001300015A00000034100249 000000092040 6EU VOU AGENCIA DE VIAGENS E TU194508              12022020REA000000000000000000000000080509                    00000000000000000000000                    00000005421835000139                     00
3410001300016A00000034100646 000000050180 9ANITA FISCHER AGENCIA DE VIAGE194557              12022020REA000000000000000000000000093242                    00000000000000000000000                    00000005394337000144                     00
3410001300017A00000034100263 000000036196 6CENOG AGENCIA DE VIAGENS E TUR194453              12022020REA000000000000000000000000056757                    00000000000000000000000                    00000015362212000196                     00
3410001300018A00000034101640 000000042224 0ADRIANA MONTEIRO DE ALMEIDA ME194334              12022020REA000000000000000000000000023058                    00000000000000000000000                    00000015000319000194                     00
3410001300019A00000034106519 000000015554 0VENDA NOVA ADM DE CARTOES LTDA194262              12022020REA000000000000000000000000002428                    00000000000000000000000                    00000012989806000133                     00
3410001300020A00000034108222 000000004469 8SILVIA APARECIDA MICHELAZZO AM194368              12022020REA000000000000000000000000001989                    00000000000000000000000                    00000000087015528800                     00
3410001300021A00000034100215 000000042080 3MARMORARIA TARDOC LTDA ME     194611              12022020REA000000000000000000000000016888                    00000000000000000000000                    00000002968921000178                     00
3410001300022A00000034101587 000000010719 2FRANCISCA MARIA FERREIRA DA SI194341              12022020REA000000000000000000000000036537                    00000000000000000000000                    00000020917157000193                     00
3410001300023A00000034100507 000000029530 1MARCO ANTONIO MIANI           194529              12022020REA000000000000000000000000084625                    00000000000000000000000                    00000000006236131821                     00
3410001300024A00000034109379 000000019699 2MIGUEL GIOVANNI RUCHEL        194343              12022020REA000000000000000000000000022567                    00000000000000000000000                    00000000059688971987                     00
3410001300025A00000034108895 000000036284 9AMORSAUDE BETIM CLINICA MEDICA194315              12022020REA000000000000000000000000030879                    00000000000000000000000                    00000030280982000183                     00
3410001300026A00000034103142 000000060595 9AMORSAUDE IBIRITE CLINICA MEDI194496              12022020REA000000000000000000000000058531                    00000000000000000000000                    00000032454844000107                     00
3410001300027A00000034109173 000000005032 0APARECIDO LUCIANO CASTAGNA ME 194385              12022020REA000000000000000000000000002350                    00000000000000000000000                    00000007503635000150                     00
3410001300028A00000034106223 000000000315 0MARILANE DOS SANTOS MARTINS   194383              12022020REA000000000000000000000000016860                    00000000000000000000000                    00000000000042247365                     00
3410001300029A00000034108109 000000035660 3CREUNICE PEREIRA DE MATOS     194221              12022020REA000000000000000000000000010174                    00000000000000000000000                    00000000056178301120                     00
3410001300030A00000034103218 000000038808 4MURBAK MOVEIS E DECORACOES EIR194481              12022020REA000000000000000000000000278431                    00000000000000000000000                    00000021592190000153                     00
3410001300031A00000034101640 000000048969 4JBL CONSULTORIA DE MEIOS DE PA194202              12022020REA000000000000000000000000010250                    00000000000000000000000                    00000032527339000137                     00
3410001300032A00000034100002 000000035253 2LUCAS FERREIRA MAGALHAES      194568              12022020REA000000000000000000000000025696                    00000000000000000000000                    00000003424849000180                     00
3410001300033A00000034100002 000000035253 2EDIMILSON CAMARGO             194415              12022020REA000000000000000000000000011676                    00000000000000000000000                    00000003424849000180                     00
3410001300034A00000034100792 000000063933 8EDUSA INDUSTRIAL DE ACOS LTDA 194309              12022020REA000000000000000000000000012456                    00000000000000000000000                    00000067565093000172                     00
3410001300035A00000034104453 000000018199 4AVANCE EQUIPAMENTOS E ACESSORI194201              12022020REA000000000000000000000000540641                    00000000000000000000000                    00000022691736000196                     00
3410001300036A00000034100864 000000007114 7ELIANA BEZERRA DE SOUSA FEITOS194545              12022020REA000000000000000000000000001419                    00000000000000000000000                    00000000002862371130                     00
3410001300037A00000034100002 000000035253 2A  G COSMETICOS LTDA          194352              12022020REA000000000000000000000000033094                    00000000000000000000000                    00000003424849000180                     00
3410001300038A00000034100002 000000035253 2CLEBER PEDROSO VIANA 383094848194278              12022020REA000000000000000000000000012880                    00000000000000000000000                    00000003424849000180                     00
3410001300039A00000034107915 000000013985 6DIEGO HENRIQUE ARAUJO FERREIRA194626              12022020REA000000000000000000000000048239                    00000000000000000000000                    00000000070579623122                     00
3410001300040A00000034100002 000000035253 2ALICE MARIA ZANATTA PERBONI   194444              12022020REA000000000000000000000000004865                    00000000000000000000000                    00000003424849000180                     00
3410001300041A00000034100002 000000035253 2JR COSMETICOS  E REPRESENTACAO194338              12022020REA000000000000000000000000016519                    00000000000000000000000                    00000003424849000180                     00
3410001300042A00000034108131 000000001282 8IRANDUBA FRIGORIFICO DE PESCAD194236              12022020REA000000000000000000000000001232                    00000000000000000000000                    00000004408929000105                     00
3410001300043A00000034100002 000000035253 2NETWORK BEAUTY  FASHION COSMET194534              12022020REA000000000000000000000000124863                    00000000000000000000000                    00000003424849000180                     00
3410001300044A00000034108015 000000004423 6AARAN INDUSTRIA E COMERCIO DE 194445              12022020REA000000000000000000000000027548                    00000000000000000000000                    00000000229392000165                     00
3410001300045A00000034107446 000000020536 6EDUARDO AGRIPINO BIAZON       194562              12022020REA000000000000000000000000039457                    00000000000000000000000                    00000005906650000114                     00
3410001300046A00000034106915 000000018144 7MONIQUE EVA MARTINS SIQUEIRA  194596              12022020REA000000000000000000000000003448                    00000000000000000000000                    00000000036076524812                     00
3410001300047A00000034103005 000000003318 2EDIVALDO RODRIGUES DOS SANTOS 194598              12022020REA000000000000000000000000038804                    00000000000000000000000                    00000000014483706802                     00
3410001300048A00000034101644 000000062360 3V F DOS SANTOS COMERCIO DE MOV194567              12022020REA000000000000000000000000014467                    00000000000000000000000                    00000012258816000107                     00
3410001300049A00000034101478 000000026876 4GIL PORTO DE BRITO ME         194429              12022020REA000000000000000000000000023516                    00000000000000000000000                    00000017322294000170                     00
3410001300050A00000034100865 000000013771 5MARCOS ROBERTO FERREIRA BISPO 194375              12022020REA000000000000000000000000068797                    00000000000000000000000                    00000049170780000107                     00
3410001300051A00000034100560 000000077000 0MATOS PEDRO E LOTIERSO INFORMA194288              12022020REA000000000000000000000000002949                    00000000000000000000000                    00000034300874000186                     00
3410001300052A00000034100032 000000021412 4PEDRO VELASCO                 194355              12022020REA000000000000000000000000001635                    00000000000000000000000                    00000004132191000104                     00
3410001300053A00000034103156 000000041732 5LAPOGEE CONFECCOES LTDA       194261              12022020REA000000000000000000000000009695                    00000000000000000000000                    00000003877833000123                     00
3410001300054A00000034100077 000000040096 8J DOS SANTOS PEREIRA  MODAS   194414              12022020REA000000000000000000000000007062                    00000000000000000000000                    00000026995735000196                     00
3410001300055A00000034100668 000000003998 5SANDRA ROSANE PILARSKI        194511              12022020REA000000000000000000000000017606                    00000000000000000000000                    00000000026452399861                     00
3410001300056A00000034108078 000000008555 5PANIFICADORA E CONFEITARIA MIA194526              12022020REA000000000000000000000000152139                    00000000000000000000000                    00000049249600000187                     00
3410001300057A00000034103130 000000051351 2PADARIA RUA DO ROCIO PAES E LA194425              12022020REA000000000000000000000000070438                    00000000000000000000000                    00000027444888000108                     00
3410001300058A00000034103788 000000058820 4TANJI E DARCIE LTDA           194627              12022020REA000000000000000000000000088480                    00000000000000000000000                    00000017084440000177                     00
3410001300059A00000034102974 000000035415 7ROSEMERY DOS SANTOS REGO COSME194154              12022020REA000000000000000000000000009701                    00000000000000000000000                    00000021415909000180                     00
3410001300060A00000034102921 000000032440 2ROBERTO JORDAO DIAS           194547              12022020REA000000000000000000000000077631                    00000000000000000000000                    00000012300707000100                     00
3410001300061A00000034100691 000000051222 2IRMAOS CASANOVA COMERCIO DE MA194488              12022020REA000000000000000000000000075329                    00000000000000000000000                    00000011171165000142                     00
3410001300062A00000034103240 000000023651 7SONHO E MAGIA AGENCIA DE VIAGE194289              12022020REA000000000000000000000000030565                    00000000000000000000000                    00000030803887000117                     00
3410001300063A00000034103827 000000012759 2EVANDRO DE SOUSA BORGES       194420              12022020REA000000000000000000000000080458                    00000000000000000000000                    00000008778057000128                     00
3410001300064A00000034100002 000000035253 2DRUMOND  NEGRO COMERCIO DE COS194209              12022020REA000000000000000000000000091762                    00000000000000000000000                    00000003424849000504                     00
3410001300065A00000034100354 000000017250 4MINASGRAN COMERCIO DE MARMORES194582              12022020REA000000000000000000000000186023                    00000000000000000000000                    00000021892308000169                     00
3410001300066A00000034108322 000000024541 9ROGERIO JOSE DA SILVA         194318              12022020REA000000000000000000000000095937                    00000000000000000000000                    00000015667434000117                     00
3410001300067A00000034100002 000000035253 2LILIAN REGINA GOMES PASSAGNO D194165              12022020REA000000000000000000000000022494                    00000000000000000000000                    00000005694739000164                     00
3410001300068A00000034107410 000000007320 4MARCELO JORGE MIRANDA         194413              12022020REA000000000000000000000000004230                    00000000000000000000000                    00000000070152063315                     00
3410001300069A00000034105437 000000000725 4NILTON APARECIDO RUFINO       194350              12022020REA000000000000000000000000003920                    00000000000000000000000                    00000000007177252860                     00
3410001300070A00000034108279 000000017143 6FRANCISCO ROGILDO VASCONCELOS 194406              12022020REA000000000000000000000000007388                    00000000000000000000000                    00000063488100000129                     00
3410001300071A00000034100187 000000013926 6CRZ COMERCIO E REPRESENTACOES 194430              12022020REA000000000000000000000000085336                    00000000000000000000000                    00000047738604000101                     00
3410001300072A00000034103789 000000047873 6RINALDO PETRONI NETO          194291              12022020REA000000000000000000000000001522                    00000000000000000000000                    00000000004012824813                     00
3410001300073A00000034109114 000000011220 5ROBERTO GOZZO                 194530              12022020REA000000000000000000000000114745                    00000000000000000000000                    00000000006021986822                     00
3410001300074A00000034104285 000000011799 2DIEGO LEITE DE BARROS ASSESSOR194490              12022020REA000000000000000000000000038800                    00000000000000000000000                    00000011316118000140                     00
3410001300075A00000034108217 000000019647 9RAQUEL FARIA SABIONI 277042048194316              12022020REA000000000000000000000000009649                    00000000000000000000000                    00000034178383000104                     00
3410001300076A00000034104414 000000049059 1JUCINALDO SOUZA ROLIM         194347              12022020REA000000000000000000000000014276                    00000000000000000000000                    00000000097188840334                     00
3410001300077A00000034108031 000000031681 6ANDRE LUIZ HERMENEGILDO ESTAN 194179              12022020REA000000000000000000000000002759                    00000000000000000000000                    00000000029038808836                     00
3410001300078A00000034103839 000000008967 3LABORATORIO DE ANALISES CLINIC194277              12022020REA000000000000000000000000052796                    00000000000000000000000                    00000077811685000180                     00
3410001300079A00000034109656 000000006611 6LEONARDO ALCANTARA DE CARVALHO194159              12022020REA000000000000000000000000047955                    00000000000000000000000                    00000000083486089315                     00
3410001300080A00000034108297 000000008904 0MARKOBRAS AMBIENTAL EIRELI    194273              12022020REA000000000000000000000000024970                    00000000000000000000000                    00000001860710000154                     00
3410001300081A00000034100874 000000008614 3A H ROMEIRO  MATERIAL DE CONST194615              12022020REA000000000000000000000000005122                    00000000000000000000000                    00000009369666000196                     00
3410001300082A00000034100718 000000003545 4GUNA BARBOSA GUIMARAES        194306              12022020REA000000000000000000000000010593                    00000000000000000000000                    00000000019244963809                     00
3410001300083A00000034104086 000000006811 3AKIKO FUJII                   194583              12022020REA000000000000000000000000014550                    00000000000000000000000                    00000000015430322814                     00
3410001300084A00000034107706 000000024030 1THIAGO FELIPE CAMARA SOUZA    194600              12022020REA000000000000000000000000158296                    00000000000000000000000                    00000030628410000142                     00
3410001300085A00000034107922 000000000102 4BRUNO CAMILO DO NASCIMENTO    194437              12022020REA000000000000000000000000166616                    00000000000000000000000                    00000000007594113446                     00
3410001300086A00000034100233 000000034955 4MICHELE APARECIDA MARQUES BISP194163              12022020REA000000000000000000000000001456                    00000000000000000000000                    00000000008035424963                     00
3410001300087A00000034100372 000000087961 9LUCRECIA RAFAELA PEREIRA DA SI194439              12022020REA000000000000000000000000031060                    00000000000000000000000                    00000000001814356401                     00
3410001300088A00000034107221 000000029428 8JEU BATISTA DA COSTA 004392192194373              12022020REA000000000000000000000000002332                    00000000000000000000000                    00000035464758000165                     00
3410001300089A00000034104440 000000012431 3JOAO ADAUTO BRUM              194514              12022020REA000000000000000000000000027326                    00000000000000000000000                    00000000090596382634                     00
3410001300090A00000034102782 000000004146 7CLICK BIKE COMERCIO DE BICICLE194601              12022020REA000000000000000000000000132549                    00000000000000000000000                    00000026379824000108                     00
3410001300091A00000034104440 000000012868 6VALERIA QUEIROZ DE LIMA MARQUE194307              12022020REA000000000000000000000000008853                    00000000000000000000000                    00000000002565941714                     00
3410001300092A00000034108568 000000005241 2ANTONIO CLAUDINELY DOS SANTOS 194171              12022020REA000000000000000000000000029109                    00000000000000000000000                    00000026740165000193                     00
3410001300093A00000034107474 000000028714 6MAYARA ALESSANDRA CHAGAS DA CO194232              12022020REA000000000000000000000000002966                    00000000000000000000000                    00000000009969421492                     00
3410001300094A00000034101587 000000053408 0PLINIO GOMES FERREIRA         194512              12022020REA000000000000000000000000005731                    00000000000000000000000                    00000000036018490382                     00
3410001300095A00000034100332 000000008778 2MARIA ZELIA TEREZA DE SOUZA   194310              12022020REA000000000000000000000000189753                    00000000000000000000000                    00000052965167000190                     00
34100015         000097000000000004657950000000000000000000                                                                                                                                                                                     
34100021C9841040 222347623000178                    06248 000000045232 5CELER PAGAMENTOS                                                                                   00000                                   00000000                     
3410002300001A00000003304442 000013000418 5CARTAO DE DESCONTO TERRA DOS B194565              12022020REA000000000000000000000000011756                    00000000000000000000000                    00000011051024000196                     00
3410002300002A00000004100028 000060862100 3NARA R LEAL DE CORDEIRO       194449              12022020REA000000000000000000000000016837                    00000000000000000000000                    00000002909169000194                     00
3410002300003A00000023700388 000000061107 7LA HUR SOUZA MARQUES          194412              12022020REA000000000000000000000000005591                    00000000000000000000000                    00000000022547444020                     00
3410002300004A00000023703157 000000034696 9DIEGO GARCIA DA SILVA         194605              12022020REA000000000000000000000000039895                    00000000000000000000000                    00000009354049000117                     00
3410002300005A00000008500109 000000044648 3EPR CENTRO AUTOMOTIVO ME LTDA 194365              12022020REA000000000000000000000000053927                    00000000000000000000000                    00000030636108000136                     00
3410002300006A00000023700600 000000024244 6TABARATO INDUSTRIA E COMERCIO 194456              12022020REA000000000000000000000000144131                    00000000000000000000000                    00000017059837000109                     00
3410002300007A00000023702251 000000040140 4INDUSTRIA E COMDE CONFECCAO FL194321              12022020REA000000000000000000000000085413                    00000000000000000000000                    00000004968641000276                     00
3410002300008A00000023700513 000000010481 7F e G ADMINISTRADORA DE CARTOE194555              12022020REA000000000000000000000000011652                    00000000000000000000000                    00000030672643000142                     00
3410002300009A00000023701232 000000024820 7ADMINISTRADORA DE CARTAO DE DE194522              12022020REA000000000000000000000000028698                    00000000000000000000000                    00000031284933000181                     00
3410002300010A00000000101195 000000040736 4MIRA COMERCIO DE CALCADOS CONF194548              12022020REA000000000000000000000000018545                    00000000000000000000000                    00000028464073000153                     00
3410002300011A00000000101195 000000040736 4U2MODASCOM DE ROUPAS E ACES EI194478              12022020REA000000000000000000000000005856                    00000000000000000000000                    00000028464073000153                     00
3410002300012A00000000101195 000000040736 4H2KIM CO CALC ROUPAS E ACESS E194148              12022020REA000000000000000000000000006830                    00000000000000000000000                    00000028464073000153                     00
3410002300013A00000000101195 000000040736 4MY MODAS COMROUPAS ACES EIRELI194356              12022020REA000000000000000000000000024222                    00000000000000000000000                    00000028464073000153                     00
3410002300014A00000000101195 000000040736 4MIRA MODAS COMSERVDA MODA EIRE194185              12022020REA000000000000000000000000004880                    00000000000000000000000                    00000028464073000153                     00
3410002300015A00000075604370 000000032990 8PDV365 PRODUCAO E AUTOMACAO DE194180              12022020REA000000000000000000000000223023                    00000000000000000000000                    00000012569291000112                     00
3410002300016A00000023700023 000000253043 0J JOAO DE SOUZA PECAS EPP     194461              12022020REA000000000000000000000000211420                    00000000000000000000000                    00000017276511000133                     00
3410002300017A00000023700023 000000253043 0JOSE APARECIDO  PICOLO  CIA LT194573              12022020REA000000000000000000000000035782                    00000000000000000000000                    00000017276511000133                     00
3410002300018A00000023700023 000000253043 0A L SOSSO CONFECCOES ME       194559              12022020REA000000000000000000000000016907                    00000000000000000000000                    00000017276511000133                     00
3410002300019A00000010401048 000000002351 4COMERCIAL DE OPTICAS LTDA     194323              12022020REA000000000000000000000000118372                    00000000000000000000000                    00000003734644000100                     00
3410002300020A00000010404551 000000000217 0L.P. CONSTRUCOES LTDA ME      194541              12022020REA000000000000000000000000105097                    00000000000000000000000                    00000041314790000167                     00
3410002300021A00000000101702 000000210986 7VIDRAUTOS COMERCIO DE VIDROS P194584              12022020REA000000000000000000000000188986                    00000000000000000000000                    00000005646392000184                     00
3410002300022A00000008500101 000000732600 9MAGNUM INSTRUMENTOS MUSICAIS L194549              12022020REA000000000000000000000000186937                    00000000000000000000000                    00000082097197000193                     00
3410002300023A00000010400898 000000002712 8ADMINISTRADORA DE SERVICOS DE 194184              12022020REA000000000000000000000000012138                    00000000000000000000000                    00000030676872000135                     00
3410002300024A00000008500101 000000679040 2SALVA MED EMERGENCIAS MEDICAS 194304              12022020REA000000000000000000000000004780                    00000000000000000000000                    00000004094517000148                     00
3410002300025A00000004100790 000190156720 6SILVIA FUZER                  194447              12022020REA000000000000000000000000003360                    00000000000000000000000                    00000000839916000130                     00
3410002300026A00000023703238 000000014041 4BARBARA DOS SANTOS PROTAZIO   194363              12022020REA000000000000000000000000002940                    00000000000000000000000                    00000000061719495319                     00
3410002300027A00000010404557 000000000878 2ADMINISTRADORA DE CARTAO DE TO194340              12022020REA000000000000000000000000034452                    00000000000000000000000                    00000025341175000193                     00
3410002300028A00000010400917 000000005066 0ADMINISTRADORA DE CARTAO DE DE194424              12022020REA000000000000000000000000019470                    00000000000000000000000                    00000031407148000179                     00
3410002300029A00000003300254 000013003667 7PHOENIX TREINAMENTO E DESENVOL194269              12022020REA000000000000000000000000311907                    00000000000000000000000                    00000025284710000111                     00
3410002300030A00000000101262 000000024505 4ISABELA CRISTINA DA SILVA     194266              12022020REA000000000000000000000000010625                    00000000000000000000000                    00000000009692739406                     00
3410002300031A00000023700830 000000001396 0ARISTOFANES DA SILVA BATISTA N194516              12022020REA000000000000000000000000114603                    00000000000000000000000                    00000000001890637858                     00
3410002300032A00000023701789 000000043251 2CONTINENTTRAVEL  AGENCIA DE VI194457              12022020REA000000000000000000000000145949                    00000000000000000000000                    00000017714146000100                     00
3410002300033A00000000400016 000000189639 3ALVENIS RODRIGUES TEIXEIRA    194337              12022020REA000000000000000000000000002247                    00000000000000000000000                    00000000029462177368                     00
3410002300034A0000002370449  000000086976 7JAZZ VIAGENS E TURISMO LTDA ME194346              12022020REA000000000000000000000000016235                    00000000000000000000000                    00000001585612000156                     00
3410002300035A00000003303986 00013000626  4I  VILLE VIAGENS E TURISMO LTD194471              12022020REA000000000000000000000000093646                    00000000000000000000000                    00000001361654000103                     00
3410002300036A00000000105101 000000020027 1VERA LUCIA BASTOS TIGRE       194203              12022020REA000000000000000000000000003517                    00000000000000000000000                    00000000023191201300                     00
3410002300037A00000003303733 000013003898 0CARTAO DE DESCONTOS           194247              12022020REA000000000000000000000000061382                    00000000000000000000000                    00000025135387000114                     00
3410002300038A00000075603125 000000632446 0SANTOS  DIOGO LTDA            194328              12022020REA000000000000000000000000019886                    00000000000000000000000                    00000003177943000182                     00
3410002300039A00000075603125 000000631809 6ANSELMO ACETI INFORMATICA  ME 194210              12022020REA000000000000000000000000004484                    00000000000000000000000                    00000004322177000165                     00
3410002300040A00000023700218 000000018737 2JANE KELLY CARNEIRO DA SILVA  194543              12022020REA000000000000000000000000005560                    00000000000000000000000                    00000017601199000106                     00
3410002300041A00000010403792 000000000895 8CLINICA AMOR SAUDE ITABUNA EIR194533              12022020REA000000000000000000000000075205                    00000000000000000000000                    00000030522210000100                     00
3410002300042A00000000100781 000000018701 1ADEMIR APARECIDO CONSTANTINO M194618              12022020REA000000000000000000000000038863                    00000000000000000000000                    00000004162718000135                     00
3410002300043A00000023702221 000000027308 2SQG INFO COMERCIO EQUIP INFORM194491              12022020REA000000000000000000000000001365                    00000000000000000000000                    00000058500174000101                     00
3410002300044A00000074805237 000000048003 7FORTALEZA DA CONSTRUCAO DE BAR194239              12022020REA000000000000000000000000016369                    00000000000000000000000                    00000007865688000111                     00
3410002300045A00000000103655 000000060764 9FRANCISCO JODEMBERG VASCONCELO194250              12022020REA000000000000000000000000080000                    00000000000000000000000                    00000000043531237349                     00
3410002300046A00000010401610 000000021683 3MICHAEL BIRCKE PUTINHON       194576              12022020REA000000000000000000000000001464                    00000000000000000000000                    00000000036482408893                     00
3410002300047A00000000102502 000000046291 8VICOSO ESTACIONAMENTO LTDA    194560              12022020REA000000000000000000000000004835                    00000000000000000000000                    00000007799557000183                     00
3410002300048A00000010401045 000000003062 0ARACAJU ADMINISTRACAO DE CARTA194480              12022020REA000000000000000000000000024843                    00000000000000000000000                    00000031747596000111                     00
3410002300049A00000023701232 000000024868 1ATENDIMENTO MEDICO E ODONTOLOG194376              12022020REA000000000000000000000000066057                    00000000000000000000000                    00000031132613000106                     00
3410002300050A00000023702212 000000057790 1CARDCON - CARTAO DE DESCONTO D194507              12022020REA000000000000000000000000002378                    00000000000000000000000                    00000028863378000138                     00
3410002300051A00000003304204 000013003089 0RAFAEL LEITE DE CAMPOS 3272292194372              12022020REA000000000000000000000000008110                    00000000000000000000000                    00000023058314000140                     00
3410002300052A00000003303733 000013004404 0AZEVEDO E MENDES SERVICOS ADMI194297              12022020REA000000000000000000000000292607                    00000000000000000000000                    00000024996244000134                     00
3410002300053A00000010401174 000000023501 4ADRIELSO PERPETUO FREITAS     194207              12022020REA000000000000000000000000021582                    00000000000000000000000                    00000000033936139873                     00
3410002300054A00000023700023 000000253043 0DANIEL MARCONI                194428              12022020REA000000000000000000000000006588                    00000000000000000000000                    00000017276511000133                     00
3410002300055A00000000400189 000000042245 9ELIEZIO ALVES BRANDAO         194426              12022020REA000000000000000000000000001472                    00000000000000000000000                    00000000090124758304                     00
3410002300056A00000023705440 000000001029 4JULIETA BRAGA PINTO           194149              12022020REA000000000000000000000000011745                    00000000000000000000000                    00000007764368000175                     00
3410002300057A00000075605631 000000008368 2LM INGRESSOS LTDA             194287              12022020REA000000000000000000000000020721                    00000000000000000000000                    00000028947845000108                     00
3410002300058A00000023701003 000000033800 1EZEMIR MACHADO GUIMARAES FILHO194474              12022020REA000000000000000000000000067181                    00000000000000000000000                    00000000083641653304                     00
3410002300059A00000023700023 000000253043 0JOAO H BOTELHO GENNARI RESTAUR194382              12022020REA000000000000000000000000146579                    00000000000000000000000                    00000017276511000133                     00
3410002300060A00000008900004 000000300525 3JORGE HENRIQUE MICHEL  CIA LTD194462              12022020REA000000000000000000000000003880                    00000000000000000000000                    00000057820698000109                     00
3410002300061A00000000106939 000000053750 0ADMINISTRADORA DE CONSULTORIOS194497              12022020REA000000000000000000000000157448                    00000000000000000000000                    00000025966574000140                     00
3410002300062A00000003303749 000013002584 8GREEN GOY NOYORI EIRELI  ME   194538              12022020REA000000000000000000000000055863                    00000000000000000000000                    00000005877577000108                     00
3410002300063A00000003301660 000013000532 9MARGARETH ALMEIDA DE DEUS     194342              12022020REA000000000000000000000000011868                    00000000000000000000000                    00000011110788000105                     00
3410002300064A00000010402047 000000304973 1CLINICA MEDICA E ODONTOLOGICA 194152              12022020REA000000000000000000000000043097                    00000000000000000000000                    00000031570751000177                     00
3410002300065A00000010401461 000000001628 9BRIZOLA R SETTE E MARIA DO CAR194612              12022020REA000000000000000000000000014971                    00000000000000000000000                    00000030914197000135                     00
3410002300066A00000000104992 000000012085 5FRANCIELEN MARIA SANTI ALVES  194188              12022020REA000000000000000000000000031604                    00000000000000000000000                    00000028373410000105                     00
3410002300067A00000007700001 000002524430 2GLAUCIA JANAINA DOS SANTOS CAB194322              12022020REA000000000000000000000000036591                    00000000000000000000000                    00000000001884551084                     00
3410002300068A00000003301512 000013002407 2PAIVA E PAIVA CONSULTORIOS MED194173              12022020REA000000000000000000000000058603                    00000000000000000000000                    00000028782455000125                     00
3410002300069A00000023702886 000000010142 7LRM ACESSORIOS SERVICOS A L ME194348              12022020REA000000000000000000000000021147                    00000000000000000000000                    00000001342545000149                     00
3410002300070A00000023701902 000000033080 9VALDIR ALBERTO LEDESMA        194369              12022020REA000000000000000000000000007639                    00000000000000000000000                    00000000083556834120                     00
3410002300071A00000023702505 000000026311 7A NORDESTINA LESTE  MOVEIS ELE194623              12022020REA000000000000000000000000111419                    00000000000000000000000                    00000026699733000150                     00
3410002300072A00000000106713 000000006702 7IVO RODRIGUES JUNIOR          194465              12022020REA000000000000000000000000029235                    00000000000000000000000                    00000000040442856830                     00
3410002300073A00000008900001 000000003797 4NAIR DA SILVA MUNIZ 1728733782194252              12022020REA000000000000000000000000013278                    00000000000000000000000                    00000029549230000196                     00
3410002300074A00000023700513 000000010772 7CLINICA AMOR SAUDE MARABA LTDA194231              12022020REA000000000000000000000000025736                    00000000000000000000000                    00000031960104000171                     00
3410002300075A00000074800728 000000063824 2JULIANO FRANCISCO DA SILVA ACA194466              12022020REA000000000000000000000000020245                    00000000000000000000000                    00000019204801000105                     00
3410002300076A00000000103472 000000061038 0F A F DA SILVA MATERIAL DE CON194362              12022020REA000000000000000000000000067334                    00000000000000000000000                    00000027188035000152                     00
3410002300077A00000000101041 000000024929 7JOAO ARY ALVES                194409              12022020REA000000000000000000000000087324                    00000000000000000000000                    00000000040832406368                     00
3410002300078A00000010404732 000000022338 6CRISTIANE ROCHA DO AMARANTE   194308              12022020REA000000000000000000000000013510                    00000000000000000000000                    00000000065322843191                     00
3410002300079A00000010401651 000000019490 2CARTAO DE TODOS PETROPOLIS LTD194282              12022020REA000000000000000000000000004855                    00000000000000000000000                    00000013584247000144                     00
3410002300080A00000008900012 000001100652 8RAIMUNDO ACILIBIO RABELO DE AS194333              12022020REA000000000000000000000000002698                    00000000000000000000000                    00000000037183403807                     00
3410002300081A00000003300113 000001005737 0MARILIA CARVALHO DOS SANTOS   194226              12022020REA000000000000000000000000013622                    00000000000000000000000                    00000000027276313832                     00
3410002300082A00000023700997 000000030470 0REJANE CLAUDINO MELO          194335              12022020REA000000000000000000000000005806                    00000000000000000000000                    00000000084356030320                     00
3410002300083A00000003301268 000013001326 1TERRAS GOIANAS CLINICA MEDICA 194197              12022020REA000000000000000000000000136771                    00000000000000000000000                    00000028796557000108                     00
3410002300084A00000010400118 000000003397 5TERRAS GOIANAS CLINICA MEDICA 194519              12022020REA000000000000000000000000020662                    00000000000000000000000                    00000028796557000108                     00
3410002300085A00000010400118 000000003325 8ADMINISTRADORA DE CARTAO DE DE194380              12022020REA000000000000000000000000007283                    00000000000000000000000                    00000030420633000110                     00
3410002300086A00000023702349 000000000800 1FAGUNDES CERTIFICADORA E SERVI194622              12022020REA000000000000000000000000011630                    00000000000000000000000                    00000004740806000177                     00
3410002300087A00000023700682 000000035812 6M M CABELEIREIROS LTDA        194248              12022020REA000000000000000000000000012083                    00000000000000000000000                    00000024552836000167                     00
3410002300088A00000023701536 000000012324 2ATAMIR DIAS MARQUES           194168              12022020REA000000000000000000000000003904                    00000000000000000000000                    00000000001516003179                     00
3410002300089A00000010400283 000000003246 2CLINICA MEDICA E ODONTOLOGICA 194358              12022020REA000000000000000000000000058274                    00000000000000000000000                    00000032283114000182                     00
3410002300090A00000023701849 000000008908 7KELVIN HENRY COUTINHO BITTENCO194276              12022020REA000000000000000000000000001552                    00000000000000000000000                    00000000004748649100                     00
3410002300091A00000000100063 000000005933 1CENTRO DE ENDOCRINOLOGIA E MET194592              12022020REA000000000000000000000000005768                    00000000000000000000000                    00000035439728001090                     00
3410002300092A00000003301403 000013001315 0ARIELY NASCIMENTO DOS SANTOS D194324              12022020REA000000000000000000000000003344                    00000000000000000000000                    00000023675741000178                     00
3410002300093A00000007700001 000002214080 8IDEIA MIDIA GRAFICA DIGITAL  E194613              12022020REA000000000000000000000000061946                    00000000000000000000000                    00000007988078000105                     00
3410002300094A00000010400919 000000000051 6MASTER REPRESENTACOES E SERVIC194477              12022020REA000000000000000000000000023741                    00000000000000000000000                    00000001925334000139                     00
3410002300095A00000000101409 000000028674 5VEXNET TELECON INFORMATICA LTD194198              12022020REA000000000000000000000000059959                    00000000000000000000000                    00000011500145000178                     00
3410002300096A00000023701579 000000048855 0PAULO ROBERTO NOBRE DOS SANTOS194483              12022020REA000000000000000000000000010246                    00000000000000000000000                    00000026814967000109                     00
3410002300097A00000023700624 000000025096 1ECO AUTO EXPRESS SERVICOS AUTO194228              12022020REA000000000000000000000000004925                    00000000000000000000000                    00000022295962000158                     00
3410002300098A00000023701549 000000005107 1JOSE CARLOS DOS SANTOS 0194485194286              12022020REA000000000000000000000000002282                    00000000000000000000000                    00000023652989000113                     00
3410002300099A00000023700458 000000007549 3MARIA LUCILENE LOPES CARNEIRO 194399              12022020REA000000000000000000000000004356                    00000000000000000000000                    00000021810036000100                     00
3410002300100A00000008900012 000001100659 5YZZA CASES  ACESSORIOS PARA CE194593              12022020REA000000000000000000000000007856                    00000000000000000000000                    00000029872341000139                     00
3410002300101A00000013301075 000000009280 0ALEXANDRE PEDRO DA ROSA       194325              12022020REA000000000000000000000000069746                    00000000000000000000000                    00000027060549000128                     00
3410002300102A00000013301075 000000027569 7DELLA ROCCA E ROSA ACADEMIA LT194604              12022020REA000000000000000000000000009225                    00000000000000000000000                    00000029699928000198                     00
3410002300103A00000023703238 000000091504 1CASA DOS RELOJOEIROS EIRELI   194493              12022020REA000000000000000000000000090057                    00000000000000000000000                    00000008038666000140                     00
3410002300104A00000013301075 000000028391 6AUTO POSTO SAO PEDRO EIRELI   194606              12022020REA000000000000000000000000019102                    00000000000000000000000                    00000080107030000130                     00
3410002300105A00000013301608 000000006806 3ELISANDRO COELHO              194577              12022020REA000000000000000000000000058994                    00000000000000000000000                    00000012246661000180                     00
3410002300106A00000003304323 000013003436 6EDUARDO NICOLAS SOARES DE SOUS194443              12022020REA000000000000000000000000058009                    00000000000000000000000                    00000030085614000184                     00
3410002300107A00000000100063 000000005933 1CENTRO DE ENDOCRINOLOGIA E MET194300              12022020REA000000000000000000000000001269                    00000000000000000000000                    00000035439728001251                     00
3410002300108A00000023700105 000000220583 1CASA DE GAROA EIRELLI         194597              12022020REA000000000000000000000000065062                    00000000000000000000000                    00000008515856000101                     00
3410002300109A00000013301609 000000010327 6ENCANTO DOS PAES PANIFICADORA 194193              12022020REA000000000000000000000000001087                    00000000000000000000000                    00000030924670000165                     00
3410002300110A00000013301075 000000009739 0PAULA CAROLINA DA SILVA MEI   194215              12022020REA000000000000000000000000103571                    00000000000000000000000                    00000028678665000178                     00
3410002300111A00000013301075 000000009944 9ROSILENE VAMBOMMEL MEYER 05387194174              12022020REA000000000000000000000000010116                    00000000000000000000000                    00000024149220000140                     00
3410002300112A00000023702772 000000016451 8CODLUB DIST DE LUBRIFICANTES L194395              12022020REA000000000000000000000000026200                    00000000000000000000000                    00000039107644000119                     00
3410002300113A00000013301075 000000028122 0FERNANDO PRIM                 194590              12022020REA000000000000000000000000002925                    00000000000000000000000                    00000012455426000119                     00
3410002300114A00000013301003 000000014342 1NELI ALTINIZIA DALLASTRA      194281              12022020REA000000000000000000000000024856                    00000000000000000000000                    00000017693296000176                     00
3410002300115A00000000101606 000000048998 0ALBERTO JOSE PLACIDO DE LIMA  194469              12022020REA000000000000000000000000004895                    00000000000000000000000                    00000000070869413872                     00
3410002300116A00000010403625 000000000420 1VAL FREIRE ESTETICA EIRELI    194235              12022020REA000000000000000000000000197133                    00000000000000000000000                    00000022147131000139                     00
3410002300117A00000013301009 000000006427 0ALINE CRISTINA MORAES BASSO   194517              12022020REA000000000000000000000000002531                    00000000000000000000000                    00000033700523000108                     00
3410002300118A00000023702024 000000072761 0MANOEL SOARES DE ABRANTES     194314              12022020REA000000000000000000000000013400                    00000000000000000000000                    00000000087459086487                     00
3410002300119A00000023701849 000000007000 9LEONIDIA ALVES CARDOSO        194502              12022020REA000000000000000000000000369016                    00000000000000000000000                    00000003030434000203                     00
3410002300120A00000007000240 000000040819 4COMANDO COMERCIO E CONFECCAO D194359              12022020REA000000000000000000000000002653                    00000000000000000000000                    00000013179784000109                     00
3410002300121A00000023701211 000000070392 3PRENDA MARI LTDA              194387              12022020REA000000000000000000000000031558                    00000000000000000000000                    00000002637865000199                     00
3410002300122A00000013301003 000000014335 9MATEUS LUIZ BOGONI EIRELI     194458              12022020REA000000000000000000000000004759                    00000000000000000000000                    00000032541102000100                     00
3410002300123A00000013301075 000000011578 9ROSELI DA CRUZ KOBUS          194394              12022020REA000000000000000000000000008035                    00000000000000000000000                    00000000003570927911                     00
3410002300124A00000013301062 000000005590 5NERI DE BORBA                 194542              12022020REA000000000000000000000000002551                    00000000000000000000000                    00000000073524875904                     00
3410002300125A00000003301724 000013000568 1CENTRO DE LUBRIFICACAO E MECAN194475              12022020REA000000000000000000000000043945                    00000000000000000000000                    00000027719181000167                     00
3410002300126A00000000100799 000000048442 3VIEIRA E LANCONICOMERCIO EM AL194400              12022020REA000000000000000000000000010134                    00000000000000000000000                    00000017506373000131                     00
3410002300127A00000013301003 000000014380 4DAIANE TOMAZETTO BERNARDI     194569              12022020REA000000000000000000000000168989                    00000000000000000000000                    00000028893656000108                     00
3410002300128A00000013301003 000000009293 2MARCELO CASTANHA DOCES        194166              12022020REA000000000000000000000000001334                    00000000000000000000000                    00000031303083000111                     00
3410002300129A00000013301003 000000004779 1NADIR FRANCISCO PERONDI E CIA 194177              12022020REA000000000000000000000000021510                    00000000000000000000000                    00000004688117000160                     00
3410002300130A00000010404222 000000000003 8NV  GS MEDICAMENTOS LTDA      194450              12022020REA000000000000000000000000006118                    00000000000000000000000                    00000008831172000119                     00
3410002300131A00000003300702 000013001645 1LAS PILATES SERVICOS DE FISIOT194214              12022020REA000000000000000000000000108031                    00000000000000000000000                    00000021268093000100                     00
3410002300132A00000013301075 000000010179 6FREITAS MATERIAIS DE CONSTRUCA194151              12022020REA000000000000000000000000007975                    00000000000000000000000                    00000009356757000197                     00
3410002300133A00000023701610 000000004176 9FERNANDA ROBERTI ATERJE       194506              12022020REA000000000000000000000000075434                    00000000000000000000000                    00000000092023193672                     00
3410002300134A00000013301003 000000011505 3CRISTIAN JUNIOR BELINI 0955134194396              12022020REA000000000000000000000000004911                    00000000000000000000000                    00000029975504000109                     00
3410002300135A00000023701453 000000064528 1VAGNER LOPES                  194616              12022020REA000000000000000000000000002314                    00000000000000000000000                    00000000002592833714                     00
3410002300136A00000023703134 000000013795 2FABIANO FERNANDES PAIXAO      194586              12022020REA000000000000000000000000011601                    00000000000000000000000                    00000000028182813859                     00
3410002300137A00000003304268 000001000717 6ELISANGELA DA COLLINA FURLAN  194240              12022020REA000000000000000000000000015618                    00000000000000000000000                    00000000016479065808                     00
3410002300138A00000013301009 000000006384 3MIOTTO E ROSS RESTAURANTE E CA194614              12022020REA000000000000000000000000004437                    00000000000000000000000                    00000033566833000173                     00
3410002300139A00000013301003 000000014638 2EXCLUSIVA PNEUS E AUTO CENTER 194211              12022020REA000000000000000000000000003404                    00000000000000000000000                    00000033826693000125                     00
3410002300140A00000013301009 000000006138 7HILARIO SCHNEIDER E CIA LTDA  194558              12022020REA000000000000000000000000028481                    00000000000000000000000                    00000077665313000193                     00
3410002300141A00000013301075 000000023619 5POSTO DE COMBUSTIVEL SAMAMBAIA194484              12022020REA000000000000000000000000082326                    00000000000000000000000                    00000030864632000164                     00
3410002300142A00000003304008 000013002720 7PROMAQ COMERCIO DE MAQUINAS E 194498              12022020REA000000000000000000000000053637                    00000000000000000000000                    00000024626838000153                     00
3410002300143A00000000102906 000000025370 7JOSE MARCIO MARQUES           194585              12022020REA000000000000000000000000001621                    00000000000000000000000                    00000000091914558391                     00
3410002300144A00000075603256 000000002350 7JANDEIR APARECIDO DE ALMEIDA E194301              12022020REA000000000000000000000000021735                    00000000000000000000000                    00000006895016000196                     00
3410002300145A00000013301003 000000006137 9CLINICA DE SAUDE INTEGRADA AME194374              12022020REA000000000000000000000000009821                    00000000000000000000000                    00000023688265000120                     00
3410002300146A00000010400749 000000000834 3P W F T GUEDES PROMOCOES      194594              12022020REA000000000000000000000000224651                    00000000000000000000000                    00000004893646000104                     00
3410002300147A00000013301003 000000009793 4TIAGO JUNIOR RESTELATTO MIOLA 194330              12022020REA000000000000000000000000014588                    00000000000000000000000                    00000021767295000104                     00
3410002300148A00000023701955 000000003539 4CASA FORTE MATERIAIS PARA CONS194476              12022020REA000000000000000000000000229457                    00000000000000000000000                    00000015177499000184                     00
3410002300149A00000000101887 000000049835 1RN MARIANO PECAS E SERVICOS EI194553              12022020REA000000000000000000000000004895                    00000000000000000000000                    00000023046387000112                     00
3410002300150A00000074800738 000000033828 7MARCIO SOARES THOME           194370              12022020REA000000000000000000000000034431                    00000000000000000000000                    00000000001479987433                     00
3410002300151A00000000100387 000000073100 5GINA KESIA ARAUJO FRANCA      194390              12022020REA000000000000000000000000023802                    00000000000000000000000                    00000000003600480308                     00
3410002300152A00000013301075 000000022862 1TED MARYNUS CONFECCOES LTDA   194571              12022020REA000000000000000000000000084212                    00000000000000000000000                    00000082855537000106                     00
3410002300153A00000000100156 000000028423 8GABRIELA DE PAULISTA FARIA    194531              12022020REA000000000000000000000000022717                    00000000000000000000000                    00000000046175131835                     00
3410002300154A00000013301075 000000010280 6MADEIREIRA CALAO              194206              12022020REA000000000000000000000000016046                    00000000000000000000000                    00000017287231000120                     00
3410002300155A00000013301075 000000027689 8SEBASTIAO DA CRUZ             194336              12022020REA000000000000000000000000010671                    00000000000000000000000                    00000021009192000177                     00
3410002300156A00000023705386 000000016057 1LL ADRIANI LOCACAO EIRELI     194550              12022020REA000000000000000000000000044400                    00000000000000000000000                    00000033775915000128                     00
3410002300157A00000023700413 000000150464 9ELISEU MARCAL MESQUITA        194485              12022020REA000000000000000000000000006009                    00000000000000000000000                    00000000014039910818                     00
3410002300158A00000013301003 000000009582 6METALURGICA SALTO CAXIAS      194572              12022020REA000000000000000000000000010698                    00000000000000000000000                    00000074150319000130                     00
3410002300159A00000010403548 000000000598 6CARLOS DANIEL DE SOUZA PORFIRI194404              12022020REA000000000000000000000000001897                    00000000000000000000000                    00000021857887000109                     00
3410002300160A00000010400307 000030000465 4EVANGELISTA LOPES DE SOUZA ME 194331              12022020REA000000000000000000000000007407                    00000000000000000000000                    00000008091527000180                     00
3410002300161A00000000100799 000000043058 7DEBORA CRISTINA FACINA        194245              12022020REA000000000000000000000000009430                    00000000000000000000000                    00000000041838847804                     00
3410002300162A00000003300216 000013003063 3LG DA SILVA MODAS ME          194299              12022020REA000000000000000000000000009348                    00000000000000000000000                    00000017055711000166                     00
3410002300163A00000013301588 000000019079 9ALTAIR VALENTIM SILVA         194486              12022020REA000000000000000000000000014101                    00000000000000000000000                    00000000006629134931                     00
3410002300164A00000008900003 000000202016 5MARCELO RIBEIRO FIORITE  CIA L194327              12022020REA000000000000000000000000013257                    00000000000000000000000                    00000066786146000112                     00
3410002300165A00000008900003 000000201990 6TIAGO HENRIQUE MENGALI        194294              12022020REA000000000000000000000000379739                    00000000000000000000000                    00000012149895000100                     00
3410002300166A00000023703045 000000066454 5ARISMAR ARAUJO DE OLIVEIRA    194487              12022020REA000000000000000000000000002455                    00000000000000000000000                    00000000001443266558                     00
3410002300167A00000013301075 000000023635 7ANTONIO GILMAR COGNACO        194410              12022020REA000000000000000000000000035187                    00000000000000000000000                    00000000064684121968                     00
3410002300168A00000013301003 000000014242 5CM COMERCIO DE PECAS IMPLEMENT194527              12022020REA000000000000000000000000035331                    00000000000000000000000                    00000007043675000167                     00
3410002300169A00000013301003 000000014886 5FRANCIELA T DAROS PAPELARIA E 194224              12022020REA000000000000000000000000007469                    00000000000000000000000                    00000030682114000120                     00
3410002300170A00000013301009 000000006377 0PAULO FERDINANDO FERREIRA     194463              12022020REA000000000000000000000000273140                    00000000000000000000000                    00000015726900000198                     00
3410002300171A00000010403052 000000000091 0DUARTE  VIANA LTDA            194319              12022020REA000000000000000000000000006751                    00000000000000000000000                    00000003258166000109                     00
3410002300172A00000023703327 000000005605 7STUDIO DA BELEZA LTDA         194459              12022020REA000000000000000000000000002456                    00000000000000000000000                    00000033734830000100                     00
3410002300173A00000010403872 000000000821 9H11 PNEUS E RODAS LTDA        194539              12022020REA000000000000000000000000008817                    00000000000000000000000                    00000023773801000195                     00
3410002300174A00000013301075 000000007971 5JULIA BORBA ROCHA ME          194546              12022020REA000000000000000000000000021881                    00000000000000000000000                    00000014775306000124                     00
3410002300175A00000023702113 000000035163 6SPORT CAR AUTO SOM E ACESSORIO194509              12022020REA000000000000000000000000012343                    00000000000000000000000                    00000003362659000186                     00
3410002300176A00000000102199 000000021107 9ORGANIZACAO FARMACEUTICA PEREI194540              12022020REA000000000000000000000000009801                    00000000000000000000000                    00000034960823000180                     00
3410002300177A00000013301003 000000014606 4ARTEFATOS DE CIMENTO LUNEL LTD194218              12022020REA000000000000000000000000035983                    00000000000000000000000                    00000009066203000155                     00
3410002300178A00000013301003 000000006904 3ALEX SALES QUEIROZ            194473              12022020REA000000000000000000000000030634                    00000000000000000000000                    00000000009634767931                     00
3410002300179A00000013301075 000000016886 6VALDIR ROLING E CIA LTDA      194510              12022020REA000000000000000000000000003501                    00000000000000000000000                    00000001941213000180                     00
3410002300180A00000000100048 000000161751 6RICARDO BASSANI               194587              12022020REA000000000000000000000000044434                    00000000000000000000000                    00000000099854872149                     00
3410002300181A00000000104883 000000112764 0RAIZA DA ROCHA TEIXEIRA       194602              12022020REA000000000000000000000000001384                    00000000000000000000000                    00000000004344810171                     00
3410002300182A00000013301584 000000014932 2DROGARIA 19 DE AGOSTO         194566              12022020REA000000000000000000000000051679                    00000000000000000000000                    00000017557673000140                     00
3410002300183A00000013301075 000000009748 9PICO DA VILA LANCHES BAR      194259              12022020REA000000000000000000000000014442                    00000000000000000000000                    00000010412787000152                     00
3410002300184A00000013301003 000000009546 0FAVERO E BORTOLIN FISIOTERAPIA194417              12022020REA000000000000000000000000097359                    00000000000000000000000                    00000032415298000197                     00
3410002300185A00000023706685 000000000268 2FRANCISCO DAS CHAGAS TEIXEIRA 194554              12022020REA000000000000000000000000023990                    00000000000000000000000                    00000007951687000190                     00
3410002300186A00000000102194 000000006738 5ANDRE PERUGINI                194265              12022020REA000000000000000000000000008149                    00000000000000000000000                    00000000047995050682                     00
3410002300187A00000023701579 000000020790 0MERCIA MARIA FRAGA MOTA       194317              12022020REA000000000000000000000000022723                    00000000000000000000000                    00000005516137000117                     00
3410002300188A00000000400232 000000000417 0CLEAN LAVAGEM PROFISSIONAL LTD194397              12022020REA000000000000000000000000013782                    00000000000000000000000                    00000021487181000100                     00
3410002300189A00000042200037 000000580417 0CEARA DISTRIBUIDORA DE EQUIPAM194255              12022020REA000000000000000000000000010184                    00000000000000000000000                    00000029654959000122                     00
3410002300190A00000000100268 000000013536 4SOARES ZENATTI  ZENATTI LTDA  194238              12022020REA000000000000000000000000002522                    00000000000000000000000                    00000005808981000111                     00
3410002300191A00000000104992 000000012791 4SARA ALIENDRE DOS REIS LOPES  194578              12022020REA000000000000000000000000003924                    00000000000000000000000                    00000027913066000129                     00
3410002300192A00000003300225 000001301499 8ROGERIO CATHO ME              194608              12022020REA000000000000000000000000002590                    00000000000000000000000                    00000005782896000121                     00
3410002300193A00000013301075 000000029304 0NIVALDO MARQUES LAGUNA        194280              12022020REA000000000000000000000000010847                    00000000000000000000000                    00000028692830000146                     00
3410002300194A00000013301009 000000006108 5MARIANI DIAS                  194551              12022020REA000000000000000000000000014899                    00000000000000000000000                    00000027102728000180                     00
3410002300195A00000008500101 000001004496 5EVERTON MONTEIRO MARQUES      194260              12022020REA000000000000000000000000019037                    00000000000000000000000                    00000031656906000192                     00
3410002300196A00000010400749 000000000905 6FRANCISCO VALDIR CHAVES       194233              12022020REA000000000000000000000000023996                    00000000000000000000000                    00000023560519000120                     00
3410002300197A00000013301075 000000021812 0LAVACAO E BORRACHARIA DOIS IRM194595              12022020REA000000000000000000000000027210                    00000000000000000000000                    00000079817037000167                     00
3410002300198A00000007000026 000000061083 6SORAYA FROTA PEREIRA          194464              12022020REA000000000000000000000000023035                    00000000000000000000000                    00000000001421150107                     00
3410002300199A00000013301058 000000009045 0J A TEIXEIRA BARANCELLI RESTAU194513              12022020REA000000000000000000000000015753                    00000000000000000000000                    00000006143819000194                     00
3410002300200A00000023703118 000000012249 1AUTO POSTO MONTREAL VARGAS LTD194349              12022020REA000000000000000000000000040131                    00000000000000000000000                    00000005283897000121                     00
3410002300201A00000013301075 000000029377 6VERA MERIANE DE SOUZA FERREIRA194599              12022020REA000000000000000000000000009618                    00000000000000000000000                    00000029443933000135                     00
3410002300202A00000013301003 000000014545 9CENTRO DE FORMACAO DE CONDUTOR194472              12022020REA000000000000000000000000020231                    00000000000000000000000                    00000010575109000100                     00
3410002300203A00000013301668 000000006064 0L Z BRILHAR ECO PISCINAS EIREL194290              12022020REA000000000000000000000000003890                    00000000000000000000000                    00000023205574000100                     00
3410002300204A00000013301075 000000028644 3PATRICIA MARIA SALVADOR ME    194354              12022020REA000000000000000000000000007391                    00000000000000000000000                    00000033546377000108                     00
3410002300205A00000013301003 000000014879 2DORATI DOS SANTOS             194213              12022020REA000000000000000000000000020961                    00000000000000000000000                    00000000052310442968                     00
3410002300206A00000023706342 000000006083 6CENTER LOCACOES E CONSULTORIA 194422              12022020REA000000000000000000000000004397                    00000000000000000000000                    00000018728179000163                     00
3410002300207A00000023701230 000000051072 6MB COMERCIO DE PELICULAS EIREL194454              12022020REA000000000000000000000000046493                    00000000000000000000000                    00000012373561000115                     00
3410002300208A00000013301062 000000015112 2SOLANGI VITORETI BARANOSWKI   194609              12022020REA000000000000000000000000001751                    00000000000000000000000                    00000034320260000166                     00
3410002300209A00000000103570 000000025601 3SOUVIE COMERCIO INDUSTRIA IMPO194302              12022020REA000000000000000000000000051835                    00000000000000000000000                    00000012226852000180                     00
3410002300210A00000013301009 000000003356 1EVERSON CHIOCHETA E CIA       194620              12022020REA000000000000000000000000007595                    00000000000000000000000                    00000004203553000100                     00
3410002300211A00000013301503 000000004756 2JANETE LANG                   194351              12022020REA000000000000000000000000004863                    00000000000000000000000                    00000021132819000182                     00
3410002300212A00000000104590 000000019460 3SILVA  OLIVEIRA MATERIAIS PARA194432              12022020REA000000000000000000000000008526                    00000000000000000000000                    00000016863856000120                     00
3410002300213A00000013301075 000000029523 0ONE ACADEMIA DE CONDICIONAMENT194155              12022020REA000000000000000000000000007780                    00000000000000000000000                    00000018556009000149                     00
3410002300214A00000003303132 000001052601 4VIVIANE RIBEIRO DE FREITAS    194270              12022020REA000000000000000000000000054000                    00000000000000000000000                    00000000004593341310                     00
3410002300215A00000013301003 000000015024 0ELIZANDRA DA SILVA            194392              12022020REA000000000000000000000000008408                    00000000000000000000000                    00000000003294406916                     00
3410002300216A00000013301075 000000020517 6IVANIR TEREZINHA RICARDO BAUMG194194              12022020REA000000000000000000000000021594                    00000000000000000000000                    00000017545367000193                     00
3410002300217A00000013301003 000000004340 0LOVENI SCHUG                  194442              12022020REA000000000000000000000000048123                    00000000000000000000000                    00000026896430000127                     00
3410002300218A00000013301003 000000009371 8SUPERVALE DISTRIBUIDORA DE PRO194200              12022020REA000000000000000000000000004419                    00000000000000000000000                    00000013146318000127                     00
3410002300219A00000003300299 000013002438 7GIGANTE DO BRAS VESTUARIO E AC194360              12022020REA000000000000000000000000006380                    00000000000000000000000                    00000031191906000164                     00
3410002300220A00000003300299 000013001569 5D B MACHADO  CIA LTDA         194433              12022020REA000000000000000000000000028665                    00000000000000000000000                    00000018979183000102                     00
3410002300221A00000003300299 000013001595 6DAIANE BOSCOLO MACHADO ME     194275              12022020REA000000000000000000000000014853                    00000000000000000000000                    00000015591136000190                     00
3410002300222A00000023700461 000000010867 7SIMONE CRISTINA MILITZ        194181              12022020REA000000000000000000000000008740                    00000000000000000000000                    00000000028976616820                     00
3410002300223A00000013301609 000000027693 6MERCADO FERNANDES E SOUZA     194256              12022020REA000000000000000000000000010347                    00000000000000000000000                    00000029062121000140                     00
3410002300224A00000023701918 000000017151 4NATALIA PEREIRA FERNANDES 3988194191              12022020REA000000000000000000000000017367                    00000000000000000000000                    00000034589412000120                     00
3410002300225A00000013301009 000000009182 0ZANETTI E SCHWADE             194212              12022020REA000000000000000000000000014374                    00000000000000000000000                    00000001228198000128                     00
3410002300226A00000000101107 000000001333 1COMERCIAL BOMFIM ROSARIO LTDA 194398              12022020REA000000000000000000000000038849                    00000000000000000000000                    00000002293125000182                     00
3410002300227A00000000400051 000000026387 0ORLANDO CONCEICAO CRUZ        194418              12022020REA000000000000000000000000012481                    00000000000000000000000                    00000008329491000120                     00
3410002300228A00000023703014 000000015349 4VBM BAR EIRELI                194495              12022020REA000000000000000000000000040818                    00000000000000000000000                    00000026840333000112                     00
3410002300229A00000003300035 000013002960 1PENINHA RODAS E PNEUS LTDA    194222              12022020REA000000000000000000000000001964                    00000000000000000000000                    00000003417610000183                     00
3410002300230A00000003304279 000001077936 5ALESSANDRO SILVA NERI         194208              12022020REA000000000000000000000000007860                    00000000000000000000000                    00000000041866932349                     00
3410002300231A00000013301003 000000015266 8MARCIA DE FATIMA CALGAROTTO CO194556              12022020REA000000000000000000000000014949                    00000000000000000000000                    00000010283209000163                     00
3410002300232A00000075605122 000000004517 9EDUARDO VIEIRA CONCEICAO PAIVA194156              12022020REA000000000000000000000000029775                    00000000000000000000000                    00000000010833201816                     00
3410002300233A00000000101107 000000010765 4COMERCIAL BOMFIM CORREA LTDA  194263              12022020REA000000000000000000000000058292                    00000000000000000000000                    00000004814671000147                     00
3410002300234A00000013301003 000000009662 8VICTOR HUGO DE SOUZA DISTRIBUI194419              12022020REA000000000000000000000000021827                    00000000000000000000000                    00000032740457000129                     00
3410002300235A00000023706326 000000006804 7JOSE ALBERTO MARTINS NOVAIS BA194607              12022020REA000000000000000000000000082202                    00000000000000000000000                    00000026758357000127                     00
3410002300236A00000003303554 000013000683 0BELLA PETROPOLIS PADARIA E CON194237              12022020REA000000000000000000000000328172                    00000000000000000000000                    00000006949388000158                     00
3410002300237A00000000103138 000000015206 4FAUSTO SILVEIRA DE PAIVA  ME  194520              12022020REA000000000000000000000000141918                    00000000000000000000000                    00000008874195000100                     00
3410002300238A00000000104206 000000017204 9CENTRO MEDICO DE RIBEIRAO PRET194312              12022020REA000000000000000000000000006095                    00000000000000000000000                    00000056014871000119                     00
3410002300239A00000013301075 000000029265 6DANTAS SAMARY COMERCIO AGRICOL194345              12022020REA000000000000000000000000014004                    00000000000000000000000                    00000010275685000132                     00
3410002300240A00000000101774 000000027509 3VINICIUS JOSE ARAUJO BORGES DE194467              12022020REA000000000000000000000000084751                    00000000000000000000000                    00000026601358000163                     00
3410002300241A00000013301003 000000009906 6JB MATERIAIS ELETRICOS LTDA ME194164              12022020REA000000000000000000000000138769                    00000000000000000000000                    00000001965594000138                     00
3410002300242A00000023705474 000000003170 4PAPELARIA MANDU EIRELI        194246              12022020REA000000000000000000000000004225                    00000000000000000000000                    00000019480858000129                     00
3410002300243A00000013301593 000000029414 4VANDERLEI PINHEIRO            194405              12022020REA000000000000000000000000014463                    00000000000000000000000                    00000000000106326970                     00
3410002300244A00000023707139 000000005997 8T A COMERCIO VAREJISTA DE TELE194257              12022020REA000000000000000000000000006573                    00000000000000000000000                    00000008751872000101                     00
3410002300245A00000074802101 000000000688 2CASIMIRO RICARDO DE OLIVEIRA P194285              12022020REA000000000000000000000000117084                    00000000000000000000000                    00000000045095230500                     00
3410002300246A00000010404053 000000002535 0NELMA MORAIS DE AZEVEDO       194451              12022020REA000000000000000000000000019678                    00000000000000000000000                    00000000618825000174                     00
3410002300247A00000013301003 000000015308 7ANTONIO CARLOS DOS SANTOS O CO194189              12022020REA000000000000000000000000004534                    00000000000000000000000                    00000013239007000102                     00
3410002300248A00000023702619 000000033401 4PORTA DO CEU PAES E DOCES LTDA194423              12022020REA000000000000000000000000034680                    00000000000000000000000                    00000000972191000153                     00
3410002300249A00000013301075 000000029655 4LANCHONETE CLAUDETE LTDA      194371              12022020REA000000000000000000000000025149                    00000000000000000000000                    00000033145407000166                     00
3410002300250A00000003301229 000013000644 8LA NOTRE COUSINE LTDA         194190              12022020REA000000000000000000000000012253                    00000000000000000000000                    00000021675847000146                     00
3410002300251A00000010402176 000000021808 3ADRIANA GONCALVES LISBOA      194500              12022020REA000000000000000000000000175806                    00000000000000000000000                    00000000097461830520                     00
3410002300252A00000013301075 000000029765 8MARILETE PAUL STEIN           194178              12022020REA000000000000000000000000020423                    00000000000000000000000                    00000019959471000150                     00
3410002300253A00000023702621 000000030652 5HIGIENOPOLIS ROTISSERIE E CONE194199              12022020REA000000000000000000000000049137                    00000000000000000000000                    00000011579530000152                     00
3410002300254A00000026000001 000068955455 3BRUNA PEREIRA QUERINO         194501              12022020REA000000000000000000000000184455                    00000000000000000000000                    00000000011246657490                     00
3410002300255A00000010401563 000000002660 2DARLAN DA SILVA               194216              12022020REA000000000000000000000000106610                    00000000000000000000000                    00000015243083000117                     00
3410002300256A00000013301078 000000029762 3SIDNEI DE OLIVEIRA LEAL       194455              12022020REA000000000000000000000000002259                    00000000000000000000000                    00000000084299576934                     00
3410002300257A00000003300091 000013003968 2JESIEL DE MELLO MATOS         194580              12022020REA000000000000000000000000001738                    00000000000000000000000                    00000022256137000144                     00
3410002300258A00000023707139 000000005997 8T A COMERCIO VAREJISTA DE TELE194329              12022020REA000000000000000000000000084154                    00000000000000000000000                    00000008751872000101                     00
3410002300259A00000013301581 000000029825 5GILBERTO SMANIOTI             194272              12022020REA000000000000000000000000004797                    00000000000000000000000                    00000000003222482993                     00
3410002300260A00000000104346 000000020435 8DF AUTO CENTRO EIRELI         194525              12022020REA000000000000000000000000010467                    00000000000000000000000                    00000021102234000110                     00
3410002300261A00000013301075 000000011787 0MATHEUS BLASKOVSKI            194579              12022020REA000000000000000000000000005472                    00000000000000000000000                    00000000010872350908                     00
3410002300262A00000023706748 000000017759 8FERNANDO APARECIDO AFONSO     194219              12022020REA000000000000000000000000005055                    00000000000000000000000                    00000000003091229963                     00
3410002300263A00000000104992 000000012726 4GILMAR PEREIRA GLAGAU         194448              12022020REA000000000000000000000000026952                    00000000000000000000000                    00000000073015067168                     00
3410002300264A00000003300644 000013003066 9JULIANA MARIA DOS SANTOS ME   194489              12022020REA000000000000000000000000014400                    00000000000000000000000                    00000022455826000188                     00
3410002300265A00000003303064 000001088561 2ERIKA COSTA DOS SANTOS SOBRINH194293              12022020REA000000000000000000000000008743                    00000000000000000000000                    00000000017665220843                     00
3410002300266A00000023701992 000000041167 1CONFEITARIA E CONVENIENCIAS DO194536              12022020REA000000000000000000000000045053                    00000000000000000000000                    00000025370152000107                     00
3410002300267A00000000100066 000000116665 4JULIANA PATRICIA DA SILVA MONT194561              12022020REA000000000000000000000000013157                    00000000000000000000000                    00000000021653512865                     00
3410002300268A00000023702288 000000018544 2PEREIRA E FERNANDES RIO PRETO 194182              12022020REA000000000000000000000000031167                    00000000000000000000000                    00000001321441000158                     00
3410002300269A00000010400936 000300003212 7KATIA FERNANDA BAPTISTA 049489194172              12022020REA000000000000000000000000019430                    00000000000000000000000                    00000026225230000142                     00
3410002300270A00000075603125 000002130346 0SILVIO CESAR BIAZOTO          194482              12022020REA000000000000000000000000014394                    00000000000000000000000                    00000009330719000165                     00
3410002300271A00000010404149 000300003429 7M M BARBOZA DROGARIA E PERFUMA194364              12022020REA000000000000000000000000001663                    00000000000000000000000                    00000032958943000118                     00
3410002300272A00000000103478 000000054048 0F J  AGROVETERINARIA EIRELI   194401              12022020REA000000000000000000000000117111                    00000000000000000000000                    00000028645829000160                     00
3410002300273A00000000103478 000000234597 8SILVESTRE AGROVETERINARIA LTDA194377              12022020REA000000000000000000000000025166                    00000000000000000000000                    00000007796880000101                     00
3410002300274A00000000104346 000000028820 9WNG COMUNICACAO VISUAL EIRELI 194537              12022020REA000000000000000000000000003424                    00000000000000000000000                    00000035059545000158                     00
3410002300275A00000013301075 000000012978 0LAURA GOLL                    194499              12022020REA000000000000000000000000002140                    00000000000000000000000                    00000000072814772953                     00
3410002300276A00000023702239 000000043613 5DANIEL GOMES DA COSTA         194416              12022020REA000000000000000000000000003168                    00000000000000000000000                    00000000002194967222                     00
3410002300277A00000023703431 000000025052 0GUARACIABA SOUZA SCRIBELK     194411              12022020REA000000000000000000000000008713                    00000000000000000000000                    00000000086395190725                     00
3410002300278A00000023703238 000000091504 1OTICA SANTA CHIARA LTDA       194169              12022020REA000000000000000000000000028776                    00000000000000000000000                    00000008038666000140                     00
3410002300279A00000013301003 000000015247 1MITRA DIOCESANA DE PARANAVAI  194521              12022020REA000000000000000000000000004911                    00000000000000000000000                    00000075476796002791                     00
3410002300280A00000000100022 000000165565 5SEMC INDUSTRIA E COMERCIO DE C194160              12022020REA000000000000000000000000043086                    00000000000000000000000                    00000015767505000153                     00
3410002300281A00000000101246 000000069168 2VM COMPONENTES ELETRONICOS EIR194186              12022020REA000000000000000000000000100079                    00000000000000000000000                    00000019085524000150                     00
3410002300282A00000023702302 000000004100 9TRADICAO DISTRIBUIDORA DE PERS194153              12022020REA000000000000000000000000274738                    00000000000000000000000                    00000074534819000175                     00
3410002300283A00000000100799 000000052306 2BRUNO CATOFARONI MARTINUCCI   194624              12022020REA000000000000000000000000013429                    00000000000000000000000                    00000000036674103870                     00
3410002300284A00000013301003 000000015590 0TURCA BRASIL ALIMENTICIOS     194305              12022020REA000000000000000000000000001167                    00000000000000000000000                    00000031330249000199                     00
3410002300285A00000013301003 000000015386 9MARISETE ERHARDT              194217              12022020REA000000000000000000000000004668                    00000000000000000000000                    00000033805890000168                     00
3410002300286A00000010400037 000100039133 6JANAINA AGOSTINHO DE MELO     194494              12022020REA000000000000000000000000026247                    00000000000000000000000                    00000000001224481461                     00
3410002300287A00000074800913 000000011799 6STUDIO MAIS VIDA FISIOTERAPIA 194492              12022020REA000000000000000000000000018034                    00000000000000000000000                    00000034223092000190                     00
3410002300288A00000013301075 000000009920 1SANTAS SAMARY COMERCIO AGRICOL194311              12022020REA000000000000000000000000001848                    00000000000000000000000                    00000010275685000213                     00
3410002300289A00000023701116 000000002135 0MARIA MARILENE MARTINS DE LIMA194436              12022020REA000000000000000000000000004333                    00000000000000000000000                    00000000043813631400                     00
3410002300290A00000010400271 000000000864 7DENTAL NORTE COMERCIO DE PRODU194229              12022020REA000000000000000000000000090637                    00000000000000000000000                    00000001941242000142                     00
3410002300291A00000013301075 000000010472 8MARCIONEI TOMAZELI BAR E MERCE194258              12022020REA000000000000000000000000006005                    00000000000000000000000                    00000076567957000186                     00
3410002300292A00000010404048 000300000693 6MOSAICO COMERCIAL E SERVICOS L194254              12022020REA000000000000000000000000007466                    00000000000000000000000                    00000061051942000193                     00
3410002300293A00000010401351 000000001478 4BERTA PADARIA LTDA            194157              12022020REA000000000000000000000000055755                    00000000000000000000000                    00000017547528000188                     00
3410002300294A00000013301075 000000030136 1P2 HAMBURGUERIA E CHOPERIA    194535              12022020REA000000000000000000000000019327                    00000000000000000000000                    00000035001386000130                     00
3410002300295A00000074808043 000000052893 5RAFA CALCADOS LTDA            194518              12022020REA000000000000000000000000008805                    00000000000000000000000                    00000003490162000143                     00
3410002300296A00000023705268 000000005538 7JD COMERCIO DE COMBUSTIVEIS E 194251              12022020REA000000000000000000000000002966                    00000000000000000000000                    00000013175174000137                     00
3410002300297A00000013301003 000000008546 4CONSTRULAR MADEIRAS LTDA ME   194591              12022020REA000000000000000000000000099649                    00000000000000000000000                    00000011307952000179                     00
3410002300298A00000013301075 000000016049 0AGROPECUARIA ESSER            194391              12022020REA000000000000000000000000012643                    00000000000000000000000                    00000022134785000128                     00
3410002300299A00000013301075 000000030197 3CRISTINA MAIARA K             194234              12022020REA000000000000000000000000044978                    00000000000000000000000                    00000000007432184933                     00
3410002300300A00000075604364 000000033333 6ELETROMOTOR IMPORTACOES E EXPO194366              12022020REA000000000000000000000000001398                    00000000000000000000000                    00000032317847000190                     00
3410002300301A00000000400039 000000040147 0CAMPOS  BATISTA LTDA          194320              12022020REA000000000000000000000000005264                    00000000000000000000000                    00000026409676000127                     00
3410002300302A00000000101498 000000008037 3JOYALE COMERCIO VAREJISTA DE A194427              12022020REA000000000000000000000000031505                    00000000000000000000000                    00000078872769000197                     00
3410002300303A00000075604321 000002000100 2MILTON PEDRO ROSA             194381              12022020REA000000000000000000000000016963                    00000000000000000000000                    00000000008144204867                     00
3410002300304A00000013301009 000000009142 1ORIDES BASSO                  194158              12022020REA000000000000000000000000058350                    00000000000000000000000                    00000030199959000169                     00
3410002300305A00000023700527 000000072300 2ASSOCIACAO RESIDENCIAL VILA DA194332              12022020REA000000000000000000000000033917                    00000000000000000000000                    00000014363673000110                     00
3410002300306A00000000101169 000000024404 0ITALO DO NASCIMENTO FARIAS ME 194271              12022020REA000000000000000000000000001622                    00000000000000000000000                    00000008314279000270                     00
3410002300307A00000013301581 000000023058 8DANUSA ALINE BROGNI           194570              12022020REA000000000000000000000000018478                    00000000000000000000000                    00000000005435845939                     00
3410002300308A00000013301075 000000008683 5BENTA LUCIANI MACHADO BRASILIE194268              12022020REA000000000000000000000000005696                    00000000000000000000000                    00000010291567000118                     00
3410002300309A00000013301075 000000028042 9GERTRUDES JUNCKES             194603              12022020REA000000000000000000000000010463                    00000000000000000000000                    00000031504482000140                     00
3410002300310A00000013301075 000000009464 1K S AUTO SOM E ALARMES LTDA   194388              12022020REA000000000000000000000000065427                    00000000000000000000000                    00000072256266000100                     00
3410002300311A00000000103082 000000003108 9TS2 ATIVIDADES FISICAS ESPECIA194175              12022020REA000000000000000000000000055099                    00000000000000000000000                    00000033092250000158                     00
3410002300312A00000000107007 000000011524 0MILANI E MACHADO PRODUCOES EIR194523              12022020REA000000000000000000000000097010                    00000000000000000000000                    00000035230279000184                     00
3410002300313A00000013301075 000000029384 9NER LANCHONETE LTDA ME        194581              12022020REA000000000000000000000000035709                    00000000000000000000000                    00000000937030000129                     00
3410002300314A00000000101409 000000024251 9FRANCISCO DAS CHAGAS ABREU CED194161              12022020REA000000000000000000000000107658                    00000000000000000000000                    00000000087373378315                     00
