34100000      081222347623000178                    06248 000000045232 5CELER PAGAMENTOS              Itau Unibanco S.A                       11902202000000000000000                                                                           
34100011C9801040 222347623000178                    06248 000000045232 5CELER PAGAMENTOS                                                                                   00000                                   00000000                     
3410001300001A00000034100059 000000078359 7ADMINISTRADORA DE CARTAO DE TO197101              19022020REA000000000000000000000000256736                    00000000000000000000000                    00000011487917000189                     00
3410001300002A00000034101589 000000035930 4ALINE LAMUNIER DE PAULA SILVA 197218              19022020REA000000000000000000000000026623                    00000000000000000000000                    00000031131123000195                     00
3410001300003A00000034102746 000000025961 9MARIA APARECIDA LAURINDA DA SI197309              19022020REA000000000000000000000000270833                    00000000000000000000000                    00000020959355000110                     00
3410001300004A00000034108895 000000036292 2AMORSAUDE CLINICA MEDICA E ODO197016              19022020REA000000000000000000000000915045                    00000000000000000000000                    00000030280982000183                     00
3410001300005A00000034104807 000000016629 5UNICA TRAVEL AGENCIA DE TURISM197301              19022020REA000000000000000000000000055435                    00000000000000000000000                    00000013498624000122                     00
3410001300006A00000034106238 000000065656 2TOGETHER AGENCIA DE VIAGENS E 197105              19022020REA000000000000000000000000163375                    00000000000000000000000                    00000007678652000129                     00
3410001300007A00000034107048 000000079483 3CONSULTORIA DE VIAGEM         197297              19022020REA000000000000000000000000049511                    00000000000000000000000                    00000004269838000136                     00
3410001300008A00000034100285 000000057309 3BE HAPPY VIAGENS E TURISMO LTD197023              19022020REA000000000000000000000000167072                    00000000000000000000000                    00000001202742000162                     00
3410001300009A00000034108729 000000023207 7CASSIA AGENCIA DE PASSAGENS E 197028              19022020REA000000000000000000000000033996                    00000000000000000000000                    00000058022013000141                     00
3410001300010A00000034106519 000000015554 0VENDA NOVA ADM DE CARTOES LTDA197129              19022020REA000000000000000000000000012802                    00000000000000000000000                    00000012989806000133                     00
3410001300011A00000034100672 000000008708 7ADMINISTRADORA DE CARTAO DE TO197149              19022020REA000000000000000000000000017002                    00000000000000000000000                    00000025130983000101                     00
3410001300012A00000034108222 000000004469 8SILVIA APARECIDA MICHELAZZO AM197238              19022020REA000000000000000000000000002000                    00000000000000000000000                    00000000087015528800                     00
3410001300013A00000034100022 000000015049 4BRUNA MICHELE ORTIZ           197051              19022020REA000000000000000000000000014759                    00000000000000000000000                    00000000039460764835                     00
3410001300014A00000034100215 000000042080 3MARMORARIA TARDOC LTDA ME     197017              19022020REA000000000000000000000000030015                    00000000000000000000000                    00000002968921000178                     00
3410001300015A00000034100066 000000004343 1HOSPITAL SANTA PAULA          197201              19022020REA000000000000000000000001145331                    00000000000000000000000                    00000060777901000116                     00
3410001300016A00000034109379 000000019699 2MIGUEL GIOVANNI RUCHEL        197214              19022020REA000000000000000000000000039639                    00000000000000000000000                    00000000059688971987                     00
3410001300017A00000034108895 000000036284 9AMORSAUDE BETIM CLINICA MEDICA197183              19022020REA000000000000000000000000048815                    00000000000000000000000                    00000030280982000183                     00
3410001300018A00000034109173 000000005032 0APARECIDO LUCIANO CASTAGNA ME 197254              19022020REA000000000000000000000000148560                    00000000000000000000000                    00000007503635000150                     00
3410001300019A00000034101446 000000062417 1CENNABRAS INDUSTRIA E COMERCIO197232              19022020REA000000000000000000000000680626                    00000000000000000000000                    00000060028370000169                     00
3410001300020A00000034100215 000000033511 8BONFIM E SOUZA COMERCIO DE MAT196989              19022020REA000000000000000000000000149206                    00000000000000000000000                    00000006310047000138                     00
3410001300021A00000034108078 000000024444 2CARTAO DE TODOS DIADEMA LTDA M196979              19022020REA000000000000000000000000002428                    00000000000000000000000                    00000024868160000115                     00
3410001300022A00000034101585 000000026168 6MARCELO DE OLIVEIRA DOURADO   197310              19022020REA000000000000000000000000008942                    00000000000000000000000                    00000000006914903174                     00
3410001300023A00000034100504 000000020522 0MOVEIS E DECORACAO JW EIRELI  197426              19022020REA000000000000000000000000061037                    00000000000000000000000                    00000032356068000102                     00
3410001300024A00000034109069 000000014300 7ROBERTA MURCIA ANTONIASSI     196985              19022020REA000000000000000000000000136402                    00000000000000000000000                    00000020296177000194                     00
3410001300025A00000034103754 000000044102 4DAVI COSTA MEDEIROS CONSULTORI197209              19022020REA000000000000000000000000024533                    00000000000000000000000                    00000021387467000106                     00
3410001300026A00000034107011 000000008564 9SERGIO JORCELIO DE SA TORRES  196976              19022020REA000000000000000000000000144108                    00000000000000000000000                    00000000038960249149                     00
3410001300027A00000034100002 000000035253 2THIAGO MOREIRA ANDRE          197370              19022020REA000000000000000000000000221217                    00000000000000000000000                    00000003424849000180                     00
3410001300028A00000034108615 000000099635 5MARIA SALETE GOMES SALES      197419              19022020REA000000000000000000000000013879                    00000000000000000000000                    00000013527316000188                     00
3410001300029A00000034100002 000000035253 2LUCAS FERREIRA MAGALHAES      197416              19022020REA000000000000000000000000114182                    00000000000000000000000                    00000003424849000180                     00
3410001300030A00000034100002 000000035253 2TALITA CANDIDO NAKAMURA 377290197268              19022020REA000000000000000000000000010305                    00000000000000000000000                    00000003424849000180                     00
3410001300031A00000034100002 000000035253 2EDIMILSON CAMARGO             197276              19022020REA000000000000000000000000074347                    00000000000000000000000                    00000003424849000180                     00
3410001300032A00000034100002 000000035253 2ALEXANDRE RAMOS               197318              19022020REA000000000000000000000000270287                    00000000000000000000000                    00000003424849000180                     00
3410001300033A00000034100792 000000063933 8EDUSA INDUSTRIAL DE ACOS LTDA 197174              19022020REA000000000000000000000000059608                    00000000000000000000000                    00000067565093000172                     00
3410001300034A00000034100002 000000035253 2A  G COSMETICOS LTDA          197225              19022020REA000000000000000000000000368528                    00000000000000000000000                    00000003424849000180                     00
3410001300035A00000034100002 000000035253 2CLEBER PEDROSO VIANA 383094848197143              19022020REA000000000000000000000000083536                    00000000000000000000000                    00000003424849000180                     00
3410001300036A00000034100002 000000035253 2ALLOR COMERCIO E DISTRIBUICAO 197348              19022020REA000000000000000000000000102502                    00000000000000000000000                    00000003424849000180                     00
3410001300037A00000034100002 000000035253 2COMMIL COMERCIO E SERVICOS LTD197022              19022020REA000000000000000000000000361175                    00000000000000000000000                    00000003424849000180                     00
3410001300038A00000034100002 000000035253 2MICHELLE PEREIRA RAPINI 216315197207              19022020REA000000000000000000000000040010                    00000000000000000000000                    00000003424849000180                     00
3410001300039A00000034100002 000000035253 2DIEGO RICARDO ZAGO  COSMETICOS197045              19022020REA000000000000000000000000055235                    00000000000000000000000                    00000003424849000180                     00
3410001300040A00000034100002 000000035253 2COMERCIAL DE COSMETICOS BELEZA197084              19022020REA000000000000000000000000104921                    00000000000000000000000                    00000003424849000180                     00
3410001300041A00000034100002 000000035253 2JR COSMETICOS  E REPRESENTACAO197208              19022020REA000000000000000000000000828286                    00000000000000000000000                    00000003424849000180                     00
3410001300042A00000034100002 000000035253 2NETWORK BEAUTY  FASHION COSMET197392              19022020REA000000000000000000000000108016                    00000000000000000000000                    00000003424849000180                     00
3410001300043A00000034108015 000000004423 6AARAN INDUSTRIA E COMERCIO DE 197314              19022020REA000000000000000000000000386000                    00000000000000000000000                    00000000229392000165                     00
3410001300044A00000034103005 000000003318 2EDIVALDO RODRIGUES DOS SANTOS 196997              19022020REA000000000000000000000000297375                    00000000000000000000000                    00000000014483706802                     00
3410001300045A00000034101644 000000062360 3V F DOS SANTOS COMERCIO DE MOV197418              19022020REA000000000000000000000000496538                    00000000000000000000000                    00000012258816000107                     00
3410001300046A00000034100865 000000013771 5MARCOS ROBERTO FERREIRA BISPO 197247              19022020REA000000000000000000000000580642                    00000000000000000000000                    00000049170780000107                     00
3410001300047A00000034103156 000000041732 5LAPOGEE CONFECCOES LTDA       197127              19022020REA000000000000000000000000010483                    00000000000000000000000                    00000003877833000123                     00
3410001300048A00000034100077 000000040096 8J DOS SANTOS PEREIRA  MODAS   197278              19022020REA000000000000000000000000123910                    00000000000000000000000                    00000026995735000196                     00
3410001300049A00000034108557 000000007408 8KELI CRISTINA ARGERI          197005              19022020REA000000000000000000000000245764                    00000000000000000000000                    00000000030928994821                     00
3410001300050A00000034103010 000000003587 5PARTISANS PUB BAR LTDA        197196              19022020REA000000000000000000000000026368                    00000000000000000000000                    00000014147047000197                     00
3410001300051A00000034108078 000000008555 5PANIFICADORA E CONFEITARIA MIA197386              19022020REA000000000000000000000000008022                    00000000000000000000000                    00000049249600000187                     00
3410001300052A00000034103130 000000051351 2PADARIA RUA DO ROCIO PAES E LA197294              19022020REA000000000000000000000000018360                    00000000000000000000000                    00000027444888000108                     00
3410001300053A00000034103788 000000058820 4TANJI E DARCIE LTDA           197031              19022020REA000000000000000000000000570862                    00000000000000000000000                    00000017084440000177                     00
3410001300054A00000034102974 000000035415 7ROSEMERY DOS SANTOS REGO COSME197038              19022020REA000000000000000000000000145364                    00000000000000000000000                    00000021415909000180                     00
3410001300055A00000034100445 000000011116 4FLAPTUR AGENCIA DE VIAGENS E T197097              19022020REA000000000000000000000000099475                    00000000000000000000000                    00000004003611000144                     00
3410001300056A00000034100002 000000035253 2DRUMOND  NEGRO COMERCIO DE COS197090              19022020REA000000000000000000000000011817                    00000000000000000000000                    00000003424849000504                     00
3410001300057A00000034107119 000000011783 1LORSA MODAS E CONFECCOES LTDA 197420              19022020REA000000000000000000000000003658                    00000000000000000000000                    00000046046876000170                     00
3410001300058A00000034102977 000000018500 4W S C CONFECCOES LTDA         197351              19022020REA000000000000000000000000006015                    00000000000000000000000                    00000010890478000198                     00
3410001300059A00000034100002 000000035253 2LILIAN REGINA GOMES PASSAGNO D197048              19022020REA000000000000000000000000243119                    00000000000000000000000                    00000005694739000164                     00
3410001300060A00000034100002 000000035253 2LOOK S COMESTICOS LTDA        197359              19022020REA000000000000000000000000567819                    00000000000000000000000                    00000003424849000180                     00
3410001300061A00000034108036 000000011339 0JAIME GUILHERMINO DE SOUZA    197133              19022020REA000000000000000000000000149087                    00000000000000000000000                    00000000013865140807                     00
3410001300062A00000034100187 000000013926 6CRZ COMERCIO E REPRESENTACOES 197299              19022020REA000000000000000000000002149897                    00000000000000000000000                    00000047738604000101                     00
3410001300063A00000034104285 000000011799 2DIEGO LEITE DE BARROS ASSESSOR197352              19022020REA000000000000000000000000497521                    00000000000000000000000                    00000011316118000140                     00
3410001300064A00000034108217 000000019647 9RAQUEL FARIA SABIONI 277042048197184              19022020REA000000000000000000000000162672                    00000000000000000000000                    00000034178383000104                     00
3410001300065A00000034103130 000000066171 7ORIGINAL FOOD HALL LANCHES EIR197063              19022020REA000000000000000000000000003347                    00000000000000000000000                    00000032968102000191                     00
3410001300066A00000034106492 000000016570 6IZABEL DE SOUZA SALAZAR FURTAD197192              19022020REA000000000000000000000000016220                    00000000000000000000000                    00000018230240000148                     00
3410001300067A00000034100002 000000035253 2KAIROS DISTRIBUIDORA DE COSMET197217              19022020REA000000000000000000000000030402                    00000000000000000000000                    00000003424849000504                     00
3410001300068A00000034109639 000000000230 3CARLA GROSS                   197305              19022020REA000000000000000000000000050110                    00000000000000000000000                    00000000013208817851                     00
3410001300069A00000034104086 000000006811 3AKIKO FUJII                   196973              19022020REA000000000000000000000000234934                    00000000000000000000000                    00000000015430322814                     00
34100015         000071000000000014556646000000000000000000                                                                                                                                                                                     
34100021C9841040 222347623000178                    06248 000000045232 5CELER PAGAMENTOS                                                                                   00000                                   00000000                     
3410002300001A00000003304442 000013000418 5CARTAO DE DESCONTO TERRA DOS B197415              19022020REA000000000000000000000000083590                    00000000000000000000000                    00000011051024000196                     00
3410002300002A00000004100028 000060862100 3NARA R LEAL DE CORDEIRO       197317              19022020REA000000000000000000000000165028                    00000000000000000000000                    00000002909169000194                     00
3410002300003A00000023703157 000000034696 9DIEGO GARCIA DA SILVA         197006              19022020REA000000000000000000000000293207                    00000000000000000000000                    00000009354049000117                     00
3410002300004A00000008500109 000000044648 3EPR CENTRO AUTOMOTIVO ME LTDA 197236              19022020REA000000000000000000000000509618                    00000000000000000000000                    00000030636108000136                     00
3410002300005A00000023700513 000000010481 7F e G ADMINISTRADORA DE CARTOE197407              19022020REA000000000000000000000000036770                    00000000000000000000000                    00000030672643000142                     00
3410002300006A00000023701232 000000024820 7ADMINISTRADORA DE CARTAO DE DE197381              19022020REA000000000000000000000000214577                    00000000000000000000000                    00000031284933000181                     00
3410002300007A00000075604370 000000032990 8PDV365 PRODUCAO E AUTOMACAO DE197062              19022020REA000000000000000000000002162843                    00000000000000000000000                    00000012569291000112                     00
3410002300008A00000023702371 000000032300 4ESTELLA CRISTHINA ALVES       197248              19022020REA000000000000000000000000010526                    00000000000000000000000                    00000000097009105120                     00
3410002300009A00000003304387 000013000211 4N C ADMINISTRADORA DE CARTAO D197011              19022020REA000000000000000000000000013766                    00000000000000000000000                    00000011174739000136                     00
3410002300010A00000003300037 000000147525 4DILVANIA APARECIDA VIEIRA     197088              19022020REA000000000000000000000000018659                    00000000000000000000000                    00000000001899964800                     00
3410002300011A00000010400017 001300068810 4CLEITON TRAVASSO              197356              19022020REA000000000000000000000000035350                    00000000000000000000000                    00000000079936822153                     00
3410002300012A00000000100048 000000135373 0VANESSA PAULO DA SILVA        197262              19022020REA000000000000000000000000003570                    00000000000000000000000                    00000000002864387123                     00
3410002300013A00000023701849 000000001268 8AURELIO FERREIRA RIBEIRO ME   197302              19022020REA000000000000000000000000161091                    00000000000000000000000                    00000005669371000184                     00
3410002300014A00000000101218 000000014405 3RAIMUNDO ISAIAS MONTEIRO PINTO197245              19022020REA000000000000000000000000045876                    00000000000000000000000                    00000000062422260306                     00
3410002300015A00000026000001 000071128234 0RENATO LOPES DE PAULA         197001              19022020REA000000000000000000000000066037                    00000000000000000000000                    00000000002942683163                     00
3410002300016A00000004100280 000060702370 6ALVES E CARLOTT LTDA          197114              19022020REA000000000000000000000000004202                    00000000000000000000000                    00000003112643000115                     00
3410002300017A00000008500101 000000732600 9MAGNUM INSTRUMENTOS MUSICAIS L197403              19022020REA000000000000000000000001619438                    00000000000000000000000                    00000082097197000193                     00
3410002300018A00000004100350 000200701090 1CENTRO TECNICO DE COMUNICACOES197187              19022020REA000000000000000000000000011614                    00000000000000000000000                    00000000697543000100                     00
3410002300019A00000010400898 000000002712 8ADMINISTRADORA DE SERVICOS DE 197065              19022020REA000000000000000000000000117057                    00000000000000000000000                    00000030676872000135                     00
3410002300020A00000008500101 000000679040 2SALVA MED EMERGENCIAS MEDICAS 197168              19022020REA000000000000000000000000059343                    00000000000000000000000                    00000004094517000148                     00
3410002300021A00000000106864 000000012148 7W WANDER MARTINS ME           197250              19022020REA000000000000000000000000004555                    00000000000000000000000                    00000017626932000147                     00
3410002300022A00000010400017 001300068586 5SIRLENE MARTINS DA SILVA CARDO197206              19022020REA000000000000000000000000020062                    00000000000000000000000                    00000000055996000172                     00
3410002300023A00000010404557 000000000878 2ADMINISTRADORA DE CARTAO DE TO197211              19022020REA000000000000000000000000202648                    00000000000000000000000                    00000025341175000193                     00
3410002300024A00000000104992 000000012120 7JOSE VIEIRA ALVES             196988              19022020REA000000000000000000000000017760                    00000000000000000000000                    00000001474101000167                     00
3410002300025A00000010400118 000000003357 6ADMINISTRADORA DE CARTAO DE DE197295              19022020REA000000000000000000000000004855                    00000000000000000000000                    00000030877366000104                     00
3410002300026A00000010400917 000000005066 0ADMINISTRADORA DE CARTAO DE DE197290              19022020REA000000000000000000000000111665                    00000000000000000000000                    00000031407148000179                     00
3410002300027A00000010403245 000000004626 7ALINE ELAINE GUIMARAES        197182              19022020REA000000000000000000000000032234                    00000000000000000000000                    00000000028537168807                     00
3410002300028A00000003300083 000001306463 0CEO TRAVEL  AGENCIA DE VIAGENS197219              19022020REA000000000000000000000000008250                    00000000000000000000000                    00000011781719000123                     00
3410002300029A00000003300083 000013007492 1CENTRAL DE NEGOCIOS AGENCIA DE197280              19022020REA000000000000000000000000439988                    00000000000000000000000                    00000004885275000100                     00
3410002300030A00000023703061 000000013470 8LIMATUR CONGRESSOS E EVENTOS L197210              19022020REA000000000000000000000000183541                    00000000000000000000000                    00000022528147000191                     00
3410002300031A00000023700095 000000148486 9ALTERNATUR AGENCIA DE VIAGENS 197287              19022020REA000000000000000000000000165010                    00000000000000000000000                    00000058645359000104                     00
3410002300032A00000023702297 000000116826 6M VERMELHO PRODUTOS ALIMENTICI197156              19022020REA000000000000000000000000037751                    00000000000000000000000                    00000059456723000142                     00
3410002300033A00000023702249 000000018639 2ATILA ALVES DE OLIVEIRA 217321197251              19022020REA000000000000000000000000057302                    00000000000000000000000                    00000028115797000191                     00
3410002300034A00000023701789 000000043251 2CONTINENTTRAVEL  AGENCIA DE VI197324              19022020REA000000000000000000000000024751                    00000000000000000000000                    00000017714146000100                     00
3410002300035A00000023701328 000000003419 3LIDER TURISMO SAO PAULO AGENCI197066              19022020REA000000000000000000000000045436                    00000000000000000000000                    00000007932988000176                     00
3410002300036A00000074800155 000000028554 4JOAO SIMAO MATERIAIS DE CONSTR197364              19022020REA000000000000000000000000027961                    00000000000000000000000                    00000087248100000110                     00
3410002300037A00000003303733 000013003898 0CARTAO DE DESCONTOS           197115              19022020REA000000000000000000000000592588                    00000000000000000000000                    00000025135387000114                     00
3410002300038A00000075603125 000000632446 0SANTOS  DIOGO LTDA            197197              19022020REA000000000000000000000000480916                    00000000000000000000000                    00000003177943000182                     00
3410002300039A00000075603125 000000631809 6ANSELMO ACETI INFORMATICA  ME 197091              19022020REA000000000000000000000000517422                    00000000000000000000000                    00000004322177000165                     00
3410002300040A00000023700218 000000018737 2JANE KELLY CARNEIRO DA SILVA  197398              19022020REA000000000000000000000000147225                    00000000000000000000000                    00000017601199000106                     00
3410002300041A00000000100781 000000018701 1ADEMIR APARECIDO CONSTANTINO M197024              19022020REA000000000000000000000000456514                    00000000000000000000000                    00000004162718000135                     00
3410002300042A00000023700023 000000156781 0GRAZIELA CIRILO PUTINHON      197390              19022020REA000000000000000000000000019446                    00000000000000000000000                    00000000037150100880                     00
3410002300043A00000000100467 000000014512 2JOSE MIGUEL DE SOUZA          197391              19022020REA000000000000000000000000038524                    00000000000000000000000                    00000000093817592949                     00
3410002300044A00000026000001 000001507461 8EWERTON ROSA GOMES            197050              19022020REA000000000000000000000000120413                    00000000000000000000000                    00000000002330612150                     00
3410002300045A00000000102502 000000046291 8VICOSO ESTACIONAMENTO LTDA    197412              19022020REA000000000000000000000000051154                    00000000000000000000000                    00000007799557000183                     00
3410002300046A00000010401045 000000003062 0ARACAJU ADMINISTRACAO DE CARTA197342              19022020REA000000000000000000000000170314                    00000000000000000000000                    00000031747596000111                     00
3410002300047A00000074800155 000000015946 8VALDO COMUNICACAO VISUAL LTDA 197044              19022020REA000000000000000000000000136394                    00000000000000000000000                    00000000321078000108                     00
3410002300048A00000023701232 000000024868 1ATENDIMENTO MEDICO E ODONTOLOG197249              19022020REA000000000000000000000000814594                    00000000000000000000000                    00000031132613000106                     00
3410002300049A00000023700223 000000211185 3SUELI APARECIDA PORPHIRIO FERN197193              19022020REA000000000000000000000000165434                    00000000000000000000000                    00000008075662000132                     00
3410002300050A00000003304039 000013002389 4ATENDIMENTO MEDICO E ODONTOLOG197378              19022020REA000000000000000000000000009685                    00000000000000000000000                    00000031710733000143                     00
3410002300051A00000010401464 000000028961 7MARIA CLEMENTINA DE ALMEIDA OL197131              19022020REA000000000000000000000000001160                    00000000000000000000000                    00000000060934255172                     00
3410002300052A00000003303733 000013004404 0AZEVEDO E MENDES SERVICOS ADMI197158              19022020REA000000000000000000000001633891                    00000000000000000000000                    00000024996244000134                     00
3410002300053A00000010404292 000000000487 6SONHO DE CRIANCA CONFECCAO INF197144              19022020REA000000000000000000000000020376                    00000000000000000000000                    00000022704478000135                     00
3410002300054A00000010404292 000000023725 4MAICON ROBSON GABARDO         197194              19022020REA000000000000000000000000031237                    00000000000000000000000                    00000000000851022960                     00
3410002300055A00000075604340 000000084173 0PARQUE DE TECNOLOGIA DA INFORM196983              19022020REA000000000000000000000000011542                    00000000000000000000000                    00000024933602000160                     00
3410002300056A00000000102916 000000018131 5FLORESTE E SUPRIMENTO FLORESTA196978              19022020REA000000000000000000000000068005                    00000000000000000000000                    00000008140158000179                     00
3410002300057A00000010400505 001300901195 9ANA PAULA DIAS GOMES          197272              19022020REA000000000000000000000000048056                    00000000000000000000000                    00000000095233717034                     00
3410002300058A00000000101873 000000006886 1ROSEMARY LOUVEIRA             196993              19022020REA000000000000000000000000037170                    00000000000000000000000                    00000000036766658134                     00
3410002300059A00000000102936 000000048939 5LABORATORIO CREATIVE SOLUCOES 197220              19022020REA000000000000000000000000020231                    00000000000000000000000                    00000026114551000170                     00
3410002300060A00000010400353 001300023446 1ENZO WILSON BARBOSA AMARAL    197077              19022020REA000000000000000000000000017748                    00000000000000000000000                    00000000027812461823                     00
3410002300061A00000023700023 000000253043 0JOAO H BOTELHO GENNARI RESTAUR197252              19022020REA000000000000000000000001667055                    00000000000000000000000                    00000017276511000133                     00
3410002300062A00000008900004 000000300525 3JORGE HENRIQUE MICHEL  CIA LTD197328              19022020REA000000000000000000000000165366                    00000000000000000000000                    00000057820698000109                     00
3410002300063A00000023701849 000000009225 8JESSIKA APARECIDA MORAES DE CA197178              19022020REA000000000000000000000000092832                    00000000000000000000000                    00000000000356019144                     00
3410002300064A00000023700534 000000081028 2OSVALDO ANTONIO DE FREITAS    197029              19022020REA000000000000000000000000043805                    00000000000000000000000                    00000000088888088849                     00
3410002300065A00000003304501 000013002428 2CEMA CENTRO MEDICO E ODONTOLOG197377              19022020REA000000000000000000000000158587                    00000000000000000000000                    00000010576511000100                     00
3410002300066A00000000106939 000000053750 0ADMINISTRADORA DE CONSULTORIOS197357              19022020REA000000000000000000000000899107                    00000000000000000000000                    00000025966574000140                     00
3410002300067A00000003303749 000013002584 8GREEN GOY NOYORI EIRELI  ME   197394              19022020REA000000000000000000000000747467                    00000000000000000000000                    00000005877577000108                     00
3410002300068A00000010402047 000000304973 1CLINICA MEDICA E ODONTOLOGICA 197033              19022020REA000000000000000000000000683524                    00000000000000000000000                    00000031570751000177                     00
3410002300069A00000010401461 000000001628 9BRIZOLA R SETTE E MARIA DO CAR197018              19022020REA000000000000000000000000071706                    00000000000000000000000                    00000030914197000135                     00
3410002300070A00000000100095 000000028910 8FF INDUSTRIA DE ALIMENTOS LTDA197185              19022020REA000000000000000000000000021912                    00000000000000000000000                    00000020169895000280                     00
3410002300071A00000000101498 000000008037 3PEDRO DELLA GIUSTINA SOUZA    197146              19022020REA000000000000000000000000174187                    00000000000000000000000                    00000078872769000197                     00
3410002300072A00000003303047 000013002290 1CATANDUVA ADMINISTRADORA DE CA197385              19022020REA000000000000000000000000004214                    00000000000000000000000                    00000024028199000124                     00
3410002300073A00000023702886 000000010142 7LRM ACESSORIOS SERVICOS A L ME197224              19022020REA000000000000000000000000470496                    00000000000000000000000                    00000001342545000149                     00
3410002300074A00000023702112 000000002890 8LATICINIOS ZACARIAS LTDA      197132              19022020REA000000000000000000000000056886                    00000000000000000000000                    00000060570488000114                     00
3410002300075A00000023701902 000000033080 9VALDIR ALBERTO LEDESMA        197239              19022020REA000000000000000000000000022725                    00000000000000000000000                    00000000083556834120                     00
3410002300076A00000010401576 001300154874 0RITA DE CASSIA CRUZ DO NASCIME197259              19022020REA000000000000000000000000006059                    00000000000000000000000                    00000000002870900350                     00
3410002300077A00000000102194 000000021647 0FONSECA  PUTTINI LTDA         197212              19022020REA000000000000000000000000020596                    00000000000000000000000                    00000001297788000102                     00
3410002300078A00000000106713 000000006702 7IVO RODRIGUES JUNIOR          197329              19022020REA000000000000000000000000048503                    00000000000000000000000                    00000000040442856830                     00
3410002300079A00000008900001 000000003797 4NAIR DA SILVA MUNIZ 1728733782197119              19022020REA000000000000000000000000436853                    00000000000000000000000                    00000029549230000196                     00
3410002300080A00000003304422 000013001206 1MEDMAX COMERCIO DE EQUIPAMENTO197340              19022020REA000000000000000000000000992413                    00000000000000000000000                    00000007760277000161                     00
3410002300081A00000074800728 000000063824 2JULIANO FRANCISCO DA SILVA ACA197333              19022020REA000000000000000000000000208564                    00000000000000000000000                    00000019204801000105                     00
3410002300082A00000000100165 000000037203 0REGIANE ZACCHEU CARMINATI     197237              19022020REA000000000000000000000000132941                    00000000000000000000000                    00000032467627000143                     00
3410002300083A00000010401651 000000019490 2CARTAO DE TODOS PETROPOLIS LTD197150              19022020REA000000000000000000000000067311                    00000000000000000000000                    00000013584247000144                     00
3410002300084A00000003300113 000001005737 0MARILIA CARVALHO DOS SANTOS   197102              19022020REA000000000000000000000000035028                    00000000000000000000000                    00000000027276313832                     00
3410002300085A00000023700997 000000030470 0REJANE CLAUDINO MELO          197204              19022020REA000000000000000000000000045044                    00000000000000000000000                    00000000084356030320                     00
3410002300086A00000003301268 000013001326 1TERRAS GOIANAS CLINICA MEDICA 197078              19022020REA000000000000000000000000510649                    00000000000000000000000                    00000028796557000108                     00
3410002300087A00000010400118 000000003397 5TERRAS GOIANAS CLINICA MEDICA 197379              19022020REA000000000000000000000000044277                    00000000000000000000000                    00000028796557000108                     00
3410002300088A00000010400118 000000003325 8ADMINISTRADORA DE CARTAO DE DE197253              19022020REA000000000000000000000000095449                    00000000000000000000000                    00000030420633000110                     00
3410002300089A00000010402224 001300051399 2MANOEL GONCALVES DOS SANTOS MO197430              19022020REA000000000000000000000000015007                    00000000000000000000000                    00000000001271530120                     00
3410002300090A00000023702349 000000000800 1FAGUNDES CERTIFICADORA E SERVI197027              19022020REA000000000000000000000000005452                    00000000000000000000000                    00000004740806000177                     00
3410002300091A00000023702847 000000008900 1CLINICA DE NUTROLOGIA DR ABIB 197173              19022020REA000000000000000000000000020895                    00000000000000000000000                    00000002660576000100                     00
3410002300092A00000023701536 000000012324 2ATAMIR DIAS MARQUES           197049              19022020REA000000000000000000000000192407                    00000000000000000000000                    00000000001516003179                     00
3410002300093A00000010400283 000000003246 2CLINICA MEDICA E ODONTOLOGICA 197234              19022020REA000000000000000000000000283314                    00000000000000000000000                    00000032283114000182                     00
3410002300094A00000023701849 000000008908 7KELVIN HENRY COUTINHO BITTENCO197142              19022020REA000000000000000000000000026758                    00000000000000000000000                    00000000004748649100                     00
3410002300095A00000000100063 000000005933 1CENTRO DE ENDOCRINOLOGIA E MET196986              19022020REA000000000000000000000000134979                    00000000000000000000000                    00000035439728001090                     00
3410002300096A00000000100063 000000005933 1CENTRO DE ENDOCRINOLOGIA E MET197106              19022020REA000000000000000000000000219687                    00000000000000000000000                    00000035439728000522                     00
3410002300097A00000007700001 000002214080 8IDEIA MIDIA GRAFICA DIGITAL  E197019              19022020REA000000000000000000000000189941                    00000000000000000000000                    00000007988078000105                     00
3410002300098A00000000101409 000000028674 5VEXNET TELECON INFORMATICA LTD197079              19022020REA000000000000000000000000360942                    00000000000000000000000                    00000011500145000178                     00
3410002300099A00000010401086 000003003899 3CARTAO DE DESCONTO TAPG ITAQUE197042              19022020REA000000000000000000000000023016                    00000000000000000000000                    00000024819584000190                     00
3410002300100A00000008900003 000000201790 3JEANE RITA TEIXEIRA MARTINS FE197242              19022020REA000000000000000000000000002910                    00000000000000000000000                    00000000007493050880                     00
3410002300101A00000023701549 000000005107 1JOSE CARLOS DOS SANTOS 0194485197151              19022020REA000000000000000000000000024217                    00000000000000000000000                    00000023652989000113                     00
3410002300102A00000010401688 000000000216 9WAUS MALHAS LTDA              197343              19022020REA000000000000000000000000012662                    00000000000000000000000                    00000021902093000110                     00
3410002300103A00000023700458 000000007549 3MARIA LUCILENE LOPES CARNEIRO 197266              19022020REA000000000000000000000000055019                    00000000000000000000000                    00000021810036000100                     00
3410002300104A00000075603169 000000009707 1CASA DA PIMENTA COMERCIAL DE B197116              19022020REA000000000000000000000000008571                    00000000000000000000000                    00000008098251000162                     00
3410002300105A00000013301569 000000028087 9ROBIS GRAVINO DA FONSECA      197424              19022020REA000000000000000000000000009681                    00000000000000000000000                    00000000009616611780                     00
3410002300106A00000008900012 000001100659 5YZZA CASES  ACESSORIOS PARA CE196987              19022020REA000000000000000000000000006312                    00000000000000000000000                    00000029872341000139                     00
3410002300107A00000008900003 000000201762 8EDIVALDO DIAS                 197338              19022020REA000000000000000000000000013316                    00000000000000000000000                    00000000013666671829                     00
3410002300108A00000013301075 000000009280 0ALEXANDRE PEDRO DA ROSA       197195              19022020REA000000000000000000000000484965                    00000000000000000000000                    00000027060549000128                     00
3410002300109A00000013301579 000000028236 7CAIO CESAR PEREIRA            197283              19022020REA000000000000000000000000013919                    00000000000000000000000                    00000020863883000170                     00
3410002300110A00000013301602 000000010256 3ELSON A CEZAR E CIA LTDA      197058              19022020REA000000000000000000000000093584                    00000000000000000000000                    00000007527024000142                     00
3410002300111A00000013301602 000000001492 3REGILDA FERNANDA SPEER GARCIA 197273              19022020REA000000000000000000000000015860                    00000000000000000000000                    00000000005666111981                     00
3410002300112A00000013301075 000000027569 7DELLA ROCCA E ROSA ACADEMIA LT197002              19022020REA000000000000000000000000026624                    00000000000000000000000                    00000029699928000198                     00
3410002300113A00000013301075 000000028391 6AUTO POSTO SAO PEDRO EIRELI   197007              19022020REA000000000000000000000000167193                    00000000000000000000000                    00000080107030000130                     00
3410002300114A00000013301602 000000009702 0GREGORIO EXTERKOTTER ME       197395              19022020REA000000000000000000000000127917                    00000000000000000000000                    00000086025236000106                     00
3410002300115A00000013301075 000000006792 0VALDORI DE LIMA               197067              19022020REA000000000000000000000000090295                    00000000000000000000000                    00000000095131388953                     00
3410002300116A00000013301608 000000006806 3ELISANDRO COELHO              197425              19022020REA000000000000000000000000591353                    00000000000000000000000                    00000012246661000180                     00
3410002300117A00000013301608 000000009668 7MARCIEL WIETCOVSKI            197034              19022020REA000000000000000000000000903391                    00000000000000000000000                    00000022380543000114                     00
3410002300118A00000000100063 000000005933 1CENTRO DE ENDOCRINOLOGIA E MET197213              19022020REA000000000000000000000000008064                    00000000000000000000000                    00000035439728000107                     00
3410002300119A00000000100063 000000005933 1CENTRO DE ENDOCRINOLOGIA E MET197164              19022020REA000000000000000000000000006944                    00000000000000000000000                    00000035439728001251                     00
3410002300120A00000023700105 000000220583 1CASA DE GAROA EIRELLI         196995              19022020REA000000000000000000000000294702                    00000000000000000000000                    00000008515856000101                     00
3410002300121A00000008900003 000000201334 7RAFAEL DONIZETE BUCCI 17205150196980              19022020REA000000000000000000000000018742                    00000000000000000000000                    00000022566440000143                     00
3410002300122A00000013301075 000000009739 0PAULA CAROLINA DA SILVA MEI   197094              19022020REA000000000000000000000000056392                    00000000000000000000000                    00000028678665000178                     00
3410002300123A00000013301075 000000009944 9ROSILENE VAMBOMMEL MEYER 05387197053              19022020REA000000000000000000000000057100                    00000000000000000000000                    00000024149220000140                     00
3410002300124A00000013301075 000000007161 7DOUGLAS MACHADO 06651273914   197414              19022020REA000000000000000000000000072038                    00000000000000000000000                    00000018755866000178                     00
3410002300125A00000013301075 000000028122 0FERNANDO PRIM                 196981              19022020REA000000000000000000000000033895                    00000000000000000000000                    00000012455426000119                     00
3410002300126A00000013301003 000000014342 1NELI ALTINIZIA DALLASTRA      197147              19022020REA000000000000000000000000145085                    00000000000000000000000                    00000017693296000176                     00
3410002300127A00000000104992 000000012516 4CHURRASCARIA E CAFETERIA ESTRE197344              19022020REA000000000000000000000000088636                    00000000000000000000000                    00000030774098000103                     00
3410002300128A00000010403625 000000000420 1VAL FREIRE ESTETICA EIRELI    197111              19022020REA000000000000000000000001821644                    00000000000000000000000                    00000022147131000139                     00
3410002300129A00000013301009 000000006427 0ALINE CRISTINA MORAES BASSO   197373              19022020REA000000000000000000000000027880                    00000000000000000000000                    00000033700523000108                     00
3410002300130A00000023701849 000000007000 9LEONIDIA ALVES CARDOSO        197361              19022020REA000000000000000000000004274461                    00000000000000000000000                    00000003030434000203                     00
3410002300131A00000023701211 000000070392 3PRENDA MARI LTDA              197255              19022020REA000000000000000000000000155416                    00000000000000000000000                    00000002637865000199                     00
3410002300132A00000023705474 000000004421 0ESPACO TAMAREIRA POUSADA E EVE196996              19022020REA000000000000000000000001055102                    00000000000000000000000                    00000029121579000122                     00
3410002300133A00000013301608 000000002508 9AGENOR MOLINARI               197082              19022020REA000000000000000000000000002422                    00000000000000000000000                    00000000045525501953                     00
3410002300134A00000013301075 000000026680 9ALINE SOUZA RAMOS KRAISCH     197012              19022020REA000000000000000000000000028933                    00000000000000000000000                    00000095873352000168                     00
3410002300135A00000023700417 000000067546 6ANALISES CLINICAS SANTO INACIO197089              19022020REA000000000000000000000000027925                    00000000000000000000000                    00000003535069000108                     00
3410002300136A00000010404890 001300004295 4STEFANI BIRCKE PUTINHON       197235              19022020REA000000000000000000000000055473                    00000000000000000000000                    00000000042057880885                     00
3410002300137A00000013301075 000000011578 9ROSELI DA CRUZ KOBUS          197261              19022020REA000000000000000000000000054289                    00000000000000000000000                    00000000003570927911                     00
3410002300138A00000013301075 000000027769 0KARINE BOARETTO CAMPOS        197039              19022020REA000000000000000000000000019960                    00000000000000000000000                    00000024626117000143                     00
3410002300139A00000013301062 000000005590 5NERI DE BORBA                 197399              19022020REA000000000000000000000000036204                    00000000000000000000000                    00000000073524875904                     00
3410002300140A00000008900012 000001100671 4LUCIANE PACELLI NUNES         197365              19022020REA000000000000000000000000034409                    00000000000000000000000                    00000000011928583873                     00
3410002300141A00000008900003 000000201865 9SILVINO DE BIAZZI FILHO       197136              19022020REA000000000000000000000000250704                    00000000000000000000000                    00000012002353000100                     00
3410002300142A00000000100799 000000048442 3VIEIRA E LANCONICOMERCIO EM AL197267              19022020REA000000000000000000000000005804                    00000000000000000000000                    00000017506373000131                     00
3410002300143A00000013301003 000000014380 4DAIANE TOMAZETTO BERNARDI     197417              19022020REA000000000000000000000000299914                    00000000000000000000000                    00000028893656000108                     00
3410002300144A00000013301003 000000004779 1NADIR FRANCISCO PERONDI E CIA 197059              19022020REA000000000000000000000000689123                    00000000000000000000000                    00000004688117000160                     00
3410002300145A00000013301003 000000014238 7RICARDO SOUZA ACACIO          197118              19022020REA000000000000000000000000029362                    00000000000000000000000                    00000032678630000106                     00
3410002300146A00000010404222 000000000003 8NV  GS MEDICAMENTOS LTDA      197319              19022020REA000000000000000000000000004655                    00000000000000000000000                    00000008831172000119                     00
3410002300147A00000013301075 000000022364 6ALZIRA RENGEL ME              197413              19022020REA000000000000000000000000020736                    00000000000000000000000                    00000002897872000120                     00
3410002300148A00000013301003 000000004207 2SILVIA DE OLIVEIRA SANTO AUTOP197243              19022020REA000000000000000000000000014556                    00000000000000000000000                    00000006123354000100                     00
3410002300149A00000003303208 000001083899 5DAFNE DA COSTA ALMEIDA        197374              19022020REA000000000000000000000000056902                    00000000000000000000000                    00000000031082357880                     00
3410002300150A00000013301075 000000010179 6FREITAS MATERIAIS DE CONSTRUCA197035              19022020REA000000000000000000000000441476                    00000000000000000000000                    00000009356757000197                     00
3410002300151A00000013301075 000000025906 3PEDRO MOREIRA DE SOUZA        197060              19022020REA000000000000000000000000013649                    00000000000000000000000                    00000005980807000151                     00
3410002300152A00000013301003 000000011505 3CRISTIAN JUNIOR BELINI 0955134197263              19022020REA000000000000000000000000019450                    00000000000000000000000                    00000029975504000109                     00
3410002300153A00000013301075 000000009014 0FABIO DE CARVALHO PINTO       197334              19022020REA000000000000000000000000006679                    00000000000000000000000                    00000000011914453727                     00
3410002300154A00000013301075 000000014943 8NILTON POMMERENING            197306              19022020REA000000000000000000000000133617                    00000000000000000000000                    00000000068523238972                     00
3410002300155A00000003304268 000001000717 6ELISANGELA DA COLLINA FURLAN  197113              19022020REA000000000000000000000000066682                    00000000000000000000000                    00000000016479065808                     00
3410002300156A00000013301009 000000006384 3MIOTTO E ROSS RESTAURANTE E CA197020              19022020REA000000000000000000000000098069                    00000000000000000000000                    00000033566833000173                     00
3410002300157A00000013301003 000000014638 2EXCLUSIVA PNEUS E AUTO CENTER 197092              19022020REA000000000000000000000000376024                    00000000000000000000000                    00000033826693000125                     00
3410002300158A00000023701849 000000001358 7PORTAL GLASS INDUSTRIAL E COME197269              19022020REA000000000000000000000000069140                    00000000000000000000000                    00000016964735000175                     00
3410002300159A00000013301003 000000014536 0FRIGO E COLPANI LTDA          197339              19022020REA000000000000000000000000013310                    00000000000000000000000                    00000019086002000173                     00
3410002300160A00000013301003 000000004888 7ADEMIR PEREIRA DA SILVA E CIA 197277              19022020REA000000000000000000000000004795                    00000000000000000000000                    00000007354973000178                     00
3410002300161A00000013301075 000000016325 2JUAREZ CAPISTRANO             197046              19022020REA000000000000000000000000005835                    00000000000000000000000                    00000000072046465920                     00
3410002300162A00000013301075 000000027686 3AYRON CORREIA COMERCIO DE PRES197138              19022020REA000000000000000000000000107251                    00000000000000000000000                    00000029617720000182                     00
3410002300163A00000013301075 000000027123 3SICRET RISTOW TESKE           197221              19022020REA000000000000000000000000292629                    00000000000000000000000                    00000001421753000133                     00
3410002300164A00000026000001 000005324163 1NAIA CHAVES DE SOUSA PORTO    197389              19022020REA000000000000000000000000006769                    00000000000000000000000                    00000000000353625370                     00
3410002300165A00000013301003 000000014620 0TRANSPORTES DE PASSAGEIROS OLI197241              19022020REA000000000000000000000000036343                    00000000000000000000000                    00000006959809000121                     00
3410002300166A00000013301075 000000026360 5LEANDRO FERREIRA GUINCHO ME   197003              19022020REA000000000000000000000000029175                    00000000000000000000000                    00000012633409000124                     00
3410002300167A00000010400749 000000000834 3P W F T GUEDES PROMOCOES      196990              19022020REA000000000000000000000000307612                    00000000000000000000000                    00000004893646000104                     00
3410002300168A00000013301003 000000009793 4TIAGO JUNIOR RESTELATTO MIOLA 197202              19022020REA000000000000000000000000247763                    00000000000000000000000                    00000021767295000104                     00
3410002300169A00000010404942 001300000569 4ANTONIO MEIRA NETO            197013              19022020REA000000000000000000000000019050                    00000000000000000000000                    00000000002568127805                     00
3410002300170A00000013301003 000000006175 1S F GOLINSKI LTDA             197159              19022020REA000000000000000000000000065142                    00000000000000000000000                    00000020008973000184                     00
3410002300171A00000013301075 000000022862 1TED MARYNUS CONFECCOES LTDA   197422              19022020REA000000000000000000000000101283                    00000000000000000000000                    00000082855537000106                     00
3410002300172A00000013301075 000000009897 3RICARDO FORSRTER              197160              19022020REA000000000000000000000000030060                    00000000000000000000000                    00000000010835541908                     00
3410002300173A00000013301518 000000002227 6AURI GEWEHR                   197303              19022020REA000000000000000000000000028840                    00000000000000000000000                    00000000064388069949                     00
3410002300174A00000013301075 000000010280 6MADEIREIRA CALAO              197086              19022020REA000000000000000000000000087309                    00000000000000000000000                    00000017287231000120                     00
3410002300175A00000013301075 000000027689 8SEBASTIAO DA CRUZ             197205              19022020REA000000000000000000000000004863                    00000000000000000000000                    00000021009192000177                     00
3410002300176A00000023705386 000000016057 1LL ADRIANI LOCACAO EIRELI     197404              19022020REA000000000000000000000000091333                    00000000000000000000000                    00000033775915000128                     00
3410002300177A00000013301003 000000009582 6METALURGICA SALTO CAXIAS      197423              19022020REA000000000000000000000000003876                    00000000000000000000000                    00000074150319000130                     00
3410002300178A00000013301075 000000010335 7MATEUS RESTAURANTE E PIZZARIA 197198              19022020REA000000000000000000000000023026                    00000000000000000000000                    00000031139441000100                     00
3410002300179A00000013301502 000000009893 0GILBERTO DALBERTI LTDA        197428              19022020REA000000000000000000000000074287                    00000000000000000000000                    00000015085011000199                     00
3410002300180A00000013301003 000000014675 7JERUSA ALBERTON ASSMANN       197298              19022020REA000000000000000000000000097677                    00000000000000000000000                    00000003893571000190                     00
3410002300181A00000023702831 000000032144 3LL ANDRIANI                   197291              19022020REA000000000000000000000000162133                    00000000000000000000000                    00000012662553000199                     00
3410002300182A00000013301003 000000014800 8LUTERO JOAO DA MOTTA          197270              19022020REA000000000000000000000000013996                    00000000000000000000000                    00000005841347000180                     00
3410002300183A00000013301003 000000009946 5FRANCIELE ZANARDI DEFAVERI    197366              19022020REA000000000000000000000000007707                    00000000000000000000000                    00000000004894856930                     00
3410002300184A00000013301588 000000019079 9ALTAIR VALENTIM SILVA         197349              19022020REA000000000000000000000000019936                    00000000000000000000000                    00000000006629134931                     00
3410002300185A00000026000001 000071128234 0RENATO LOPES DE PAULA         197362              19022020REA000000000000000000000000233819                    00000000000000000000000                    00000000002942683163                     00
3410002300186A00000008900003 000000201990 6TIAGO HENRIQUE MENGALI        197157              19022020REA000000000000000000000000184114                    00000000000000000000000                    00000012149895000100                     00
3410002300187A00000013301003 000000004315 0D M PANISSON TRANSPORTES EIREL197292              19022020REA000000000000000000000000106337                    00000000000000000000000                    00000020726483000113                     00
3410002300188A00000013301588 000000010696 8EDESIO BUSNARDO               197400              19022020REA000000000000000000000000009885                    00000000000000000000000                    00000008724989000198                     00
3410002300189A00000013301075 000000025728 1ELOIZA FARIAS                 197064              19022020REA000000000000000000000000014527                    00000000000000000000000                    00000000008120312961                     00
3410002300190A00000013301075 000000027162 4PAULO CRISTINA MEI            197353              19022020REA000000000000000000000000008782                    00000000000000000000000                    00000023231907000167                     00
3410002300191A00000013301003 000000014242 5CM COMERCIO DE PECAS IMPLEMENT197387              19022020REA000000000000000000000000122492                    00000000000000000000000                    00000007043675000167                     00
3410002300192A00000013301003 000000004069 0R E CONFECCOES LTDA ME        197330              19022020REA000000000000000000000000160216                    00000000000000000000000                    00000019802468000128                     00
3410002300193A00000013301009 000000006377 0PAULO FERDINANDO FERREIRA     197331              19022020REA000000000000000000000000130491                    00000000000000000000000                    00000015726900000198                     00
3410002300194A00000013301075 000000026683 3JULIO CEZAR DE AVILA          197233              19022020REA000000000000000000000000037670                    00000000000000000000000                    00000017385690000147                     00
3410002300195A00000013301075 000000007971 5JULIA BORBA ROCHA ME          197401              19022020REA000000000000000000000000153752                    00000000000000000000000                    00000014775306000124                     00
3410002300196A00000013301009 000000005772 0CARLOS C DA COSTA CONFECCOES  197032              19022020REA000000000000000000000000006999                    00000000000000000000000                    00000029908151000124                     00
3410002300197A00000065500655 000004534682 8NAJLA THAISA BORGES TORRES    197004              19022020REA000000000000000000000000064770                    00000000000000000000000                    00000000003000857109                     00
3410002300198A00000013301003 000000014606 4ARTEFATOS DE CIMENTO LUNEL LTD197096              19022020REA000000000000000000000000003696                    00000000000000000000000                    00000009066203000155                     00
3410002300199A00000013301075 000000016886 6VALDIR ROLING E CIA LTDA      197367              19022020REA000000000000000000000000075536                    00000000000000000000000                    00000001941213000180                     00
3410002300200A00000013301075 000000029040 8MARILI SALVADOR               197275              19022020REA000000000000000000000000100452                    00000000000000000000000                    00000031524799000149                     00
3410002300201A00000000100048 000000161751 6RICARDO BASSANI               196977              19022020REA000000000000000000000000165519                    00000000000000000000000                    00000000099854872149                     00
3410002300202A00000010400615 000000021060 0NATALIA DE SOUZA FERREIRA     196974              19022020REA000000000000000000000000009618                    00000000000000000000000                    00000000002451579137                     00
3410002300203A00000013301075 000000009748 9PICO DA VILA LANCHES BAR      197126              19022020REA000000000000000000000000025200                    00000000000000000000000                    00000010412787000152                     00
3410002300204A00000013301075 000000029207 9JOSE CARLOS DE MELO           197152              19022020REA000000000000000000000000009737                    00000000000000000000000                    00000034118204000143                     00
3410002300205A00000013301003 000000014981 0CRISTIANA SILVA VARELA        197325              19022020REA000000000000000000000000017931                    00000000000000000000000                    00000018106143000148                     00
3410002300206A00000013301003 000000009546 0FAVERO E BORTOLIN FISIOTERAPIA197284              19022020REA000000000000000000000000313894                    00000000000000000000000                    00000032415298000197                     00
3410002300207A00000013301075 000000029251 6IATAN PICKLER                 197186              19022020REA000000000000000000000000002918                    00000000000000000000000                    00000000009582934905                     00
3410002300208A00000013301003 000000005950 1ALVARO FERREIRA DE SOUZA E CIA197179              19022020REA000000000000000000000000007180                    00000000000000000000000                    00000002816859000107                     00
3410002300209A00000023700393 000000070245 5ADALBERTO AMEROSIN            197350              19022020REA000000000000000000000000081202                    00000000000000000000000                    00000000014987059878                     00
3410002300210A00000000102194 000000006738 5ANDRE PERUGINI                197130              19022020REA000000000000000000000000026872                    00000000000000000000000                    00000000047995050682                     00
3410002300211A00000000102194 000000021657 7HOTEL FILHOS DE GANDHI LTDA   196975              19022020REA000000000000000000000000023473                    00000000000000000000000                    00000022552673000197                     00
3410002300212A00000010400920 000000021289 6PK COMERCIO DE COLCOES LTDA   197145              19022020REA000000000000000000000000007157                    00000000000000000000000                    00000012446564000131                     00
3410002300213A00000013301003 000000014787 7FARMACIA COLINA DOIS VIZINHOS 197120              19022020REA000000000000000000000000016037                    00000000000000000000000                    00000027212030000118                     00
3410002300214A00000013301003 000000014946 2CORADELLI E CORADELLI PRESENTE197332              19022020REA000000000000000000000000013579                    00000000000000000000000                    00000010798133000109                     00
3410002300215A00000013301075 000000010029 3JAISON ARCENO DA SILVA MEI    197171              19022020REA000000000000000000000000033722                    00000000000000000000000                    00000030404012000142                     00
3410002300216A00000074800913 000000058641 2LOTUS SUPRIMENTOS PARA COMUNIC197293              19022020REA000000000000000000000000034918                    00000000000000000000000                    00000006322776000104                     00
3410002300217A00000000107114 000000013705 7MARCOS VINICIUS LOPES DE PAULA197054              19022020REA000000000000000000000000009159                    00000000000000000000000                    00000000000674059166                     00
3410002300218A00000013301003 000000004821 6GENIR HELLSTROM PETRI         197188              19022020REA000000000000000000000000007780                    00000000000000000000000                    00000000078253551991                     00
3410002300219A00000013301009 000000006108 5MARIANI DIAS                  197405              19022020REA000000000000000000000000028244                    00000000000000000000000                    00000027102728000180                     00
3410002300220A00000013301075 000000016752 5ALAMEDA AGROPECUARIA LTDA     197070              19022020REA000000000000000000000000050327                    00000000000000000000000                    00000029262472000102                     00
3410002300221A00000013301620 000000006411 4JOSE ANTONIO FERREIRA CURADO  197431              19022020REA000000000000000000000000007099                    00000000000000000000000                    00000000001152533940                     00
3410002300222A00000003303737 000013003938 9CLINICA MEDICA E ODONTOLOGICA 197406              19022020REA000000000000000000000000011041                    00000000000000000000000                    00000031570751000177                     00
3410002300223A00000010400749 000000000905 6FRANCISCO VALDIR CHAVES       197107              19022020REA000000000000000000000000154690                    00000000000000000000000                    00000023560519000120                     00
3410002300224A00000013301075 000000021812 0LAVACAO E BORRACHARIA DOIS IRM196991              19022020REA000000000000000000000000033320                    00000000000000000000000                    00000079817037000167                     00
3410002300225A00000013301058 000000009045 0J A TEIXEIRA BARANCELLI RESTAU197369              19022020REA000000000000000000000000088476                    00000000000000000000000                    00000006143819000194                     00
3410002300226A00000013301003 000000004568 3DBORBA METALURGICA LTDA       197134              19022020REA000000000000000000000000089977                    00000000000000000000000                    00000019272827000182                     00
3410002300227A00000013301003 000000003269 7LEONILDA BONETE BRANDAO       197246              19022020REA000000000000000000000000002960                    00000000000000000000000                    00000000002265585920                     00
3410002300228A00000010400749 001300002175 4MISSILENE ALMEIDA DE OLIVEIRA 197135              19022020REA000000000000000000000000153589                    00000000000000000000000                    00000000000456141308                     00
3410002300229A00000013301075 000000029377 6VERA MERIANE DE SOUZA FERREIRA196998              19022020REA000000000000000000000000042927                    00000000000000000000000                    00000029443933000135                     00
3410002300230A00000013301003 000000014545 9CENTRO DE FORMACAO DE CONDUTOR197336              19022020REA000000000000000000000000096903                    00000000000000000000000                    00000010575109000100                     00
3410002300231A00000013301009 000000006537 4VALERIO JOSE GONCALVES        197257              19022020REA000000000000000000000000030731                    00000000000000000000000                    00000027360800000170                     00
3410002300232A00000013301668 000000005029 6RENATO CESAR CORREA           197030              19022020REA000000000000000000000000031814                    00000000000000000000000                    00000026541291000119                     00
3410002300233A00000013301668 000000006064 0L Z BRILHAR ECO PISCINAS EIREL197153              19022020REA000000000000000000000000083081                    00000000000000000000000                    00000023205574000100                     00
3410002300234A00000013301075 000000010148 6ELIEZER MARTINS SONANIOTTO    197402              19022020REA000000000000000000000000063252                    00000000000000000000000                    00000027868442000100                     00
3410002300235A00000013301075 000000028644 3PATRICIA MARIA SALVADOR ME    197228              19022020REA000000000000000000000000030336                    00000000000000000000000                    00000033546377000108                     00
3410002300236A00000023700023 000000253043 0ODA JAPANESE FOOD RESTAURANTE 197363              19022020REA000000000000000000000001638666                    00000000000000000000000                    00000017276511000133                     00
3410002300237A00000013301075 000000029178 1SELIO JOSE DAS NEVES          197189              19022020REA000000000000000000000000022319                    00000000000000000000000                    00000032886702000100                     00
3410002300238A00000013301620 000000014915 2RA COMERCIO DE MEDICAMENTOS   197191              19022020REA000000000000000000000000089199                    00000000000000000000000                    00000003783356000137                     00
3410002300239A00000013301003 000000014831 8NILVA MARLI FIORESE SAGGIORATT197347              19022020REA000000000000000000000000022889                    00000000000000000000000                    00000009025741000100                     00
3410002300240A00000013301062 000000015112 2SOLANGI VITORETI BARANOSWKI   197014              19022020REA000000000000000000000000122810                    00000000000000000000000                    00000034320260000166                     00
3410002300241A00000000103570 000000025601 3SOUVIE COMERCIO INDUSTRIA IMPO197165              19022020REA000000000000000000000000942963                    00000000000000000000000                    00000012226852000180                     00
3410002300242A00000013301009 000000003356 1EVERSON CHIOCHETA E CIA       197026              19022020REA000000000000000000000000046997                    00000000000000000000000                    00000004203553000100                     00
3410002300243A00000013301503 000000004756 2JANETE LANG                   197226              19022020REA000000000000000000000000003696                    00000000000000000000000                    00000021132819000182                     00
3410002300244A00000013301610 000000006217 0ANTONIO BITENCOURT MATIAS     197128              19022020REA000000000000000000000000024010                    00000000000000000000000                    00000000064701875953                     00
3410002300245A00000013301058 000000006576 5ROSANGELA APARECIDA COREA PINT197312              19022020REA000000000000000000000000017080                    00000000000000000000000                    00000012950165000103                     00
3410002300246A00000013301009 000000009154 5VERA LUCIA CARNEIRO GUEDES    197345              19022020REA000000000000000000000000010181                    00000000000000000000000                    00000034489472000171                     00
3410002300247A00000013301009 000000006374 6CELLA E SILVA                 197388              19022020REA000000000000000000000000053689                    00000000000000000000000                    00000028091229000106                     00
3410002300248A00000013301075 000000029523 0ONE ACADEMIA DE CONDICIONAMENT197040              19022020REA000000000000000000000000069649                    00000000000000000000000                    00000018556009000149                     00
3410002300249A00000000104992 000000012185 1ASSOCIACAO MISSIONARIA ASSEMBL197085              19022020REA000000000000000000000000009611                    00000000000000000000000                    00000028952444000146                     00
3410002300250A00000013301075 000000029453 5JACKSON VEICULOS              197313              19022020REA000000000000000000000000060000                    00000000000000000000000                    00000027450702000123                     00
3410002300251A00000013301062 000000005191 8GEVERSON BERGAMO              197288              19022020REA000000000000000000000000073735                    00000000000000000000000                    00000000008428513996                     00
3410002300252A00000013301003 000000015024 0ELIZANDRA DA SILVA            197258              19022020REA000000000000000000000000113526                    00000000000000000000000                    00000000003294406916                     00
3410002300253A00000013301075 000000020517 6IVANIR TEREZINHA RICARDO BAUMG197075              19022020REA000000000000000000000000007819                    00000000000000000000000                    00000017545367000193                     00
3410002300254A00000023701945 000000003283 2MERCURIO VIAGENS E TURISMO LTD197125              19022020REA000000000000000000000000057377                    00000000000000000000000                    00000007375508000113                     00
3410002300255A00000013301075 000000029531 0ELETRO SOLUCOES               197408              19022020REA000000000000000000000000020062                    00000000000000000000000                    00000015549325000103                     00
3410002300256A00000013301003 000000004340 0LOVENI SCHUG                  197311              19022020REA000000000000000000000000007294                    00000000000000000000000                    00000026896430000127                     00
3410002300257A00000013301075 000000029483 7JAIR MANOEL DA SILVEIRA       197304              19022020REA000000000000000000000000012983                    00000000000000000000000                    00000000069069158949                     00
3410002300258A00000075603167 000000001325 0MARCIANA CUSTODIO DOS SANTOS  197337              19022020REA000000000000000000000000027653                    00000000000000000000000                    00000015049654000187                     00
3410002300259A00000013301033 000000014211 5S APOLINARIO OLIBONI E CIA    197154              19022020REA000000000000000000000000004279                    00000000000000000000000                    00000032743597000150                     00
3410002300260A00000013301609 000000009645 8P2M LAVANDERIA LTDA ME        197382              19022020REA000000000000000000000000012832                    00000000000000000000000                    00000007118530000188                     00
3410002300261A00000000109964 000000000228 3THESS MEX COMERCIO DE ALIMENTO197021              19022020REA000000000000000000000000002913                    00000000000000000000000                    00000033241748000135                     00
3410002300262A00000013301003 000000004974 3WISOSKI E SPIASSI             197229              19022020REA000000000000000000000000009725                    00000000000000000000000                    00000078103876000150                     00
3410002300263A00000013301609 000000027693 6MERCADO FERNANDES E SOUZA     197123              19022020REA000000000000000000000000044176                    00000000000000000000000                    00000029062121000140                     00
3410002300264A00000023701918 000000017151 4NATALIA PEREIRA FERNANDES 3988197073              19022020REA000000000000000000000000175211                    00000000000000000000000                    00000034589412000120                     00
3410002300265A00000013301075 000000021964 9COMERCIO DE MALHAS AMANDA     197274              19022020REA000000000000000000000000036149                    00000000000000000000000                    00000080421738000161                     00
3410002300266A00000013301009 000000009182 0ZANETTI E SCHWADE             197093              19022020REA000000000000000000000000101973                    00000000000000000000000                    00000001228198000128                     00
3410002300267A00000013301584 000000007716 0ANDREZA FRANCA CRESPI         197411              19022020REA000000000000000000000000018478                    00000000000000000000000                    00000000010672903970                     00
3410002300268A00000075603256 000000002823 1RODRIGO LUCAS DANTAS          197320              19022020REA000000000000000000000000086068                    00000000000000000000000                    00000027789955000126                     00
3410002300269A00000013301075 000000029580 9ELIAS DORVAL VIEIRA           197222              19022020REA000000000000000000000000026258                    00000000000000000000000                    00000034239618000120                     00
3410002300270A00000013301003 000000015266 8MARCIA DE FATIMA CALGAROTTO CO197409              19022020REA000000000000000000000000185309                    00000000000000000000000                    00000010283209000163                     00
3410002300271A00000013301003 000000011523 1ANTONIO ALVES                 197260              19022020REA000000000000000000000000029162                    00000000000000000000000                    00000012553297000100                     00
3410002300272A00000013301003 000000009662 8VICTOR HUGO DE SOUZA DISTRIBUI197285              19022020REA000000000000000000000000029103                    00000000000000000000000                    00000032740457000129                     00
3410002300273A00000023706326 000000006804 7JOSE ALBERTO MARTINS NOVAIS BA197008              19022020REA000000000000000000000000323526                    00000000000000000000000                    00000026758357000127                     00
3410002300274A00000003303554 000013000683 0BELLA PETROPOLIS PADARIA E CON197112              19022020REA000000000000000000000003418289                    00000000000000000000000                    00000006949388000158                     00
3410002300275A00000013301075 000000010126 5MARIA DE SENA LOPES           197326              19022020REA000000000000000000000000004765                    00000000000000000000000                    00000000091584469900                     00
3410002300276A00000000104206 000000017204 9CENTRO MEDICO DE RIBEIRAO PRET197180              19022020REA000000000000000000000000024716                    00000000000000000000000                    00000056014871000119                     00
3410002300277A00000013301075 000000029265 6DANTAS SAMARY COMERCIO AGRICOL197216              19022020REA000000000000000000000000408234                    00000000000000000000000                    00000010275685000132                     00
3410002300278A00000013301003 000000009906 6JB MATERIAIS ELETRICOS LTDA ME197047              19022020REA000000000000000000000000274582                    00000000000000000000000                    00000001965594000138                     00
3410002300279A00000013301593 000000029414 4VANDERLEI PINHEIRO            197271              19022020REA000000000000000000000000017390                    00000000000000000000000                    00000000000106326970                     00
3410002300280A00000010404053 000000002535 0NELMA MORAIS DE AZEVEDO       197321              19022020REA000000000000000000000000074277                    00000000000000000000000                    00000000618825000174                     00
3410002300281A00000013301075 000000029717 8GUSTAVO GOULART SILVEIRA      197265              19022020REA000000000000000000000000009701                    00000000000000000000000                    00000029519703000102                     00
3410002300282A00000074800333 000000075909 0LORI PEDRO SARTURI CASAROTTO  197137              19022020REA000000000000000000000000009429                    00000000000000000000000                    00000010732588000121                     00
3410002300283A00000010400749 000000000693 6JOSE ALVES FILHO CONSTRUCAO   197230              19022020REA000000000000000000000000006524                    00000000000000000000000                    00000010842709000198                     00
3410002300284A00000013301003 000000015308 7ANTONIO CARLOS DOS SANTOS O CO197071              19022020REA000000000000000000000000043302                    00000000000000000000000                    00000013239007000102                     00
3410002300285A00000000101022 000000039420 3OSWALDO DE NUNES BRITO JUNIOR 197375              19022020REA000000000000000000000000017964                    00000000000000000000000                    00000023049262000146                     00
3410002300286A00000008900006 000000502498 6YAVINI NOBREGA CANO 4848057981196999              19022020REA000000000000000000000000100454                    00000000000000000000000                    00000034833639000170                     00
3410002300287A00000013301009 000000006368 1FATIMA CATARINA BASSO         197341              19022020REA000000000000000000000000030000                    00000000000000000000000                    00000000037078437934                     00
3410002300288A00000013301075 000000029655 4LANCHONETE CLAUDETE LTDA      197240              19022020REA000000000000000000000000248972                    00000000000000000000000                    00000033145407000166                     00
3410002300289A00000003301229 000013000644 8LA NOTRE COUSINE LTDA         197072              19022020REA000000000000000000000000037918                    00000000000000000000000                    00000021675847000146                     00
3410002300290A00000013301075 000000029765 8MARILETE PAUL STEIN           197061              19022020REA000000000000000000000000004279                    00000000000000000000000                    00000019959471000150                     00
3410002300291A00000023702621 000000030652 5HIGIENOPOLIS ROTISSERIE E CONE197080              19022020REA000000000000000000000000844401                    00000000000000000000000                    00000011579530000152                     00
3410002300292A00000010403868 000003000308 8BATERIAS S N LTDA             197281              19022020REA000000000000000000000000159808                    00000000000000000000000                    00000007861844000176                     00
3410002300293A00000013301003 000000011453 7GESSO DOIS VIZINHOS           197190              19022020REA000000000000000000000000122879                    00000000000000000000000                    00000012824254000103                     00
3410002300294A00000013301078 000000029762 3SIDNEI DE OLIVEIRA LEAL       197322              19022020REA000000000000000000000000016581                    00000000000000000000000                    00000000084299576934                     00
3410002300295A00000013301075 000000029741 0LUIZ FERNANDO RONCALIO        197368              19022020REA000000000000000000000000022821                    00000000000000000000000                    00000078877073000153                     00
3410002300296A00000013301003 000000006193 0MARCIA RAITZ                  197244              19022020REA000000000000000000000000020322                    00000000000000000000000                    00000030697554000150                     00
3410002300297A00000000101724 000000008044 6PAULO RANGEL DA COSTA SANTOS  197169              19022020REA000000000000000000000000009684                    00000000000000000000000                    00000000004077127556                     00
3410002300298A00000013301009 000000005768 1KREMER E KUNTZ LTDA           197289              19022020REA000000000000000000000000102240                    00000000000000000000000                    00000002910574000122                     00
3410002300299A00000013301581 000000029825 5GILBERTO SMANIOTI             197141              19022020REA000000000000000000000000007385                    00000000000000000000000                    00000000003222482993                     00
3410002300300A00000013301009 000000009242 8ALCEU DUARTE                  197148              19022020REA000000000000000000000000004328                    00000000000000000000000                    00000017704896000192                     00
3410002300301A00000013301003 000000015140 8DIANE PILONETTO               197162              19022020REA000000000000000000000000026417                    00000000000000000000000                    00000028241670000119                     00
3410002300302A00000013301009 000000006789 0ADRIANGELA OLIVO              196994              19022020REA000000000000000000000000007182                    00000000000000000000000                    00000000008595430993                     00
3410002300303A00000013301075 000000029793 3KEILA STEFANE KNUPFER         197397              19022020REA000000000000000000000000001653                    00000000000000000000000                    00000022401334000100                     00
3410002300304A00000023706748 000000017759 8FERNANDO APARECIDO AFONSO     197098              19022020REA000000000000000000000000007180                    00000000000000000000000                    00000000003091229963                     00
3410002300305A00000013301009 000000009284 3ROSANI DE OLIVEIRA            197279              19022020REA000000000000000000000000015560                    00000000000000000000000                    00000034776712000119                     00
3410002300306A00000013301075 000000016034 2MARCIA HINTAMNN KUSTER        197199              19022020REA000000000000000000000000020122                    00000000000000000000000                    00000009157257000126                     00
3410002300307A00000010400570 001300018690 4FRANCIELLI DOS SANTOS ROSA    197009              19022020REA000000000000000000000000036947                    00000000000000000000000                    00000000007631517932                     00
3410002300308A00000023701992 000000041167 1CONFEITARIA E CONVENIENCIAS DO197393              19022020REA000000000000000000000000689852                    00000000000000000000000                    00000025370152000107                     00
3410002300309A00000013301009 000000009194 4GUARNIERI E GARNIERI LTDA     197139              19022020REA000000000000000000000000070000                    00000000000000000000000                    00000019570611000101                     00
3410002300310A00000013301009 000000003568 8ANDRELINA CARNEIRO ROA        197315              19022020REA000000000000000000000000007959                    00000000000000000000000                    00000016582141000108                     00
3410002300311A00000013301018 000000015453 9ELLEN BURILLE DE OLIVEIRA     197087              19022020REA000000000000000000000000047532                    00000000000000000000000                    00000034984451000122                     00
3410002300312A00000010400936 000300003212 7KATIA FERNANDA BAPTISTA 049489197052              19022020REA000000000000000000000000150764                    00000000000000000000000                    00000026225230000142                     00
3410002300313A00000075603125 000002130346 0SILVIO CESAR BIAZOTO          197346              19022020REA000000000000000000000000072086                    00000000000000000000000                    00000009330719000165                     00
3410002300314A00000013301075 000000029706 2ALISSON JONATHAN CORDEIRO DA C197264              19022020REA000000000000000000000000001945                    00000000000000000000000                    00000031911206000105                     00
3410002300315A00000013301608 000000028756 3LOURDES SOM E PRESENTES       197155              19022020REA000000000000000000000000025069                    00000000000000000000000                    00000082723750000156                     00
3410002300316A00000013301075 000000012978 0LAURA GOLL                    197358              19022020REA000000000000000000000000015220                    00000000000000000000000                    00000000072814772953                     00
3410002300317A00000013301075 000000027620 0MARILEUSA JANETE LOPES DE SOUZ197176              19022020REA000000000000000000000000050702                    00000000000000000000000                    00000000001548898902                     00
3410002300318A00000013301620 000000006482 3VITORIA LIVRARIA E PAPELARIA L197163              19022020REA000000000000000000000000219984                    00000000000000000000000                    00000019005850000100                     00
3410002300319A00000013301009 000000009322 0FRANCIELE MANICA HOINATZ      197323              19022020REA000000000000000000000000040505                    00000000000000000000000                    00000025355303000158                     00
3410002300320A00000013301009 000000005870 0JOSELEI TRIPPE                197121              19022020REA000000000000000000000000005336                    00000000000000000000000                    00000029344792000101                     00
3410002300321A00000013301075 000000016154 3VALTAMIR ALTHOFF              197036              19022020REA000000000000000000000000029175                    00000000000000000000000                    00000028596197000192                     00
3410002300322A00000013301003 000000015247 1MITRA DIOCESANA DE PARANAVAI  197380              19022020REA000000000000000000000000005835                    00000000000000000000000                    00000075476796002791                     00
3410002300323A00000023702302 000000004100 9TRADICAO DISTRIBUIDORA DE PERS197037              19022020REA000000000000000000000004052480                    00000000000000000000000                    00000074534819000175                     00
3410002300324A00000013301003 000000015590 0TURCA BRASIL ALIMENTICIOS     197170              19022020REA000000000000000000000000072102                    00000000000000000000000                    00000031330249000199                     00
3410002300325A00000013301003 000000015386 9MARISETE ERHARDT              197095              19022020REA000000000000000000000000005446                    00000000000000000000000                    00000033805890000168                     00
3410002300326A00000010400037 000100039133 6JANAINA AGOSTINHO DE MELO     197355              19022020REA000000000000000000000000218994                    00000000000000000000000                    00000000001224481461                     00
3410002300327A00000013301075 000000028399 1BSM BELLODENT ODONTOLOGIA     197068              19022020REA000000000000000000000000028282                    00000000000000000000000                    00000033012622000199                     00
3410002300328A00000013301075 000000008069 1JUCIMARA HORSTMANN JOAO       197360              19022020REA000000000000000000000000012611                    00000000000000000000000                    00000019495868000138                     00
3410002300329A00000013301075 000000030127 2DAVI HINCKEL                  197081              19022020REA000000000000000000000000021327                    00000000000000000000000                    00000000056410565968                     00
3410002300330A00000013301075 000000030056 0JOSE MARCUS MARKOSCKI EPP     197099              19022020REA000000000000000000000000003637                    00000000000000000000000                    00000012904805000149                     00
3410002300331A00000013301075 000000009920 1SANTAS SAMARY COMERCIO AGRICOL197177              19022020REA000000000000000000000000211874                    00000000000000000000000                    00000010275685000213                     00
3410002300332A00000013301075 000000006105 0ASSOCIACAO DE PAIS E AMIGOS DO197166              19022020REA000000000000000000000000023370                    00000000000000000000000                    00000080987829000169                     00
3410002300333A00000013301075 000000010472 8MARCIONEI TOMAZELI BAR E MERCE197124              19022020REA000000000000000000000000059904                    00000000000000000000000                    00000076567957000186                     00
3410002300334A00000010404048 000300000693 6MOSAICO COMERCIAL E SERVICOS L197122              19022020REA000000000000000000000000080684                    00000000000000000000000                    00000061051942000193                     00
3410002300335A00000013301003 000000015644 2ARUA MOVEIS E CONFECCOES LTDA 197282              19022020REA000000000000000000000000010170                    00000000000000000000000                    00000076748169000196                     00
3410002300336A00000013301075 000000010643 7AGROPECUARIA E COMERCIO GG    197200              19022020REA000000000000000000000000010985                    00000000000000000000000                    00000003766539000144                     00
3410002300337A00000074808043 000000052893 5RAFA CALCADOS LTDA            197376              19022020REA000000000000000000000000479367                    00000000000000000000000                    00000003490162000143                     00
3410002300338A00000013301003 000000008546 4CONSTRULAR MADEIRAS LTDA ME   196982              19022020REA000000000000000000000000012276                    00000000000000000000000                    00000011307952000179                     00
3410002300339A00000013301075 000000030144 2MADALENA HEREK SILVIERO       197104              19022020REA000000000000000000000000056129                    00000000000000000000000                    00000000075835576900                     00
3410002300340A00000013301075 000000016049 0AGROPECUARIA ESSER            197256              19022020REA000000000000000000000000009570                    00000000000000000000000                    00000022134785000128                     00
