34100000      081222347623000178                    06248 000000045232 5CELER PAGAMENTOS              Itau Unibanco S.A                       12102202000000000000000                                                                           
34100011C9801040 222347623000178                    06248 000000045232 5CELER PAGAMENTOS                                                                                   00000                                   00000000                     
3410001300001A00000034108789 000000049434 4TABARATO INDUSTRIA E COMERCIO 201718              21022020REA000000000000000000000000026388                    00000000000000000000000                    00000017059837000290                     00
3410001300002A00000034101378 000000030394 3THAYNARA ROCHA LIMA           201716              21022020REA000000000000000000000000002910                    00000000000000000000000                    00000000002935433130                     00
3410001300003A00000034100059 000000078359 7ADMINISTRADORA DE CARTAO DE TO201456              21022020REA000000000000000000000000094873                    00000000000000000000000                    00000011487917000189                     00
3410001300004A00000034101589 000000035930 4ALINE LAMUNIER DE PAULA SILVA 201586              21022020REA000000000000000000000000006389                    00000000000000000000000                    00000031131123000195                     00
3410001300005A00000034100364 000000035059 5MARCIO FERNANDO PEDROSA VERAS 201353              21022020REA000000000000000000000000094013                    00000000000000000000000                    00000000002298215456                     00
3410001300006A00000034102746 000000025961 9MARIA APARECIDA LAURINDA DA SI201687              21022020REA000000000000000000000000099620                    00000000000000000000000                    00000020959355000110                     00
3410001300007A00000034102746 000000029168 7CARTAO DE DESCONTOS DE PARNAMI201468              21022020REA000000000000000000000000002378                    00000000000000000000000                    00000031830018000144                     00
3410001300008A00000034108895 000000036292 2AMORSAUDE CLINICA MEDICA E ODO201352              21022020REA000000000000000000000000327014                    00000000000000000000000                    00000030280982000183                     00
3410001300009A00000034106519 000000015554 0VENDA NOVA ADM DE CARTOES LTDA201483              21022020REA000000000000000000000000007253                    00000000000000000000000                    00000012989806000133                     00
3410001300010A00000034100672 000000008708 7ADMINISTRADORA DE CARTAO DE TO201506              21022020REA000000000000000000000000002428                    00000000000000000000000                    00000025130983000101                     00
3410001300011A00000034100215 000000042080 3MARMORARIA TARDOC LTDA ME     201354              21022020REA000000000000000000000000111425                    00000000000000000000000                    00000002968921000178                     00
3410001300012A00000034100066 000000004343 1HOSPITAL SANTA PAULA          201570              21022020REA000000000000000000000000344527                    00000000000000000000000                    00000060777901000116                     00
3410001300013A00000034108895 000000036284 9AMORSAUDE BETIM CLINICA MEDICA201552              21022020REA000000000000000000000000083505                    00000000000000000000000                    00000030280982000183                     00
3410001300014A00000034109173 000000005032 0APARECIDO LUCIANO CASTAGNA ME 201626              21022020REA000000000000000000000000079399                    00000000000000000000000                    00000007503635000150                     00
3410001300015A00000034100215 000000033511 8BONFIM E SOUZA COMERCIO DE MAT201325              21022020REA000000000000000000000000173711                    00000000000000000000000                    00000006310047000138                     00
3410001300016A00000034109069 000000014300 7ROBERTA MURCIA ANTONIASSI     201323              21022020REA000000000000000000000000014505                    00000000000000000000000                    00000020296177000194                     00
3410001300017A00000034107011 000000008564 9SERGIO JORCELIO DE SA TORRES  201316              21022020REA000000000000000000000000022139                    00000000000000000000000                    00000000038960249149                     00
3410001300018A00000034101640 000000048969 4JBL CONSULTORIA DE MEIOS DE PA201436              21022020REA000000000000000000000000004273                    00000000000000000000000                    00000032527339000137                     00
3410001300019A00000034100002 000000035253 2THIAGO MOREIRA ANDRE          201754              21022020REA000000000000000000000000149369                    00000000000000000000000                    00000003424849000180                     00
3410001300020A00000034108615 000000099635 5MARIA SALETE GOMES SALES      201812              21022020REA000000000000000000000000015768                    00000000000000000000000                    00000013527316000188                     00
3410001300021A00000034100002 000000035253 2LUCAS FERREIRA MAGALHAES      201809              21022020REA000000000000000000000000046013                    00000000000000000000000                    00000003424849000180                     00
3410001300022A00000034100002 000000035253 2EDIMILSON CAMARGO             201656              21022020REA000000000000000000000000007784                    00000000000000000000000                    00000003424849000180                     00
3410001300023A00000034100002 000000035253 2ALEXANDRE RAMOS               201694              21022020REA000000000000000000000000114190                    00000000000000000000000                    00000003424849000180                     00
3410001300024A00000034100792 000000063933 8EDUSA INDUSTRIAL DE ACOS LTDA 201542              21022020REA000000000000000000000000035000                    00000000000000000000000                    00000067565093000172                     00
3410001300025A00000034100002 000000035253 2A  G COSMETICOS LTDA          201597              21022020REA000000000000000000000000098307                    00000000000000000000000                    00000003424849000180                     00
3410001300026A00000034100002 000000035253 2CLEBER PEDROSO VIANA 383094848201499              21022020REA000000000000000000000000052503                    00000000000000000000000                    00000003424849000180                     00
3410001300027A00000034100002 000000035253 2COMMIL COMERCIO E SERVICOS LTD201359              21022020REA000000000000000000000000092688                    00000000000000000000000                    00000003424849000180                     00
3410001300028A00000034100002 000000035253 2MICHELLE PEREIRA RAPINI 216315201578              21022020REA000000000000000000000000017646                    00000000000000000000000                    00000003424849000180                     00
3410001300029A00000034107957 000000028895 9JACKSON FERREIRA DA SILVA     201689              21022020REA000000000000000000000000013502                    00000000000000000000000                    00000000001530354129                     00
3410001300030A00000034100002 000000035253 2DIEGO RICARDO ZAGO  COSMETICOS201388              21022020REA000000000000000000000000055921                    00000000000000000000000                    00000003424849000180                     00
3410001300031A00000034100002 000000035253 2PAULO PEREIRA JUNIOR          201658              21022020REA000000000000000000000000003542                    00000000000000000000000                    00000003424849000180                     00
3410001300032A00000034100002 000000035253 2COMERCIAL DE COSMETICOS BELEZA201440              21022020REA000000000000000000000000016531                    00000000000000000000000                    00000003424849000180                     00
3410001300033A00000034108549 000000005501 3ADRIANA MITIKO HACHIMOTO      201514              21022020REA000000000000000000000000006373                    00000000000000000000000                    00000000017365587814                     00
3410001300034A00000034100002 000000035253 2JR COSMETICOS  E REPRESENTACAO201579              21022020REA000000000000000000000000342740                    00000000000000000000000                    00000003424849000180                     00
3410001300035A00000034100002 000000035253 2NETWORK BEAUTY  FASHION COSMET201778              21022020REA000000000000000000000000025509                    00000000000000000000000                    00000003424849000180                     00
3410001300036A00000034108015 000000004423 6AARAN INDUSTRIA E COMERCIO DE 201692              21022020REA000000000000000000000000057618                    00000000000000000000000                    00000000229392000165                     00
3410001300037A00000034100690 000000025726 6ANTONIO DONIZET DA SILVA      201319              21022020REA000000000000000000000000035524                    00000000000000000000000                    00000000074621629891                     00
3410001300038A00000034103005 000000003318 2EDIVALDO RODRIGUES DOS SANTOS 201331              21022020REA000000000000000000000000048505                    00000000000000000000000                    00000000014483706802                     00
3410001300039A00000034101644 000000062360 3V F DOS SANTOS COMERCIO DE MOV201811              21022020REA000000000000000000000000246075                    00000000000000000000000                    00000012258816000107                     00
3410001300040A00000034100865 000000013771 5MARCOS ROBERTO FERREIRA BISPO 201618              21022020REA000000000000000000000000296881                    00000000000000000000000                    00000049170780000107                     00
3410001300041A00000034100077 000000040096 8J DOS SANTOS PEREIRA  MODAS   201657              21022020REA000000000000000000000000041492                    00000000000000000000000                    00000026995735000196                     00
3410001300042A00000034108557 000000007408 8KELI CRISTINA ARGERI          201340              21022020REA000000000000000000000000418569                    00000000000000000000000                    00000000030928994821                     00
3410001300043A00000034103010 000000003587 5PARTISANS PUB BAR LTDA        201567              21022020REA000000000000000000000000016700                    00000000000000000000000                    00000014147047000197                     00
3410001300044A00000034108078 000000008555 5PANIFICADORA E CONFEITARIA MIA201771              21022020REA000000000000000000000000006502                    00000000000000000000000                    00000049249600000187                     00
3410001300045A00000034103130 000000051351 2PADARIA RUA DO ROCIO PAES E LA201670              21022020REA000000000000000000000000005174                    00000000000000000000000                    00000027444888000108                     00
3410001300046A00000034103788 000000058820 4TANJI E DARCIE LTDA           201368              21022020REA000000000000000000000000097204                    00000000000000000000000                    00000017084440000177                     00
3410001300047A00000034102974 000000035415 7ROSEMERY DOS SANTOS REGO COSME201377              21022020REA000000000000000000000000034051                    00000000000000000000000                    00000021415909000180                     00
3410001300048A00000034104528 000000017976 7DANIEL NUNES SPEZAMIGLIO      201779              21022020REA000000000000000000000000541818                    00000000000000000000000                    00000000028830150827                     00
3410001300049A00000034107761 000000004979 5GREGORIO MARTIN LOBATO        201459              21022020REA000000000000000000000000006861                    00000000000000000000000                    00000000009330998860                     00
3410001300050A00000034100002 000000035253 2LILIAN REGINA GOMES PASSAGNO D201392              21022020REA000000000000000000000000161050                    00000000000000000000000                    00000005694739000164                     00
3410001300051A00000034105437 000000000725 4NILTON APARECIDO RUFINO       201595              21022020REA000000000000000000000000008578                    00000000000000000000000                    00000000007177252860                     00
3410001300052A00000034100002 000000035253 2LOOK S COMESTICOS LTDA        201743              21022020REA000000000000000000000000190938                    00000000000000000000000                    00000003424849000180                     00
3410001300053A00000034108036 000000011339 0JAIME GUILHERMINO DE SOUZA    201489              21022020REA000000000000000000000000020625                    00000000000000000000000                    00000000013865140807                     00
3410001300054A00000034100187 000000013926 6CRZ COMERCIO E REPRESENTACOES 201676              21022020REA000000000000000000000000773067                    00000000000000000000000                    00000047738604000101                     00
3410001300055A00000034104285 000000011799 2DIEGO LEITE DE BARROS ASSESSOR201730              21022020REA000000000000000000000000185662                    00000000000000000000000                    00000011316118000140                     00
3410001300056A00000034108217 000000019647 9RAQUEL FARIA SABIONI 277042048201554              21022020REA000000000000000000000000025703                    00000000000000000000000                    00000034178383000104                     00
3410001300057A00000034109639 000000000230 3CARLA GROSS                   201682              21022020REA000000000000000000000000004379                    00000000000000000000000                    00000000013208817851                     00
3410001300058A00000034104086 000000006811 3AKIKO FUJII                   201314              21022020REA000000000000000000000000073041                    00000000000000000000000                    00000000015430322814                     00
3410001300059A00000034107474 000000030853 8JONATA ELESBAO DE SOUZA       201538              21022020REA000000000000000000000000030561                    00000000000000000000000                    00000000013689906490                     00
3410001300060A00000034103879 000000006744 9ALINE DA CUNHA BONFIM         201530              21022020REA000000000000000000000000060562                    00000000000000000000000                    00000000007931934946                     00
3410001300061A00000034102910 000000044925 1ERIC RIBEIRO DA CRUZ          201412              21022020REA000000000000000000000000062404                    00000000000000000000000                    00000000006240594997                     00
3410001300062A00000034107376 000000026866 5ROBERTO PEREIRA DE ARAUJO     201665              21022020REA000000000000000000000000024752                    00000000000000000000000                    00000000027599035400                     00
3410001300063A00000034107690 000000035000 9VANDILMO FERREIRA CAMPOS      201624              21022020REA000000000000000000000000007373                    00000000000000000000000                    00000000041175127817                     00
3410001300064A00000034103156 000000043178 9LUIS FERNANDO RIBEIRO DE AZEVE201818              21022020REA000000000000000000000000021346                    00000000000000000000000                    00000000012349602656                     00
3410001300065A00000034100332 000000008778 2MARIA ZELIA TEREZA DE SOUZA   201544              21022020REA000000000000000000000000003554                    00000000000000000000000                    00000052965167000190                     00
3410001300066A00000034106247 000000028894 4GUILHERME RAFAEL DA SILVA NASC201752              21022020REA000000000000000000000000052097                    00000000000000000000000                    00000000009022968413                     00
34100015         000068000000000006148802000000000000000000                                                                                                                                                                                     
34100021C9841040 222347623000178                    06248 000000045232 5CELER PAGAMENTOS                                                                                   00000                                   00000000                     
3410002300001A00000003304442 000013000418 5CARTAO DE DESCONTO TERRA DOS B201808              21022020REA000000000000000000000000014381                    00000000000000000000000                    00000011051024000196                     00
3410002300002A00000023703157 000000034696 9DIEGO GARCIA DA SILVA         201341              21022020REA000000000000000000000000172859                    00000000000000000000000                    00000009354049000117                     00
3410002300003A00000008500109 000000044648 3EPR CENTRO AUTOMOTIVO ME LTDA 201609              21022020REA000000000000000000000000133042                    00000000000000000000000                    00000030636108000136                     00
3410002300004A00000003304585 000001019191 6CLAUDIO BARBOSA REBOUCAS      201358              21022020REA000000000000000000000000013702                    00000000000000000000000                    00000000024510173334                     00
3410002300005A00000023701232 000000024820 7ADMINISTRADORA DE CARTAO DE DE201767              21022020REA000000000000000000000000079253                    00000000000000000000000                    00000031284933000181                     00
3410002300006A00000000101195 000000040736 4CONFECCOES  MIROA LTDA        201518              21022020REA000000000000000000000000014640                    00000000000000000000000                    00000028464073000153                     00
3410002300007A00000000101195 000000040736 4MIRA MODAS COMSERVDA MODA EIRE201410              21022020REA000000000000000000000000005574                    00000000000000000000000                    00000028464073000153                     00
3410002300008A00000075604370 000000032990 8PDV365 PRODUCAO E AUTOMACAO DE201407              21022020REA000000000000000000000000814027                    00000000000000000000000                    00000012569291000112                     00
3410002300009A00000023701849 000000011116 3MIX LAR EIRELI                201526              21022020REA000000000000000000000000004687                    00000000000000000000000                    00000028940115000185                     00
3410002300010A00000003300037 000000147525 4DILVANIA APARECIDA VIEIRA     201445              21022020REA000000000000000000000000021571                    00000000000000000000000                    00000000001899964800                     00
3410002300011A00000010400017 001300068810 4CLEITON TRAVASSO              201739              21022020REA000000000000000000000000124827                    00000000000000000000000                    00000000079936822153                     00
3410002300012A00000000100048 000000135373 0VANESSA PAULO DA SILVA        201641              21022020REA000000000000000000000000004997                    00000000000000000000000                    00000000002864387123                     00
3410002300013A00000023701849 000000001268 8AURELIO FERREIRA RIBEIRO ME   201680              21022020REA000000000000000000000000060542                    00000000000000000000000                    00000005669371000184                     00
3410002300014A00000000101218 000000014405 3RAIMUNDO ISAIAS MONTEIRO PINTO201615              21022020REA000000000000000000000000046269                    00000000000000000000000                    00000000062422260306                     00
3410002300015A00000010403604 001300014805 2GELLISSON DA SILVA MARTINS    201644              21022020REA000000000000000000000000031781                    00000000000000000000000                    00000000004459745321                     00
3410002300016A00000026000001 000071128234 0RENATO LOPES DE PAULA         201336              21022020REA000000000000000000000000037128                    00000000000000000000000                    00000000002942683163                     00
3410002300017A00000004100280 000060702370 6ALVES E CARLOTT LTDA          201469              21022020REA000000000000000000000000050677                    00000000000000000000000                    00000003112643000115                     00
3410002300018A00000008500101 000000732600 9MAGNUM INSTRUMENTOS MUSICAIS L201794              21022020REA000000000000000000000000789596                    00000000000000000000000                    00000082097197000193                     00
3410002300019A00000010400898 000000002712 8ADMINISTRADORA DE SERVICOS DE 201411              21022020REA000000000000000000000000077097                    00000000000000000000000                    00000030676872000135                     00
3410002300020A00000010404551 001300007769 0ANTONIO WANDERSON MOREIRA     201413              21022020REA000000000000000000000000004370                    00000000000000000000000                    00000000001214858384                     00
3410002300021A00000008500101 000000679040 2SALVA MED EMERGENCIAS MEDICAS 201539              21022020REA000000000000000000000000153196                    00000000000000000000000                    00000004094517000148                     00
3410002300022A00000010402346 001300042296 6NIVALDO PEREIRA DA SILVA      201616              21022020REA000000000000000000000000006494                    00000000000000000000000                    00000000065792980497                     00
3410002300023A00000010401580 001300081734 0MARIANY A SANTOS              201322              21022020REA000000000000000000000000025369                    00000000000000000000000                    00000000004806989452                     00
3410002300024A00000000106864 000000012148 7W WANDER MARTINS ME           201622              21022020REA000000000000000000000000003868                    00000000000000000000000                    00000017626932000147                     00
3410002300025A00000010401307 001300250042 0RUTH LEA JORGE DA SILVA DUARTE201632              21022020REA000000000000000000000000006344                    00000000000000000000000                    00000000064373312320                     00
3410002300026A00000010400017 001300068586 5SIRLENE MARTINS DA SILVA CARDO201577              21022020REA000000000000000000000000020479                    00000000000000000000000                    00000000055996000172                     00
3410002300027A00000010404557 000000000878 2ADMINISTRADORA DE CARTAO DE TO201582              21022020REA000000000000000000000000061814                    00000000000000000000000                    00000025341175000193                     00
3410002300028A00000010400118 000000003357 6ADMINISTRADORA DE CARTAO DE DE201671              21022020REA000000000000000000000000002428                    00000000000000000000000                    00000030877366000104                     00
3410002300029A00000010400917 000000005066 0ADMINISTRADORA DE CARTAO DE DE201669              21022020REA000000000000000000000000084963                    00000000000000000000000                    00000031407148000179                     00
3410002300030A00000023700003 000001003202 4ELIANE APARECIDA FERNANDES SEN201495              21022020REA000000000000000000000000023179                    00000000000000000000000                    00000000025248475864                     00
3410002300031A00000010403245 000000004626 7ALINE ELAINE GUIMARAES        201551              21022020REA000000000000000000000000005319                    00000000000000000000000                    00000000028537168807                     00
3410002300032A00000023700023 000000253043 0TAWE COM DE CALCADOS E ACESSOR201638              21022020REA000000000000000000000000033518                    00000000000000000000000                    00000017276511000133                     00
3410002300033A00000023702297 000000116826 6M VERMELHO PRODUTOS ALIMENTICI201519              21022020REA000000000000000000000000014180                    00000000000000000000000                    00000059456723000142                     00
3410002300034A00000003303733 000013003898 0CARTAO DE DESCONTOS           201470              21022020REA000000000000000000000000228972                    00000000000000000000000                    00000025135387000114                     00
3410002300035A00000075603125 000000632446 0SANTOS  DIOGO LTDA            201568              21022020REA000000000000000000000000106840                    00000000000000000000000                    00000003177943000182                     00
3410002300036A00000075603125 000000631809 6ANSELMO ACETI INFORMATICA  ME 201447              21022020REA000000000000000000000000215153                    00000000000000000000000                    00000004322177000165                     00
3410002300037A00000023701893 000000012616 0ROSIMEIRE ALVES DE ALMEIDA    201801              21022020REA000000000000000000000000009690                    00000000000000000000000                    00000000092081673649                     00
3410002300038A00000023700218 000000018737 2JANE KELLY CARNEIRO DA SILVA  201788              21022020REA000000000000000000000000037716                    00000000000000000000000                    00000017601199000106                     00
3410002300039A00000000100781 000000018701 1ADEMIR APARECIDO CONSTANTINO M201361              21022020REA000000000000000000000000262298                    00000000000000000000000                    00000004162718000135                     00
3410002300040A00000023702221 000000027308 2SQG INFO COMERCIO EQUIP INFORM201731              21022020REA000000000000000000000000094196                    00000000000000000000000                    00000058500174000101                     00
3410002300041A00000010403540 001300023605 1MARIA JUSCILEIDE REGO DA SILVA201699              21022020REA000000000000000000000000049324                    00000000000000000000000                    00000000004281351370                     00
3410002300042A00000010403572 001300013961 1FRANCISCA ALVES PEREIRA       201513              21022020REA000000000000000000000000013445                    00000000000000000000000                    00000000071995765368                     00
3410002300043A00000000103655 000000060764 9FRANCISCO JODEMBERG VASCONCELO201473              21022020REA000000000000000000000000150000                    00000000000000000000000                    00000000043531237349                     00
3410002300044A00000000100467 000000014512 2JOSE MIGUEL DE SOUZA          201777              21022020REA000000000000000000000000033481                    00000000000000000000000                    00000000093817592949                     00
3410002300045A00000026000001 000001507461 8EWERTON ROSA GOMES            201395              21022020REA000000000000000000000000007705                    00000000000000000000000                    00000000002330612150                     00
3410002300046A00000000102502 000000046291 8VICOSO ESTACIONAMENTO LTDA    201805              21022020REA000000000000000000000000044385                    00000000000000000000000                    00000007799557000183                     00
3410002300047A00000010401045 000000003062 0ARACAJU ADMINISTRACAO DE CARTA201719              21022020REA000000000000000000000000128259                    00000000000000000000000                    00000031747596000111                     00
3410002300048A00000074800155 000000015946 8VALDO COMUNICACAO VISUAL LTDA 201386              21022020REA000000000000000000000000011457                    00000000000000000000000                    00000000321078000108                     00
3410002300049A00000023701232 000000024868 1ATENDIMENTO MEDICO E ODONTOLOG201620              21022020REA000000000000000000000000426126                    00000000000000000000000                    00000031132613000106                     00
3410002300050A00000023700223 000000211185 3SUELI APARECIDA PORPHIRIO FERN201564              21022020REA000000000000000000000000081962                    00000000000000000000000                    00000008075662000132                     00
3410002300051A00000003304039 000013002389 4ATENDIMENTO MEDICO E ODONTOLOG201763              21022020REA000000000000000000000000012106                    00000000000000000000000                    00000031710733000143                     00
3410002300052A00000003300722 000013001412 3INSTITUTO FRANCANO DE GASTRONO201557              21022020REA000000000000000000000000013553                    00000000000000000000000                    00000027481398000181                     00
3410002300053A00000023700702 000001007528 9GEURILANDE DE LIMA RABELO     201674              21022020REA000000000000000000000000010550                    00000000000000000000000                    00000000002137935392                     00
3410002300054A00000003303733 000013004404 0AZEVEDO E MENDES SERVICOS ADMI201527              21022020REA000000000000000000000000846107                    00000000000000000000000                    00000024996244000134                     00
3410002300055A00000010404292 000000000487 6SONHO DE CRIANCA CONFECCAO INF201500              21022020REA000000000000000000000000014274                    00000000000000000000000                    00000022704478000135                     00
3410002300056A00000010404292 000000023725 4MAICON ROBSON GABARDO         201565              21022020REA000000000000000000000000039932                    00000000000000000000000                    00000000000851022960                     00
3410002300057A00000075604340 000000084173 0PARQUE DE TECNOLOGIA DA INFORM201321              21022020REA000000000000000000000000055615                    00000000000000000000000                    00000024933602000160                     00
3410002300058A00000000102916 000000018131 5FLORESTE E SUPRIMENTO FLORESTA201317              21022020REA000000000000000000000000095957                    00000000000000000000000                    00000008140158000179                     00
3410002300059A00000010400505 001300901195 9ANA PAULA DIAS GOMES          201648              21022020REA000000000000000000000000048056                    00000000000000000000000                    00000000095233717034                     00
3410002300060A00000010400299 001300017087 8JAIR ROSA GOIS                201757              21022020REA000000000000000000000000032311                    00000000000000000000000                    00000000007768775856                     00
3410002300061A00000000102936 000000048939 5LABORATORIO CREATIVE SOLUCOES 201587              21022020REA000000000000000000000000062940                    00000000000000000000000                    00000026114551000170                     00
3410002300062A00000010400353 001300023446 1ENZO WILSON BARBOSA AMARAL    201428              21022020REA000000000000000000000000017748                    00000000000000000000000                    00000000027812461823                     00
3410002300063A00000000104992 000000011755 2PAULO MARTINS RODRIGUES       201439              21022020REA000000000000000000000000223123                    00000000000000000000000                    00000037178951000165                     00
3410002300064A00000023700023 000000253043 0JOAO H BOTELHO GENNARI RESTAUR201625              21022020REA000000000000000000000000797943                    00000000000000000000000                    00000017276511000133                     00
3410002300065A00000008900004 000000300525 3JORGE HENRIQUE MICHEL  CIA LTD201705              21022020REA000000000000000000000000090080                    00000000000000000000000                    00000057820698000109                     00
3410002300066A00000010404252 001300006225 5ALECIO ARAUJO GOMES           201342              21022020REA000000000000000000000000001165                    00000000000000000000000                    00000000001986420329                     00
3410002300067A00000010400799 001300044012 1ALDOUS ANTONIO ALVES          201559              21022020REA000000000000000000000000001454                    00000000000000000000000                    00000000035768936874                     00
3410002300068A00000023700534 000000081028 2OSVALDO ANTONIO DE FREITAS    201365              21022020REA000000000000000000000000006382                    00000000000000000000000                    00000000088888088849                     00
3410002300069A00000003304501 000013002428 2CEMA CENTRO MEDICO E ODONTOLOG201761              21022020REA000000000000000000000000050030                    00000000000000000000000                    00000010576511000100                     00
3410002300070A00000000106939 000000053750 0ADMINISTRADORA DE CONSULTORIOS201740              21022020REA000000000000000000000000401071                    00000000000000000000000                    00000025966574000140                     00
3410002300071A00000003303749 000013002584 8GREEN GOY NOYORI EIRELI  ME   201784              21022020REA000000000000000000000000285763                    00000000000000000000000                    00000005877577000108                     00
3410002300072A00000010402047 000000304973 1CLINICA MEDICA E ODONTOLOGICA 201370              21022020REA000000000000000000000000269224                    00000000000000000000000                    00000031570751000177                     00
3410002300073A00000010401461 000000001628 9BRIZOLA R SETTE E MARIA DO CAR201355              21022020REA000000000000000000000000037830                    00000000000000000000000                    00000030914197000135                     00
3410002300074A00000000100095 000000028910 8FF INDUSTRIA DE ALIMENTOS LTDA201555              21022020REA000000000000000000000000008079                    00000000000000000000000                    00000020169895000280                     00
3410002300075A00000000100929 000000057972 6CLINICA SAUDE CIDADANIA ITU LT201685              21022020REA000000000000000000000000014597                    00000000000000000000000                    00000009286567000221                     00
3410002300076A00000000101498 000000008037 3PEDRO DELLA GIUSTINA SOUZA    201502              21022020REA000000000000000000000000148192                    00000000000000000000000                    00000078872769000197                     00
3410002300077A00000003303047 000013002290 1CATANDUVA ADMINISTRADORA DE CA201770              21022020REA000000000000000000000000004214                    00000000000000000000000                    00000024028199000124                     00
3410002300078A00000010400973 001300080774 8JOSE ANTONIO DE SOUZA         201572              21022020REA000000000000000000000000005444                    00000000000000000000000                    00000000070202044491                     00
3410002300079A00000023702886 000000010142 7LRM ACESSORIOS SERVICOS A L ME201594              21022020REA000000000000000000000000204667                    00000000000000000000000                    00000001342545000149                     00
3410002300080A00000023702112 000000002890 8LATICINIOS ZACARIAS LTDA      201488              21022020REA000000000000000000000000008149                    00000000000000000000000                    00000060570488000114                     00
3410002300081A00000023701902 000000033080 9VALDIR ALBERTO LEDESMA        201611              21022020REA000000000000000000000000004545                    00000000000000000000000                    00000000083556834120                     00
3410002300082A00000010401576 001300154874 0RITA DE CASSIA CRUZ DO NASCIME201635              21022020REA000000000000000000000000044512                    00000000000000000000000                    00000000002870900350                     00
3410002300083A00000000106713 000000006702 7IVO RODRIGUES JUNIOR          201706              21022020REA000000000000000000000000032881                    00000000000000000000000                    00000000040442856830                     00
3410002300084A00000008900001 000000003797 4NAIR DA SILVA MUNIZ 1728733782201474              21022020REA000000000000000000000000148454                    00000000000000000000000                    00000029549230000196                     00
3410002300085A00000074800728 000000063824 2JULIANO FRANCISCO DA SILVA ACA201710              21022020REA000000000000000000000000159250                    00000000000000000000000                    00000019204801000105                     00
3410002300086A00000010402224 001300037503 4MARILENE RODRIGUES LEGUICA    201366              21022020REA000000000000000000000000002373                    00000000000000000000000                    00000000092481035100                     00
3410002300087A00000000100165 000000037203 0REGIANE ZACCHEU CARMINATI     201610              21022020REA000000000000000000000000044074                    00000000000000000000000                    00000032467627000143                     00
3410002300088A00000010401651 000000019490 2CARTAO DE TODOS PETROPOLIS LTD201507              21022020REA000000000000000000000000023605                    00000000000000000000000                    00000013584247000144                     00
3410002300089A00000023705777 000000008480 8MARIA HELENA MARINHO DE ARAUJO201376              21022020REA000000000000000000000000031292                    00000000000000000000000                    00000000042218268434                     00
3410002300090A00000008900001 000000003853 9NATHALIA GARCIA FERREIRA 39153201741              21022020REA000000000000000000000000004286                    00000000000000000000000                    00000031326700000102                     00
3410002300091A00000023700997 000000030470 0REJANE CLAUDINO MELO          201576              21022020REA000000000000000000000000029640                    00000000000000000000000                    00000000084356030320                     00
3410002300092A00000003301268 000013001326 1TERRAS GOIANAS CLINICA MEDICA 201429              21022020REA000000000000000000000000344680                    00000000000000000000000                    00000028796557000108                     00
3410002300093A00000010400118 000000003397 5TERRAS GOIANAS CLINICA MEDICA 201764              21022020REA000000000000000000000000068806                    00000000000000000000000                    00000028796557000108                     00
3410002300094A00000010402224 001300051399 2MANOEL GONCALVES DOS SANTOS MO201824              21022020REA000000000000000000000000019858                    00000000000000000000000                    00000000001271530120                     00
3410002300095A00000023702349 000000000800 1FAGUNDES CERTIFICADORA E SERVI201364              21022020REA000000000000000000000000024963                    00000000000000000000000                    00000004740806000177                     00
3410002300096A00000023701536 000000012324 2ATAMIR DIAS MARQUES           201393              21022020REA000000000000000000000000024892                    00000000000000000000000                    00000000001516003179                     00
3410002300097A00000010400283 000000003246 2CLINICA MEDICA E ODONTOLOGICA 201605              21022020REA000000000000000000000000269558                    00000000000000000000000                    00000032283114000182                     00
3410002300098A00000023701849 000000008908 7KELVIN HENRY COUTINHO BITTENCO201498              21022020REA000000000000000000000000061934                    00000000000000000000000                    00000000004748649100                     00
3410002300099A00000000100063 000000005933 1CENTRO DE ENDOCRINOLOGIA E MET201324              21022020REA000000000000000000000000065225                    00000000000000000000000                    00000035439728001090                     00
3410002300100A00000000100063 000000005933 1CENTRO DE ENDOCRINOLOGIA E MET201460              21022020REA000000000000000000000000031541                    00000000000000000000000                    00000035439728000522                     00
3410002300101A00000010400031 001300069827 0EDNA MOURA DA SILVA           201588              21022020REA000000000000000000000000010286                    00000000000000000000000                    00000000064178056387                     00
3410002300102A00000007700001 000002214080 8IDEIA MIDIA GRAFICA DIGITAL  E201356              21022020REA000000000000000000000000050391                    00000000000000000000000                    00000007988078000105                     00
3410002300103A00000000101409 000000028674 5VEXNET TELECON INFORMATICA LTD201431              21022020REA000000000000000000000000205516                    00000000000000000000000                    00000011500145000178                     00
3410002300104A00000003304422 000013001705 9MARIMAX COMERCIO E IMPORTACAO 201575              21022020REA000000000000000000000000083784                    00000000000000000000000                    00000020339865000194                     00
3410002300105A00000010401086 000003003899 3CARTAO DE DESCONTO TAPG ITAQUE201381              21022020REA000000000000000000000000008356                    00000000000000000000000                    00000024819584000190                     00
3410002300106A00000010400919 001300077548 5GERVASIO MONTEIRO BATISTA     201490              21022020REA000000000000000000000000011328                    00000000000000000000000                    00000000032429940353                     00
3410002300107A00000000106778 000000019532 4DEISE MARA PEREIRA DE OLIVEIRA201596              21022020REA000000000000000000000000034740                    00000000000000000000000                    00000000022410402828                     00
3410002300108A00000010401688 000000000216 9WAUS MALHAS LTDA              201720              21022020REA000000000000000000000000004870                    00000000000000000000000                    00000021902093000110                     00
3410002300109A00000023700458 000000007549 3MARIA LUCILENE LOPES CARNEIRO 201642              21022020REA000000000000000000000000070467                    00000000000000000000000                    00000021810036000100                     00
3410002300110A00000075603169 000000009707 1CASA DA PIMENTA COMERCIAL DE B201471              21022020REA000000000000000000000000005844                    00000000000000000000000                    00000008098251000162                     00
3410002300111A00000013301569 000000028087 9ROBIS GRAVINO DA FONSECA      201819              21022020REA000000000000000000000000012662                    00000000000000000000000                    00000000009616611780                     00
3410002300112A00000008900003 000000201762 8EDIVALDO DIAS                 201717              21022020REA000000000000000000000000012442                    00000000000000000000000                    00000000013666671829                     00
3410002300113A00000013301075 000000009280 0ALEXANDRE PEDRO DA ROSA       201566              21022020REA000000000000000000000000107899                    00000000000000000000000                    00000027060549000128                     00
3410002300114A00000013301579 000000028236 7CAIO CESAR PEREIRA            201662              21022020REA000000000000000000000000019316                    00000000000000000000000                    00000020863883000170                     00
3410002300115A00000013301602 000000001492 3REGILDA FERNANDA SPEER GARCIA 201649              21022020REA000000000000000000000000025850                    00000000000000000000000                    00000000005666111981                     00
3410002300116A00000013301075 000000027569 7DELLA ROCCA E ROSA ACADEMIA LT201337              21022020REA000000000000000000000000025137                    00000000000000000000000                    00000029699928000198                     00
3410002300117A00000013301075 000000028391 6AUTO POSTO SAO PEDRO EIRELI   201343              21022020REA000000000000000000000000061024                    00000000000000000000000                    00000080107030000130                     00
3410002300118A00000010403466 001300019576 0JONAS BENVINDO DA SILVA       201608              21022020REA000000000000000000000000001294                    00000000000000000000000                    00000000083024557334                     00
3410002300119A00000013301075 000000006792 0VALDORI DE LIMA               201414              21022020REA000000000000000000000000025196                    00000000000000000000000                    00000000095131388953                     00
3410002300120A00000013301608 000000006806 3ELISANDRO COELHO              201820              21022020REA000000000000000000000000054705                    00000000000000000000000                    00000012246661000180                     00
3410002300121A00000013301608 000000009668 7MARCIEL WIETCOVSKI            201371              21022020REA000000000000000000000000479935                    00000000000000000000000                    00000022380543000114                     00
3410002300122A00000000100063 000000005933 1CENTRO DE ENDOCRINOLOGIA E MET201533              21022020REA000000000000000000000000012619                    00000000000000000000000                    00000035439728001251                     00
3410002300123A00000013301609 000000028552 8ESCRITORIO DO PAPEL PAPELARIA 201496              21022020REA000000000000000000000000007599                    00000000000000000000000                    00000027910160000124                     00
3410002300124A00000023700105 000000220583 1CASA DE GAROA EIRELLI         201329              21022020REA000000000000000000000000168297                    00000000000000000000000                    00000008515856000101                     00
3410002300125A00000013301075 000000009739 0PAULA CAROLINA DA SILVA MEI   201451              21022020REA000000000000000000000000103211                    00000000000000000000000                    00000028678665000178                     00
3410002300126A00000013301075 000000009944 9ROSILENE VAMBOMMEL MEYER 05387201397              21022020REA000000000000000000000000036291                    00000000000000000000000                    00000024149220000140                     00
3410002300127A00000013301075 000000007161 7DOUGLAS MACHADO 06651273914   201806              21022020REA000000000000000000000000042506                    00000000000000000000000                    00000018755866000178                     00
3410002300128A00000013301075 000000028122 0FERNANDO PRIM                 201320              21022020REA000000000000000000000000016089                    00000000000000000000000                    00000012455426000119                     00
3410002300129A00000013301003 000000014342 1NELI ALTINIZIA DALLASTRA      201504              21022020REA000000000000000000000000070252                    00000000000000000000000                    00000017693296000176                     00
3410002300130A00000000104992 000000012516 4CHURRASCARIA E CAFETERIA ESTRE201721              21022020REA000000000000000000000000026428                    00000000000000000000000                    00000030774098000103                     00
3410002300131A00000010403625 000000000420 1VAL FREIRE ESTETICA EIRELI    201463              21022020REA000000000000000000000000860042                    00000000000000000000000                    00000022147131000139                     00
3410002300132A00000013301009 000000006427 0ALINE CRISTINA MORAES BASSO   201758              21022020REA000000000000000000000000010245                    00000000000000000000000                    00000033700523000108                     00
3410002300133A00000023701849 000000007000 9LEONIDIA ALVES CARDOSO        201745              21022020REA000000000000000000000001230462                    00000000000000000000000                    00000003030434000203                     00
3410002300134A00000023701211 000000070392 3PRENDA MARI LTDA              201627              21022020REA000000000000000000000000050524                    00000000000000000000000                    00000002637865000199                     00
3410002300135A00000023705474 000000004421 0ESPACO TAMAREIRA POUSADA E EVE201330              21022020REA000000000000000000000000399390                    00000000000000000000000                    00000029121579000122                     00
3410002300136A00000013301075 000000026680 9ALINE SOUZA RAMOS KRAISCH     201348              21022020REA000000000000000000000000027275                    00000000000000000000000                    00000095873352000168                     00
3410002300137A00000023700417 000000067546 6ANALISES CLINICAS SANTO INACIO201446              21022020REA000000000000000000000000009762                    00000000000000000000000                    00000003535069000108                     00
3410002300138A00000013301075 000000011578 9ROSELI DA CRUZ KOBUS          201639              21022020REA000000000000000000000000042955                    00000000000000000000000                    00000000003570927911                     00
3410002300139A00000008900012 000001100671 4LUCIANE PACELLI NUNES         201749              21022020REA000000000000000000000000057834                    00000000000000000000000                    00000000011928583873                     00
3410002300140A00000000100799 000000048442 3VIEIRA E LANCONICOMERCIO EM AL201643              21022020REA000000000000000000000000017104                    00000000000000000000000                    00000017506373000131                     00
3410002300141A00000013301003 000000014380 4DAIANE TOMAZETTO BERNARDI     201810              21022020REA000000000000000000000000117988                    00000000000000000000000                    00000028893656000108                     00
3410002300142A00000013301003 000000004779 1NADIR FRANCISCO PERONDI E CIA 201404              21022020REA000000000000000000000000361131                    00000000000000000000000                    00000004688117000160                     00
3410002300143A00000003303208 000001083899 5DAFNE DA COSTA ALMEIDA        201759              21022020REA000000000000000000000000044650                    00000000000000000000000                    00000000031082357880                     00
3410002300144A00000013301075 000000010179 6FREITAS MATERIAIS DE CONSTRUCA201372              21022020REA000000000000000000000000317304                    00000000000000000000000                    00000009356757000197                     00
3410002300145A00000013301003 000000006150 6S F FIORENTIN                 201652              21022020REA000000000000000000000000004851                    00000000000000000000000                    00000008878267000198                     00
3410002300146A00000013301075 000000025906 3PEDRO MOREIRA DE SOUZA        201405              21022020REA000000000000000000000000001656                    00000000000000000000000                    00000005980807000151                     00
3410002300147A00000023701453 000000064528 1VAGNER LOPES                  201360              21022020REA000000000000000000000000001842                    00000000000000000000000                    00000000002592833714                     00
3410002300148A00000010400936 001300006154 0DAIANA CRISTINA RODRIGUES     201807              21022020REA000000000000000000000000002088                    00000000000000000000000                    00000000008625414680                     00
3410002300149A00000013301075 000000010931 2LUIZ DIOMAR ZONTA             201789              21022020REA000000000000000000000000005000                    00000000000000000000000                    00000084430370000159                     00
3410002300150A00000013301075 000000014943 8NILTON POMMERENING            201683              21022020REA000000000000000000000000094446                    00000000000000000000000                    00000000068523238972                     00
3410002300151A00000003304268 000001000717 6ELISANGELA DA COLLINA FURLAN  201466              21022020REA000000000000000000000000157161                    00000000000000000000000                    00000000016479065808                     00
3410002300152A00000013301009 000000006384 3MIOTTO E ROSS RESTAURANTE E CA201357              21022020REA000000000000000000000000039439                    00000000000000000000000                    00000033566833000173                     00
3410002300153A00000013301003 000000014638 2EXCLUSIVA PNEUS E AUTO CENTER 201448              21022020REA000000000000000000000000102309                    00000000000000000000000                    00000033826693000125                     00
3410002300154A00000013301075 000000027686 3AYRON CORREIA COMERCIO DE PRES201493              21022020REA000000000000000000000000038170                    00000000000000000000000                    00000029617720000182                     00
3410002300155A00000013301075 000000027123 3SICRET RISTOW TESKE           201589              21022020REA000000000000000000000000081101                    00000000000000000000000                    00000001421753000133                     00
3410002300156A00000026000001 000005324163 1NAIA CHAVES DE SOUSA PORTO    201775              21022020REA000000000000000000000000013413                    00000000000000000000000                    00000000000353625370                     00
3410002300157A00000003301404 000013001478 9KINDER CURSO E ACADEMIA DA CRI201472              21022020REA000000000000000000000000039741                    00000000000000000000000                    00000033470872000172                     00
3410002300158A00000000102925 000000012982 8ANDERSON FELIPE SARAIVA MACHAD201732              21022020REA000000000000000000000000020465                    00000000000000000000000                    00000000002236721307                     00
3410002300159A00000075603256 000000002350 7JANDEIR APARECIDO DE ALMEIDA E201534              21022020REA000000000000000000000000004599                    00000000000000000000000                    00000006895016000196                     00
3410002300160A00000010400749 000000000834 3P W F T GUEDES PROMOCOES      201326              21022020REA000000000000000000000000340183                    00000000000000000000000                    00000004893646000104                     00
3410002300161A00000000102912 000000043945 2RAIMUNDO LIMA DE ARAUJO NETO  201802              21022020REA000000000000000000000000095909                    00000000000000000000000                    00000000086820320310                     00
3410002300162A00000010400936 001300005846 8LUCAS LEAL FREITAS            201560              21022020REA000000000000000000000000228850                    00000000000000000000000                    00000000006648865660                     00
3410002300163A00000013301003 000000009793 4TIAGO JUNIOR RESTELATTO MIOLA 201571              21022020REA000000000000000000000000227870                    00000000000000000000000                    00000021767295000104                     00
3410002300164A00000010404942 001300000569 4ANTONIO MEIRA NETO            201349              21022020REA000000000000000000000000009863                    00000000000000000000000                    00000000002568127805                     00
3410002300165A00000023707988 000000068441 4OSVALDO DIAS DA SILVA JUNIOR  201590              21022020REA000000000000000000000000002641                    00000000000000000000000                    00000000006656398138                     00
3410002300166A00000013301075 000000022862 1TED MARYNUS CONFECCOES LTDA   201816              21022020REA000000000000000000000000029300                    00000000000000000000000                    00000082855537000106                     00
3410002300167A00000013301075 000000009897 3RICARDO FORSRTER              201528              21022020REA000000000000000000000000013853                    00000000000000000000000                    00000000010835541908                     00
3410002300168A00000000101833 000000128852 0BRUNO NASCIMENTO FREIRE       201562              21022020REA000000000000000000000000049204                    00000000000000000000000                    00000000002528858485                     00
3410002300169A00000013301608 000000027877 7FERROFUSO COMERCIO DE FERRAGEN201653              21022020REA000000000000000000000000009122                    00000000000000000000000                    00000029094193000179                     00
3410002300170A00000013301518 000000002227 6AURI GEWEHR                   201681              21022020REA000000000000000000000000010114                    00000000000000000000000                    00000000064388069949                     00
3410002300171A00000010402272 001300010513 6GOIASI ANTUNES DE LIMA JUNIOR 201695              21022020REA000000000000000000000000025917                    00000000000000000000000                    00000000079973817168                     00
3410002300172A00000013301075 000000010280 6MADEIREIRA CALAO              201442              21022020REA000000000000000000000000107279                    00000000000000000000000                    00000017287231000120                     00
3410002300173A00000013301075 000000010969 0SOCIEDADE ESPOSTIVA E RECREATI201797              21022020REA000000000000000000000000049598                    00000000000000000000000                    00000083488627000160                     00
3410002300174A00000013301075 000000010335 7MATEUS RESTAURANTE E PIZZARIA 201569              21022020REA000000000000000000000000001450                    00000000000000000000000                    00000031139441000100                     00
3410002300175A00000013301003 000000014675 7JERUSA ALBERTON ASSMANN       201675              21022020REA000000000000000000000000027413                    00000000000000000000000                    00000003893571000190                     00
3410002300176A00000010400307 000030000465 4EVANGELISTA LOPES DE SOUZA ME 201573              21022020REA000000000000000000000000002020                    00000000000000000000000                    00000008091527000180                     00
3410002300177A00000003300216 000060017682 7MARIA NEUSA DE MORAIS         201613              21022020REA000000000000000000000000013587                    00000000000000000000000                    00000000031144999880                     00
3410002300178A00000013301003 000000014800 8LUTERO JOAO DA MOTTA          201645              21022020REA000000000000000000000000011378                    00000000000000000000000                    00000005841347000180                     00
3410002300179A00000013301588 000000019079 9ALTAIR VALENTIM SILVA         201727              21022020REA000000000000000000000000020617                    00000000000000000000000                    00000000006629134931                     00
3410002300180A00000026000001 000071128234 0RENATO LOPES DE PAULA         201746              21022020REA000000000000000000000000146116                    00000000000000000000000                    00000000002942683163                     00
3410002300181A00000008900003 000000201990 6TIAGO HENRIQUE MENGALI        201520              21022020REA000000000000000000000000029640                    00000000000000000000000                    00000012149895000100                     00
3410002300182A00000013301588 000000010696 8EDESIO BUSNARDO               201790              21022020REA000000000000000000000000020797                    00000000000000000000000                    00000008724989000198                     00
3410002300183A00000013301003 000000011076 0ELIZANDRO DAROZ               201659              21022020REA000000000000000000000000008743                    00000000000000000000000                    00000003078436000191                     00
3410002300184A00000013301075 000000025728 1ELOIZA FARIAS                 201409              21022020REA000000000000000000000000009633                    00000000000000000000000                    00000000008120312961                     00
3410002300185A00000013301075 000000027162 4PAULO CRISTINA MEI            201733              21022020REA000000000000000000000000014305                    00000000000000000000000                    00000023231907000167                     00
3410002300186A00000013301003 000000014242 5CM COMERCIO DE PECAS IMPLEMENT201773              21022020REA000000000000000000000000067494                    00000000000000000000000                    00000007043675000167                     00
3410002300187A00000013301003 000000014886 5FRANCIELA T DAROS PAPELARIA E 201455              21022020REA000000000000000000000000028698                    00000000000000000000000                    00000030682114000120                     00
3410002300188A00000013301003 000000004069 0R E CONFECCOES LTDA ME        201707              21022020REA000000000000000000000000118584                    00000000000000000000000                    00000019802468000128                     00
3410002300189A00000013301003 000000014778 8SALVADOR MECANICA E AUTO PECAS201785              21022020REA000000000000000000000000003793                    00000000000000000000000                    00000010245951000184                     00
3410002300190A00000013301009 000000006377 0PAULO FERDINANDO FERREIRA     201708              21022020REA000000000000000000000000256934                    00000000000000000000000                    00000015726900000198                     00
3410002300191A00000013301075 000000026683 3JULIO CEZAR DE AVILA          201604              21022020REA000000000000000000000000069852                    00000000000000000000000                    00000017385690000147                     00
3410002300192A00000013301075 000000007971 5JULIA BORBA ROCHA ME          201791              21022020REA000000000000000000000000281947                    00000000000000000000000                    00000014775306000124                     00
3410002300193A00000013301009 000000005772 0CARLOS C DA COSTA CONFECCOES  201369              21022020REA000000000000000000000000051608                    00000000000000000000000                    00000029908151000124                     00
3410002300194A00000065500655 000004534682 8NAJLA THAISA BORGES TORRES    201338              21022020REA000000000000000000000000034102                    00000000000000000000000                    00000000003000857109                     00
3410002300195A00000010400936 001300022916 5ROZENEI DE FREITAS NUNES ALVES201803              21022020REA000000000000000000000000011431                    00000000000000000000000                    00000000004828260617                     00
3410002300196A00000007000026 000026049334 1MICHELE DE LIMA DUARTE        201508              21022020REA000000000000000000000000087807                    00000000000000000000000                    00000000000066105102                     00
3410002300197A00000013301075 000000016886 6VALDIR ROLING E CIA LTDA      201750              21022020REA000000000000000000000000020092                    00000000000000000000000                    00000001941213000180                     00
3410002300198A00000010403309 001300001277 7MAURO LUIZ TOSTES             201558              21022020REA000000000000000000000000007991                    00000000000000000000000                    00000000042280915120                     00
3410002300199A00000013301075 000000029040 8MARILI SALVADOR               201654              21022020REA000000000000000000000000018243                    00000000000000000000000                    00000031524799000149                     00
3410002300200A00000026000001 000083415693 3NATALIA DE SOUZA FERREIRA     201553              21022020REA000000000000000000000000031066                    00000000000000000000000                    00000000002451579137                     00
3410002300201A00000013301003 000000014981 0CRISTIANA SILVA VARELA        201703              21022020REA000000000000000000000000002908                    00000000000000000000000                    00000018106143000148                     00
3410002300202A00000013301003 000000009546 0FAVERO E BORTOLIN FISIOTERAPIA201663              21022020REA000000000000000000000000335871                    00000000000000000000000                    00000032415298000197                     00
3410002300203A00000013301075 000000029251 6IATAN PICKLER                 201556              21022020REA000000000000000000000000007294                    00000000000000000000000                    00000000009582934905                     00
3410002300204A00000000102194 000000006738 5ANDRE PERUGINI                201486              21022020REA000000000000000000000000021347                    00000000000000000000000                    00000000047995050682                     00
3410002300205A00000000102194 000000021657 7HOTEL FILHOS DE GANDHI LTDA   201315              21022020REA000000000000000000000000014029                    00000000000000000000000                    00000022552673000197                     00
3410002300206A00000010403586 001300025612 6RICARDO ROCHA MOREIRA         201817              21022020REA000000000000000000000000003138                    00000000000000000000000                    00000000073478067472                     00
3410002300207A00000010400936 001300019558 9ROGERIO QUEIROZ DE PAULA      201640              21022020REA000000000000000000000000027351                    00000000000000000000000                    00000000007132136631                     00
3410002300208A00000010400920 000000021289 6PK COMERCIO DE COLCOES LTDA   201501              21022020REA000000000000000000000000052808                    00000000000000000000000                    00000012446564000131                     00
3410002300209A00000013301003 000000014787 7FARMACIA COLINA DOIS VIZINHOS 201475              21022020REA000000000000000000000000003577                    00000000000000000000000                    00000027212030000118                     00
3410002300210A00000010400311 001300019692 7JOAO BATISTA PEDRO            201813              21022020REA000000000000000000000000010824                    00000000000000000000000                    00000000004924845892                     00
3410002300211A00000000100268 000000013536 4SOARES ZENATTI  ZENATTI LTDA  201464              21022020REA000000000000000000000000001697                    00000000000000000000000                    00000005808981000111                     00
3410002300212A00000013301003 000000014946 2CORADELLI E CORADELLI PRESENTE201709              21022020REA000000000000000000000000019135                    00000000000000000000000                    00000010798133000109                     00
3410002300213A00000000107114 000000013705 7MARCOS VINICIUS LOPES DE PAULA201398              21022020REA000000000000000000000000040415                    00000000000000000000000                    00000000000674059166                     00
3410002300214A00000013301009 000000006108 5MARIANI DIAS                  201795              21022020REA000000000000000000000000023817                    00000000000000000000000                    00000027102728000180                     00
3410002300215A00000013301075 000000016752 5ALAMEDA AGROPECUARIA LTDA     201419              21022020REA000000000000000000000000009431                    00000000000000000000000                    00000029262472000102                     00
3410002300216A00000010402346 001300010860 9HUGO LEONARDO BULHOES DE ARAUJ201543              21022020REA000000000000000000000000120444                    00000000000000000000000                    00000000002341693466                     00
3410002300217A00000010400749 000000000905 6FRANCISCO VALDIR CHAVES       201461              21022020REA000000000000000000000000183492                    00000000000000000000000                    00000023560519000120                     00
3410002300218A00000010401089 001300105847 9ELIZEU LEITE SILVA            201521              21022020REA000000000000000000000000003293                    00000000000000000000000                    00000000023617101372                     00
3410002300219A00000013301075 000000021812 0LAVACAO E BORRACHARIA DOIS IRM201327              21022020REA000000000000000000000000027288                    00000000000000000000000                    00000079817037000167                     00
3410002300220A00000013301003 000000014712 5B Z CONSTRUTORA ZOLET BLOCOS E201387              21022020REA000000000000000000000000060709                    00000000000000000000000                    00000029437698000199                     00
3410002300221A00000013301058 000000009045 0J A TEIXEIRA BARANCELLI RESTAU201751              21022020REA000000000000000000000000016771                    00000000000000000000000                    00000006143819000194                     00
3410002300222A00000013301003 000000004568 3DBORBA METALURGICA LTDA       201491              21022020REA000000000000000000000000014066                    00000000000000000000000                    00000019272827000182                     00
3410002300223A00000013301003 000000003269 7LEONILDA BONETE BRANDAO       201617              21022020REA000000000000000000000000002237                    00000000000000000000000                    00000000002265585920                     00
3410002300224A00000010400749 001300002175 4MISSILENE ALMEIDA DE OLIVEIRA 201492              21022020REA000000000000000000000000152621                    00000000000000000000000                    00000000000456141308                     00
3410002300225A00000013301075 000000029377 6VERA MERIANE DE SOUZA FERREIRA201332              21022020REA000000000000000000000000003797                    00000000000000000000000                    00000029443933000135                     00
3410002300226A00000013301003 000000014545 9CENTRO DE FORMACAO DE CONDUTOR201714              21022020REA000000000000000000000000099413                    00000000000000000000000                    00000010575109000100                     00
3410002300227A00000013301009 000000006537 4VALERIO JOSE GONCALVES        201633              21022020REA000000000000000000000000015447                    00000000000000000000000                    00000027360800000170                     00
3410002300228A00000013301668 000000005029 6RENATO CESAR CORREA           201367              21022020REA000000000000000000000000012611                    00000000000000000000000                    00000026541291000119                     00
3410002300229A00000013301075 000000027318 0FERRARIA BECKER LTDA ME       201423              21022020REA000000000000000000000000054460                    00000000000000000000000                    00000081373904000164                     00
3410002300230A00000013301668 000000006064 0L Z BRILHAR ECO PISCINAS EIREL201516              21022020REA000000000000000000000000052022                    00000000000000000000000                    00000023205574000100                     00
3410002300231A00000013301075 000000010148 6ELIEZER MARTINS SONANIOTTO    201792              21022020REA000000000000000000000000043054                    00000000000000000000000                    00000027868442000100                     00
3410002300232A00000013301075 000000028644 3PATRICIA MARIA SALVADOR ME    201599              21022020REA000000000000000000000000019893                    00000000000000000000000                    00000033546377000108                     00
3410002300233A00000013301003 000000014879 2DORATI DOS SANTOS             201449              21022020REA000000000000000000000000003331                    00000000000000000000000                    00000000052310442968                     00
3410002300234A00000023700023 000000253043 0ODA JAPANESE FOOD RESTAURANTE 201747              21022020REA000000000000000000000000579538                    00000000000000000000000                    00000017276511000133                     00
3410002300235A00000013301075 000000029178 1SELIO JOSE DAS NEVES          201561              21022020REA000000000000000000000000007537                    00000000000000000000000                    00000032886702000100                     00
3410002300236A00000010401888 001300047067 1LUCAS BATISTA WEYNE           201776              21022020REA000000000000000000000000003732                    00000000000000000000000                    00000000060580913309                     00
3410002300237A00000013301620 000000014915 2RA COMERCIO DE MEDICAMENTOS   201563              21022020REA000000000000000000000000090711                    00000000000000000000000                    00000003783356000137                     00
3410002300238A00000013301003 000000014831 8NILVA MARLI FIORESE SAGGIORATT201725              21022020REA000000000000000000000000040680                    00000000000000000000000                    00000009025741000100                     00
3410002300239A00000013301062 000000015112 2SOLANGI VITORETI BARANOSWKI   201350              21022020REA000000000000000000000000034409                    00000000000000000000000                    00000034320260000166                     00
3410002300240A00000000104206 000000022655 6SANTOS MEDICINA DE TRAFEGO LTD201728              21022020REA000000000000000000000000052524                    00000000000000000000000                    00000031512104000109                     00
3410002300241A00000000103570 000000025601 3SOUVIE COMERCIO INDUSTRIA IMPO201535              21022020REA000000000000000000000000321130                    00000000000000000000000                    00000012226852000180                     00
3410002300242A00000013301009 000000003356 1EVERSON CHIOCHETA E CIA       201363              21022020REA000000000000000000000000004046                    00000000000000000000000                    00000004203553000100                     00
3410002300243A00000013301058 000000006576 5ROSANGELA APARECIDA COREA PINT201690              21022020REA000000000000000000000000002417                    00000000000000000000000                    00000012950165000103                     00
3410002300244A00000007000240 000000005882 7ILMAR MARIA RIBEIRO DE SOUZA  201636              21022020REA000000000000000000000000001331                    00000000000000000000000                    00000000050154206504                     00
3410002300245A00000013301009 000000006374 6CELLA E SILVA                 201774              21022020REA000000000000000000000000004863                    00000000000000000000000                    00000028091229000106                     00
3410002300246A00000013301075 000000029523 0ONE ACADEMIA DE CONDICIONAMENT201378              21022020REA000000000000000000000000077581                    00000000000000000000000                    00000018556009000149                     00
3410002300247A00000000104992 000000012185 1ASSOCIACAO MISSIONARIA ASSEMBL201441              21022020REA000000000000000000000000058923                    00000000000000000000000                    00000028952444000146                     00
3410002300248A00000013301075 000000029453 5JACKSON VEICULOS              201691              21022020REA000000000000000000000000174006                    00000000000000000000000                    00000027450702000123                     00
3410002300249A00000013301062 000000005191 8GEVERSON BERGAMO              201667              21022020REA000000000000000000000000019431                    00000000000000000000000                    00000000008428513996                     00
3410002300250A00000013301003 000000015024 0ELIZANDRA DA SILVA            201634              21022020REA000000000000000000000000070844                    00000000000000000000000                    00000000003294406916                     00
3410002300251A00000013301075 000000020517 6IVANIR TEREZINHA RICARDO BAUMG201425              21022020REA000000000000000000000000011334                    00000000000000000000000                    00000017545367000193                     00
3410002300252A00000013301075 000000029531 0ELETRO SOLUCOES               201798              21022020REA000000000000000000000000104132                    00000000000000000000000                    00000015549325000103                     00
3410002300253A00000013301003 000000004340 0LOVENI SCHUG                  201688              21022020REA000000000000000000000000010698                    00000000000000000000000                    00000026896430000127                     00
3410002300254A00000013301003 000000009371 8SUPERVALE DISTRIBUIDORA DE PRO201434              21022020REA000000000000000000000000058237                    00000000000000000000000                    00000013146318000127                     00
3410002300255A00000000103565 000000032449 3FRANCISCO LOPES DE MESQUITA JU201711              21022020REA000000000000000000000000010881                    00000000000000000000000                    00000000005448622364                     00
3410002300256A00000010404808 001300021709 9ERIC DE SOUZA SILVA           201628              21022020REA000000000000000000000000015221                    00000000000000000000000                    00000000001254280499                     00
3410002300257A00000075603167 000000001325 0MARCIANA CUSTODIO DOS SANTOS  201715              21022020REA000000000000000000000000004550                    00000000000000000000000                    00000015049654000187                     00
3410002300258A00000013301609 000000009645 8P2M LAVANDERIA LTDA ME        201768              21022020REA000000000000000000000000009818                    00000000000000000000000                    00000007118530000188                     00
3410002300259A00000013301003 000000004974 3WISOSKI E SPIASSI             201600              21022020REA000000000000000000000000009239                    00000000000000000000000                    00000078103876000150                     00
3410002300260A00000013301609 000000027693 6MERCADO FERNANDES E SOUZA     201479              21022020REA000000000000000000000000006928                    00000000000000000000000                    00000029062121000140                     00
3410002300261A00000023701918 000000017151 4NATALIA PEREIRA FERNANDES 3988201422              21022020REA000000000000000000000000044572                    00000000000000000000000                    00000034589412000120                     00
3410002300262A00000004700065 000003100801 6NELSON GARCEZ ARAUJO JUNIOR 02201686              21022020REA000000000000000000000000150000                    00000000000000000000000                    00000023185905000189                     00
3410002300263A00000013301075 000000021964 9COMERCIO DE MALHAS AMANDA     201650              21022020REA000000000000000000000000026189                    00000000000000000000000                    00000080421738000161                     00
3410002300264A00000013301009 000000009182 0ZANETTI E SCHWADE             201450              21022020REA000000000000000000000000012315                    00000000000000000000000                    00000001228198000128                     00
3410002300265A00000013301075 000000008413 1WILLIAN JAMIR DA ROSA         201629              21022020REA000000000000000000000000016543                    00000000000000000000000                    00000015451012000100                     00
3410002300266A00000013301584 000000007716 0ANDREZA FRANCA CRESPI         201804              21022020REA000000000000000000000000004863                    00000000000000000000000                    00000000010672903970                     00
3410002300267A00000075603256 000000002823 1RODRIGO LUCAS DANTAS          201696              21022020REA000000000000000000000000024275                    00000000000000000000000                    00000027789955000126                     00
3410002300268A00000000100268 000000016964 1CASA DA CRIANCA DE VOTUPORANGA201452              21022020REA000000000000000000000000151923                    00000000000000000000000                    00000045163920000169                     00
3410002300269A00000013301003 000000015266 8MARCIA DE FATIMA CALGAROTTO CO201799              21022020REA000000000000000000000000040339                    00000000000000000000000                    00000010283209000163                     00
3410002300270A00000075605122 000000004517 9EDUARDO VIEIRA CONCEICAO PAIVA201379              21022020REA000000000000000000000000003136                    00000000000000000000000                    00000000010833201816                     00
3410002300271A00000013301003 000000011523 1ANTONIO ALVES                 201637              21022020REA000000000000000000000000001933                    00000000000000000000000                    00000012553297000100                     00
3410002300272A00000023706326 000000006804 7JOSE ALBERTO MARTINS NOVAIS BA201344              21022020REA000000000000000000000000028411                    00000000000000000000000                    00000026758357000127                     00
3410002300273A00000003303554 000013000683 0BELLA PETROPOLIS PADARIA E CON201465              21022020REA000000000000000000000001219126                    00000000000000000000000                    00000006949388000158                     00
3410002300274A00000000103138 000000015206 4FAUSTO SILVEIRA DE PAIVA  ME  201765              21022020REA000000000000000000000000002187                    00000000000000000000000                    00000008874195000100                     00
3410002300275A00000013301075 000000029265 6DANTAS SAMARY COMERCIO AGRICOL201584              21022020REA000000000000000000000000083142                    00000000000000000000000                    00000010275685000132                     00
3410002300276A00000013301003 000000009906 6JB MATERIAIS ELETRICOS LTDA ME201389              21022020REA000000000000000000000000034363                    00000000000000000000000                    00000001965594000138                     00
3410002300277A00000010400080 001300104800 5EDIMILSON DOS SANTOS ARAUJO   201621              21022020REA000000000000000000000000014295                    00000000000000000000000                    00000000000778352552                     00
3410002300278A00000010404053 000000002535 0NELMA MORAIS DE AZEVEDO       201697              21022020REA000000000000000000000000275345                    00000000000000000000000                    00000000618825000174                     00
3410002300279A00000010400749 000000000693 6JOSE ALVES FILHO CONSTRUCAO   201601              21022020REA000000000000000000000000126667                    00000000000000000000000                    00000010842709000198                     00
3410002300280A00000013301003 000000015308 7ANTONIO CARLOS DOS SANTOS O CO201420              21022020REA000000000000000000000000027671                    00000000000000000000000                    00000013239007000102                     00
3410002300281A00000008900006 000000502498 6YAVINI NOBREGA CANO 4848057981201334              21022020REA000000000000000000000000056173                    00000000000000000000000                    00000034833639000170                     00
3410002300282A00000013301075 000000029655 4LANCHONETE CLAUDETE LTDA      201612              21022020REA000000000000000000000000161862                    00000000000000000000000                    00000033145407000166                     00
3410002300283A00000010402991 001300053395 1ROBERTO ARAUJO DOS SANTOS     201345              21022020REA000000000000000000000000016708                    00000000000000000000000                    00000000004575043400                     00
3410002300284A00000003301229 000013000644 8LA NOTRE COUSINE LTDA         201421              21022020REA000000000000000000000000113222                    00000000000000000000000                    00000021675847000146                     00
3410002300285A00000013301075 000000029765 8MARILETE PAUL STEIN           201406              21022020REA000000000000000000000000001644                    00000000000000000000000                    00000019959471000150                     00
3410002300286A00000023702621 000000030652 5HIGIENOPOLIS ROTISSERIE E CONE201432              21022020REA000000000000000000000001002648                    00000000000000000000000                    00000011579530000152                     00
3410002300287A00000010403868 000003000308 8BATERIAS S N LTDA             201660              21022020REA000000000000000000000000065966                    00000000000000000000000                    00000007861844000176                     00
3410002300288A00000010401047 001300046885 2CAMILA FERREIRA DA SILVA RODRI201476              21022020REA000000000000000000000000004763                    00000000000000000000000                    00000000005039103336                     00
3410002300289A00000010403220 001300033772 9TIAGO DE SOUZA CASTILHO       201793              21022020REA000000000000000000000000002537                    00000000000000000000000                    00000000007660280465                     00
3410002300290A00000023701749 000000004844 5MILENA DE FATIMA BARBIERI ORTI201351              21022020REA000000000000000000000000012808                    00000000000000000000000                    00000000029621300894                     00
3410002300291A00000023700536 000000025039 2DENISE GONCALVES PEREIRA DA SI201509              21022020REA000000000000000000000000009417                    00000000000000000000000                    00000000033050978848                     00
3410002300292A00000023701849 000000010569 4INGRID CRISTINI FRANCO        201487              21022020REA000000000000000000000000001768                    00000000000000000000000                    00000000006435281130                     00
3410002300293A00000013301078 000000029762 3SIDNEI DE OLIVEIRA LEAL       201700              21022020REA000000000000000000000000006986                    00000000000000000000000                    00000000084299576934                     00
3410002300294A00000000101724 000000008044 6PAULO RANGEL DA COSTA SANTOS  201540              21022020REA000000000000000000000000004854                    00000000000000000000000                    00000000004077127556                     00
3410002300295A00000013301009 000000005768 1KREMER E KUNTZ LTDA           201668              21022020REA000000000000000000000000076873                    00000000000000000000000                    00000002910574000122                     00
3410002300296A00000010400617 001300021974 2JESSICA SUENE RAMOS DE MENDONC201391              21022020REA000000000000000000000000006550                    00000000000000000000000                    00000000008761121495                     00
3410002300297A00000023700450 000000129042 8ETOR LOPEZ RIVERO             201646              21022020REA000000000000000000000000201822                    00000000000000000000000                    00000000019181641850                     00
3410002300298A00000013301009 000000009242 8ALCEU DUARTE                  201505              21022020REA000000000000000000000000003438                    00000000000000000000000                    00000017704896000192                     00
3410002300299A00000000104346 000000020435 8DF AUTO CENTRO EIRELI         201772              21022020REA000000000000000000000000049017                    00000000000000000000000                    00000021102234000110                     00
3410002300300A00000013301003 000000015140 8DIANE PILONETTO               201531              21022020REA000000000000000000000000019026                    00000000000000000000000                    00000028241670000119                     00
3410002300301A00000010400597 001300070810 0FABIO CEZAR DA CONCEICAO CAMIL201382              21022020REA000000000000000000000000029463                    00000000000000000000000                    00000000034617598804                     00
3410002300302A00000013301003 000000006161 1PRODOCIMO E FILHOS LTDA       201399              21022020REA000000000000000000000000375406                    00000000000000000000000                    00000012370646000140                     00
3410002300303A00000010401527 000000021058 3CHRISTINA MARIA NOGUEIRA ROSA 201736              21022020REA000000000000000000000000003920                    00000000000000000000000                    00000000013694150870                     00
3410002300304A00000000101409 000000031866 3JOSE FELIX DE ARAUJO          201796              21022020REA000000000000000000000000002206                    00000000000000000000000                    00000000084962402315                     00
3410002300305A00000023706748 000000017759 8FERNANDO APARECIDO AFONSO     201453              21022020REA000000000000000000000000010422                    00000000000000000000000                    00000000003091229963                     00
3410002300306A00000010400570 001300018690 4FRANCIELLI DOS SANTOS ROSA    201346              21022020REA000000000000000000000000055821                    00000000000000000000000                    00000000007631517932                     00
3410002300307A00000023701992 000000041167 1CONFEITARIA E CONVENIENCIAS DO201782              21022020REA000000000000000000000000825920                    00000000000000000000000                    00000025370152000107                     00
3410002300308A00000023705394 000000010522 8ANTONIO DE SOUSA LOPES        201415              21022020REA000000000000000000000000018327                    00000000000000000000000                    00000000011561190144                     00
3410002300309A00000010400008 001300928337 0DORIMAR MARIA DOS SANTOS      201457              21022020REA000000000000000000000000002266                    00000000000000000000000                    00000000061041963149                     00
3410002300310A00000013301018 000000015453 9ELLEN BURILLE DE OLIVEIRA     201443              21022020REA000000000000000000000000026196                    00000000000000000000000                    00000034984451000122                     00
3410002300311A00000010400897 001300079369 8EDUARDO LUIS BRANCO FERNANDES 201503              21022020REA000000000000000000000000011656                    00000000000000000000000                    00000000025699255869                     00
3410002300312A00000010400227 001300020217 3FRANCISCO ALVES DE JESUS      201477              21022020REA000000000000000000000000032471                    00000000000000000000000                    00000000040778550397                     00
3410002300313A00000010400936 000300003212 7KATIA FERNANDA BAPTISTA 049489201396              21022020REA000000000000000000000000037859                    00000000000000000000000                    00000026225230000142                     00
3410002300314A00000000102812 000000044528 2THIAGO DA SILVA LIMA FERREIRA 201394              21022020REA000000000000000000000000135999                    00000000000000000000000                    00000000002833127340                     00
3410002300315A00000075603125 000002130346 0SILVIO CESAR BIAZOTO          201723              21022020REA000000000000000000000000019732                    00000000000000000000000                    00000009330719000165                     00
3410002300316A00000010401464 001300015391 3EDSON FERREIRA DE ALMEIDA     201515              21022020REA000000000000000000000000003038                    00000000000000000000000                    00000000099242745120                     00
3410002300317A00000013301662 000000009683 0PEREIRA DE CARVALHO E CIA LTDA201390              21022020REA000000000000000000000000005538                    00000000000000000000000                    00000013407878000198                     00
3410002300318A00000000103037 000000025347 2MARIA DAS DORES ARAUJO DE SOUZ201726              21022020REA000000000000000000000000001617                    00000000000000000000000                    00000000001918019177                     00
3410002300319A00000013301075 000000012978 0LAURA GOLL                    201742              21022020REA000000000000000000000000013542                    00000000000000000000000                    00000000072814772953                     00
3410002300320A00000013301075 000000027620 0MARILEUSA JANETE LOPES DE SOUZ201545              21022020REA000000000000000000000000043601                    00000000000000000000000                    00000000001548898902                     00
3410002300321A00000003302151 000001010486 9MARIA TERESA FILIPPELLI       201729              21022020REA000000000000000000000000091000                    00000000000000000000000                    00000000007008460856                     00
3410002300322A00000013301620 000000006482 3VITORIA LIVRARIA E PAPELARIA L201532              21022020REA000000000000000000000000181516                    00000000000000000000000                    00000019005850000100                     00
3410002300323A00000023702999 000001005051 0SILAS DUTRA FREITAS           201762              21022020REA000000000000000000000000041292                    00000000000000000000000                    00000000001888488352                     00
3410002300324A00000013301009 000000009322 0FRANCIELE MANICA HOINATZ      201701              21022020REA000000000000000000000000015750                    00000000000000000000000                    00000025355303000158                     00
3410002300325A00000013301075 000000017497 1ROSANA PETRI SCHAFFER         201522              21022020REA000000000000000000000000026258                    00000000000000000000000                    00000014928692000147                     00
3410002300326A00000023703431 000000025052 0GUARACIABA SOUZA SCRIBELK     201651              21022020REA000000000000000000000000012572                    00000000000000000000000                    00000000086395190725                     00
3410002300327A00000013301075 000000016154 3VALTAMIR ALTHOFF              201373              21022020REA000000000000000000000000002710                    00000000000000000000000                    00000028596197000192                     00
3410002300328A00000013301003 000000015247 1MITRA DIOCESANA DE PARANAVAI  201766              21022020REA000000000000000000000000004851                    00000000000000000000000                    00000075476796002791                     00
3410002300329A00000000101246 000000069168 2VM COMPONENTES ELETRONICOS EIR201416              21022020REA000000000000000000000000002713                    00000000000000000000000                    00000019085524000150                     00
3410002300330A00000023702302 000000004100 9TRADICAO DISTRIBUIDORA DE PERS201374              21022020REA000000000000000000000002952879                    00000000000000000000000                    00000074534819000175                     00
3410002300331A00000010400570 001300097310 8DEBORAH DOS SANTOS CEARA      201737              21022020REA000000000000000000000000009066                    00000000000000000000000                    00000000004391011905                     00
3410002300332A00000010400037 001300039194 1LENILZA DE PONTES CABRAL DA SI201787              21022020REA000000000000000000000000001524                    00000000000000000000000                    00000000080541038400                     00
3410002300333A00000013301003 000000015420 2CAVIN CLINICA VETERINARIA     201510              21022020REA000000000000000000000000036775                    00000000000000000000000                    00000030658854000120                     00
3410002300334A00000013301003 000000013336 1ELEANDRO NEIZ                 201602              21022020REA000000000000000000000000008753                    00000000000000000000000                    00000000004883923908                     00
3410002300335A00000013301003 000000015590 0TURCA BRASIL ALIMENTICIOS     201541              21022020REA000000000000000000000000006388                    00000000000000000000000                    00000031330249000199                     00
3410002300336A00000010400037 000100039133 6JANAINA AGOSTINHO DE MELO     201738              21022020REA000000000000000000000000145423                    00000000000000000000000                    00000000001224481461                     00
3410002300337A00000010403898 001300035739 5BRUNO MAGALHAES FONSECA       201821              21022020REA000000000000000000000000001470                    00000000000000000000000                    00000000000050445294                     00
3410002300338A00000013301075 000000010326 8JONATAS ARCENO DA SILVA       201523              21022020REA000000000000000000000000009701                    00000000000000000000000                    00000029674121000109                     00
3410002300339A00000013301075 000000008069 1JUCIMARA HORSTMANN JOAO       201744              21022020REA000000000000000000000000021245                    00000000000000000000000                    00000019495868000138                     00
3410002300340A00000010400812 001300134677 2ROBBS PIERRY DO NASCIMENTO PER201546              21022020REA000000000000000000000000004124                    00000000000000000000000                    00000000002286426473                     00
3410002300341A00000013301075 000000009920 1SANTAS SAMARY COMERCIO AGRICOL201547              21022020REA000000000000000000000000132605                    00000000000000000000000                    00000010275685000213                     00
3410002300342A00000010404729 001300011125 9ALDRELYLIAN JAK RESTES        201623              21022020REA000000000000000000000000007016                    00000000000000000000000                    00000000002937873952                     00
3410002300343A00000013301075 000000006105 0ASSOCIACAO DE PAIS E AMIGOS DO201537              21022020REA000000000000000000000000335183                    00000000000000000000000                    00000080987829000169                     00
