34100000      081222347623000178                    06248 000000045232 5CELER PAGAMENTOS              Itau Unibanco S.A                       11202202000000000000000                                                                           
34100011C9801040 222347623000178                    06248 000000045232 5CELER PAGAMENTOS                                                                                   00000                                   00000000                     
3410001300001A00000034108131 000000012986 1MICHELE DOS SANTOS PEREIRA    193379              12022020REA000000000000000000000001135200                    00000000000000000000000                    00000000078258897896                     00
3410001300002A00000034107163 000000016426 7AGLAIR SILVA DE SOUZA         193807              12022020REA000000000000000000000000147000                    00000000000000000000000                    00000000079204047704                     00
3410001300003A00000034100762 000000043282 1NELSON LUIZ DE VILLIO         193892              12022020REA000000000000000000000002270400                    00000000000000000000000                    00000000007845912360                     00
3410001300004A00000034103746 000000000764 4VANTUIL OLIVEIRA LOPES        194183              12022020REA000000000000000000000000003200                    00000000000000000000000                    00000000094815239185                     00
3410001300005A00000034109691 000000002566 3CLAUDIA APARECIDA TEIXEIRA ROD193417              12022020REA000000000000000000000000025200                    00000000000000000000000                    00000000000854080421                     00
3410001300006A00000034100393 000000064552 8CARLOS EDUARDO PEREIRA ELETRON193474              12022020REA000000000000000000000000147000                    00000000000000000000000                    00000033100042469230                     00
3410001300007A00000034100059 000000078359 7ADMINISTRADORA DE CARTAO DE TO194784              12022020REA000000000000000000000001135200                    00000000000000000000000                    00000098100071978411                     00
3410001300008A00000034108757 000000029933 7ANDRADE E SANTOS CLINICA ODONT193430              12022020REA000000000000000000000001135200                    00000000000000000000000                    00000025100049402303                     00
3410001300009A00000034101646 000000047209 0LUCIANA SOUSA DE AMARANTE FELI194595              12022020REA000000000000000000000001135200                    00000000000000000000000                    00000002100050501062                     00
3410001300010A00000034100710 000000014358 7ANDERSON RENATO F. DE PAULA CO193316              12022020REA000000000000000000000146714400                    00000000000000000000000                    00000000079841287153                     00
3410001300011A00000034108493 000000040372 2TERESA CRISTINA DOS SANTOS RIB193310              12022020REA000000000000000000000026482200                    00000000000000000000000                    00000000083842523513                     00
3410001300012A00000034106530 000000018212 7MACWELL ANTONIO DE MELO       193418              12022020REA000000000000000000000000025200                    00000000000000000000000                    00000020100048366971                     00
3410001300013A00000034100667 000000016686 2ASSUNCAO SILVA PEREIRA        194027              12022020REA000000000000000000000146714400                    00000000000000000000000                    00000084100019602562                     00
3410001300014A00000034107435 000000000622 1LUCIANA MARIA DA SILVA        193896              12022020REA000000000000000000000001135200                    00000000000000000000000                    00000000066497453830                     00
3410001300015A00000034106668 000000015019 3LUCAS DA LUZ ALVES            193441              12022020REA000000000000000000000000003200                    00000000000000000000000                    00000000071883477433                     00
3410001300016A00000034109686 000000019686 7MARCONES SILVESTRE DE MELO    194162              12022020REA000000000000000000000000025200                    00000000000000000000000                    00000000000443416000                     00
3410001300017A00000034108380 000000027548 0VIVIANE BARROS BARROCA        193794              12022020REA000000000000000000000146714400                    00000000000000000000000                    00000000034473507920                     00
3410001300018A00000034108144 000000022083 0JADAS REIS FILHO              194507              12022020REA000000000000000000000146714400                    00000000000000000000000                    00000000100066345892                     00
3410001300019A00000034106477 000000001025 7WILLY MARTINS                 193616              12022020REA000000000000000000000073357200                    00000000000000000000000                    00000000031813712972                     00
3410001300020A00000034108136 000000017087 8DANIELE DE M S MELO TREINAMENT193777              12022020REA000000000000000000000073357200                    00000000000000000000000                    00000027100021803513                     00
3410001300021A00000034101650 000000043149 5SANTIAGOS BAR E RESTAURANTE LT194713              12022020REA000000000000000000000073357200                    00000000000000000000000                    00000014100078234041                     00
3410001300022A00000034106540 000000012423 4ANTONIO ERAILDO DE SOUSA      193699              12022020REA000000000000000000000073357200                    00000000000000000000000                    00000000085301249010                     00
3410001300023A00000034100560 000000004945 4COLINA CALHAS LTDA            193815              12022020REA000000000000000000000073357200                    00000000000000000000000                    00000063100033262911                     00
3410001300024A00000034104448 000000045029 8EDILSON BATISTA DE SOUZA      193372              12022020REA000000000000000000000073357200                    00000000000000000000000                    00000000004119994430                     00
3410001300025A00000034100080 000000005446 3KARLA APARECIDA FARIA 27845848193414              12022020REA000000000000000000000073357200                    00000000000000000000000                    00000041100031208472                     00
3410001300026A00000034103159 000000006002 3EVANDRO JOSE DE RESENDE       193810              12022020REA000000000000000000000073357200                    00000000000000000000000                    00000000035619913007                     00
3410001300027A00000034109069 000000014300 7ROBERTA MURCIA ANTONIASSI     194396              12022020REA000000000000000000000073357200                    00000000000000000000000                    00000049100077169202                     00
3410001300028A00000034104222 000000005997 6LAZARA BENEDITA SILVEIRA      194487              12022020REA000000000000000000000073357200                    00000000000000000000000                    00000082100029231133                     00
3410001300029A00000034100864 000000010196 9DOUGLAS DA LUZ CARVALHO       194071              12022020REA000000000000000000000073357200                    00000000000000000000000                    00000000067193840150                     00
3410001300030A00000034103754 000000044102 4DAVI COSTA MEDEIROS CONSULTORI194735              12022020REA000000000000000000000073357200                    00000000000000000000000                    00000060100076478312                     00
3410001300031A00000034106948 000000015644 0CAMILA OLIVEIRA XAVIER GANDRA 194229              12022020REA000000000000000000000806929200                    00000000000000000000000                    00000000009784523051                     00
3410001300032A00000034104562 000000048773 8GLEIDSON DOUGLAS LISBOA DE SOU193721              12022020REA000000000000000000000073357200                    00000000000000000000000                    00000058100023464031                     00
3410001300033A00000034108004 000000015567 0JANETE DOS SANTOS SANTIAGO    193311              12022020REA000000000000000000000073357200                    00000000000000000000000                    00000000051526341395                     00
3410001300034A00000034104222 000000005997 6LAZARA BENEDITA SILVEIRA      193881              12022020REA000000000000000000000073357200                    00000000000000000000000                    00000000059845386520                     00
3410001300035A00000034100749 000000013598 4OSEAS SANDOVAL DE OLIVEIRA FIL193930              12022020REA000000000000000000000073357200                    00000000000000000000000                    00000000002571735942                     00
3410001300036A00000034108649 000000004200 2GDF EVENTOS LTDA ME           194655              12022020REA000000000000000000000073357200                    00000000000000000000000                    00000006100093224551                     00
3410001300037A00000034100084 000000015144 8ELETRICMATERIAS ELETRICOS LTDA194633              12022020REA000000000000000000000073357200                    00000000000000000000000                    00000030100061521070                     00
3410001300038A00000034106223 000000018376 2CONSTRULOPES COMERCIO DE MATER193342              12022020REA000000000000000000000073357200                    00000000000000000000000                    00000010100033897330                     00
3410001300039A00000034108789 000000023111 8JK CORRETORA E LOCADORA DE VEI193909              12022020REA000000000000000000000073357200                    00000000000000000000000                    00000047100080648140                     00
3410001300040A00000034104821 000000010432 2PAULO CANDIDO DE SOUZA        194323              12022020REA000000000000000000000073357200                    00000000000000000000000                    00000000068747655070                     00
3410001300041A00000034103893 000000040054 3OSVALDO LOURIANO RODRIGUES 129194702              12022020REA000000000000000000000073357200                    00000000000000000000000                    00000060100021913213                     00
3410001300042A00000034108521 000000023096 4JONATAS DOS SANTOS            193673              12022020REA000000000000000000000073357200                    00000000000000000000000                    00000000020877081263                     00
3410001300043A00000034100215 000000017062 2ERICA FERNANDES PERFUMARIA E B193531              12022020REA000000000000000000000073357200                    00000000000000000000000                    00000000038468586250                     00
3410001300044A00000034103040 000000056748 3ADMAR CLEMENTE DE PAIVA       194274              12022020REA000000000000000000000073357200                    00000000000000000000000                    00000000095607227278                     00
3410001300045A00000034107351 000000001157 7CARLOS ROBERTO DIAS           194389              12022020REA000000000000000000000073357200                    00000000000000000000000                    00000000043672650056                     00
3410001300046A00000034107135 000000003494 5CLEO ALMEIDA FAGUNDES         193960              12022020REA000000000000000000000073357200                    00000000000000000000000                    00000000057866347603                     00
3410001300047A00000034108527 000000011176 2CRISTINA MARIA DE ALENCAR ROCH194521              12022020REA000000000000000000000073357200                    00000000000000000000000                    00000000036300590232                     00
3410001300048A00000034102711 000000006664 3EMERSON ROBERTO LARSEN        194185              12022020REA000000000000000000000073357200                    00000000000000000000000                    00000000094968001738                     00
3410001300049A00000034100355 000000015107 7JAQUELINE MUTOLESE            193509              12022020REA000000000000000000000073357200                    00000000000000000000000                    00000096100095686021                     00
3410001300050A00000034103809 000000034140 1MARCELO FORTE SUMAN           194417              12022020REA000000000000000000000073357200                    00000000000000000000000                    00000077100037734981                     00
3410001300051A00000034101003 000000021326 9ERIKO MICHAEL SHAUERTE        193587              12022020REA000000000000000000000073357200                    00000000000000000000000                    00000000044869965852                     00
3410001300052A00000034103827 000000018411 4AF COMERCIO DE VEICULOS LTDA  194804              12022020REA000000000000000000000073357200                    00000000000000000000000                    00000088100003851150                     00
3410001300053A00000034101640 000000052990 3FRANCISCO DE ASSIS BATISTA DA 194533              12022020REA000000000000000000000073357200                    00000000000000000000000                    00000086100024707171                     00
3410001300054A00000034108943 000000012920 8FELIPE AUGUSTO PEREIRA AMARAL 193500              12022020REA000000000000000000000073357200                    00000000000000000000000                    00000000097663473280                     00
3410001300055A00000034100761 000000013883 3MAURICIO SANTOS               194565              12022020REA000000000000000000000073357200                    00000000000000000000000                    00000000031819785904                     00
3410001300056A00000034107011 000000008564 9SERGIO JORCELIO DE SA TORRES  193433              12022020REA000000000000000000000073357200                    00000000000000000000000                    00000000094194206983                     00
3410001300057A00000034105572 000000022955 6SANTA ISABEL COM DE PRODUTOS Q193610              12022020REA000000000000000000000073357200                    00000000000000000000000                    00000091100049513332                     00
3410001300058A00000034100137 000000018619 3RAFAEL MARTINS RIBEIRO RACOES 194749              12022020REA000000000000000000000073357200                    00000000000000000000000                    00000062100075928441                     00
3410001300059A00000034100501 000000022028 9FRANCIS DIAS BARRETO          194761              12022020REA000000000000000000000073357200                    00000000000000000000000                    00000000093574378270                     00
3410001300060A00000034106492 000000032947 6VIVIANE TAYNARA NASCIMENTO DOS193564              12022020REA000000000000000000000073357200                    00000000000000000000000                    00000000023126801730                     00
3410001300061A00000034104821 000000020362 9SIDNEY FERREIRA               194719              12022020REA000000000000000000000073357200                    00000000000000000000000                    00000000027707514254                     00
3410001300062A00000034104821 000000017597 5LINESIO JOAO MIGUEL           194118              12022020REA000000000000000000000073357200                    00000000000000000000000                    00000000035773106779                     00
3410001300063A00000034100507 000000018638 5ECSSANI FERNANDA SIQUEIRA     194291              12022020REA000000000000000000000073357200                    00000000000000000000000                    00000000071823606083                     00
3410001300064A00000034104821 000000015776 7FELIPE BARRETO                194378              12022020REA000000000000000000000073357200                    00000000000000000000000                    00000000086792586447                     00
3410001300065A00000034104409 000000032647 9ANA MARIA COSTA DE OLIVEIRA   194462              12022020REA000000000000000000000073357200                    00000000000000000000000                    00000000099133975450                     00
3410001300066A00000034107351 000000028697 1JOAO PEDRO LIMA CUNHA         194166              12022020REA000000000000000000000073357200                    00000000000000000000000                    00000000050614497701                     00
3410001300067A00000034104516 000000024480 5R S RIB SILK LTDA             194694              12022020REA000000000000000000000073357200                    00000000000000000000000                    00000000100025114130                     00
3410001300068A00000034103094 000000025022 6VALOR INOVACAO  GESTAO DE NEGO194656              12022020REA000000000000000000000073357200                    00000000000000000000000                    00000060100027638931                     00
3410001300069A00000034109651 000000001848 4SANDRO BARBOT AROSO MAIA      193998              12022020REA000000000000000000000073357200                    00000000000000000000000                    00000000097820704241                     00
3410001300070A00000034107767 000000003341 3LOPES COMERCIO DE VEICULOS LTD194268              12022020REA000000000000000000000073357200                    00000000000000000000000                    00000078100061536522                     00
3410001300071A00000034102902 000000000339 7RESTAURANTE BOA MESA EIRELI   193422              12022020REA000000000000000000000073357200                    00000000000000000000000                    00000015100052759320                     00
3410001300072A00000034107399 000000016889 2APARECIDA LUCELENA SOAVE FALAS193685              12022020REA000000000000000000000073357200                    00000000000000000000000                    00000000094857502429                     00
3410001300073A00000034108665 000000013507 8MARIZA CELENI SUARES          193589              12022020REA000000000000000000000073357200                    00000000000000000000000                    00000000032804014533                     00
3410001300074A00000034104307 000000009436 9NAIANE RODRIGUES DA SILVA     194807              12022020REA000000000000000000000073357200                    00000000000000000000000                    00000000000171062050                     00
3410001300075A00000034101640 000000048969 4JBL CONSULTORIA DE MEIOS DE PA193552              12022020REA000000000000000000000073357200                    00000000000000000000000                    00000073100093372523                     00
3410001300076A00000034109350 000000029693 6ADRIANA LIMA DA SILVA         194137              12022020REA000000000000000000000073357200                    00000000000000000000000                    00000000010992453704                     00
3410001300077A00000034100150 000000022890 6BR3 SERVICOS DE COMUNICACAOLTD193686              12022020REA000000000000000000000073357200                    00000000000000000000000                    00000080100079364280                     00
3410001300078A00000034104298 000000024188 8KATIA VIVIANE SILVA BRAGA DE S194813              12022020REA000000000000000000000073357200                    00000000000000000000000                    00000000003111366200                     00
3410001300079A00000034107364 000000022806 9JUNIO DOS REIS ANACLETO ATAIDE194754              12022020REA000000000000000000000073357200                    00000000000000000000000                    00000000067639508290                     00
3410001300080A00000034108174 000000036144 7MAYCOW EDUARDO DE CASTRO      193635              12022020REA000000000000000000000073357200                    00000000000000000000000                    00000000096813092863                     00
3410001300081A00000034100002 000000035253 2THIAGO MOREIRA ANDRE          194727              12022020REA000000000000000000000073357200                    00000000000000000000000                    00000003424849000180                     00
3410001300082A00000034109048 000000025903 1LEONARDO MATOS ALVES          194593              12022020REA000000000000000000000073357200                    00000000000000000000000                    00000000020382916750                     00
3410001300083A00000034108615 000000099635 5MARIA SALETE GOMES SALES      194355              12022020REA000000000000000000000073357200                    00000000000000000000000                    00000088100061372531                     00
3410001300084A00000034100150 000000022890 6BR3 SERVICOS DE COMUNICACAO LT194221              12022020REA000000000000000000000073357200                    00000000000000000000000                    00000080100079364280                     00
3410001300085A00000034103827 000000055993 5JOANA DARC MASCARENHAS DA SILV194458              12022020REA000000000000000000000073357200                    00000000000000000000000                    00000000019393307938                     00
3410001300086A00000034100002 000000035253 2LUCAS FERREIRA MAGALHAES      194292              12022020REA000000000000000000000073357200                    00000000000000000000000                    00000003424849000180                     00
3410001300087A00000034100264 000000095489 2SPLENDORE BLINDAGEM EIRELI    194293              12022020REA000000000000000000000073357200                    00000000000000000000000                    00000028100038088211                     00
3410001300088A00000034100002 000000035253 2TALITA CANDIDO NAKAMURA 377290194232              12022020REA000000000000000000000073357200                    00000000000000000000000                    00000003424849000180                     00
3410001300089A00000034106396 000000024995 2YGOR VINICIUS BARROS DE MELO N193844              12022020REA000000000000000000000073357200                    00000000000000000000000                    00000000060817467393                     00
3410001300090A00000034100002 000000035253 2EDIMILSON CAMARGO             193716              12022020REA000000000000000000000073357200                    00000000000000000000000                    00000003424849000180                     00
3410001300091A00000034100002 000000035253 2ALEXANDRE RAMOS               194136              12022020REA000000000000000000000073357200                    00000000000000000000000                    00000003424849000180                     00
3410001300092A00000034101657 000000029588 5FABIENE MARIA SANETI          193557              12022020REA000000000000000000000073357200                    00000000000000000000000                    00000000030816287252                     00
3410001300093A00000034101646 000000028331 5MARIA RENATA ROCHA SILVA      194438              12022020REA000000000000000000000073357200                    00000000000000000000000                    00000019100051034731                     00
3410001300094A00000034100002 000000035253 2DONA MOCA COMERCIO DE VARIEDAD193770              12022020REA000000000000000000000073357200                    00000000000000000000000                    00000003424849000180                     00
3410001300095A00000034100002 000000035253 2CLAUDINEI DONIZETE T          193780              12022020REA000000000000000000000073357200                    00000000000000000000000                    00000000033879025061                     00
3410001300096A00000034108174 000000036144 7MAYCOW EDUARDO  DE CASTRO     193314              12022020REA000000000000000000000073357200                    00000000000000000000000                    00000069100059461232                     00
3410001300097A00000034100761 000000013811 4LARISSA FERREIRA DA COSTA43243194798              12022020REA000000000000000000000073357200                    00000000000000000000000                    00000097100008142623                     00
3410001300098A00000034104091 000000000326 1LUIZ REINALDO FERREIRA MAIA   194762              12022020REA000000000000000000000073357200                    00000000000000000000000                    00000000060864386680                     00
3410001300099A00000034106458 000000004080 2S S YAMAGISHI GOLDSCHMIDY     193978              12022020REA000000000000000000000073357200                    00000000000000000000000                    00000041100088304130                     00
3410001300100A00000034101615 000000041390 1DECK LAGO EVENTOS LTDA        194452              12022020REA000000000000000000000073357200                    00000000000000000000000                    00000076100006127251                     00
3410001300101A00000034100167 000000026160 1JEANE MARIA DA SILVA CIANFA   193553              12022020REA000000000000000000000073357200                    00000000000000000000000                    00000000080897663152                     00
3410001300102A00000034102974 000000035415 7ROSEMERY DOS SANTOS REGO COSME193628              12022020REA000000000000000000000073357200                    00000000000000000000000                    00000008100090951412                     00
3410001300103A00000034101644 000000067808 6HERMANO LUIZ LOPES LOURENCO   193897              12022020REA000000000000000000000073357200                    00000000000000000000000                    00000000002155845375                     00
3410001300104A00000034100002 000000035253 2VWJ COMERCIO DE COSMETICO LTDA194506              12022020REA000000000000000000000073357200                    00000000000000000000000                    00000003424849000180                     00
3410001300105A00000034109226 000000004026 0MARIA DE FATIMA PRATES SANTOS 194155              12022020REA000000000000000000000073357200                    00000000000000000000000                    00000093100062072186                     00
3410001300106A00000034100191 000000038971 7CASA DE MOVEIS RUSTICOS UNIAO 193971              12022020REA000000000000000000000073357200                    00000000000000000000000                    00000048100082137642                     00
3410001300107A00000034106939 000000041616 7PATRICK ALAN DURAES SOUTO     193689              12022020REA000000000000000000000806929200                    00000000000000000000000                    00000000006181809740                     00
3410001300108A00000034109226 000000004115 1LUCIA APARECIDA DOS SANTOS CON193611              12022020REA000000000000000000000073357200                    00000000000000000000000                    00000003100031180635                     00
3410001300109A00000034100368 000000017650 9CAFE DAS COISINHAS ARTIGOS DE 193558              12022020REA000000000000000000000073357200                    00000000000000000000000                    00000014100035098332                     00
3410001300110A00000034100654 000000061143 3CLEITON LUCIO ALMEIDA DOS SANT194788              12022020REA000000000000000000000073357200                    00000000000000000000000                    00000000086112484307                     00
3410001300111A00000034106461 000000043416 6JAMELE DE MENEZES DE GOIS     194463              12022020REA000000000000000000000073357200                    00000000000000000000000                    00000000010385277406                     00
3410001300112A00000034100196 000000013151 0PAOLA ROLLO MANSUR FLECHA DE L193501              12022020REA000000000000000000000073357200                    00000000000000000000000                    00000053100009511871                     00
3410001300113A00000034106244 000000025680 3ROGERIO DE ARAUJO ROBERTO     194811              12022020REA000000000000000000000073357200                    00000000000000000000000                    00000000086168591443                     00
3410001300114A00000034109639 000000016124 0JULIANO AUGUSTO LLUIS MENDES  194764              12022020REA000000000000000000000073357200                    00000000000000000000000                    00000000003876590132                     00
3410001300115A00000034108611 000000007295 3MIYUKI ROTISSERIE LTDA ME     194508              12022020REA000000000000000000000073357200                    00000000000000000000000                    00000008100020784840                     00
3410001300116A00000034102974 000000038232 3RAYMUNDO RIBOLLA              194491              12022020REA000000000000000000000073357200                    00000000000000000000000                    00000000094846321738                     00
3410001300117A00000034102974 000000038232 3RAYMUNDO RIBOLLA              193435              12022020REA000000000000000000000073357200                    00000000000000000000000                    00000000094846321738                     00
3410001300118A00000034108955 000000014317 0INGRID VERONESI DE CARVALHO RO193805              12022020REA000000000000000000000073357200                    00000000000000000000000                    00000000048885253741                     00
3410001300119A00000034107146 000000021313 2MARCOS ANTONIO DE SALES CELEST194604              12022020REA000000000000000000000073357200                    00000000000000000000000                    00000000082858728070                     00
3410001300120A00000034101587 000000009427 5GI COMERCIO DE VEICULOS LTDA  194250              12022020REA000000000000000000000073357200                    00000000000000000000000                    00000024100051133211                     00
3410001300121A00000034107153 000000006454 3SUPERMERCADO DA FAMILIA LTDA  193878              12022020REA000000000000000000000073357200                    00000000000000000000000                    00000099720019577650                     00
3410001300122A00000034100792 000000063933 8EDUSA INDUSTRIAL DE ACOS LTDA 193784              12022020REA000000000000000000000073357200                    00000000000000000000000                    00000027100039056576                     00
3410001300123A00000034100614 000000016218 8CRISTIANE RODRIGUES FERREIRA  194225              12022020REA000000000000000000000073357200                    00000000000000000000000                    00000000096692053870                     00
3410001300124A00000034101003 000000082988 2MARCIO MENDONCA SUBRINHO      193436              12022020REA000000000000000000000073357200                    00000000000000000000000                    00000000021863762612                     00
3410001300125A00000034100479 000000072704 2RONALDO CARLOS DOS SANTOS     194640              12022020REA000000000000000000000073357200                    00000000000000000000000                    00000000027130895497                     00
3410001300126A00000034106680 000000015662 4REGINALDO JABALI DA SILVA     194222              12022020REA000000000000000000000073357200                    00000000000000000000000                    00000000086936538819                     00
3410001300127A00000034109383 000000019046 0CLAUDIO LUIZ DUARTE 0310673160194173              12022020REA000000000000000000000073357200                    00000000000000000000000                    00000028100002254592                     00
3410001300128A00000034107221 000000028048 5ELCILENE EVANGELISTA ALBUQUERQ193468              12022020REA000000000000000000000073357200                    00000000000000000000000                    00000000019201827482                     00
3410001300129A00000034102974 000000022043 2LEONARDO DAVID MICHELS        194454              12022020REA000000000000000000000073357200                    00000000000000000000000                    00000076100013369390                     00
3410001300130A00000034101422 000000004451 9RAFAEL RIBEIRO MARCIANO RESTAU193598              12022020REA000000000000000000000073357200                    00000000000000000000000                    00000063100010608991                     00
3410001300131A00000034104453 000000018199 4AVANCE EQUIPAMENTOS E ACESSORI194518              12022020REA000000000000000000000073357200                    00000000000000000000000                    00000069100063719622                     00
3410001300132A00000034104453 000000022550 2AVANTEC SERVICOS E COMERCIO LT194499              12022020REA000000000000000000000073357200                    00000000000000000000000                    00000053100007961682                     00
3410001300133A00000034100066 000000036043 9CENTRO BRASILEIRO DE UROLOGIA 194045              12022020REA000000000000000000000073357200                    00000000000000000000000                    00000054100009484151                     00
3410001300134A00000034104453 000000012173 5AVANCAR CURSOS DE CAPACITACAO 194523              12022020REA000000000000000000000073357200                    00000000000000000000000                    00000094100050396841                     00
3410001300135A00000034107241 000000004033 1AMANDA PAULINA BONARA CAPARROZ194207              12022020REA000000000000000000000073357200                    00000000000000000000000                    00000000061893791254                     00
3410001300136A00000034101681 000000012937 3SOCIEDADE CLUBE SEASON        193317              12022020REA000000000000000000000073357200                    00000000000000000000000                    00000075100068048816                     00
3410001300137A00000034100002 000000035253 2ERIVALDO DOS SANTOS ROCHA     194007              12022020REA000000000000000000000073357200                    00000000000000000000000                    00000007100026453750                     00
3410001300138A00000034104396 000000039520 6TEIXEIRA MOTOS EIRELI         194371              12022020REA000000000000000000000073357200                    00000000000000000000000                    00000010100062681222                     00
3410001300139A00000034100864 000000007114 7ELIANA BEZERRA DE SOUSA FEITOS194251              12022020REA000000000000000000000073357200                    00000000000000000000000                    00000000003117326820                     00
3410001300140A00000034106369 000000037321 9GILBERTO BARRIL DA SILVA      194464              12022020REA000000000000000000000073357200                    00000000000000000000000                    00000017100011494272                     00
3410001300141A00000034100332 000000008778 2MARIA ZELIA TEREZA DE SOUZA   193792              12022020REA000000000000000000000073357200                    00000000000000000000000                    00000009100076156925                     00
3410001300142A00000034100452 000000027015 0MIX REI CONVENIENCIA COMERCIAL193350              12022020REA000000000000000000000073357200                    00000000000000000000000                    00000076100051121003                     00
3410001300143A00000034108271 000000055960 4FRANCISCO EDSON FERREIRA JUNIO193933              12022020REA000000000000000000000073357200                    00000000000000000000000                    00000000002255758679                     00
3410001300144A00000034109179 000000022009 1EDIMILSON DOS SANTOS BARROS   193322              12022020REA000000000000000000000073357200                    00000000000000000000000                    00000000018437853230                     00
3410001300145A00000034101591 000000042414 6ANDRE LUIZ PRECIOZO PIRES     194711              12022020REA000000000000000000000073357200                    00000000000000000000000                    00000000044105871536                     00
3410001300146A00000034100097 000000086255 1GENILSON LOURENCO DE LIMA     193327              12022020REA000000000000000000000073357200                    00000000000000000000000                    00000000067857008842                     00
3410001300147A00000034100045 000000063933 3DOCTORS INDUSTRIA E COMERCIO D193956              12022020REA000000000000000000000073357200                    00000000000000000000000                    00000027100053306132                     00
3410001300148A00000034106083 000000045689 4ERIKA DILLIANY GAYA RABELO DOS193460              12022020REA000000000000000000000073357200                    00000000000000000000000                    00000000002209807719                     00
3410001300149A00000034100002 000000035253 2A  G COSMETICOS LTDA          194721              12022020REA000000000000000000000073357200                    00000000000000000000000                    00000003424849000180                     00
3410001300150A00000034107410 000000017050 5FA ARAUJO LIMA FUNILARIA E PIN194757              12022020REA000000000000000000000073357200                    00000000000000000000000                    00000004100048333811                     00
3410001300151A00000034100002 000000035253 2CLEBER PEDROSO VIANA 383094848193861              12022020REA000000000000000000000073357200                    00000000000000000000000                    00000003424849000180                     00
3410001300152A00000034108015 000000003920 2MALHARIA TOQUE FINAL LTDA     193585              12022020REA000000000000000000000073357200                    00000000000000000000000                    00000000100013209500                     00
3410001300153A00000034108015 000000003977 2ERICA JAQUELINE DOS SANTOS    194031              12022020REA000000000000000000000073357200                    00000000000000000000000                    00000020100088760040                     00
3410001300154A00000034108015 000000003912 9INDUSTRIA E COMERCIO DE MALHAS194157              12022020REA000000000000000000000073357200                    00000000000000000000000                    00000057100036866683                     00
3410001300155A00000034105643 000000014898 3SANTOS E PASTORINI CLINICA VET193607              12022020REA000000000000000000000073357200                    00000000000000000000000                    00000081100034163613                     00
3410001300156A00000034100002 000000035253 2ROSINEIDE JACOME BISPO        194347              12022020REA000000000000000000000073357200                    00000000000000000000000                    00000000001438606060                     00
3410001300157A00000034101646 000000032444 0COMERCIAL J AQUINO EIRELI     193856              12022020REA000000000000000000000073357200                    00000000000000000000000                    00000003100087392420                     00
3410001300158A00000034101644 000000000050 5AUTO ELETRICA CAMPO LTDA      194568              12022020REA000000000000000000000073357200                    00000000000000000000000                    00000020100062696962                     00
3410001300159A00000034107761 000000004979 5GREGORIO MARTIN LOBATO        193885              12022020REA000000000000000000000073357200                    00000000000000000000000                    00000000006889903390                     00
3410001300160A00000034100002 000000035253 2ALLOR COMERCIO E DISTRIBUICAO 193649              12022020REA000000000000000000000073357200                    00000000000000000000000                    00000003424849000180                     00
3410001300161A00000034100002 000000035253 2COMMIL COMERCIO E SERVICOS LTD193845              12022020REA000000000000000000000073357200                    00000000000000000000000                    00000003424849000180                     00
3410001300162A00000034107915 000000013985 6DIEGO HENRIQUE ARAUJO FERREIRA194519              12022020REA000000000000000000000073357200                    00000000000000000000000                    00000000022132697507                     00
3410001300163A00000034108015 000000007504 0RODOLFO PEREIRA RIBEIRO       194809              12022020REA000000000000000000000073357200                    00000000000000000000000                    00000030100086685771                     00
3410001300164A00000034103010 000000010020 8KONCEPT CAR COMERCIO E SERVICO194141              12022020REA000000000000000000000073357200                    00000000000000000000000                    00000041100017368303                     00
3410001300165A00000034101644 000000006614 2ALCAR VEICULOS LTDA           194120              12022020REA000000000000000000000073357200                    00000000000000000000000                    00000005100081366511                     00
3410001300166A00000034100002 000000035253 2MICHELLE PEREIRA RAPINI 216315194457              12022020REA000000000000000000000073357200                    00000000000000000000000                    00000003424849000180                     00
3410001300167A00000034101644 000000005205 0JUAREZ BUENO DA SILVA         194424              12022020REA000000000000000000000073357200                    00000000000000000000000                    00000000078154101971                     00
3410001300168A00000034103033 000000008604 6ROSALIA FERREIRA SOUZA COSTA  194820              12022020REA000000000000000000000073357200                    00000000000000000000000                    00000000086645100914                     00
3410001300169A00000034107957 000000028895 9JACKSON FERREIRA DA SILVA     194629              12022020REA000000000000000000000073357200                    00000000000000000000000                    00000000092145303510                     00
3410001300170A00000034106248 000000038968 3LUCCAS DE SOUZA MELO E SILVA  194379              12022020REA000000000000000000000073357200                    00000000000000000000000                    00000000004802993064                     00
3410001300171A00000034100137 000000076327 2MARIA APARECIDA ALVES DA SILVA194239              12022020REA000000000000000000000073357200                    00000000000000000000000                    00000000080800544950                     00
3410001300172A00000034100002 000000035253 2R MANOSSO COSMETICOS  ME      194397              12022020REA000000000000000000000073357200                    00000000000000000000000                    00000067100069149722                     00
3410001300173A00000034108184 000000014957 6JOAO CORREIA ALVES            194127              12022020REA000000000000000000000073357200                    00000000000000000000000                    00000067100007239920                     00
3410001300174A00000034106248 000000031930 0PAX BR COMERCIO E SERVICOS DE 194219              12022020REA000000000000000000000073357200                    00000000000000000000000                    00000086100053130611                     00
3410001300175A00000034107821 000000002227 9GILMAR MIRANDA DE OLIVEIRA JUN194485              12022020REA000000000000000000000073357200                    00000000000000000000000                    00000000064140795530                     00
3410001300176A00000034105079 000000063494 4AGROPECUARIA BR EIRELI        194009              12022020REA000000000000000000000073357200                    00000000000000000000000                    00000053100013279012                     00
3410001300177A00000034100002 000000035253 2DIEGO RICARDO ZAGO  COSMETICOS194469              12022020REA000000000000000000000073357200                    00000000000000000000000                    00000003424849000180                     00
3410001300178A00000034105346 000000003303 7GUTEMBERGUE MURADA ALVES      194246              12022020REA000000000000000000000073357200                    00000000000000000000000                    00000000002305909764                     00
3410001300179A00000034108148 000000001115 1SANDRA FERNANDES              194758              12022020REA000000000000000000000073357200                    00000000000000000000000                    00000038100038764431                     00
3410001300180A00000034100002 000000035253 2MONICA MARIA LIMA MAIA 6865018194042              12022020REA000000000000000000000073357200                    00000000000000000000000                    00000003424849000180                     00
3410001300181A00000034101514 000000012928 5CLOVIS ROBERTO SAQUELLI       194708              12022020REA000000000000000000000073357200                    00000000000000000000000                    00000000035883571069                     00
3410001300182A00000034100002 000000035253 2PAULO PEREIRA JUNIOR          194358              12022020REA000000000000000000000073357200                    00000000000000000000000                    00000003424849000180                     00
3410001300183A00000034108031 000000009702 8ADAO ROBERTO BERGAMIN ITATIBA 194280              12022020REA000000000000000000000073357200                    00000000000000000000000                    00000029100012223320                     00
3410001300184A00000034108394 000000006376 5GG ELETRO DIESEL LTDA         193427              12022020REA000000000000000000000073357200                    00000000000000000000000                    00000071100046282740                     00
3410001300185A00000034100940 000000037830 0DUSTER COMERCIO DE AUTOPECAS E193556              12022020REA000000000000000000000073357200                    00000000000000000000000                    00000070100059360132                     00
3410001300186A00000034100002 000000035253 2SERGIO LUIZ VOLSKI            194095              12022020REA000000000000000000000073357200                    00000000000000000000000                    00000003424849000180                     00
3410001300187A00000034100204 000000027744 6DEBORAH MACEDO DE SOUZA       194614              12022020REA000000000000000000000073357200                    00000000000000000000000                    00000000000764174400                     00
3410001300188A00000034103768 000000015142 9HILTON PRETE FERNANDES        194160              12022020REA000000000000000000000073357200                    00000000000000000000000                    00000000002852858576                     00
3410001300189A00000034100002 000000035253 2COMERCIAL DE COSMETICOS BELEZA194688              12022020REA000000000000000000000073357200                    00000000000000000000000                    00000003424849000180                     00
3410001300190A00000034101644 000000066493 8GILDOMAR DOS SANTOS           194126              12022020REA000000000000000000000073357200                    00000000000000000000000                    00000000019195302824                     00
3410001300191A00000034100002 000000035253 2ANTONIO CESAR DEZEN 1233154389193420              12022020REA000000000000000000000073357200                    00000000000000000000000                    00000010100099164122                     00
3410001300192A00000034108549 000000005501 3ADRIANA MITIKO HACHIMOTO      194570              12022020REA000000000000000000000073357200                    00000000000000000000000                    00000000041878556371                     00
3410001300193A00000034100002 000000035253 2ALICE MARIA ZANATTA PERBONI   194387              12022020REA000000000000000000000073357200                    00000000000000000000000                    00000003424849000180                     00
3410001300194A00000034100002 000000035253 2N C BATISTA COSMETICOS        193901              12022020REA000000000000000000000073357200                    00000000000000000000000                    00000046100030820102                     00
3410001300195A00000034100454 000000021765 1OLIMPIO AUGUSTO NAVAIS        193854              12022020REA000000000000000000000073357200                    00000000000000000000000                    00000000003657304150                     00
3410001300196A00000034106481 000000000907 1LUCAS DIAS DE SOUZA           194043              12022020REA000000000000000000000073357200                    00000000000000000000000                    00000000075614546510                     00
3410001300197A00000034104417 000000092300 2SOUZA E SOUZA COMERCIO DE MEDI193629              12022020REA000000000000000000000073357200                    00000000000000000000000                    00000012100032967402                     00
3410001300198A00000034105655 000000056595 9LUIZ CARLOS DE ASSIS BEZERRA  193942              12022020REA000000000000000000000073357200                    00000000000000000000000                    00000000086753637028                     00
3410001300199A00000034106004 000000008017 9PAULO ROBERTO RODRIGUES ALVES 194281              12022020REA000000000000000000000073357200                    00000000000000000000000                    00000000091739815831                     00
3410001300200A00000034100002 000000035253 2JR COSMETICOS  E REPRESENTACAO193912              12022020REA000000000000000000000073357200                    00000000000000000000000                    00000003424849000180                     00
3410001300201A00000034100939 000000016870 4FABIANA PEREIRA FELIX FIGUEIRE194382              12022020REA000000000000000000000073357200                    00000000000000000000000                    00000000086181000569                     00
3410001300202A00000034108121 000000013006 9RICARDO MASSATO KOBE KUROKI   194759              12022020REA000000000000000000000073357200                    00000000000000000000000                    00000000003242769821                     00
3410001300203A00000034100263 000000062484 3RAYARA CAROLINE DE SOUZA SANTO194311              12022020REA000000000000000000000073357200                    00000000000000000000000                    00000000005850123253                     00
3410001300204A00000034108131 000000001282 8IRANDUBA FRIGORIFICO DE PESCAD193830              12022020REA000000000000000000000073357200                    00000000000000000000000                    00000050100092980440                     00
3410001300205A00000034100002 000000035253 2NETWORK BEAUTY  FASHION COSMET193993              12022020REA000000000000000000000073357200                    00000000000000000000000                    00000008100094842430                     00
3410001300206A00000034103857 000000057005 9JOAO ANTUNES RIBEIRO JUNIOR   194455              12022020REA000000000000000000000073357200                    00000000000000000000000                    00000092100096018311                     00
3410001300207A00000034107176 000000028550 5CLINICA DE BIOMEDICINA ESTETIC193785              12022020REA000000000000000000000073357200                    00000000000000000000000                    00000017100087838671                     00
3410001300208A00000034103218 000000056644 0VILA DIVANO MOVEIS E DECORACOE193713              12022020REA000000000000000000000073357200                    00000000000000000000000                    00000009100073472372                     00
3410001300209A00000034105245 000000003832 7ALEX SANDRO VALEJO EVES       194542              12022020REA000000000000000000000073357200                    00000000000000000000000                    00000000041107829100                     00
3410001300210A00000034101011 000000011411 1PLANO FUTURO EIRELLI          194060              12022020REA000000000000000000000073357200                    00000000000000000000000                    00000054100098985202                     00
3410001300211A00000034106507 000000011259 4LANCHONETE  CHURRASCO DO MIRIA194312              12022020REA000000000000000000000440143200                    00000000000000000000000                    00000056100096698821                     00
3410001300212A00000034107761 000000015370 4NADIM MOHAMAD MOURAD          193335              12022020REA000000000000000000000073357200                    00000000000000000000000                    00000000047827967493                     00
3410001300213A00000034100479 000000055613 6ELIONORA CHAVES BOUTIQUE E BEM194025              12022020REA000000000000000000000073357200                    00000000000000000000000                    00000097100051954442                     00
3410001300214A00000034105606 000000029019 4ALISSON OLIVEIRA NUNES        193549              12022020REA000000000000000000000073357200                    00000000000000000000000                    00000000051124941827                     00
3410001300215A00000034103212 000000021507 7MILESSIS VIAGENS E TURISMO    193411              12022020REA000000000000000000000073357200                    00000000000000000000000                    00000069100020419810                     00
3410001300216A00000034100772 000000014314 5OZONIOVET COMERCIO C EIRELI  M194106              12022020REA000000000000000000000073357200                    00000000000000000000000                    00000082100029350271                     00
3410001300217A00000034100399 000000036538 6RAIDHO VIAGENS TURISMO        194193              12022020REA000000000000000000000073357200                    00000000000000000000000                    00000046100045312546                     00
3410001300218A00000034102901 000000002840 3ABREUTUR VIAGENS E TURISMO LTD194520              12022020REA000000000000000000000073357200                    00000000000000000000000                    00000006100031799806                     00
3410001300219A00000034100196 000000024494 1AGAXTUR AGENCIA DE VIAGENS E T193449              12022020REA000000000000000000000073357200                    00000000000000000000000                    00000097100069512606                     00
3410001300220A00000034104445 000000026662 2HMV TREINAMENTOS EMPRESARIAL  193385              12022020REA000000000000000000000073357200                    00000000000000000000000                    00000049100009580312                     00
3410001300221A00000034100002 000000035253 2VANESSA MARCHESIN             194188              12022020REA000000000000000000000073357200                    00000000000000000000000                    00000015100092272311                     00
3410001300222A00000034101571 000000022214 8PAULO RIBEIRO DE ALMEIDA      194404              12022020REA000000000000000000000073357200                    00000000000000000000000                    00000000066849421492                     00
3410001300223A00000034107161 000000023659 6JJ1 CALCADOS  EIRELI          193718              12022020REA000000000000000000000660214800                    00000000000000000000000                    00000005100061883803                     00
3410001300224A00000034104442 000000021258 7GOMES SOARES INDUSTRIA E COMER194676              12022020REA000000000000000000000073357200                    00000000000000000000000                    00000024100043545031                     00
3410001300225A00000034108527 000000006728 7ANA EMILIA SILVA              193470              12022020REA000000000000000000000073357200                    00000000000000000000000                    00000000040303682557                     00
3410001300226A00000034104453 000000021503 2CRISTIANO SAVIO FERREIRA DOS S194748              12022020REA000000000000000000000073357200                    00000000000000000000000                    00000000002339590329                     00
3410001300227A00000034100845 000000056802 1ALINE RAQUEL DE SOUZA         193952              12022020REA000000000000000000000073357200                    00000000000000000000000                    00000091100034641662                     00
3410001300228A00000034108770 000000005754 8TATIANA APARECIDA DA SILVA    193377              12022020REA000000000000000000000073357200                    00000000000000000000000                    00000000080805966382                     00
3410001300229A00000034103613 000000000878 2JOAO CARLOS SOUZA DOS SANTOS  194627              12022020REA000000000000000000000073357200                    00000000000000000000000                    00000000031885415540                     00
3410001300230A00000034107767 000000005489 8JUVENAL HOLANDA BRASIL NETO   194230              12022020REA000000000000000000000073357200                    00000000000000000000000                    00000000094345628725                     00
3410001300231A00000034101011 000000013748 4GIOVANA                       193862              12022020REA000000000000000000000073357200                    00000000000000000000000                    00000000088848566715                     00
3410001300232A00000034101640 000000023772 1SCB CREDITO SOCIEDADE DE CREDI194047              12022020REA000000000000000000000073357200                    00000000000000000000000                    00000032100023703480                     00
3410001300233A00000034100560 000000019395 5C N CARDOSO NOGUEIRA MOVEIS   194003              12022020REA000000000000000000000073357200                    00000000000000000000000                    00000057100050597092                     00
3410001300234A00000034100560 000000021707 7T LUIS CARDOSO                194048              12022020REA000000000000000000000073357200                    00000000000000000000000                    00000000100010162492                     00
3410001300235A00000034106572 000000061576 0AFONSO MARIA FERREIRA         193880              12022020REA000000000000000000000073357200                    00000000000000000000000                    00000000094691942335                     00
3410001300236A00000034104453 000000023591 5CRISTIANO SAVIO FERREIRA DOS S194631              12022020REA000000000000000000000073357200                    00000000000000000000000                    00000019100038461492                     00
3410001300237A00000034107853 000000009690 2PANIFICADORA FLOR DA LARANJEIR193740              12022020REA000000000000000000000073357200                    00000000000000000000000                    00000000100068965841                     00
3410001300238A00000034100654 000000049948 2DANIEL BARBOSA SOUSA          193604              12022020REA000000000000000000000073357200                    00000000000000000000000                    00000000034129163310                     00
3410001300239A00000034100560 000000004945 4COLINA CALHAS LTDA            194546              12022020REA000000000000000000000073357200                    00000000000000000000000                    00000063100033262911                     00
3410001300240A00000034108568 000000005241 2ANTONIO CLAUDINELY DOS SANTOS 194234              12022020REA000000000000000000000073357200                    00000000000000000000000                    00000039100056104762                     00
3410001300241A00000034107774 000000020849 5ERICK ALVES MARTINS           193591              12022020REA000000000000000000000073357200                    00000000000000000000000                    00000000049835572453                     00
3410001300242A00000034101678 000000019611 2EDEN ALVES DUARTE             193538              12022020REA000000000000000000000073357200                    00000000000000000000000                    00000000027127294127                     00
3410001300243A00000034102904 000000030518 8HONORATO MOVEIS PLANEJADOS    193759              12022020REA000000000000000000000073357200                    00000000000000000000000                    00000088100040427672                     00
3410001300244A00000034100560 000000047731 7RAFAEL BERROCOSO              194010              12022020REA000000000000000000000073357200                    00000000000000000000000                    00000000076867063543                     00
3410001300245A00000034100690 000000006533 9PONTUL AVIAMENTOS LTDA        194607              12022020REA000000000000000000000073357200                    00000000000000000000000                    00000007100076310881                     00
3410001300246A00000034108031 000000001475 9ANDRADE  ARAUJO PIZZARIA LTDA 193980              12022020REA000000000000000000000073357200                    00000000000000000000000                    00000086100046981579                     00
3410001300247A00000034106419 000000001943 2ROSIVALDO DA SILVA            193555              12022020REA000000000000000000000073357200                    00000000000000000000000                    00000000069829580350                     00
3410001300248A00000034108004 000000015567 0JANETE DOS SANTOS SANTIAGO    193413              12022020REA000000000000000000000073357200                    00000000000000000000000                    00000000051526341395                     00
3410001300249A00000034106477 000000001025 7WILLY MARTINS                 194679              12022020REA000000000000000000000073357200                    00000000000000000000000                    00000000031813712972                     00
3410001300250A00000034107851 000000019418 8JANAINA OLIVEIRA DE FREITAS   193530              12022020REA000000000000000000000073357200                    00000000000000000000000                    00000042100001215572                     00
3410001300251A00000034103827 000000050092 1TIAGO GARCIA LEMOS            194113              12022020REA000000000000000000000073357200                    00000000000000000000000                    00000000037325983220                     00
3410001300252A00000034100024 000000086621 2ULISSES LAURINDO              193684              12022020REA000000000000000000000073357200                    00000000000000000000000                    00000000050825850290                     00
34100015         000254000000020208034600000000000000000000                                                                                                                                                                                     
34100021C9841040 222347623000178                    06248 000000045232 5CELER PAGAMENTOS                                                                                   00000                                   00000000                     
3410002300001A00000003304455 000013000145 4BELLATRIX SERVICOS DE ALIMENTA193482              12022020REA000000000000000000000002714400                    00000000000000000000000                    00000018100083135302                     00
3410002300002A00000023703739 000000051462 4MUNIRA DA SILVA ZACARIAS      193461              12022020REA000000000000000000000000254400                    00000000000000000000000                    00000000051266360654                     00
3410002300003A00000000101862 000000057047 8FATIMA SANTIAGO DE MELLO OLIVE194209              12022020REA000000000000000000000000032400                    00000000000000000000000                    00000074100011062762                     00
3410002300004A00000010401457 000000049379 1HUDENILSON LIMA OLIVEIRA      194697              12022020REA000000000000000000000000003000                    00000000000000000000000                    00000000043208561474                     00
3410002300005A00000023703053 000000047664 1DANIELE MOURA XAVIER          193883              12022020REA000000000000000000000000055200                    00000000000000000000000                    00000000015235531620                     00
3410002300006A00000023701999 000000052972 9ALAN GUTEMBERGUE DOS SANTOS   194503              12022020REA000000000000000000000000045000                    00000000000000000000000                    00000000086256409825                     00
3410002300007A00000023700320 000000591634 8GUENA SALES DA SILVA VARGAS   194683              12022020REA000000000000000000000025347000                    00000000000000000000000                    00000000051250117119                     00
3410002300008A00000010401549 000000063455 7PRISCILA DE LIMA CATRINCK     194526              12022020REA000000000000000000000000025200                    00000000000000000000000                    00000000094271195197                     00
3410002300009A00000010401548 000000018250 2ANTONIA DE ALBUQUERQUE BRITO  194783              12022020REA000000000000000000000146714400                    00000000000000000000000                    00000000019296579430                     00
3410002300010A00000023705423 000000014748 6MARY ANNE GARCIA FRANCO       194825              12022020REA000000000000000000000000002400                    00000000000000000000000                    00000000027223848847                     00
3410002300011A00000023702130 000000000106 6EDWARD MALTA DE OLIVEIRA      194700              12022020REA000000000000000000000001135200                    00000000000000000000000                    00000000040294973140                     00
3410002300012A00000074800434 000000066833 8SABRINA ALMEIDA DO NASCIMENTO 194605              12022020REA000000000000000000000001135200                    00000000000000000000000                    00000000028002735269                     00
3410002300013A00000000101027 000000000053 1MARIA CELIA SOUSA             194202              12022020REA000000000000000000000001135200                    00000000000000000000000                    00000000000352865040                     00
3410002300014A00000023703157 000000034696 9DIEGO GARCIA DA SILVA         194231              12022020REA000000000000000000000001135200                    00000000000000000000000                    00000071100094045390                     00
3410002300015A00000000105902 000000002189 0BAR E LANCHONETE DO CHOPP EIRE193408              12022020REA000000000000000000000001135200                    00000000000000000000000                    00000036100033452571                     00
3410002300016A00000000109377 000000012680 2BIGATAO e CIA LTDA ME         193682              12022020REA000000000000000000000001135200                    00000000000000000000000                    00000050100065765805                     00
3410002300017A00000023702505 000000025707 9LEGAMO MOVEIS E ELETRODOMESTIC194504              12022020REA000000000000000000000000004800                    00000000000000000000000                    00000007100047966152                     00
3410002300018A00000004100111 000060577530 1ASSISTENCIA TECNICA PAV LTDA  194191              12022020REA000000000000000000000000050400                    00000000000000000000000                    00000081100001673160                     00
3410002300019A00000000101195 000000040736 4ML MODAS COMROUPAS ACES EIRELI194652              12022020REA000000000000000000000293428800                    00000000000000000000000                    00000028464073000153                     00
3410002300020A00000000101612 000000035279 9MAGNO CALIXTO DE PAULA        194100              12022020REA000000000000000000000002270400                    00000000000000000000000                    00000000095308234604                     00
3410002300021A00000075603260 000000009469 2CARINA VASQUES SECHIM         193934              12022020REA000000000000000000000002270400                    00000000000000000000000                    00000000002712587480                     00
3410002300022A00000000104288 000000016304 0VANILSON C SA                 194203              12022020REA000000000000000000000000004800                    00000000000000000000000                    00000084100000512720                     00
3410002300023A00000000104992 000000010339 0CASA NOVA MATERIAIS DE CONSTRU193945              12022020REA000000000000000000000000050400                    00000000000000000000000                    00000093100015162702                     00
3410002300024A00000003303293 000013005972 8MILITZ COMERCIO DE PRODUTOS OR194470              12022020REA000000000000000000000293428800                    00000000000000000000000                    00000056100009111501                     00
3410002300025A00000000104992 000000007433 0MARA REGINA PEREIRA DE SOUZA  194692              12022020REA000000000000000000000001135200                    00000000000000000000000                    00000091100074535821                     00
3410002300026A00000008500101 000000732600 9MAGNUM INSTRUMENTOS MUSICAIS L194346              12022020REA000000000000000000000001135200                    00000000000000000000000                    00000039100079179028                     00
3410002300027A00000004100350 000200701090 1CENTRO TECNICO DE COMUNICACOES193566              12022020REA000000000000000000000001135200                    00000000000000000000000                    00000000100034579600                     00
3410002300028A00000010401033 000023018851 6JEFFERSON BANDEIRA DOS SANTOS 193630              12022020REA000000000000000000000001135200                    00000000000000000000000                    00000000089461284101                     00
3410002300029A00000003304423 000013000353 6EDILENE CRISTINA COUTINHO TAFA194266              12022020REA000000000000000000000146714400                    00000000000000000000000                    00000018100007735021                     00
3410002300030A00000010400353 000000379777 7EXTRATOS HERBIS               193421              12022020REA000000000000000000000025347000                    00000000000000000000000                    00000000005880425002                     00
3410002300031A00000010404668 001300007387 9MARCELO UBIRAJARA FILOCOMO    194303              12022020REA000000000000000000000000045000                    00000000000000000000000                    00000000099870930190                     00
3410002300032A00000023701563 000000570001 9BELOSMAR VILAR DE CARVALHO    193986              12022020REA000000000000000000000000032400                    00000000000000000000000                    00000000086487620815                     00
3410002300033A00000074500000 000000000000 0ESTABELECIMENTO PADRAO AFILIAD194353              12022020REA000000000000000000000000055200                    00000000000000000000000                    00000000070054413702                     00
3410002300034A00000000103145 000000001515 6MARIANA ALVES BRAGANCA        194086              12022020REA000000000000000000000000003000                    00000000000000000000000                    00000000048813118244                     00
3410002300035A00000023705247 000000043900 2RONY LOPES DA COSTA           194026              12022020REA000000000000000000000000254400                    00000000000000000000000                    00000000022192834020                     00
3410002300036A00000010400898 000000002712 8ADMINISTRADORA DE SERVICOS DE 193846              12022020REA000000000000000000000002714400                    00000000000000000000000                    00000053100027867603                     00
3410002300037A00000010403252 001300019415 9JEFFERSON PRADO SOARES        193353              12022020REA000000000000000000000001135200                    00000000000000000000000                    00000000019129838509                     00
3410002300038A00000003303041 000013008001 9APM EMPREENDIMENTOS DE CARTAO 194426              12022020REA000000000000000000000000002400                    00000000000000000000000                    00000088100083191803                     00
3410002300039A00000000103058 000000040336 9JOSE REINALDO PEREIRA         194077              12022020REA000000000000000000000146714400                    00000000000000000000000                    00000000051089229143                     00
3410002300040A00000010402205 000000019260 2ERIC CARDOSO FERNANDES SILVA  193711              12022020REA000000000000000000000001135200                    00000000000000000000000                    00000000035128270718                     00
3410002300041A00000010404551 001300007769 0ANTONIO WANDERSON MOREIRA     194460              12022020REA000000000000000000000001135200                    00000000000000000000000                    00000000048385841210                     00
3410002300042A00000023700023 000000253043 0LUCIA HELENA VICENTE PENEDO   194615              12022020REA000000000000000000000000002400                    00000000000000000000000                    00000078100019780462                     00
3410002300043A00000008500101 000000679040 2SALVA MED EMERGENCIAS MEDICAS 194431              12022020REA000000000000000000000000025200                    00000000000000000000000                    00000084100071549040                     00
3410002300044A00000010400740 001300030577 0SILVANA HELENA GUERREIRO MARIA193919              12022020REA000000000000000000000000002400                    00000000000000000000000                    00000000037881725842                     00
3410002300045A00000023700288 000001008628 0ALAN CLAUDIO DE OLIVEIRA MOURA194044              12022020REA000000000000000000000000025200                    00000000000000000000000                    00000000068386501340                     00
3410002300046A00000000103036 000000029993 6ANTONIO MARCOS PEREIRA GLAGAU 193431              12022020REA000000000000000000000146714400                    00000000000000000000000                    00000000035193755089                     00
3410002300047A00000003304172 000001038561 0FRANCISCO EDUARDO DE SOUSA DOS194770              12022020REA000000000000000000000001135200                    00000000000000000000000                    00000000082331040516                     00
3410002300048A00000010400036 001300074869 0MARIA DA CONCEICAO PEREIRA SIL193698              12022020REA000000000000000000000001135200                    00000000000000000000000                    00000000000416608469                     00
3410002300049A00000010401653 001300147662 4PAULO CESAR SOARES DE ALMEIDA 193929              12022020REA000000000000000000000001135200                    00000000000000000000000                    00000000048871490770                     00
3410002300050A00000004100790 000068513620 2MALLET LANCHERIA E CAFE LTDA. 193514              12022020REA000000000000000000000000002400                    00000000000000000000000                    00000076100066731900                     00
3410002300051A00000023700023 000000253043 0J C ZANI CONFECCOES EIRELI    194653              12022020REA000000000000000000000000025200                    00000000000000000000000                    00000017276511000133                     00
3410002300052A00000023700064 000000307791 8DAIANE IRIS DE SOUZA          193874              12022020REA000000000000000000000146714400                    00000000000000000000000                    00000000062840497573                     00
3410002300053A00000023700023 000000253043 0J C ZANI CONFECCOES EIRELI    194304              12022020REA000000000000000000000146714400                    00000000000000000000000                    00000024200058418421                     00
3410002300054A00000023700023 000000253043 0J C ZANI CONFECCOES EIRELI    193932              12022020REA000000000000000000000146714400                    00000000000000000000000                    00000032300058418421                     00
3410002300055A00000023700023 000000253043 0D D PALMEIRA CONFECCOES EIRELI193550              12022020REA000000000000000000000146714400                    00000000000000000000000                    00000017276511000133                     00
3410002300056A00000023700023 000000253043 0D D PALMEIRA CONFECCOES       194822              12022020REA000000000000000000000146714400                    00000000000000000000000                    00000017276511000133                     00
3410002300057A00000026000001 000001960141 6LUCAS RIBEIRO ALONSO FAUSTINO 194117              12022020REA000000000000000000000001135200                    00000000000000000000000                    00000000031168631130                     00
3410002300058A00000003304458 000013001557 1ESCOLA INFANCIA FELIZ LDTA-ME 194011              12022020REA000000000000000000000001135200                    00000000000000000000000                    00000060100094330170                     00
3410002300059A00000023700681 000000008519 7LOIDEMAR DUARTE - ME          194178              12022020REA000000000000000000000000002400                    00000000000000000000000                    00000087100096074120                     00
3410002300060A00000000103022 000000041480 8AFRODITE LESSA PINHEIRO       193318              12022020REA000000000000000000000000025200                    00000000000000000000000                    00000000002291272063                     00
3410002300061A00000010400539 001300002966 4ERINALDO GUEDES DA SILVA      194070              12022020REA000000000000000000000146714400                    00000000000000000000000                    00000000002426945508                     00
3410002300062A00000000100716 000000067137 1MABEL INSTRUMENTOS MUSICAIS EI194341              12022020REA000000000000000000000001180200                    00000000000000000000000                    00000060100010240313                     00
3410002300063A00000023701849 000000007528 0RENATA DEFENDI                194606              12022020REA000000000000000000000000032400                    00000000000000000000000                    00000000006101820130                     00
3410002300064A00000010404689 001300006559 5MARIA DARLENE SANTOS DE SOUSA 193445              12022020REA000000000000000000000000147000                    00000000000000000000000                    00000000080334181410                     00
3410002300065A00000010402008 001300086335 2MARIA VERA LUCIA F FERREIRA   194571              12022020REA000000000000000000000000055200                    00000000000000000000000                    00000000002421267900                     00
3410002300066A00000000106993 000000018433 0ELTON RAMOS DA SILVA          193955              12022020REA000000000000000000000000003000                    00000000000000000000000                    00000000019194328099                     00
3410002300067A00000004100150 000190261050 8FERRAGEM ROTHER HERZOG LTDA.  194315              12022020REA000000000000000000000000254400                    00000000000000000000000                    00000016100016106778                     00
3410002300068A00000023700023 000000253043 0A DE ALMEIDA SILVA  CIA LTDA  194477              12022020REA000000000000000000000002714400                    00000000000000000000000                    00000099100081559103                     00
3410002300069A00000023700073 000000602778 4NILSON DAMIAO DEMENCIANO JUNIO193371              12022020REA000000000000000000000001135200                    00000000000000000000000                    00000000065187468820                     00
3410002300070A00000000102870 000000003230 1TEONIO VIEIRA PINTO FILHO     194040              12022020REA000000000000000000000001135200                    00000000000000000000000                    00000081100033809380                     00
3410002300071A00000010401958 000300000614 5COMERCIAL CASA SAO PAULO LTDA 193409              12022020REA000000000000000000000001135200                    00000000000000000000000                    00000055100043494220                     00
3410002300072A00000003304422 000001054910 4RENATA ROBERTA ALVES MARCHIONI193766              12022020REA000000000000000000000000002400                    00000000000000000000000                    00000000006859529741                     00
3410002300073A00000000101246 000000069168 2VM COMPONENTES ELETRONICOS EIR194235              12022020REA000000000000000000000146714400                    00000000000000000000000                    00000005100042558091                     00
3410002300074A00000000103140 000000037625 6MARTA  JUSSARA DE MOURA       193464              12022020REA000000000000000000000001135200                    00000000000000000000000                    00000000000351469826                     00
3410002300075A00000003304172 000013001612 6SIDNALDO RICARDO DE SOUZA     193416              12022020REA000000000000000000000001135200                    00000000000000000000000                    00000005100003908241                     00
3410002300076A00000000400221 000000005053 1FRANCINEUMA COSTA ALVES       193975              12022020REA000000000000000000000001135200                    00000000000000000000000                    00000000078327706861                     00
3410002300077A00000000106864 000000012148 7W WANDER MARTINS ME           194709              12022020REA000000000000000000000146714400                    00000000000000000000000                    00000074100023962671                     00
3410002300078A00000000106864 000000198266 4FERNANDA ROSSINI MARTINHO     194360              12022020REA000000000000000000000000002400                    00000000000000000000000                    00000000060830999353                     00
3410002300079A00000023703224 000000009232 0MUCIO RODRIGUES DE OLIVEIRA SO193609              12022020REA000000000000000000000000025200                    00000000000000000000000                    00000069200036811592                     00
3410002300080A00000010401307 001300250042 0RUTH LEA JORGE DA SILVA DUARTE193939              12022020REA000000000000000000000001135200                    00000000000000000000000                    00000000002321337346                     00
3410002300081A00000003301762 000001003432 9EDUARDO SALOMAO POLO          193825              12022020REA000000000000000000000001135200                    00000000000000000000000                    00000000011847128831                     00
3410002300082A00000003300932 000013001473 1ELIAS GOMES DA SILVA          194490              12022020REA000000000000000000000146714400                    00000000000000000000000                    00000069100001897531                     00
3410002300083A00000007700001 000001303337 9CESIO MULLER DE BEM           193502              12022020REA000000000000000000000146714400                    00000000000000000000000                    00000000094015408888                     00
3410002300084A00000074800434 000000050313 4JOSE L S TASCHETO             194599              12022020REA000000000000000000000146714400                    00000000000000000000000                    00000049100051542010                     00
3410002300085A00000003304279 000001003441 3CECILIA CHAGAS SILVA GOUVEIA  194760              12022020REA000000000000000000000073357200                    00000000000000000000000                    00000000078300708146                     00
3410002300086A00000010400118 000000003325 -ADMINISTRADORA DE CARTAO DE DE193620              12022020REA000000000000000000000073357200                    00000000000000000000000                    00000099999999999999                     00
3410002300087A00000010400936 000000003169 4SHOW MUSICA PRODUCOES ARTISTIC193515              12022020REA000000000000000000000073357200                    00000000000000000000000                    00000076100021012451                     00
3410002300088A00000008900001 000000003853 9NATHALIA GARCIA FERREIRA 39153193767              12022020REA000000000000000000000073357200                    00000000000000000000000                    00000020100000762313                     00
3410002300089A00000010404407 000000023767 3ANA CAROLINA LIMA DO NASCIMENT193926              12022020REA000000000000000000000073357200                    00000000000000000000000                    00000000086360644738                     00
3410002300090A00000023701849 000000630115 0DINAMAR VAZ PEREZ DA SILVA    194695              12022020REA000000000000000000000073357200                    00000000000000000000000                    00000000039801312890                     00
3410002300091A00000000104992 000000012698 5ROSILENE ALVES DA SILVA DE OLI194529              12022020REA000000000000000000000073357200                    00000000000000000000000                    00000000094195957818                     00
3410002300092A00000010401108 001300089141 1FERNANDA APARECIDA ROLON DE OL194316              12022020REA000000000000000000000073357200                    00000000000000000000000                    00000000000110253360                     00
3410002300093A00000023707319 000000020634 2VILLELA REIS EIRELI           194608              12022020REA000000000000000000000073357200                    00000000000000000000000                    00000054100095638880                     00
3410002300094A00000000100008 000000000008 7TESTE                         193976              12022020REA000000000000000000000073357200                    00000000000000000000000                    00000000011034646559                     00
3410002300095A00000024800077 000000000077 7WTU                           193539              12022020REA000000000000000000000073357200                    00000000000000000000000                    00000000047015494876                     00
3410002300096A00000010404483 000000000838 1CSS SERVICO E ESQUADRIAS EIREL193676              12022020REA000000000000000000000073357200                    00000000000000000000000                    00000086100007862172                     00
3410002300097A00000003303778 000013001510 2ALEX GREGIO FERNANDES VAZ     193800              12022020REA000000000000000000000073357200                    00000000000000000000000                    00000014100074734942                     00
3410002300098A00000023703238 000000067885 6GLAUCINEIDE SILVA BORGES      193965              12022020REA000000000000000000000073357200                    00000000000000000000000                    00000000094335308108                     00
3410002300099A00000000100799 000000038986 2ALEFE DE SEIXAS PEREIRA       193751              12022020REA000000000000000000000073357200                    00000000000000000000000                    00000000000845568883                     00
3410002300100A00000003303132 000013000951 6L M SERVICOS AUTOMOTIVOS LIMIT194135              12022020REA000000000000000000000073357200                    00000000000000000000000                    00000086100005218370                     00
3410002300101A00000023700374 000000006676 1FERNANDO RODRIGUES DE OLIVEIRA193946              12022020REA000000000000000000000073357200                    00000000000000000000000                    00000000009822145292                     00
3410002300102A00000010401048 000000032380 5ERIDAN GONCALVES DOS SANTOS   193360              12022020REA000000000000000000000073357200                    00000000000000000000000                    00000000040389151318                     00
3410002300103A00000010403966 001300031701 5BRUNO THOMAZ ROCHA PEREIRA    193665              12022020REA000000000000000000000073357200                    00000000000000000000000                    00000000013844948473                     00
3410002300104A00000023701122 000000007550 7VALECOM SOLUCOES EMPRESARIAIS 193586              12022020REA000000000000000000000073357200                    00000000000000000000000                    00000064100099752982                     00
3410002300105A00000010400311 001300031367 2TICIANE LETICIA BELARMINO     194407              12022020REA000000000000000000000073357200                    00000000000000000000000                    00000000072857776683                     00
3410002300106A00000023700023 000000253043 0LUCAS AUGUSTO FERREIRA TERNERO193432              12022020REA000000000000000000000073357200                    00000000000000000000000                    00000011100066504333                     00
3410002300107A00000010400610 001300010983 3DOMINGOS SOUSA                194806              12022020REA000000000000000000000073357200                    00000000000000000000000                    00000000094188257326                     00
3410002300108A00000010400893 001300077097 1WELBERT GILVAN PIMENTA MARQUES194170              12022020REA000000000000000000000073357200                    00000000000000000000000                    00000000087687539850                     00
3410002300109A00000000102916 000000217181 3VANESSA DENIZ FRETES          193471              12022020REA000000000000000000000073357200                    00000000000000000000000                    00000000070199403820                     00
3410002300110A00000000104992 000000008383 6JOSE RAMOS MARTINS            194785              12022020REA000000000000000000000073357200                    00000000000000000000000                    00000000100031867930                     00
3410002300111A00000010401568 001300061307 3SONIA GOULARTE DE REZENDE     194018              12022020REA000000000000000000000073357200                    00000000000000000000000                    00000000041111524300                     00
3410002300112A00000010400324 001300002094 3LUCINEI APARECIDO TOREZIN     194091              12022020REA000000000000000000000073357200                    00000000000000000000000                    00000000052895886202                     00
3410002300113A00000075603125 000002130113 1JOSE ROBERTO DAMAGLIO         193832              12022020REA000000000000000000000073357200                    00000000000000000000000                    00000060100064287981                     00
3410002300114A00000010400944 000000003393 3BARROS E GUIMARAES LTDA       193639              12022020REA000000000000000000000073357200                    00000000000000000000000                    00000039100031513013                     00
3410002300115A00000010403604 000000000785 0JOAO BOSCO FERREIRA DA SILVA F194544              12022020REA000000000000000000000073357200                    00000000000000000000000                    00000008100069111941                     00
3410002300116A00000003301002 000001041941 7RONI PORCELANATO LIQUIDO      193631              12022020REA000000000000000000000073357200                    00000000000000000000000                    00000000043030758095                     00
3410002300117A00000000101835 000000038141 1ISABELY C B DE LIMA  CASA DE F193653              12022020REA000000000000000000000073357200                    00000000000000000000000                    00000089100076494490                     00
3410002300118A00000023702437 000000006614 1MARISA GOMES 11451284837      194592              12022020REA000000000000000000000073357200                    00000000000000000000000                    00000082100067880472                     00
3410002300119A00000010401688 000000002330 1IEG MALHAS EIRELI             194714              12022020REA000000000000000000000073357200                    00000000000000000000000                    00000001100060002922                     00
3410002300120A00000075604310 000002582001 0ROBERTA FLAVIA BARBOSA NOVAES 194576              12022020REA000000000000000000000073357200                    00000000000000000000000                    00000076100045366091                     00
3410002300121A00000010400919 001300043508 0ANTONIO JEFFERSON DE ALMEIDA B193582              12022020REA000000000000000000000073357200                    00000000000000000000000                    00000000003303283869                     00
3410002300122A00000010404070 001300014657 3LUZINETE DE SOUZA SANTOS      194087              12022020REA000000000000000000000073357200                    00000000000000000000000                    00000000092836763272                     00
3410002300123A00000023701849 000000010862 6OGUENEIS ALMEIDA SOLA         194516              12022020REA000000000000000000000073357200                    00000000000000000000000                    00000083100036761002                     00
3410002300124A00000008900012 000001100652 8RAIMUNDO ACILIBIO RABELO DE AS193472              12022020REA000000000000000000000073357200                    00000000000000000000000                    00000000070830438173                     00
3410002300125A00000023700536 000000005773 8RENAN GOMES FERREIRA 455729878193621              12022020REA000000000000000000000073357200                    00000000000000000000000                    00000084100002824603                     00
3410002300126A00000007700001 000002689899 3KELLY CRISTINE ARCANJO DA SILV193313              12022020REA000000000000000000000073357200                    00000000000000000000000                    00000089100040877723                     00
3410002300127A00000023701739 000000003766 4ROSIMARA FRUCHI BARBOSA       194482              12022020REA000000000000000000000073357200                    00000000000000000000000                    00000000054815759731                     00
3410002300128A00000003300113 000001005737 0MARILIA CARVALHO DOS SANTOS   194779              12022020REA000000000000000000000073357200                    00000000000000000000000                    00000000023831367272                     00
3410002300129A00000023700557 000000020490 0DANILO RIBEIRO DA SILVA       194342              12022020REA000000000000000000000073357200                    00000000000000000000000                    00000035100072754042                     00
3410002300130A00000023702280 000000009960 0BEL COMERCIO DE ALIMENTOS LTDA194741              12022020REA000000000000000000000073357200                    00000000000000000000000                    00000074200045241392                     00
3410002300131A00000075603113 000000044702 1MARIA APARECIDO LEITE RODRIGUE194654              12022020REA000000000000000000000073357200                    00000000000000000000000                    00000000027662390144                     00
3410002300132A00000000104341 000000015270 6FLAVIO FERREIRA               194004              12022020REA000000000000000000000073357200                    00000000000000000000000                    00000000036684033920                     00
3410002300133A00000010403507 001300009852 0MICHEL EDUARDO TAVARES        193839              12022020REA000000000000000000000073357200                    00000000000000000000000                    00000000080825405912                     00
3410002300134A00000007700001 000000963491 6TRUE ACAI DISTRIBUICAO LTDA   194555              12022020REA000000000000000000000073357200                    00000000000000000000000                    00000092100008517332                     00
3410002300135A00000010400033 001300028887 1IVO AQUINO DA COSTA           193969              12022020REA000000000000000000000073357200                    00000000000000000000000                    00000000033445274010                     00
3410002300136A00000026000001 000005614607 1JOSE ROGERIO MEIRELES MACEDO  194596              12022020REA000000000000000000000073357200                    00000000000000000000000                    00000000044305848503                     00
3410002300137A00000010402272 001300060505 8JOHNY BRAGA BARRETO           193518              12022020REA000000000000000000000073357200                    00000000000000000000000                    00000000060163406340                     00
3410002300138A00000021200001 000001265787 5BRUNO DANIEL DE LIMA          193683              12022020REA000000000000000000000073357200                    00000000000000000000000                    00000000045850981004                     00
3410002300139A00000023700997 000000030470 0REJANE CLAUDINO MELO          193446              12022020REA000000000000000000000073357200                    00000000000000000000000                    00000000002303065348                     00
3410002300140A00000003301268 000013001326 1TERRAS GOIANAS CLINICA MEDICA 193368              12022020REA000000000000000000000073357200                    00000000000000000000000                    00000080100075569782                     00
3410002300141A00000010401247 001301597716 0RAFAEL DOS REYS SIQUEIRA      194038              12022020REA000000000000000000000073357200                    00000000000000000000000                    00000000011780501811                     00
3410002300142A00000010400118 000000003397 5TERRAS GOIANAS CLINICA MEDICA 193677              12022020REA000000000000000000000073357200                    00000000000000000000000                    00000080100075569782                     00
3410002300143A00000000102253 000000011755 2FERNANDO SAMPAIO FREIRE       193387              12022020REA000000000000000000000073357200                    00000000000000000000000                    00000000046301925300                     00
3410002300144A00000010400118 000000003325 8ADMINISTRADORA DE CARTAO DE DE194572              12022020REA000000000000000000000073357200                    00000000000000000000000                    00000099999999999999                     00
3410002300145A00000023702280 000000009959 7BEL COMERCIO DE ALIMENTOS LTDA193328              12022020REA000000000000000000000073357200                    00000000000000000000000                    00000066100045241392                     00
3410002300146A00000000101218 000000071313 9ELIZANGELA VIEIRA CASTRO      193341              12022020REA000000000000000000000073357200                    00000000000000000000000                    00000000040390831998                     00
3410002300147A00000010402037 000000020343 8GILVAN RODRIGUES SOUZA        193567              12022020REA000000000000000000000073357200                    00000000000000000000000                    00000000082805405552                     00
3410002300148A00000010403464 000000020814 0IRAN PEREIRA GOMES MORAIS     193499              12022020REA000000000000000000000073357200                    00000000000000000000000                    00000000010139119700                     00
3410002300149A00000010402010 001300165520 7MAYARA SOUZA DE LIMA          194139              12022020REA000000000000000000000073357200                    00000000000000000000000                    00000000073432669690                     00
3410002300150A00000010400118 000000003325 8ADMINISTRADORA DE CARTAO DE DE193388              12022020REA000000000000000000000073357200                    00000000000000000000000                    00000025100036505638                     00
3410002300151A00000010400155 001300137594 1ALEKSANDRO MELLO BARRETO      193573              12022020REA000000000000000000000073357200                    00000000000000000000000                    00000000076641893650                     00
3410002300152A00000023703090 000000014499 1AUGUSTUS PASSAGENS E TURISMO  193563              12022020REA000000000000000000000073357200                    00000000000000000000000                    00000020100098326034                     00
3410002300153A00000003300348 000013002558 3WILLIAM GONCALVES 33440372855 194171              12022020REA000000000000000000000073357200                    00000000000000000000000                    00000003100017766322                     00
3410002300154A00000003300680 000001003359 5LUIS HENRIQUE COVOLAN         193393              12022020REA000000000000000000000073357200                    00000000000000000000000                    00000000056892363490                     00
3410002300155A00000010400118 000000003325 8ADMINISTRADORA DE CARTAO DE DE194664              12022020REA000000000000000000000073357200                    00000000000000000000000                    00000001100033602403                     00
3410002300156A00000010404732 000000000188 6RODRIGO HEIDI HAGIO           194636              12022020REA000000000000000000000073357200                    00000000000000000000000                    00000055100061523181                     00
3410002300157A00000008500101 000000880388 9MARIVALDO MARQUES DE OLIVEIRA 193484              12022020REA000000000000000000000073357200                    00000000000000000000000                    00000000003847933701                     00
