34100000      081222347623000178                    06248 000000045232 5CELER PAGAMENTOS              Itau Unibanco S.A                       11402202000000000000000                                                                           
34100011C9801040 222347623000178                    06248 000000045232 5CELER PAGAMENTOS                                                                                   00000                                   00000000                     
3410001300001A00000034100059 000000078359 7ADMINISTRADORA DE CARTAO DE TO196538              14022020REA000000000000000000000000014381                    00000000000000000000000                    00000011487917000189                     00
3410001300002A00000034100445 000000075637 2SINGULAR CONSULTORIA EM VIAGEN196540              14022020REA000000000000000000000000243400                    00000000000000000000000                    00000029685986000162                     00
3410001300003A00000034108729 000000023207 7CASSIA AGENCIA DE PASSAGENS E 196459              14022020REA000000000000000000000000049476                    00000000000000000000000                    00000058022013000141                     00
3410001300004A00000034100646 000000050180 9ANITA FISCHER AGENCIA DE VIAGE196874              14022020REA000000000000000000000000032453                    00000000000000000000000                    00000005394337000144                     00
3410001300005A000000341 0001 000000015562 0AQUIVIAGENS OPERADORA TURISTIC196639              14022020REA000000000000000000000000083469                    00000000000000000000000                    00000096243761000143                     00
3410001300006A00000034100215 000000042080 3MARMORARIA TARDOC LTDA ME     196446              14022020REA000000000000000000000000010374                    00000000000000000000000                    00000002968921000178                     00
3410001300007A00000034100066 000000004343 1HOSPITAL SANTA PAULA          196651              14022020REA000000000000000000000000031052                    00000000000000000000000                    00000060777901000116                     00
3410001300008A00000034109103 000000023501 7MARLI OLIVEIRA ROCHA          196451              14022020REA000000000000000000000000081642                    00000000000000000000000                    00000000026730619830                     00
3410001300009A00000034109379 000000019699 2MIGUEL GIOVANNI RUCHEL        196666              14022020REA000000000000000000000000029908                    00000000000000000000000                    00000000059688971987                     00
3410001300010A00000034108895 000000036284 9AMORSAUDE BETIM CLINICA MEDICA196631              14022020REA000000000000000000000000013087                    00000000000000000000000                    00000030280982000183                     00
3410001300011A00000034109173 000000005032 0APARECIDO LUCIANO CASTAGNA ME 196716              14022020REA000000000000000000000000004680                    00000000000000000000000                    00000007503635000150                     00
3410001300012A00000034103754 000000044102 4DAVI COSTA MEDEIROS CONSULTORI196661              14022020REA000000000000000000000000075911                    00000000000000000000000                    00000021387467000106                     00
3410001300013A00000034100002 000000035253 2THIAGO MOREIRA ANDRE          196834              14022020REA000000000000000000000000027769                    00000000000000000000000                    00000003424849000180                     00
3410001300014A00000034100002 000000035253 2TALITA CANDIDO NAKAMURA 377290196733              14022020REA000000000000000000000000007986                    00000000000000000000000                    00000003424849000180                     00
3410001300015A00000034100002 000000035253 2ALEXANDRE RAMOS               196776              14022020REA000000000000000000000000018676                    00000000000000000000000                    00000003424849000180                     00
3410001300016A00000034100002 000000035253 2A  G COSMETICOS LTDA          196680              14022020REA000000000000000000000000044082                    00000000000000000000000                    00000003424849000180                     00
3410001300017A00000034100002 000000035253 2COMMIL COMERCIO E SERVICOS LTD196453              14022020REA000000000000000000000000031975                    00000000000000000000000                    00000003424849000180                     00
3410001300018A00000034107957 000000028895 9JACKSON FERREIRA DA SILVA     196769              14022020REA000000000000000000000000001953                    00000000000000000000000                    00000000001530354129                     00
3410001300019A00000034100002 000000035253 2DIEGO RICARDO ZAGO  COSMETICOS196478              14022020REA000000000000000000000000019302                    00000000000000000000000                    00000003424849000180                     00
3410001300020A00000034100002 000000035253 2COMERCIAL DE COSMETICOS BELEZA196519              14022020REA000000000000000000000000008314                    00000000000000000000000                    00000003424849000180                     00
3410001300021A00000034100002 000000035253 2JR COSMETICOS  E REPRESENTACAO196660              14022020REA000000000000000000000000030888                    00000000000000000000000                    00000003424849000180                     00
3410001300022A00000034100002 000000035253 2NETWORK BEAUTY  FASHION COSMET196851              14022020REA000000000000000000000000090963                    00000000000000000000000                    00000003424849000180                     00
3410001300023A00000034108015 000000004423 6AARAN INDUSTRIA E COMERCIO DE 196770              14022020REA000000000000000000000000011082                    00000000000000000000000                    00000000229392000165                     00
3410001300024A00000034103005 000000003318 2EDIVALDO RODRIGUES DOS SANTOS 196429              14022020REA000000000000000000000000033954                    00000000000000000000000                    00000000014483706802                     00
3410001300025A00000034101644 000000062360 3V F DOS SANTOS COMERCIO DE MOV196882              14022020REA000000000000000000000000079768                    00000000000000000000000                    00000012258816000107                     00
3410001300026A00000034106286 000000013508 9CARLOS AUGUSTO MOURA CAVALCANT196824              14022020REA000000000000000000000000023921                    00000000000000000000000                    00000000067081444768                     00
3410001300027A00000034100865 000000013771 5MARCOS ROBERTO FERREIRA BISPO 196708              14022020REA000000000000000000000000062097                    00000000000000000000000                    00000049170780000107                     00
3410001300028A00000034100077 000000040096 8J DOS SANTOS PEREIRA  MODAS   196742              14022020REA000000000000000000000000005844                    00000000000000000000000                    00000026995735000196                     00
3410001300029A00000034108557 000000007408 8KELI CRISTINA ARGERI          196436              14022020REA000000000000000000000000022797                    00000000000000000000000                    00000000030928994821                     00
3410001300030A00000034103788 000000058820 4TANJI E DARCIE LTDA           196462              14022020REA000000000000000000000000092029                    00000000000000000000000                    00000017084440000177                     00
3410001300031A00000034102974 000000035415 7ROSEMERY DOS SANTOS REGO COSME196469              14022020REA000000000000000000000000029879                    00000000000000000000000                    00000021415909000180                     00
3410001300032A00000034100002 000000035253 2DRUMOND  NEGRO COMERCIO DE COS196523              14022020REA000000000000000000000000014400                    00000000000000000000000                    00000003424849000504                     00
3410001300033A00000034100002 000000035253 2LOOK S COMESTICOS LTDA        196821              14022020REA000000000000000000000000024845                    00000000000000000000000                    00000003424849000180                     00
3410001300034A00000034108036 000000011339 0JAIME GUILHERMINO DE SOUZA    196579              14022020REA000000000000000000000000007298                    00000000000000000000000                    00000000013865140807                     00
3410001300035A00000034100187 000000013926 6CRZ COMERCIO E REPRESENTACOES 196757              14022020REA000000000000000000000000450669                    00000000000000000000000                    00000047738604000101                     00
3410001300036A00000034104285 000000011799 2DIEGO LEITE DE BARROS ASSESSOR196814              14022020REA000000000000000000000000040393                    00000000000000000000000                    00000011316118000140                     00
3410001300037A00000034108217 000000019647 9RAQUEL FARIA SABIONI 277042048196632              14022020REA000000000000000000000000004849                    00000000000000000000000                    00000034178383000104                     00
3410001300038A00000034104414 000000049059 1JUCINALDO SOUZA ROLIM         196675              14022020REA000000000000000000000000014276                    00000000000000000000000                    00000000097188840334                     00
3410001300039A00000034108031 000000031681 6ANDRE LUIZ HERMENEGILDO ESTAN 196493              14022020REA000000000000000000000000002759                    00000000000000000000000                    00000000029038808836                     00
3410001300040A00000034109656 000000006611 6LEONARDO ALCANTARA DE CARVALHO196472              14022020REA000000000000000000000000047955                    00000000000000000000000                    00000000083486089315                     00
3410001300041A00000034100002 000000035253 2KAIROS DISTRIBUIDORA DE COSMET196671              14022020REA000000000000000000000000010505                    00000000000000000000000                    00000003424849000504                     00
3410001300042A00000034108297 000000008904 0MARKOBRAS AMBIENTAL EIRELI    196588              14022020REA000000000000000000000000024970                    00000000000000000000000                    00000001860710000154                     00
3410001300043A00000034100874 000000008614 3A H ROMEIRO  MATERIAL DE CONST196450              14022020REA000000000000000000000000005122                    00000000000000000000000                    00000009369666000196                     00
3410001300044A00000034100718 000000003545 4GUNA BARBOSA GUIMARAES        196621              14022020REA000000000000000000000000010593                    00000000000000000000000                    00000000019244963809                     00
3410001300045A00000034104086 000000006811 3AKIKO FUJII                   196413              14022020REA000000000000000000000000047530                    00000000000000000000000                    00000000015430322814                     00
3410001300046A00000034107474 000000030853 8JONATA ELESBAO DE SOUZA       196618              14022020REA000000000000000000000000004070                    00000000000000000000000                    00000000013689906490                     00
3410001300047A00000034100233 000000034955 4MICHELE APARECIDA MARQUES BISP196477              14022020REA000000000000000000000000001456                    00000000000000000000000                    00000000008035424963                     00
3410001300048A00000034103879 000000006744 9ALINE DA CUNHA BONFIM         196610              14022020REA000000000000000000000000003924                    00000000000000000000000                    00000000007931934946                     00
3410001300049A00000034100372 000000087961 9LUCRECIA RAFAELA PEREIRA DA SI196765              14022020REA000000000000000000000000031060                    00000000000000000000000                    00000000001814356401                     00
3410001300050A00000034107221 000000029428 8JEU BATISTA DA COSTA 004392192196706              14022020REA000000000000000000000000002332                    00000000000000000000000                    00000035464758000165                     00
3410001300051A00000034104440 000000012431 3JOAO ADAUTO BRUM              196833              14022020REA000000000000000000000000027326                    00000000000000000000000                    00000000090596382634                     00
3410001300052A00000034104440 000000012868 6VALERIA QUEIROZ DE LIMA MARQUE196622              14022020REA000000000000000000000000008853                    00000000000000000000000                    00000000002565941714                     00
3410001300053A00000034108568 000000005241 2ANTONIO CLAUDINELY DOS SANTOS 196485              14022020REA000000000000000000000000029109                    00000000000000000000000                    00000026740165000193                     00
3410001300054A00000034107474 000000028714 6MAYARA ALESSANDRA CHAGAS DA CO196546              14022020REA000000000000000000000000002966                    00000000000000000000000                    00000000009969421492                     00
3410001300055A00000034101587 000000053408 0PLINIO GOMES FERREIRA         196831              14022020REA000000000000000000000000005731                    00000000000000000000000                    00000000036018490382                     00
34100015         000057000000000002136103000000000000000000                                                                                                                                                                                     
34100021C9841040 222347623000178                    06248 000000045232 5CELER PAGAMENTOS                                                                                   00000                                   00000000                     
3410002300001A00000003304442 000013000418 5CARTAO DE DESCONTO TERRA DOS B196880              14022020REA000000000000000000000000011756                    00000000000000000000000                    00000011051024000196                     00
3410002300002A00000004100028 000060862100 3NARA R LEAL DE CORDEIRO       196774              14022020REA000000000000000000000000046544                    00000000000000000000000                    00000002909169000194                     00
3410002300003A00000023700388 000000061107 7LA HUR SOUZA MARQUES          196741              14022020REA000000000000000000000000005591                    00000000000000000000000                    00000000022547444020                     00
3410002300004A00000023703157 000000034696 9DIEGO GARCIA DA SILVA         196437              14022020REA000000000000000000000000049022                    00000000000000000000000                    00000009354049000117                     00
3410002300005A00000008500109 000000044648 3EPR CENTRO AUTOMOTIVO ME LTDA 196695              14022020REA000000000000000000000000041667                    00000000000000000000000                    00000030636108000136                     00
3410002300006A00000023700513 000000010481 7F e G ADMINISTRADORA DE CARTOE196872              14022020REA000000000000000000000000032218                    00000000000000000000000                    00000030672643000142                     00
3410002300007A00000023701232 000000024820 7ADMINISTRADORA DE CARTAO DE DE196843              14022020REA000000000000000000000000033227                    00000000000000000000000                    00000031284933000181                     00
3410002300008A00000000101195 000000040736 4MIRA COMERCIO DE CALCADOS CONF196865              14022020REA000000000000000000000000018545                    00000000000000000000000                    00000028464073000153                     00
3410002300009A00000000101195 000000040736 4U2MODASCOM DE ROUPAS E ACES EI196802              14022020REA000000000000000000000000005856                    00000000000000000000000                    00000028464073000153                     00
3410002300010A00000000101195 000000040736 4H2KIM CO CALC ROUPAS E ACESS E196463              14022020REA000000000000000000000000006830                    00000000000000000000000                    00000028464073000153                     00
3410002300011A00000000101195 000000040736 4MY MODAS COMROUPAS ACES EIRELI196683              14022020REA000000000000000000000000024222                    00000000000000000000000                    00000028464073000153                     00
3410002300012A00000000101195 000000040736 4MIRA MODAS COMSERVDA MODA EIRE196499              14022020REA000000000000000000000000004880                    00000000000000000000000                    00000028464073000153                     00
3410002300013A00000075604370 000000032990 8PDV365 PRODUCAO E AUTOMACAO DE196494              14022020REA000000000000000000000000067071                    00000000000000000000000                    00000012569291000112                     00
3410002300014A00000023700023 000000253043 0JOSE APARECIDO  PICOLO  CIA LT196885              14022020REA000000000000000000000000035782                    00000000000000000000000                    00000017276511000133                     00
3410002300015A00000023700023 000000253043 0A L SOSSO CONFECCOES ME       196876              14022020REA000000000000000000000000016907                    00000000000000000000000                    00000017276511000133                     00
3410002300016A00000023701849 000000001268 8AURELIO FERREIRA RIBEIRO ME   196760              14022020REA000000000000000000000000050881                    00000000000000000000000                    00000005669371000184                     00
3410002300017A00000010403604 001300014805 2GELLISSON DA SILVA MARTINS    196732              14022020REA000000000000000000000000016498                    00000000000000000000000                    00000000004459745321                     00
3410002300018A00000008500101 000000732600 9MAGNUM INSTRUMENTOS MUSICAIS L196867              14022020REA000000000000000000000000185688                    00000000000000000000000                    00000082097197000193                     00
3410002300019A00000010400898 000000002712 8ADMINISTRADORA DE SERVICOS DE 196500              14022020REA000000000000000000000000024372                    00000000000000000000000                    00000030676872000135                     00
3410002300020A00000008500101 000000679040 2SALVA MED EMERGENCIAS MEDICAS 196619              14022020REA000000000000000000000000008616                    00000000000000000000000                    00000004094517000148                     00
3410002300021A00000004100790 000190156720 6SILVIA FUZER                  196772              14022020REA000000000000000000000000003360                    00000000000000000000000                    00000000839916000130                     00
3410002300022A00000023702740 000000017010 0BEATRIZ SILVA CARVALHAES      196490              14022020REA000000000000000000000000033216                    00000000000000000000000                    00000015147464000100                     00
3410002300023A00000010401307 001300250042 0RUTH LEA JORGE DA SILVA DUARTE196721              14022020REA000000000000000000000000001617                    00000000000000000000000                    00000000064373312320                     00
3410002300024A00000023703238 000000014041 4BARBARA DOS SANTOS PROTAZIO   196691              14022020REA000000000000000000000000002940                    00000000000000000000000                    00000000061719495319                     00
3410002300025A00000010400017 001300068586 5SIRLENE MARTINS DA SILVA CARDO196658              14022020REA000000000000000000000000002264                    00000000000000000000000                    00000000055996000172                     00
3410002300026A00000010404557 000000000878 2ADMINISTRADORA DE CARTAO DE TO196664              14022020REA000000000000000000000000056115                    00000000000000000000000                    00000025341175000193                     00
3410002300027A00000010400258 001300009881 2JOSE CARLOS VIEIRA            196480              14022020REA000000000000000000000000001874                    00000000000000000000000                    00000000025024272153                     00
3410002300028A00000010400917 000000005066 0ADMINISTRADORA DE CARTAO DE DE196752              14022020REA000000000000000000000000029180                    00000000000000000000000                    00000031407148000179                     00
3410002300029A00000023700003 000001003202 4ELIANE APARECIDA FERNANDES SEN196586              14022020REA000000000000000000000000003701                    00000000000000000000000                    00000000025248475864                     00
3410002300030A00000000101262 000000024505 4ISABELA CRISTINA DA SILVA     196577              14022020REA000000000000000000000000010625                    00000000000000000000000                    00000000009692739406                     00
3410002300031A00000023701789 000000043251 2CONTINENTTRAVEL  AGENCIA DE VI196784              14022020REA000000000000000000000000073020                    00000000000000000000000                    00000017714146000100                     00
3410002300032A00000000400016 000000189639 3ALVENIS RODRIGUES TEIXEIRA    196659              14022020REA000000000000000000000000002247                    00000000000000000000000                    00000000029462177368                     00
3410002300033A0000002370449  000000086976 7JAZZ VIAGENS E TURISMO LTDA ME196672              14022020REA000000000000000000000000016235                    00000000000000000000000                    00000001585612000156                     00
3410002300034A00000023700500 000000058868 7AMORETUR VIAGENS E TURISMO LTD196551              14022020REA000000000000000000000000034238                    00000000000000000000000                    00000059547224000160                     00
3410002300035A00000074800155 000000028554 4JOAO SIMAO MATERIAIS DE CONSTR196827              14022020REA000000000000000000000000007354                    00000000000000000000000                    00000087248100000110                     00
3410002300036A00000023701445 000000030451 4UPPER CLASS AGENCIA DE VIAGENS196438              14022020REA000000000000000000000000300216                    00000000000000000000000                    00000066090770000180                     00
3410002300037A00000023703381 000000401411 1QUICKLY TRAVEL AGENCIA DE VIAG196883              14022020REA000000000000000000000000024340                    00000000000000000000000                    00000002576328000186                     00
3410002300038A00000000105101 000000020027 1VERA LUCIA BASTOS TIGRE       196518              14022020REA000000000000000000000000003517                    00000000000000000000000                    00000000023191201300                     00
3410002300039A00000003303733 000013003898 0CARTAO DE DESCONTOS           196560              14022020REA000000000000000000000000057891                    00000000000000000000000                    00000025135387000114                     00
3410002300040A00000075603125 000000632446 0SANTOS  DIOGO LTDA            196650              14022020REA000000000000000000000000042672                    00000000000000000000000                    00000003177943000182                     00
3410002300041A00000075603125 000000631809 6ANSELMO ACETI INFORMATICA  ME 196524              14022020REA000000000000000000000000056412                    00000000000000000000000                    00000004322177000165                     00
3410002300042A00000023701893 000000012616 0ROSIMEIRE ALVES DE ALMEIDA    196875              14022020REA000000000000000000000000035569                    00000000000000000000000                    00000000092081673649                     00
3410002300043A00000023700218 000000018737 2JANE KELLY CARNEIRO DA SILVA  196862              14022020REA000000000000000000000000038364                    00000000000000000000000                    00000017601199000106                     00
3410002300044A00000000100781 000000018701 1ADEMIR APARECIDO CONSTANTINO M196455              14022020REA000000000000000000000000049431                    00000000000000000000000                    00000004162718000135                     00
3410002300045A00000023702221 000000027308 2SQG INFO COMERCIO EQUIP INFORM196815              14022020REA000000000000000000000000002535                    00000000000000000000000                    00000058500174000101                     00
3410002300046A00000010403572 001300013961 1FRANCISCA ALVES PEREIRA       196598              14022020REA000000000000000000000000001575                    00000000000000000000000                    00000000071995765368                     00
3410002300047A00000074805237 000000048003 7FORTALEZA DA CONSTRUCAO DE BAR196555              14022020REA000000000000000000000000016369                    00000000000000000000000                    00000007865688000111                     00
3410002300048A00000010401610 000000021683 3MICHAEL BIRCKE PUTINHON       196890              14022020REA000000000000000000000000001464                    00000000000000000000000                    00000000036482408893                     00
3410002300049A00000000100467 000000014512 2JOSE MIGUEL DE SOUZA          196849              14022020REA000000000000000000000000005319                    00000000000000000000000                    00000000093817592949                     00
3410002300050A00000000102502 000000046291 8VICOSO ESTACIONAMENTO LTDA    196878              14022020REA000000000000000000000000011507                    00000000000000000000000                    00000007799557000183                     00
3410002300051A00000010401045 000000003062 0ARACAJU ADMINISTRACAO DE CARTA196806              14022020REA000000000000000000000000043073                    00000000000000000000000                    00000031747596000111                     00
3410002300052A00000074800155 000000015946 8VALDO COMUNICACAO VISUAL LTDA 196476              14022020REA000000000000000000000000014484                    00000000000000000000000                    00000000321078000108                     00
3410002300053A00000023701232 000000024868 1ATENDIMENTO MEDICO E ODONTOLOG196709              14022020REA000000000000000000000000013119                    00000000000000000000000                    00000031132613000106                     00
3410002300054A00000023700223 000000211185 3SUELI APARECIDA PORPHIRIO FERN196645              14022020REA000000000000000000000000002727                    00000000000000000000000                    00000008075662000132                     00
3410002300055A00000023702212 000000057790 1CARDCON - CARTAO DE DESCONTO D196828              14022020REA000000000000000000000000002378                    00000000000000000000000                    00000028863378000138                     00
3410002300056A00000003304204 000013003089 0RAFAEL LEITE DE CAMPOS 3272292196703              14022020REA000000000000000000000000008110                    00000000000000000000000                    00000023058314000140                     00
3410002300057A00000010402946 001300021792 2ERITON RAFAEL BERNARDES PINTO 196529              14022020REA000000000000000000000000011365                    00000000000000000000000                    00000000033754872826                     00
3410002300058A00000003303733 000013004404 0AZEVEDO E MENDES SERVICOS ADMI196608              14022020REA000000000000000000000000150369                    00000000000000000000000                    00000024996244000134                     00
3410002300059A00000010401174 000000023501 4ADRIELSO PERPETUO FREITAS     196521              14022020REA000000000000000000000000021582                    00000000000000000000000                    00000000033936139873                     00
3410002300060A00000010404292 000000023725 4MAICON ROBSON GABARDO         196646              14022020REA000000000000000000000000017300                    00000000000000000000000                    00000000000851022960                     00
3410002300061A00000023700023 000000253043 0DANIEL MARCONI                196754              14022020REA000000000000000000000000006588                    00000000000000000000000                    00000017276511000133                     00
3410002300062A00000000400189 000000042245 9ELIEZIO ALVES BRANDAO         196753              14022020REA000000000000000000000000001472                    00000000000000000000000                    00000000090124758304                     00
3410002300063A00000010400505 001300901195 9ANA PAULA DIAS GOMES          196738              14022020REA000000000000000000000000010851                    00000000000000000000000                    00000000095233717034                     00
3410002300064A00000023705440 000000001029 4JULIETA BRAGA PINTO           196464              14022020REA000000000000000000000000011745                    00000000000000000000000                    00000007764368000175                     00
3410002300065A00000075605631 000000008368 2LM INGRESSOS LTDA             196599              14022020REA000000000000000000000000020721                    00000000000000000000000                    00000028947845000108                     00
3410002300066A00000000101873 000000006886 1ROSEMARY LOUVEIRA             196427              14022020REA000000000000000000000000010779                    00000000000000000000000                    00000000036766658134                     00
3410002300067A00000023700023 000000253043 0JOAO H BOTELHO GENNARI RESTAUR196712              14022020REA000000000000000000000000171865                    00000000000000000000000                    00000017276511000133                     00
3410002300068A00000008900004 000000300525 3JORGE HENRIQUE MICHEL  CIA LTD196788              14022020REA000000000000000000000000003880                    00000000000000000000000                    00000057820698000109                     00
3410002300069A00000003304501 000013002428 2CEMA CENTRO MEDICO E ODONTOLOG196840              14022020REA000000000000000000000000006735                    00000000000000000000000                    00000010576511000100                     00
3410002300070A00000000106939 000000053750 0ADMINISTRADORA DE CONSULTORIOS196819              14022020REA000000000000000000000000166494                    00000000000000000000000                    00000025966574000140                     00
3410002300071A00000003303749 000013002584 8GREEN GOY NOYORI EIRELI  ME   196856              14022020REA000000000000000000000000054205                    00000000000000000000000                    00000005877577000108                     00
3410002300072A00000003301660 000013000532 9MARGARETH ALMEIDA DE DEUS     196667              14022020REA000000000000000000000000011868                    00000000000000000000000                    00000011110788000105                     00
3410002300073A00000010402047 000000304973 1CLINICA MEDICA E ODONTOLOGICA 196465              14022020REA000000000000000000000000146477                    00000000000000000000000                    00000031570751000177                     00
3410002300074A00000010401461 000000001628 9BRIZOLA R SETTE E MARIA DO CAR196447              14022020REA000000000000000000000000018855                    00000000000000000000000                    00000030914197000135                     00
3410002300075A00000000104992 000000012085 5FRANCIELEN MARIA SANTI ALVES  196503              14022020REA000000000000000000000000031604                    00000000000000000000000                    00000028373410000105                     00
3410002300076A00000000101498 000000008037 3PEDRO DELLA GIUSTINA SOUZA    196592              14022020REA000000000000000000000000043397                    00000000000000000000000                    00000078872769000197                     00
3410002300077A00000007700001 000002524430 2GLAUCIA JANAINA DOS SANTOS CAB196642              14022020REA000000000000000000000000036591                    00000000000000000000000                    00000000001884551084                     00
3410002300078A00000023702886 000000010142 7LRM ACESSORIOS SERVICOS A L ME196678              14022020REA000000000000000000000000021147                    00000000000000000000000                    00000001342545000149                     00
3410002300079A00000023702112 000000002890 8LATICINIOS ZACARIAS LTDA      196578              14022020REA000000000000000000000000029942                    00000000000000000000000                    00000060570488000114                     00
3410002300080A00000023701902 000000033080 9VALDIR ALBERTO LEDESMA        196700              14022020REA000000000000000000000000015956                    00000000000000000000000                    00000000083556834120                     00
3410002300081A00000000106713 000000006702 7IVO RODRIGUES JUNIOR          196789              14022020REA000000000000000000000000045802                    00000000000000000000000                    00000000040442856830                     00
3410002300082A00000008900001 000000003797 4NAIR DA SILVA MUNIZ 1728733782196567              14022020REA000000000000000000000000164262                    00000000000000000000000                    00000029549230000196                     00
3410002300083A00000003304422 000013001206 1MEDMAX COMERCIO DE EQUIPAMENTO196805              14022020REA000000000000000000000000020210                    00000000000000000000000                    00000007760277000161                     00
3410002300084A00000023700513 000000010772 7CLINICA AMOR SAUDE MARABA LTDA196545              14022020REA000000000000000000000000025736                    00000000000000000000000                    00000031960104000171                     00
3410002300085A00000074800728 000000063824 2JULIANO FRANCISCO DA SILVA ACA196793              14022020REA000000000000000000000000054296                    00000000000000000000000                    00000019204801000105                     00
3410002300086A00000010402183 001300015843 0NARA LIVIA FREITAS CAVALCANTE 196775              14022020REA000000000000000000000000005892                    00000000000000000000000                    00000000001976312310                     00
3410002300087A00000000100165 000000037203 0REGIANE ZACCHEU CARMINATI     196696              14022020REA000000000000000000000000010004                    00000000000000000000000                    00000032467627000143                     00
3410002300088A00000010404732 000000022338 6CRISTIANE ROCHA DO AMARANTE   196623              14022020REA000000000000000000000000013510                    00000000000000000000000                    00000000065322843191                     00
3410002300089A00000010401651 000000019490 2CARTAO DE TODOS PETROPOLIS LTD196595              14022020REA000000000000000000000000009710                    00000000000000000000000                    00000013584247000144                     00
3410002300090A00000008900012 000001100652 8RAIMUNDO ACILIBIO RABELO DE AS196653              14022020REA000000000000000000000000002698                    00000000000000000000000                    00000000037183403807                     00
3410002300091A00000003300113 000001005737 0MARILIA CARVALHO DOS SANTOS   196541              14022020REA000000000000000000000000013622                    00000000000000000000000                    00000000027276313832                     00
3410002300092A00000023700997 000000030470 0REJANE CLAUDINO MELO          196656              14022020REA000000000000000000000000008438                    00000000000000000000000                    00000000084356030320                     00
3410002300093A00000003301268 000013001326 1TERRAS GOIANAS CLINICA MEDICA 196512              14022020REA000000000000000000000000168879                    00000000000000000000000                    00000028796557000108                     00
3410002300094A00000010400118 000000003397 5TERRAS GOIANAS CLINICA MEDICA 196841              14022020REA000000000000000000000000020662                    00000000000000000000000                    00000028796557000108                     00
3410002300095A00000010400118 000000003325 8ADMINISTRADORA DE CARTAO DE DE196713              14022020REA000000000000000000000000018546                    00000000000000000000000                    00000030420633000110                     00
3410002300096A00000023702349 000000000800 1FAGUNDES CERTIFICADORA E SERVI196458              14022020REA000000000000000000000000011630                    00000000000000000000000                    00000004740806000177                     00
3410002300097A00000023700682 000000035812 6M M CABELEIREIROS LTDA        196561              14022020REA000000000000000000000000012083                    00000000000000000000000                    00000024552836000167                     00
3410002300098A00000023701536 000000012324 2ATAMIR DIAS MARQUES           196482              14022020REA000000000000000000000000003904                    00000000000000000000000                    00000000001516003179                     00
3410002300099A00000010400283 000000003246 2CLINICA MEDICA E ODONTOLOGICA 196687              14022020REA000000000000000000000000026719                    00000000000000000000000                    00000032283114000182                     00
3410002300100A00000023701849 000000008908 7KELVIN HENRY COUTINHO BITTENCO196591              14022020REA000000000000000000000000011641                    00000000000000000000000                    00000000004748649100                     00
3410002300101A00000000100063 000000005933 1CENTRO DE ENDOCRINOLOGIA E MET196423              14022020REA000000000000000000000000011609                    00000000000000000000000                    00000035439728001090                     00
3410002300102A00000000100063 000000005933 1CENTRO DE ENDOCRINOLOGIA E MET196547              14022020REA000000000000000000000000006133                    00000000000000000000000                    00000035439728000522                     00
3410002300103A00000003301403 000013001315 0ARIELY NASCIMENTO DOS SANTOS D196643              14022020REA000000000000000000000000003344                    00000000000000000000000                    00000023675741000178                     00
3410002300104A00000010400031 001300069827 0EDNA MOURA DA SILVA           196673              14022020REA000000000000000000000000007056                    00000000000000000000000                    00000000064178056387                     00
3410002300105A00000007700001 000002214080 8IDEIA MIDIA GRAFICA DIGITAL  E196448              14022020REA000000000000000000000000014120                    00000000000000000000000                    00000007988078000105                     00
3410002300106A00000010400919 000000000051 6MASTER REPRESENTACOES E SERVIC196803              14022020REA000000000000000000000000023741                    00000000000000000000000                    00000001925334000139                     00
3410002300107A00000000101409 000000028674 5VEXNET TELECON INFORMATICA LTD196513              14022020REA000000000000000000000000029735                    00000000000000000000000                    00000011500145000178                     00
3410002300108A00000023701579 000000048855 0PAULO ROBERTO NOBRE DOS SANTOS196809              14022020REA000000000000000000000000010246                    00000000000000000000000                    00000026814967000109                     00
3410002300109A00000023700624 000000025096 1ECO AUTO EXPRESS SERVICOS AUTO196543              14022020REA000000000000000000000000004925                    00000000000000000000000                    00000022295962000158                     00
3410002300110A00000010400917 001300018838 4ERIKA TAVARES DA SILVA        196665              14022020REA000000000000000000000000003413                    00000000000000000000000                    00000000006439686445                     00
3410002300111A00000010400919 001300077548 5GERVASIO MONTEIRO BATISTA     196581              14022020REA000000000000000000000000021694                    00000000000000000000000                    00000000032429940353                     00
3410002300112A00000023701549 000000005107 1JOSE CARLOS DOS SANTOS 0194485196600              14022020REA000000000000000000000000003253                    00000000000000000000000                    00000023652989000113                     00
3410002300113A00000023700458 000000007549 3MARIA LUCILENE LOPES CARNEIRO 196729              14022020REA000000000000000000000000008993                    00000000000000000000000                    00000021810036000100                     00
3410002300114A00000075603169 000000009707 1CASA DA PIMENTA COMERCIAL DE B196563              14022020REA000000000000000000000000001169                    00000000000000000000000                    00000008098251000162                     00
3410002300115A00000008900012 000001100659 5YZZA CASES  ACESSORIOS PARA CE196424              14022020REA000000000000000000000000007856                    00000000000000000000000                    00000029872341000139                     00
3410002300116A00000013301075 000000009280 0ALEXANDRE PEDRO DA ROSA       196647              14022020REA000000000000000000000000006819                    00000000000000000000000                    00000027060549000128                     00
3410002300117A00000013301075 000000027569 7DELLA ROCCA E ROSA ACADEMIA LT196435              14022020REA000000000000000000000000009225                    00000000000000000000000                    00000029699928000198                     00
3410002300118A00000013301075 000000028391 6AUTO POSTO SAO PEDRO EIRELI   196439              14022020REA000000000000000000000000019102                    00000000000000000000000                    00000080107030000130                     00
3410002300119A00000013301602 000000009702 0GREGORIO EXTERKOTTER ME       196859              14022020REA000000000000000000000000029043                    00000000000000000000000                    00000086025236000106                     00
3410002300120A00000010403466 001300019576 0JONAS BENVINDO DA SILVA       196693              14022020REA000000000000000000000000013192                    00000000000000000000000                    00000000083024557334                     00
3410002300121A00000013301075 000000006792 0VALDORI DE LIMA               196501              14022020REA000000000000000000000000010219                    00000000000000000000000                    00000000095131388953                     00
3410002300122A00000013301608 000000009668 7MARCIEL WIETCOVSKI            196466              14022020REA000000000000000000000000055288                    00000000000000000000000                    00000022380543000114                     00
3410002300123A00000000100063 000000005933 1CENTRO DE ENDOCRINOLOGIA E MET196614              14022020REA000000000000000000000000001269                    00000000000000000000000                    00000035439728001251                     00
3410002300124A00000023700105 000000220583 1CASA DE GAROA EIRELLI         196428              14022020REA000000000000000000000000019692                    00000000000000000000000                    00000008515856000101                     00
3410002300125A00000013301609 000000010327 6ENCANTO DOS PAES PANIFICADORA 196508              14022020REA000000000000000000000000001087                    00000000000000000000000                    00000030924670000165                     00
3410002300126A00000013301609 000000019187 6EMPANADOS SABOR E CIA LTDA    196636              14022020REA000000000000000000000000002143                    00000000000000000000000                    00000005372481000180                     00
3410002300127A00000013301075 000000009944 9ROSILENE VAMBOMMEL MEYER 05387196487              14022020REA000000000000000000000000010116                    00000000000000000000000                    00000024149220000140                     00
3410002300128A00000023702772 000000016451 8CODLUB DIST DE LUBRIFICANTES L196725              14022020REA000000000000000000000000026200                    00000000000000000000000                    00000039107644000119                     00
3410002300129A00000013301075 000000028122 0FERNANDO PRIM                 196422              14022020REA000000000000000000000000002925                    00000000000000000000000                    00000012455426000119                     00
3410002300130A00000013301003 000000014342 1NELI ALTINIZIA DALLASTRA      196594              14022020REA000000000000000000000000033578                    00000000000000000000000                    00000017693296000176                     00
3410002300131A00000000101606 000000048998 0ALBERTO JOSE PLACIDO DE LIMA  196796              14022020REA000000000000000000000000004895                    00000000000000000000000                    00000000070869413872                     00
3410002300132A00000010400309 001300046469 6AMANDA BABOSA DA SILVA        196835              14022020REA000000000000000000000000034024                    00000000000000000000000                    00000000033361052858                     00
3410002300133A00000010403625 000000000420 1VAL FREIRE ESTETICA EIRELI    196552              14022020REA000000000000000000000000101966                    00000000000000000000000                    00000022147131000139                     00
3410002300134A00000013301009 000000006427 0ALINE CRISTINA MORAES BASSO   196837              14022020REA000000000000000000000000002531                    00000000000000000000000                    00000033700523000108                     00
3410002300135A00000023702024 000000072761 0MANOEL SOARES DE ABRANTES     196628              14022020REA000000000000000000000000013400                    00000000000000000000000                    00000000087459086487                     00
3410002300136A00000023701849 000000007000 9LEONIDIA ALVES CARDOSO        196822              14022020REA000000000000000000000000344179                    00000000000000000000000                    00000003030434000203                     00
3410002300137A00000007000240 000000040819 4COMANDO COMERCIO E CONFECCAO D196688              14022020REA000000000000000000000000002653                    00000000000000000000000                    00000013179784000109                     00
3410002300138A00000023701211 000000070392 3PRENDA MARI LTDA              196717              14022020REA000000000000000000000000031558                    00000000000000000000000                    00000002637865000199                     00
3410002300139A00000013301003 000000014335 9MATEUS LUIZ BOGONI EIRELI     196785              14022020REA000000000000000000000000004759                    00000000000000000000000                    00000032541102000100                     00
3410002300140A00000013301075 000000011578 9ROSELI DA CRUZ KOBUS          196724              14022020REA000000000000000000000000008035                    00000000000000000000000                    00000000003570927911                     00
3410002300141A00000013301062 000000005590 5NERI DE BORBA                 196863              14022020REA000000000000000000000000006214                    00000000000000000000000                    00000000073524875904                     00
3410002300142A00000003301724 000013000568 1CENTRO DE LUBRIFICACAO E MECAN196804              14022020REA000000000000000000000000043945                    00000000000000000000000                    00000027719181000167                     00
3410002300143A00000000100799 000000048442 3VIEIRA E LANCONICOMERCIO EM AL196730              14022020REA000000000000000000000000010134                    00000000000000000000000                    00000017506373000131                     00
3410002300144A00000013301003 000000014380 4DAIANE TOMAZETTO BERNARDI     196881              14022020REA000000000000000000000000064860                    00000000000000000000000                    00000028893656000108                     00
3410002300145A00000013301003 000000009293 2MARCELO CASTANHA DOCES        196481              14022020REA000000000000000000000000001334                    00000000000000000000000                    00000031303083000111                     00
3410002300146A00000013301003 000000004779 1NADIR FRANCISCO PERONDI E CIA 196491              14022020REA000000000000000000000000038305                    00000000000000000000000                    00000004688117000160                     00
3410002300147A00000010404222 000000000003 8NV  GS MEDICAMENTOS LTDA      196777              14022020REA000000000000000000000000009808                    00000000000000000000000                    00000008831172000119                     00
3410002300148A00000003303208 000001083899 5DAFNE DA COSTA ALMEIDA        196838              14022020REA000000000000000000000000012996                    00000000000000000000000                    00000000031082357880                     00
3410002300149A00000013301075 000000010179 6FREITAS MATERIAIS DE CONSTRUCA196467              14022020REA000000000000000000000000057130                    00000000000000000000000                    00000009356757000197                     00
3410002300150A00000013301003 000000011505 3CRISTIAN JUNIOR BELINI 0955134196726              14022020REA000000000000000000000000004911                    00000000000000000000000                    00000029975504000109                     00
3410002300151A00000023701453 000000064528 1VAGNER LOPES                  196454              14022020REA000000000000000000000000002314                    00000000000000000000000                    00000000002592833714                     00
3410002300152A00000023703134 000000013795 2FABIANO FERNANDES PAIXAO      196415              14022020REA000000000000000000000000011601                    00000000000000000000000                    00000000028182813859                     00
3410002300153A00000003304268 000001000717 6ELISANGELA DA COLLINA FURLAN  196556              14022020REA000000000000000000000000047988                    00000000000000000000000                    00000000016479065808                     00
3410002300154A00000013301009 000000006384 3MIOTTO E ROSS RESTAURANTE E CA196449              14022020REA000000000000000000000000004437                    00000000000000000000000                    00000033566833000173                     00
3410002300155A00000013301003 000000014638 2EXCLUSIVA PNEUS E AUTO CENTER 196525              14022020REA000000000000000000000000034399                    00000000000000000000000                    00000033826693000125                     00
3410002300156A00000013301075 000000027686 3AYRON CORREIA COMERCIO DE PRES196583              14022020REA000000000000000000000000009336                    00000000000000000000000                    00000029617720000182                     00
3410002300157A00000013301009 000000006138 7HILARIO SCHNEIDER E CIA LTDA  196877              14022020REA000000000000000000000000028481                    00000000000000000000000                    00000077665313000193                     00
3410002300158A00000000102906 000000025370 7JOSE MARCIO MARQUES           196416              14022020REA000000000000000000000000001621                    00000000000000000000000                    00000000091914558391                     00
3410002300159A00000013301075 000000027123 3SICRET RISTOW TESKE           196674              14022020REA000000000000000000000000008423                    00000000000000000000000                    00000001421753000133                     00
3410002300160A00000003301404 000013001478 9KINDER CURSO E ACADEMIA DA CRI196564              14022020REA000000000000000000000000039692                    00000000000000000000000                    00000033470872000172                     00
3410002300161A00000075603256 000000002350 7JANDEIR APARECIDO DE ALMEIDA E196615              14022020REA000000000000000000000000021735                    00000000000000000000000                    00000006895016000196                     00
3410002300162A00000013301003 000000006137 9CLINICA DE SAUDE INTEGRADA AME196707              14022020REA000000000000000000000000009821                    00000000000000000000000                    00000023688265000120                     00
3410002300163A00000010400749 000000000834 3P W F T GUEDES PROMOCOES      196425              14022020REA000000000000000000000000588776                    00000000000000000000000                    00000004893646000104                     00
3410002300164A00000010400936 001300005846 8LUCAS LEAL FREITAS            196640              14022020REA000000000000000000000000012350                    00000000000000000000000                    00000000006648865660                     00
3410002300165A00000013301003 000000009793 4TIAGO JUNIOR RESTELATTO MIOLA 196652              14022020REA000000000000000000000000049500                    00000000000000000000000                    00000021767295000104                     00
3410002300166A00000000101887 000000049835 1RN MARIANO PECAS E SERVICOS EI196870              14022020REA000000000000000000000000004895                    00000000000000000000000                    00000023046387000112                     00
3410002300167A00000003303168 000060005167 9THATIANA GAMA FURINI          196530              14022020REA000000000000000000000000027957                    00000000000000000000000                    00000000042931742813                     00
3410002300168A00000074800738 000000033828 7MARCIO SOARES THOME           196701              14022020REA000000000000000000000000034431                    00000000000000000000000                    00000000001479987433                     00
3410002300169A00000000100387 000000073100 5GINA KESIA ARAUJO FRANCA      196719              14022020REA000000000000000000000000023802                    00000000000000000000000                    00000000003600480308                     00
3410002300170A00000013301075 000000022862 1TED MARYNUS CONFECCOES LTDA   196886              14022020REA000000000000000000000000032661                    00000000000000000000000                    00000082855537000106                     00
3410002300171A00000000100156 000000028423 8GABRIELA DE PAULISTA FARIA    196850              14022020REA000000000000000000000000022717                    00000000000000000000000                    00000000046175131835                     00
3410002300172A00000010404166 001300004617 1ANTONIO HUMBERTO VIEIRA DA COS196635              14022020REA000000000000000000000000034196                    00000000000000000000000                    00000000069222100344                     00
3410002300173A00000013301075 000000010280 6MADEIREIRA CALAO              196520              14022020REA000000000000000000000000072296                    00000000000000000000000                    00000017287231000120                     00
3410002300174A00000013301075 000000027689 8SEBASTIAO DA CRUZ             196657              14022020REA000000000000000000000000010671                    00000000000000000000000                    00000021009192000177                     00
3410002300175A00000023705386 000000016057 1LL ADRIANI LOCACAO EIRELI     196868              14022020REA000000000000000000000000044400                    00000000000000000000000                    00000033775915000128                     00
3410002300176A00000023700413 000000150464 9ELISEU MARCAL MESQUITA        196810              14022020REA000000000000000000000000006009                    00000000000000000000000                    00000000014039910818                     00
3410002300177A00000013301003 000000009582 6METALURGICA SALTO CAXIAS      196887              14022020REA000000000000000000000000010698                    00000000000000000000000                    00000074150319000130                     00
3410002300178A00000010403548 000000000598 6CARLOS DANIEL DE SOUZA PORFIRI196734              14022020REA000000000000000000000000001897                    00000000000000000000000                    00000021857887000109                     00
3410002300179A00000013301502 000000009893 0GILBERTO DALBERTI LTDA        196894              14022020REA000000000000000000000000001216                    00000000000000000000000                    00000015085011000199                     00
3410002300180A00000013301003 000000014675 7JERUSA ALBERTON ASSMANN       196756              14022020REA000000000000000000000000018839                    00000000000000000000000                    00000003893571000190                     00
3410002300181A00000010400307 000030000465 4EVANGELISTA LOPES DE SOUZA ME 196654              14022020REA000000000000000000000000007407                    00000000000000000000000                    00000008091527000180                     00
3410002300182A00000000100799 000000043058 7DEBORA CRISTINA FACINA        196558              14022020REA000000000000000000000000009430                    00000000000000000000000                    00000000041838847804                     00
3410002300183A00000003300216 000060017682 7MARIA NEUSA DE MORAIS         196704              14022020REA000000000000000000000000008332                    00000000000000000000000                    00000000031144999880                     00
3410002300184A00000003300216 000013003063 3LG DA SILVA MODAS ME          196611              14022020REA000000000000000000000000009348                    00000000000000000000000                    00000017055711000166                     00
3410002300185A00000013301588 000000019079 9ALTAIR VALENTIM SILVA         196811              14022020REA000000000000000000000000014101                    00000000000000000000000                    00000000006629134931                     00
3410002300186A00000026000001 000071128234 0RENATO LOPES DE PAULA         196823              14022020REA000000000000000000000000048391                    00000000000000000000000                    00000000002942683163                     00
3410002300187A00000008900003 000000202016 5MARCELO RIBEIRO FIORITE  CIA L196649              14022020REA000000000000000000000000013257                    00000000000000000000000                    00000066786146000112                     00
3410002300188A00000023703045 000000066454 5ARISMAR ARAUJO DE OLIVEIRA    196812              14022020REA000000000000000000000000002455                    00000000000000000000000                    00000000001443266558                     00
3410002300189A00000013301075 000000023635 7ANTONIO GILMAR COGNACO        196739              14022020REA000000000000000000000000035187                    00000000000000000000000                    00000000064684121968                     00
3410002300190A00000013301003 000000014242 5CM COMERCIO DE PECAS IMPLEMENT196847              14022020REA000000000000000000000000035331                    00000000000000000000000                    00000007043675000167                     00
3410002300191A00000013301003 000000014886 5FRANCIELA T DAROS PAPELARIA E 196537              14022020REA000000000000000000000000007469                    00000000000000000000000                    00000030682114000120                     00
3410002300192A00000013301003 000000004069 0R E CONFECCOES LTDA ME        196790              14022020REA000000000000000000000000010652                    00000000000000000000000                    00000019802468000128                     00
3410002300193A00000013301009 000000006377 0PAULO FERDINANDO FERREIRA     196791              14022020REA000000000000000000000000067373                    00000000000000000000000                    00000015726900000198                     00
3410002300194A00000010403052 000000000091 0DUARTE  VIANA LTDA            196634              14022020REA000000000000000000000000006751                    00000000000000000000000                    00000003258166000109                     00
3410002300195A00000023703327 000000005605 7STUDIO DA BELEZA LTDA         196786              14022020REA000000000000000000000000002456                    00000000000000000000000                    00000033734830000100                     00
3410002300196A00000010403872 000000000821 9H11 PNEUS E RODAS LTDA        196857              14022020REA000000000000000000000000008817                    00000000000000000000000                    00000023773801000195                     00
3410002300197A00000013301075 000000007971 5JULIA BORBA ROCHA ME          196866              14022020REA000000000000000000000000021881                    00000000000000000000000                    00000014775306000124                     00
3410002300198A00000023702113 000000035163 6SPORT CAR AUTO SOM E ACESSORIO196829              14022020REA000000000000000000000000012343                    00000000000000000000000                    00000003362659000186                     00
3410002300199A00000000102199 000000021107 9ORGANIZACAO FARMACEUTICA PEREI196858              14022020REA000000000000000000000000009801                    00000000000000000000000                    00000034960823000180                     00
3410002300200A00000010400762 001300052724 1SILVANA CORDEIRO DA SILVA     196644              14022020REA000000000000000000000000011888                    00000000000000000000000                    00000000006726673477                     00
3410002300201A00000013301003 000000014606 4ARTEFATOS DE CIMENTO LUNEL LTD196531              14022020REA000000000000000000000000035983                    00000000000000000000000                    00000009066203000155                     00
3410002300202A00000013301003 000000006904 3ALEX SALES QUEIROZ            196799              14022020REA000000000000000000000000030634                    00000000000000000000000                    00000000009634767931                     00
3410002300203A00000013301075 000000016886 6VALDIR ROLING E CIA LTDA      196830              14022020REA000000000000000000000000023000                    00000000000000000000000                    00000001941213000180                     00
3410002300204A00000010403309 001300001277 7MAURO LUIZ TOSTES             196638              14022020REA000000000000000000000000038793                    00000000000000000000000                    00000000042280915120                     00
3410002300205A00000000100048 000000161751 6RICARDO BASSANI               196417              14022020REA000000000000000000000000175398                    00000000000000000000000                    00000000099854872149                     00
3410002300206A00000010400615 000000021060 0NATALIA DE SOUZA FERREIRA     196414              14022020REA000000000000000000000000012572                    00000000000000000000000                    00000000002451579137                     00
3410002300207A00000000104883 000000112764 0RAIZA DA ROCHA TEIXEIRA       196432              14022020REA000000000000000000000000001384                    00000000000000000000000                    00000000004344810171                     00
3410002300208A00000013301075 000000009748 9PICO DA VILA LANCHES BAR      196573              14022020REA000000000000000000000000014442                    00000000000000000000000                    00000010412787000152                     00
3410002300209A00000013301003 000000009546 0FAVERO E BORTOLIN FISIOTERAPIA196746              14022020REA000000000000000000000000066137                    00000000000000000000000                    00000032415298000197                     00
3410002300210A00000023706685 000000000268 2FRANCISCO DAS CHAGAS TEIXEIRA 196871              14022020REA000000000000000000000000023990                    00000000000000000000000                    00000007951687000190                     00
3410002300211A00000000102194 000000006738 5ANDRE PERUGINI                196576              14022020REA000000000000000000000000008149                    00000000000000000000000                    00000000047995050682                     00
3410002300212A00000023701579 000000020790 0MERCIA MARIA FRAGA MOTA       196633              14022020REA000000000000000000000000022723                    00000000000000000000000                    00000005516137000117                     00
3410002300213A00000000400232 000000000417 0CLEAN LAVAGEM PROFISSIONAL LTD196727              14022020REA000000000000000000000000013782                    00000000000000000000000                    00000021487181000100                     00
3410002300214A00000042200037 000000580417 0CEARA DISTRIBUIDORA DE EQUIPAM196569              14022020REA000000000000000000000000010184                    00000000000000000000000                    00000029654959000122                     00
3410002300215A00000000100268 000000013536 4SOARES ZENATTI  ZENATTI LTDA  196553              14022020REA000000000000000000000000002522                    00000000000000000000000                    00000005808981000111                     00
3410002300216A00000000104992 000000012791 4SARA ALIENDRE DOS REIS LOPES  196891              14022020REA000000000000000000000000003924                    00000000000000000000000                    00000027913066000129                     00
3410002300217A00000003300225 000001301499 8ROGERIO CATHO ME              196443              14022020REA000000000000000000000000002590                    00000000000000000000000                    00000005782896000121                     00
3410002300218A00000013301075 000000029304 0NIVALDO MARQUES LAGUNA        196593              14022020REA000000000000000000000000010847                    00000000000000000000000                    00000028692830000146                     00
3410002300219A00000010400749 001300001341 7WHEDMA BARBOSA BEZERRA        196718              14022020REA000000000000000000000000007057                    00000000000000000000000                    00000000002177598311                     00
3410002300220A00000010400311 001300041234 4FERNANDA DA SILVA LUCCAS      196452              14022020REA000000000000000000000000011760                    00000000000000000000000                    00000000032621621830                     00
3410002300221A00000013301009 000000006108 5MARIANI DIAS                  196869              14022020REA000000000000000000000000014899                    00000000000000000000000                    00000027102728000180                     00
3410002300222A00000010400863 001300641746 3IZAEL DE LIMA RODRIGUES       196562              14022020REA000000000000000000000000004993                    00000000000000000000000                    00000000001510648143                     00
3410002300223A00000010402346 001300010860 9HUGO LEONARDO BULHOES DE ARAUJ196624              14022020REA000000000000000000000000034288                    00000000000000000000000                    00000000002341693466                     00
3410002300224A00000008500101 000001004496 5EVERTON MONTEIRO MARQUES      196574              14022020REA000000000000000000000000019037                    00000000000000000000000                    00000031656906000192                     00
3410002300225A00000010400749 000000000905 6FRANCISCO VALDIR CHAVES       196548              14022020REA000000000000000000000000030263                    00000000000000000000000                    00000023560519000120                     00
3410002300226A00000013301075 000000021812 0LAVACAO E BORRACHARIA DOIS IRM196426              14022020REA000000000000000000000000045883                    00000000000000000000000                    00000079817037000167                     00
3410002300227A00000007000026 000000061083 6SORAYA FROTA PEREIRA          196792              14022020REA000000000000000000000000023035                    00000000000000000000000                    00000000001421150107                     00
3410002300228A00000013301058 000000009045 0J A TEIXEIRA BARANCELLI RESTAU196832              14022020REA000000000000000000000000028765                    00000000000000000000000                    00000006143819000194                     00
3410002300229A00000023703118 000000012249 1AUTO POSTO MONTREAL VARGAS LTD196679              14022020REA000000000000000000000000040131                    00000000000000000000000                    00000005283897000121                     00
3410002300230A00000013301075 000000029377 6VERA MERIANE DE SOUZA FERREIRA196430              14022020REA000000000000000000000000017670                    00000000000000000000000                    00000029443933000135                     00
3410002300231A00000013301003 000000014545 9CENTRO DE FORMACAO DE CONDUTOR196800              14022020REA000000000000000000000000020231                    00000000000000000000000                    00000010575109000100                     00
3410002300232A00000013301668 000000006064 0L Z BRILHAR ECO PISCINAS EIREL196602              14022020REA000000000000000000000000010503                    00000000000000000000000                    00000023205574000100                     00
3410002300233A00000013301075 000000028644 3PATRICIA MARIA SALVADOR ME    196684              14022020REA000000000000000000000000008563                    00000000000000000000000                    00000033546377000108                     00
3410002300234A00000013301003 000000014879 2DORATI DOS SANTOS             196526              14022020REA000000000000000000000000020961                    00000000000000000000000                    00000000052310442968                     00
3410002300235A00000023706342 000000006083 6CENTER LOCACOES E CONSULTORIA 196747              14022020REA000000000000000000000000004397                    00000000000000000000000                    00000018728179000163                     00
3410002300236A00000013301075 000000029178 1SELIO JOSE DAS NEVES          196641              14022020REA000000000000000000000000007926                    00000000000000000000000                    00000032886702000100                     00
3410002300237A00000010401888 001300047067 1LUCAS BATISTA WEYNE           196848              14022020REA000000000000000000000000011195                    00000000000000000000000                    00000000060580913309                     00
3410002300238A00000023701230 000000051072 6MB COMERCIO DE PELICULAS EIREL196781              14022020REA000000000000000000000000046493                    00000000000000000000000                    00000012373561000115                     00
3410002300239A00000013301062 000000015112 2SOLANGI VITORETI BARANOSWKI   196444              14022020REA000000000000000000000000066422                    00000000000000000000000                    00000034320260000166                     00
3410002300240A00000000103570 000000025601 3SOUVIE COMERCIO INDUSTRIA IMPO196616              14022020REA000000000000000000000000059972                    00000000000000000000000                    00000012226852000180                     00
3410002300241A00000013301009 000000003356 1EVERSON CHIOCHETA E CIA       196457              14022020REA000000000000000000000000007595                    00000000000000000000000                    00000004203553000100                     00
3410002300242A00000013301503 000000004756 2JANETE LANG                   196681              14022020REA000000000000000000000000008753                    00000000000000000000000                    00000021132819000182                     00
3410002300243A00000013301009 000000009067 0ROSEMARI DE TOGNI ABITANTE E C196584              14022020REA000000000000000000000000002900                    00000000000000000000000                    00000000357741000124                     00
3410002300244A00000000104590 000000019460 3SILVA  OLIVEIRA MATERIAIS PARA196759              14022020REA000000000000000000000000008526                    00000000000000000000000                    00000016863856000120                     00
3410002300245A00000013301075 000000029523 0ONE ACADEMIA DE CONDICIONAMENT196470              14022020REA000000000000000000000000035903                    00000000000000000000000                    00000018556009000149                     00
3410002300246A00000013301003 000000015024 0ELIZANDRA DA SILVA            196722              14022020REA000000000000000000000000008408                    00000000000000000000000                    00000000003294406916                     00
3410002300247A00000013301075 000000020517 6IVANIR TEREZINHA RICARDO BAUMG196509              14022020REA000000000000000000000000021594                    00000000000000000000000                    00000017545367000193                     00
3410002300248A00000013301003 000000004340 0LOVENI SCHUG                  196767              14022020REA000000000000000000000000048123                    00000000000000000000000                    00000026896430000127                     00
3410002300249A00000013301003 000000009371 8SUPERVALE DISTRIBUIDORA DE PRO196516              14022020REA000000000000000000000000004419                    00000000000000000000000                    00000013146318000127                     00
3410002300250A00000003300299 000013002438 7GIGANTE DO BRAS VESTUARIO E AC196689              14022020REA000000000000000000000000006380                    00000000000000000000000                    00000031191906000164                     00
3410002300251A00000003300299 000013001569 5D B MACHADO  CIA LTDA         196761              14022020REA000000000000000000000000028665                    00000000000000000000000                    00000018979183000102                     00
3410002300252A00000003300299 000013001595 6DAIANE BOSCOLO MACHADO ME     196590              14022020REA000000000000000000000000014853                    00000000000000000000000                    00000015591136000190                     00
3410002300253A00000075603167 000000001325 0MARCIANA CUSTODIO DOS SANTOS  196801              14022020REA000000000000000000000000005421                    00000000000000000000000                    00000015049654000187                     00
3410002300254A00000013301033 000000014211 5S APOLINARIO OLIBONI E CIA    196603              14022020REA000000000000000000000000019450                    00000000000000000000000                    00000032743597000150                     00
3410002300255A00000023700461 000000010867 7SIMONE CRISTINA MILITZ        196495              14022020REA000000000000000000000000008740                    00000000000000000000000                    00000000028976616820                     00
3410002300256A00000013301609 000000027693 6MERCADO FERNANDES E SOUZA     196570              14022020REA000000000000000000000000010347                    00000000000000000000000                    00000029062121000140                     00
3410002300257A00000023701918 000000017151 4NATALIA PEREIRA FERNANDES 3988196506              14022020REA000000000000000000000000029977                    00000000000000000000000                    00000034589412000120                     00
3410002300258A00000013301009 000000009182 0ZANETTI E SCHWADE             196527              14022020REA000000000000000000000000014374                    00000000000000000000000                    00000001228198000128                     00
3410002300259A00000075603256 000000002823 1RODRIGO LUCAS DANTAS          196778              14022020REA000000000000000000000000029565                    00000000000000000000000                    00000027789955000126                     00
3410002300260A00000000101107 000000001333 1COMERCIAL BOMFIM ROSARIO LTDA 196728              14022020REA000000000000000000000000038849                    00000000000000000000000                    00000002293125000182                     00
3410002300261A00000000400051 000000026387 0ORLANDO CONCEICAO CRUZ        196748              14022020REA000000000000000000000000012481                    00000000000000000000000                    00000008329491000120                     00
3410002300262A00000023703014 000000015349 4VBM BAR EIRELI                196817              14022020REA000000000000000000000000040818                    00000000000000000000000                    00000026840333000112                     00
3410002300263A00000003300035 000013002960 1PENINHA RODAS E PNEUS LTDA    196535              14022020REA000000000000000000000000001964                    00000000000000000000000                    00000003417610000183                     00
3410002300264A00000010404759 001300001238 6CARLA ANNYELLE MELO DE SOUZA  196697              14022020REA000000000000000000000000031415                    00000000000000000000000                    00000000011702235408                     00
3410002300265A00000003304279 000001077936 5ALESSANDRO SILVA NERI         196522              14022020REA000000000000000000000000007860                    00000000000000000000000                    00000000041866932349                     00
3410002300266A00000013301003 000000015266 8MARCIA DE FATIMA CALGAROTTO CO196873              14022020REA000000000000000000000000014949                    00000000000000000000000                    00000010283209000163                     00
3410002300267A00000075605122 000000004517 9EDUARDO VIEIRA CONCEICAO PAIVA196471              14022020REA000000000000000000000000029775                    00000000000000000000000                    00000000010833201816                     00
3410002300268A00000013301003 000000009662 8VICTOR HUGO DE SOUZA DISTRIBUI196749              14022020REA000000000000000000000000021827                    00000000000000000000000                    00000032740457000129                     00
3410002300269A00000023706326 000000006804 7JOSE ALBERTO MARTINS NOVAIS BA196440              14022020REA000000000000000000000000026004                    00000000000000000000000                    00000026758357000127                     00
3410002300270A00000003303554 000013000683 0BELLA PETROPOLIS PADARIA E CON196554              14022020REA000000000000000000000000235275                    00000000000000000000000                    00000006949388000158                     00
3410002300271A00000000104206 000000017204 9CENTRO MEDICO DE RIBEIRAO PRET196629              14022020REA000000000000000000000000006095                    00000000000000000000000                    00000056014871000119                     00
3410002300272A00000013301075 000000029265 6DANTAS SAMARY COMERCIO AGRICOL196670              14022020REA000000000000000000000000035856                    00000000000000000000000                    00000010275685000132                     00
3410002300273A00000013301003 000000009906 6JB MATERIAIS ELETRICOS LTDA ME196479              14022020REA000000000000000000000000068486                    00000000000000000000000                    00000001965594000138                     00
3410002300274A00000023705474 000000003170 4PAPELARIA MANDU EIRELI        196559              14022020REA000000000000000000000000004225                    00000000000000000000000                    00000019480858000129                     00
3410002300275A00000013301593 000000029414 4VANDERLEI PINHEIRO            196735              14022020REA000000000000000000000000014463                    00000000000000000000000                    00000000000106326970                     00
3410002300276A00000023707139 000000005997 8T A COMERCIO VAREJISTA DE TELE196571              14022020REA000000000000000000000000006573                    00000000000000000000000                    00000008751872000101                     00
3410002300277A00000010404053 000000002535 0NELMA MORAIS DE AZEVEDO       196779              14022020REA000000000000000000000000021372                    00000000000000000000000                    00000000618825000174                     00
3410002300278A00000013301003 000000015308 7ANTONIO CARLOS DOS SANTOS O CO196504              14022020REA000000000000000000000000008717                    00000000000000000000000                    00000013239007000102                     00
3410002300279A00000023702619 000000033401 4PORTA DO CEU PAES E DOCES LTDA196751              14022020REA000000000000000000000000034680                    00000000000000000000000                    00000000972191000153                     00
3410002300280A00000008900006 000000502498 6YAVINI NOBREGA CANO 4848057981196433              14022020REA000000000000000000000000036133                    00000000000000000000000                    00000034833639000170                     00
3410002300281A00000013301075 000000029655 4LANCHONETE CLAUDETE LTDA      196702              14022020REA000000000000000000000000038964                    00000000000000000000000                    00000033145407000166                     00
3410002300282A00000003301229 000013000644 8LA NOTRE COUSINE LTDA         196505              14022020REA000000000000000000000000027451                    00000000000000000000000                    00000021675847000146                     00
3410002300283A00000013301075 000000029765 8MARILETE PAUL STEIN           196492              14022020REA000000000000000000000000020423                    00000000000000000000000                    00000019959471000150                     00
3410002300284A00000023702621 000000030652 5HIGIENOPOLIS ROTISSERIE E CONE196514              14022020REA000000000000000000000000049137                    00000000000000000000000                    00000011579530000152                     00
3410002300285A00000010403868 000003000308 8BATERIAS S N LTDA             196743              14022020REA000000000000000000000000045408                    00000000000000000000000                    00000007861844000176                     00
3410002300286A00000010400052 001300024858 0CRISLENE VIANA BARRETO BARROS 196892              14022020REA000000000000000000000000009778                    00000000000000000000000                    00000000011588647790                     00
3410002300287A00000010400036 001300216812 8IRANI BEZERRA DO NASCIMENTO   196418              14022020REA000000000000000000000000012000                    00000000000000000000000                    00000000087532670791                     00
3410002300288A00000023701749 000000004844 5MILENA DE FATIMA BARBIERI ORTI196445              14022020REA000000000000000000000000018149                    00000000000000000000000                    00000000029621300894                     00
3410002300289A00000013301078 000000029762 3SIDNEI DE OLIVEIRA LEAL       196782              14022020REA000000000000000000000000002259                    00000000000000000000000                    00000000084299576934                     00
3410002300290A00000003300091 000013003968 2JESIEL DE MELLO MATOS         196895              14022020REA000000000000000000000000001738                    00000000000000000000000                    00000022256137000144                     00
3410002300291A00000013301581 000000029825 5GILBERTO SMANIOTI             196587              14022020REA000000000000000000000000004797                    00000000000000000000000                    00000000003222482993                     00
3410002300292A00000000104346 000000020435 8DF AUTO CENTRO EIRELI         196846              14022020REA000000000000000000000000010467                    00000000000000000000000                    00000021102234000110                     00
3410002300293A00000013301003 000000015140 8DIANE PILONETTO               196612              14022020REA000000000000000000000000006306                    00000000000000000000000                    00000028241670000119                     00
3410002300294A00000013301075 000000011787 0MATHEUS BLASKOVSKI            196893              14022020REA000000000000000000000000005472                    00000000000000000000000                    00000000010872350908                     00
3410002300295A00000023706748 000000017759 8FERNANDO APARECIDO AFONSO     196532              14022020REA000000000000000000000000012814                    00000000000000000000000                    00000000003091229963                     00
3410002300296A00000000104992 000000012726 4GILMAR PEREIRA GLAGAU         196773              14022020REA000000000000000000000000026952                    00000000000000000000000                    00000000073015067168                     00
3410002300297A00000010400570 001300018690 4FRANCIELLI DOS SANTOS ROSA    196441              14022020REA000000000000000000000000007148                    00000000000000000000000                    00000000007631517932                     00
3410002300298A00000003300644 000013003066 9JULIANA MARIA DOS SANTOS ME   196813              14022020REA000000000000000000000000014400                    00000000000000000000000                    00000022455826000188                     00
3410002300299A00000003303064 000001088561 2ERIKA COSTA DOS SANTOS SOBRINH196605              14022020REA000000000000000000000000008743                    00000000000000000000000                    00000000017665220843                     00
3410002300300A00000023701992 000000041167 1CONFEITARIA E CONVENIENCIAS DO196854              14022020REA000000000000000000000000099068                    00000000000000000000000                    00000025370152000107                     00
3410002300301A00000000100066 000000116665 4JULIANA PATRICIA DA SILVA MONT196879              14022020REA000000000000000000000000013157                    00000000000000000000000                    00000000021653512865                     00
3410002300302A00000010400008 001300928337 0DORIMAR MARIA DOS SANTOS      196539              14022020REA000000000000000000000000003982                    00000000000000000000000                    00000000061041963149                     00
3410002300303A00000023702288 000000018544 2PEREIRA E FERNANDES RIO PRETO 196496              14022020REA000000000000000000000000031167                    00000000000000000000000                    00000001321441000158                     00
3410002300304A00000010400936 000300003212 7KATIA FERNANDA BAPTISTA 049489196486              14022020REA000000000000000000000000044406                    00000000000000000000000                    00000026225230000142                     00
3410002300305A00000075603125 000002130346 0SILVIO CESAR BIAZOTO          196808              14022020REA000000000000000000000000031439                    00000000000000000000000                    00000009330719000165                     00
3410002300306A00000010401464 001300015391 3EDSON FERREIRA DE ALMEIDA     196601              14022020REA000000000000000000000000006567                    00000000000000000000000                    00000000099242745120                     00
3410002300307A00000010404149 000300003429 7M M BARBOZA DROGARIA E PERFUMA196694              14022020REA000000000000000000000000001663                    00000000000000000000000                    00000032958943000118                     00
3410002300308A00000000103478 000000234597 8SILVESTRE AGROVETERINARIA LTDA196710              14022020REA000000000000000000000000025166                    00000000000000000000000                    00000007796880000101                     00
3410002300309A00000000104346 000000028820 9WNG COMUNICACAO VISUAL EIRELI 196855              14022020REA000000000000000000000000003424                    00000000000000000000000                    00000035059545000158                     00
3410002300310A00000013301075 000000012978 0LAURA GOLL                    196820              14022020REA000000000000000000000000002140                    00000000000000000000000                    00000000072814772953                     00
3410002300311A00000013301075 000000027620 0MARILEUSA JANETE LOPES DE SOUZ196625              14022020REA000000000000000000000000003390                    00000000000000000000000                    00000000001548898902                     00
3410002300312A00000013301620 000000006482 3VITORIA LIVRARIA E PAPELARIA L196613              14022020REA000000000000000000000000027300                    00000000000000000000000                    00000019005850000100                     00
3410002300313A00000010401739 001300030492 4JULIANE CHAVES FERREIRA       196768              14022020REA000000000000000000000000016662                    00000000000000000000000                    00000000004165356310                     00
3410002300314A00000013301009 000000009322 0FRANCIELE MANICA HOINATZ      196783              14022020REA000000000000000000000000001362                    00000000000000000000000                    00000025355303000158                     00
3410002300315A00000023702239 000000043613 5DANIEL GOMES DA COSTA         196744              14022020REA000000000000000000000000003168                    00000000000000000000000                    00000000002194967222                     00
3410002300316A00000023703431 000000025052 0GUARACIABA SOUZA SCRIBELK     196740              14022020REA000000000000000000000000008713                    00000000000000000000000                    00000000086395190725                     00
3410002300317A00000023703238 000000091504 1OTICA SANTA CHIARA LTDA       196483              14022020REA000000000000000000000000028776                    00000000000000000000000                    00000008038666000140                     00
3410002300318A00000013301003 000000015247 1MITRA DIOCESANA DE PARANAVAI  196842              14022020REA000000000000000000000000010746                    00000000000000000000000                    00000075476796002791                     00
3410002300319A00000000100022 000000165565 5SEMC INDUSTRIA E COMERCIO DE C196473              14022020REA000000000000000000000000043086                    00000000000000000000000                    00000015767505000153                     00
3410002300320A00000023702302 000000004100 9TRADICAO DISTRIBUIDORA DE PERS196468              14022020REA000000000000000000000000434688                    00000000000000000000000                    00000074534819000175                     00
3410002300321A00000000100799 000000052306 2BRUNO CATOFARONI MARTINUCCI   196460              14022020REA000000000000000000000000013429                    00000000000000000000000                    00000000036674103870                     00
3410002300322A00000013301003 000000015590 0TURCA BRASIL ALIMENTICIOS     196620              14022020REA000000000000000000000000001167                    00000000000000000000000                    00000031330249000199                     00
3410002300323A00000013301003 000000015386 9MARISETE ERHARDT              196528              14022020REA000000000000000000000000004668                    00000000000000000000000                    00000033805890000168                     00
3410002300324A00000010400037 000100039133 6JANAINA AGOSTINHO DE MELO     196818              14022020REA000000000000000000000000041930                    00000000000000000000000                    00000000001224481461                     00
3410002300325A00000074800913 000000011799 6STUDIO MAIS VIDA FISIOTERAPIA 196816              14022020REA000000000000000000000000018034                    00000000000000000000000                    00000034223092000190                     00
3410002300326A00000013301075 000000030127 2DAVI HINCKEL                  196517              14022020REA000000000000000000000000003248                    00000000000000000000000                    00000000056410565968                     00
3410002300327A00000013301075 000000030056 0JOSE MARCUS MARKOSCKI EPP     196533              14022020REA000000000000000000000000019462                    00000000000000000000000                    00000012904805000149                     00
3410002300328A00000013301075 000000009920 1SANTAS SAMARY COMERCIO AGRICOL196626              14022020REA000000000000000000000000048398                    00000000000000000000000                    00000010275685000213                     00
3410002300329A00000023701116 000000002135 0MARIA MARILENE MARTINS DE LIMA196763              14022020REA000000000000000000000000004333                    00000000000000000000000                    00000000043813631400                     00
3410002300330A00000013301075 000000010472 8MARCIONEI TOMAZELI BAR E MERCE196572              14022020REA000000000000000000000000008291                    00000000000000000000000                    00000076567957000186                     00
3410002300331A00000010404048 000300000693 6MOSAICO COMERCIAL E SERVICOS L196568              14022020REA000000000000000000000000007466                    00000000000000000000000                    00000061051942000193                     00
3410002300332A00000013301075 000000030136 1P2 HAMBURGUERIA E CHOPERIA    196852              14022020REA000000000000000000000000019327                    00000000000000000000000                    00000035001386000130                     00
3410002300333A00000074808043 000000052893 5RAFA CALCADOS LTDA            196839              14022020REA000000000000000000000000026598                    00000000000000000000000                    00000003490162000143                     00
3410002300334A00000023705268 000000005538 7JD COMERCIO DE COMBUSTIVEIS E 196566              14022020REA000000000000000000000000002966                    00000000000000000000000                    00000013175174000137                     00
3410002300335A00000013301075 000000016049 0AGROPECUARIA ESSER            196720              14022020REA000000000000000000000000012643                    00000000000000000000000                    00000022134785000128                     00
3410002300336A00000013301075 000000030197 3CRISTINA MAIARA K             196549              14022020REA000000000000000000000000062285                    00000000000000000000000                    00000000007432184933                     00
3410002300337A00000075604364 000000033333 6ELETROMOTOR IMPORTACOES E EXPO196698              14022020REA000000000000000000000000001398                    00000000000000000000000                    00000032317847000190                     00
3410002300338A00000010402183 001300554986 1ALINE RIBEIRO RODRIGUES       196419              14022020REA000000000000000000000000021249                    00000000000000000000000                    00000000093174209315                     00
3410002300339A00000000400039 000000040147 0CAMPOS  BATISTA LTDA          196637              14022020REA000000000000000000000000005264                    00000000000000000000000                    00000026409676000127                     00
3410002300340A00000013301003 000000015613 2S A LIMPEZAS AUTOMOTIVAS LTDA 196853              14022020REA000000000000000000000000005349                    00000000000000000000000                    00000010585740000190                     00
3410002300341A00000010402947 001300020483 4ANGELO ALBERTO ZANON          196685              14022020REA000000000000000000000000011380                    00000000000000000000000                    00000000031782013865                     00
3410002300342A00000000101498 000000008037 3JOYALE COMERCIO VAREJISTA DE A196755              14022020REA000000000000000000000000064127                    00000000000000000000000                    00000078872769000197                     00
3410002300343A00000075604321 000002000100 2MILTON PEDRO ROSA             196714              14022020REA000000000000000000000000016963                    00000000000000000000000                    00000000008144204867                     00
3410002300344A00000023700527 000000072300 2ASSOCIACAO RESIDENCIAL VILA DA196655              14022020REA000000000000000000000000118436                    00000000000000000000000                    00000014363673000110                     00
3410002300345A00000000101169 000000024404 0ITALO DO NASCIMENTO FARIAS ME 196585              14022020REA000000000000000000000000007611                    00000000000000000000000                    00000008314279000270                     00
3410002300346A00000013301581 000000023058 8DANUSA ALINE BROGNI           196884              14022020REA000000000000000000000000044249                    00000000000000000000000                    00000000005435845939                     00
3410002300347A00000013301075 000000008683 5BENTA LUCIANI MACHADO BRASILIE196582              14022020REA000000000000000000000000005696                    00000000000000000000000                    00000010291567000118                     00
3410002300348A00000013301075 000000028042 9GERTRUDES JUNCKES             196434              14022020REA000000000000000000000000015163                    00000000000000000000000                    00000031504482000140                     00
3410002300349A00000000103082 000000003108 9TS2 ATIVIDADES FISICAS ESPECIA196488              14022020REA000000000000000000000000025997                    00000000000000000000000                    00000033092250000158                     00
3410002300350A00000013301075 000000029314 8MARCIANO SYPRIANI             196442              14022020REA000000000000000000000000001459                    00000000000000000000000                    00000022698090000179                     00
3410002300351A00000000107007 000000011524 0MILANI E MACHADO PRODUCOES EIR196844              14022020REA000000000000000000000000135814                    00000000000000000000000                    00000035230279000184                     00
3410002300352A00000013301075 000000029384 9NER LANCHONETE LTDA ME        196896              14022020REA000000000000000000000000050783                    00000000000000000000000                    00000000937030000129                     00
3410002300353A00000000101409 000000024251 9FRANCISCO DAS CHAGAS ABREU CED196474              14022020REA000000000000000000000000020969                    00000000000000000000000                    00000000087373378315                     00
3410002300354A00000010401554 001300053168 2CHARLY LIRA DA SILVA          196497              14022020REA000000000000000000000000020111                    00000000000000000000000                    00000000006874485490                     00
